{
  "transactions": [
    {
      "hash": "0x5556c097f2cd9d2d3aa66bf87791cf4f7e5cd3355fc50ecc8c0bd30d7dc13e9c",
      "transactionType": "CALL",
      "contractName": null,
      "contractAddress": "0xe1b67949998f4a6c96a39633f9a52fb863e24afb",
      "function": "clearKOLs()",
      "arguments": [],
      "transaction": {
        "from": "0x0b3d62df33521cdce79e87586d7c1534b00ecad7",
        "to": "0xe1b67949998f4a6c96a39633f9a52fb863e24afb",
        "gas": "0x89d9",
        "value": "0x0",
        "input": "0x1540ceeb",
        "nonce": "0x3b",
        "chainId": "0x14a34"
      },
      "additionalContracts": [],
      "isFixedGasLimit": false
    },
    {
      "hash": "0x87aba2e58b7fff3da9527a8d89f47d7228663771c131862ff5b49c9d85815dbf",
      "transactionType": "CALL",
      "contractName": null,
      "contractAddress": "0xe1b67949998f4a6c96a39633f9a52fb863e24afb",
      "function": "addKOL(bytes32)",
      "arguments": [
        "0x54ee7dc2425581581c47469e5eb1f5eed4233fcbddf6c7592f1580aa348c89b4"
      ],
      "transaction": {
        "from": "0x0b3d62df33521cdce79e87586d7c1534b00ecad7",
        "to": "0xe1b67949998f4a6c96a39633f9a52fb863e24afb",
        "gas": "0x18902",
        "value": "0x0",
        "input": "0xf08fd6d654ee7dc2425581581c47469e5eb1f5eed4233fcbddf6c7592f1580aa348c89b4",
        "nonce": "0x3c",
        "chainId": "0x14a34"
      },
      "additionalContracts": [],
      "isFixedGasLimit": false
    },
    {
      "hash": "0x139a5bb2fe7e6faddc252f357cde32c4ba9048d585bb186596b1ee9186cc9f40",
      "transactionType": "CALL",
      "contractName": null,
      "contractAddress": "0xe1b67949998f4a6c96a39633f9a52fb863e24afb",
      "function": "addKOL(bytes32)",
      "arguments": [
        "0xfa4dffc9e824f830cf7d07fc7765ba1d7b344d923dd9083258189156f4932796"
      ],
      "transaction": {
        "from": "0x0b3d62df33521cdce79e87586d7c1534b00ecad7",
        "to": "0xe1b67949998f4a6c96a39633f9a52fb863e24afb",
        "gas": "0x116e9",
        "value": "0x0",
        "input": "0xf08fd6d6fa4dffc9e824f830cf7d07fc7765ba1d7b344d923dd9083258189156f4932796",
        "nonce": "0x3d",
        "chainId": "0x14a34"
      },
      "additionalContracts": [],
      "isFixedGasLimit": false
    },
    {
      "hash": "0x3234b15ec609bf2266cf903ea600ee6123b1e2f8f53566636366b66127217834",
      "transactionType": "CALL",
      "contractName": null,
      "contractAddress": "0xe1b67949998f4a6c96a39633f9a52fb863e24afb",
      "function": "addKOL(bytes32)",
      "arguments": [
        "0x33fd3a1a2f6025be5b2d3026fea143df162bb647c138b6d16851023d3c6518a7"
      ],
      "transaction": {
        "from": "0x0b3d62df33521cdce79e87586d7c1534b00ecad7",
        "to": "0xe1b67949998f4a6c96a39633f9a52fb863e24afb",
        "gas": "0x116e9",
        "value": "0x0",
        "input": "0xf08fd6d633fd3a1a2f6025be5b2d3026fea143df162bb647c138b6d16851023d3c6518a7",
        "nonce": "0x3e",
        "chainId": "0x14a34"
      },
      "additionalContracts": [],
      "isFixedGasLimit": false
    },
    {
      "hash": "0x017fef1466c7a303e720e958abcaae62e3c99c0665e026bf3d2f29be07e3668e",
      "transactionType": "CALL",
      "contractName": null,
      "contractAddress": "0xe1b67949998f4a6c96a39633f9a52fb863e24afb",
      "function": "addKOL(bytes32)",
      "arguments": [
        "0x4577b1186726aefd500341efa18943241fb9994e2e412da5cc558d28c6e52ddf"
      ],
      "transaction": {
        "from": "0x0b3d62df33521cdce79e87586d7c1534b00ecad7",
        "to": "0xe1b67949998f4a6c96a39633f9a52fb863e24afb",
        "gas": "0x116e9",
        "value": "0x0",
        "input": "0xf08fd6d64577b1186726aefd500341efa18943241fb9994e2e412da5cc558d28c6e52ddf",
        "nonce": "0x3f",
        "chainId": "0x14a34"
      },
      "additionalContracts": [],
      "isFixedGasLimit": false
    },
    {
      "hash": "0xd580b520b14e50a25474bf9c63b8487199b20a4e80ca6236fbb54eda4aeb1e5c",
      "transactionType": "CALL",
      "contractName": null,
      "contractAddress": "0xe1b67949998f4a6c96a39633f9a52fb863e24afb",
      "function": "addKOL(bytes32)",
      "arguments": [
        "0xcb43db8e11342c57139c6028ef0ca9ff0606bfa1218225ea9a0ccb7e42206362"
      ],
      "transaction": {
        "from": "0x0b3d62df33521cdce79e87586d7c1534b00ecad7",
        "to": "0xe1b67949998f4a6c96a39633f9a52fb863e24afb",
        "gas": "0x116e9",
        "value": "0x0",
        "input": "0xf08fd6d6cb43db8e11342c57139c6028ef0ca9ff0606bfa1218225ea9a0ccb7e42206362",
        "nonce": "0x40",
        "chainId": "0x14a34"
      },
      "additionalContracts": [],
      "isFixedGasLimit": false
    },
    {
      "hash": "0xbd1685c54aa542327e6280e2910776ae82b55adb7eb5199009ca33bc92590439",
      "transactionType": "CALL",
      "contractName": null,
      "contractAddress": "0xe1b67949998f4a6c96a39633f9a52fb863e24afb",
      "function": "addKOL(bytes32)",
      "arguments": [
        "0x673c01c3285d988aa04a27f5a542a4a304005c687956087d40ac2df25856dcdb"
      ],
      "transaction": {
        "from": "0x0b3d62df33521cdce79e87586d7c1534b00ecad7",
        "to": "0xe1b67949998f4a6c96a39633f9a52fb863e24afb",
        "gas": "0x12740",
        "value": "0x0",
        "input": "0xf08fd6d6673c01c3285d988aa04a27f5a542a4a304005c687956087d40ac2df25856dcdb",
        "nonce": "0x41",
        "chainId": "0x14a34"
      },
      "additionalContracts": [],
      "isFixedGasLimit": false
    },
    {
      "hash": "0x7fe30fac9587a1912c2440b2855d84adfbfab9f8965feeb3e35ce2c84de49cd8",
      "transactionType": "CALL",
      "contractName": null,
      "contractAddress": "0xe1b67949998f4a6c96a39633f9a52fb863e24afb",
      "function": "addKOL(bytes32)",
      "arguments": [
        "0x0524cdf42f7e19c1b50b880d9d343bed05b80f21f29ecec6cff29e9657177853"
      ],
      "transaction": {
        "from": "0x0b3d62df33521cdce79e87586d7c1534b00ecad7",
        "to": "0xe1b67949998f4a6c96a39633f9a52fb863e24afb",
        "gas": "0x116e9",
        "value": "0x0",
        "input": "0xf08fd6d60524cdf42f7e19c1b50b880d9d343bed05b80f21f29ecec6cff29e9657177853",
        "nonce": "0x42",
        "chainId": "0x14a34"
      },
      "additionalContracts": [],
      "isFixedGasLimit": false
    },
    {
      "hash": "0xdd696f29dc04fd52d5245994e8bb263902ed323f02990a3d3882128d95e82807",
      "transactionType": "CALL",
      "contractName": null,
      "contractAddress": "0xe1b67949998f4a6c96a39633f9a52fb863e24afb",
      "function": "addKOL(bytes32)",
      "arguments": [
        "0x48c5a7987a74c243ccde734e1679bd0ec85b03ad4b0d329815fa18a928bed2ca"
      ],
      "transaction": {
        "from": "0x0b3d62df33521cdce79e87586d7c1534b00ecad7",
        "to": "0xe1b67949998f4a6c96a39633f9a52fb863e24afb",
        "gas": "0x116e9",
        "value": "0x0",
        "input": "0xf08fd6d648c5a7987a74c243ccde734e1679bd0ec85b03ad4b0d329815fa18a928bed2ca",
        "nonce": "0x43",
        "chainId": "0x14a34"
      },
      "additionalContracts": [],
      "isFixedGasLimit": false
    },
    {
      "hash": "0x3d801f0bffdc0835c5b02ec924122dcf5e2fd9ec0bd4a95dd169123c0347b709",
      "transactionType": "CALL",
      "contractName": null,
      "contractAddress": "0xe1b67949998f4a6c96a39633f9a52fb863e24afb",
      "function": "addKOL(bytes32)",
      "arguments": [
        "0xf62eed8c614d9af05170cfd5366e70ce2b5b581277ed9bda90ee06ec1c0ac70b"
      ],
      "transaction": {
        "from": "0x0b3d62df33521cdce79e87586d7c1534b00ecad7",
        "to": "0xe1b67949998f4a6c96a39633f9a52fb863e24afb",
        "gas": "0x116e9",
        "value": "0x0",
        "input": "0xf08fd6d6f62eed8c614d9af05170cfd5366e70ce2b5b581277ed9bda90ee06ec1c0ac70b",
        "nonce": "0x44",
        "chainId": "0x14a34"
      },
      "additionalContracts": [],
      "isFixedGasLimit": false
    },
    {
      "hash": "0x2bb12b660851a7be1f27dd88e18b45e1f67ec9dd61e4ca349e413fab9340d5ce",
      "transactionType": "CALL",
      "contractName": null,
      "contractAddress": "0xe1b67949998f4a6c96a39633f9a52fb863e24afb",
      "function": "addKOL(bytes32)",
      "arguments": [
        "0x1607be6baa59b952f720dc10f894f0fb97723aa12c72c2f925dfbd8f301ea770"
      ],
      "transaction": {
        "from": "0x0b3d62df33521cdce79e87586d7c1534b00ecad7",
        "to": "0xe1b67949998f4a6c96a39633f9a52fb863e24afb",
        "gas": "0x116e9",
        "value": "0x0",
        "input": "0xf08fd6d61607be6baa59b952f720dc10f894f0fb97723aa12c72c2f925dfbd8f301ea770",
        "nonce": "0x45",
        "chainId": "0x14a34"
      },
      "additionalContracts": [],
      "isFixedGasLimit": false
    },
    {
      "hash": "0xe982daff8e9c767770bb65d407ecc9cc22f4e15ccc82d1ac4266977dcee7bc1e",
      "transactionType": "CALL",
      "contractName": null,
      "contractAddress": "0xe1b67949998f4a6c96a39633f9a52fb863e24afb",
      "function": "addKOL(bytes32)",
      "arguments": [
        "0xc6efb078ba9e17a714af044d45caa889df54c72db5a8f519a48117964c45e811"
      ],
      "transaction": {
        "from": "0x0b3d62df33521cdce79e87586d7c1534b00ecad7",
        "to": "0xe1b67949998f4a6c96a39633f9a52fb863e24afb",
        "gas": "0x116e9",
        "value": "0x0",
        "input": "0xf08fd6d6c6efb078ba9e17a714af044d45caa889df54c72db5a8f519a48117964c45e811",
        "nonce": "0x46",
        "chainId": "0x14a34"
      },
      "additionalContracts": [],
      "isFixedGasLimit": false
    },
    {
      "hash": "0xa8c238596530ef937f0cd755b367823ae615b976aac94666eda37862a7e2aa2d",
      "transactionType": "CALL",
      "contractName": null,
      "contractAddress": "0xe1b67949998f4a6c96a39633f9a52fb863e24afb",
      "function": "addKOL(bytes32)",
      "arguments": [
        "0xbcf86f88c85a4d7c8956da3d72aa06352a87f16a97cd2c9897a07492f92a6ad2"
      ],
      "transaction": {
        "from": "0x0b3d62df33521cdce79e87586d7c1534b00ecad7",
        "to": "0xe1b67949998f4a6c96a39633f9a52fb863e24afb",
        "gas": "0x116e9",
        "value": "0x0",
        "input": "0xf08fd6d6bcf86f88c85a4d7c8956da3d72aa06352a87f16a97cd2c9897a07492f92a6ad2",
        "nonce": "0x47",
        "chainId": "0x14a34"
      },
      "additionalContracts": [],
      "isFixedGasLimit": false
    },
    {
      "hash": "0x7c005904fb857c8bb5226afcf7c3ca2a667dd7c5675516cd853a3d2abca4e7ec",
      "transactionType": "CALL",
      "contractName": null,
      "contractAddress": "0xe1b67949998f4a6c96a39633f9a52fb863e24afb",
      "function": "addKOL(bytes32)",
      "arguments": [
        "0x6dc2f619db0779da93991f96b7d19da693074782b6575cd6617f98bb4ff77bdc"
      ],
      "transaction": {
        "from": "0x0b3d62df33521cdce79e87586d7c1534b00ecad7",
        "to": "0xe1b67949998f4a6c96a39633f9a52fb863e24afb",
        "gas": "0x116e9",
        "value": "0x0",
        "input": "0xf08fd6d66dc2f619db0779da93991f96b7d19da693074782b6575cd6617f98bb4ff77bdc",
        "nonce": "0x48",
        "chainId": "0x14a34"
      },
      "additionalContracts": [],
      "isFixedGasLimit": false
    },
    {
      "hash": "0xf2678b286f631e0fc03b82d3cd845b5f9465ff00593924dc780bfbc69dc058e0",
      "transactionType": "CALL",
      "contractName": null,
      "contractAddress": "0xe1b67949998f4a6c96a39633f9a52fb863e24afb",
      "function": "addKOL(bytes32)",
      "arguments": [
        "0x89a423337cdbf4041d1f104772e9b3b58f5c0141b08227b35aab83cab7e0e1ed"
      ],
      "transaction": {
        "from": "0x0b3d62df33521cdce79e87586d7c1534b00ecad7",
        "to": "0xe1b67949998f4a6c96a39633f9a52fb863e24afb",
        "gas": "0x116e9",
        "value": "0x0",
        "input": "0xf08fd6d689a423337cdbf4041d1f104772e9b3b58f5c0141b08227b35aab83cab7e0e1ed",
        "nonce": "0x49",
        "chainId": "0x14a34"
      },
      "additionalContracts": [],
      "isFixedGasLimit": false
    },
    {
      "hash": "0x5c8d5fb82c9bfb48ce3dc5ae35c37195e9ed72fc3f93908b4bf3fb6ab73e3c01",
      "transactionType": "CALL",
      "contractName": null,
      "contractAddress": "0xe1b67949998f4a6c96a39633f9a52fb863e24afb",
      "function": "addKOL(bytes32)",
      "arguments": [
        "0xdbbb309b2d1e68f542ca8002db4910bef497c5ad9e7e7c1168159960dd05d2e7"
      ],
      "transaction": {
        "from": "0x0b3d62df33521cdce79e87586d7c1534b00ecad7",
        "to": "0xe1b67949998f4a6c96a39633f9a52fb863e24afb",
        "gas": "0x116e9",
        "value": "0x0",
        "input": "0xf08fd6d6dbbb309b2d1e68f542ca8002db4910bef497c5ad9e7e7c1168159960dd05d2e7",
        "nonce": "0x4a",
        "chainId": "0x14a34"
      },
      "additionalContracts": [],
      "isFixedGasLimit": false
    }
  ],
  "receipts": [
    {
      "status": "0x1",
      "cumulativeGasUsed": "0x6cd9de",
      "logs": [],
      "logsBloom": "0x00000000000000000000000000000000000000000000000000000000000000000000000000000000000000000000000000000000000000000000000000000000000000000000000000000000000000000000000000000000000000000000000000000000000000000000000000000000000000000000000000000000000000000000000000000000000000000000000000000000000000000000000000000000000000000000000000000000000000000000000000000000000000000000000000000000000000000000000000000000000000000000000000000000000000000000000000000000000000000000000000000000000000000000000000000000",
      "type": "0x2",
      "transactionHash": "0x5556c097f2cd9d2d3aa66bf87791cf4f7e5cd3355fc50ecc8c0bd30d7dc13e9c",
      "transactionIndex": "0x42",
      "blockHash": "0x8ae7d3832c7fe46064b7023c2428043e12808990f28fe5aab5a6c23722ab707d",
      "blockNumber": "0x1ef3362",
      "gasUsed": "0x63ce",
      "effectiveGasPrice": "0xf4290",
      "from": "0x0b3d62df33521cdce79e87586d7c1534b00ecad7",
      "to": "0xe1b67949998f4a6c96a39633f9a52fb863e24afb",
      "contractAddress": null,
      "l1BaseFeeScalar": "0x44d",
      "l1BlobBaseFee": "0x1",
      "l1BlobBaseFeeScalar": "0xa118b",
      "l1Fee": "0x50",
      "l1GasPrice": "0x8",
      "l1GasUsed": "0x640"
    },
    {
      "status": "0x1",
      "cumulativeGasUsed": "0x5908d",
      "logs": [],
      "logsBloom": "0x00000000000000000000000000000000000000000000000000000000000000000000000000000000000000000000000000000000000000000000000000000000000000000000000000000000000000000000000000000000000000000000000000000000000000000000000000000000000000000000000000000000000000000000000000000000000000000000000000000000000000000000000000000000000000000000000000000000000000000000000000000000000000000000000000000000000000000000000000000000000000000000000000000000000000000000000000000000000000000000000000000000000000000000000000000000",
      "type": "0x2",
      "transactionHash": "0x87aba2e58b7fff3da9527a8d89f47d7228663771c131862ff5b49c9d85815dbf",
      "transactionIndex": "0x7",
      "blockHash": "0x0461df317f39445b322bdbc323d4ff5c57cfa4caad839392f45275e660f7d842",
      "blockNumber": "0x1ef3363",
      "gasUsed": "0x10cba",
      "effectiveGasPrice": "0xf4290",
      "from": "0x0b3d62df33521cdce79e87586d7c1534b00ecad7",
      "to": "0xe1b67949998f4a6c96a39633f9a52fb863e24afb",
      "contractAddress": null,
      "l1BaseFeeScalar": "0x44d",
      "l1BlobBaseFee": "0x1",
      "l1BlobBaseFeeScalar": "0xa118b",
      "l1Fee": "0x50",
      "l1GasPrice": "0x8",
      "l1GasUsed": "0x640"
    },
    {
      "status": "0x1",
      "cumulativeGasUsed": "0x78691",
      "logs": [],
      "logsBloom": "0x00000000000000000000000000000000000000000000000000000000000000000000000000000000000000000000000000000000000000000000000000000000000000000000000000000000000000000000000000000000000000000000000000000000000000000000000000000000000000000000000000000000000000000000000000000000000000000000000000000000000000000000000000000000000000000000000000000000000000000000000000000000000000000000000000000000000000000000000000000000000000000000000000000000000000000000000000000000000000000000000000000000000000000000000000000000",
      "type": "0x2",
      "transactionHash": "0x139a5bb2fe7e6faddc252f357cde32c4ba9048d585bb186596b1ee9186cc9f40",
      "transactionIndex": "0xa",
      "blockHash": "0x0461df317f39445b322bdbc323d4ff5c57cfa4caad839392f45275e660f7d842",
      "blockNumber": "0x1ef3363",
      "gasUsed": "0xc9ee",
      "effectiveGasPrice": "0xf4290",
      "from": "0x0b3d62df33521cdce79e87586d7c1534b00ecad7",
      "to": "0xe1b67949998f4a6c96a39633f9a52fb863e24afb",
      "contractAddress": null,
      "l1BaseFeeScalar": "0x44d",
      "l1BlobBaseFee": "0x1",
      "l1BlobBaseFeeScalar": "0xa118b",
      "l1Fee": "0x50",
      "l1GasPrice": "0x8",
      "l1GasUsed": "0x640"
    },
    {
      "status": "0x1",
      "cumulativeGasUsed": "0x8f174",
      "logs": [],
      "logsBloom": "0x00000000000000000000000000000000000000000000000000000000000000000000000000000000000000000000000000000000000000000000000000000000000000000000000000000000000000000000000000000000000000000000000000000000000000000000000000000000000000000000000000000000000000000000000000000000000000000000000000000000000000000000000000000000000000000000000000000000000000000000000000000000000000000000000000000000000000000000000000000000000000000000000000000000000000000000000000000000000000000000000000000000000000000000000000000000",
      "type": "0x2",
      "transactionHash": "0x3234b15ec609bf2266cf903ea600ee6123b1e2f8f53566636366b66127217834",
      "transactionIndex": "0xc",
      "blockHash": "0x0461df317f39445b322bdbc323d4ff5c57cfa4caad839392f45275e660f7d842",
      "blockNumber": "0x1ef3363",
      "gasUsed": "0xc9ee",
      "effectiveGasPrice": "0xf4290",
      "from": "0x0b3d62df33521cdce79e87586d7c1534b00ecad7",
      "to": "0xe1b67949998f4a6c96a39633f9a52fb863e24afb",
      "contractAddress": null,
      "l1BaseFeeScalar": "0x44d",
      "l1BlobBaseFee": "0x1",
      "l1BlobBaseFeeScalar": "0xa118b",
      "l1Fee": "0x50",
      "l1GasPrice": "0x8",
      "l1GasUsed": "0x640"
    },
    {
      "status": "0x1",
      "cumulativeGasUsed": "0x9bb62",
      "logs": [],
      "logsBloom": "0x00000000000000000000000000000000000000000000000000000000000000000000000000000000000000000000000000000000000000000000000000000000000000000000000000000000000000000000000000000000000000000000000000000000000000000000000000000000000000000000000000000000000000000000000000000000000000000000000000000000000000000000000000000000000000000000000000000000000000000000000000000000000000000000000000000000000000000000000000000000000000000000000000000000000000000000000000000000000000000000000000000000000000000000000000000000",
      "type": "0x2",
      "transactionHash": "0x017fef1466c7a303e720e958abcaae62e3c99c0665e026bf3d2f29be07e3668e",
      "transactionIndex": "0xd",
      "blockHash": "0x0461df317f39445b322bdbc323d4ff5c57cfa4caad839392f45275e660f7d842",
      "blockNumber": "0x1ef3363",
      "gasUsed": "0xc9ee",
      "effectiveGasPrice": "0xf4290",
      "from": "0x0b3d62df33521cdce79e87586d7c1534b00ecad7",
      "to": "0xe1b67949998f4a6c96a39633f9a52fb863e24afb",
      "contractAddress": null,
      "l1BaseFeeScalar": "0x44d",
      "l1BlobBaseFee": "0x1",
      "l1BlobBaseFeeScalar": "0xa118b",
      "l1Fee": "0x50",
      "l1GasPrice": "0x8",
      "l1GasUsed": "0x640"
    },
    {
      "status": "0x1",
      "cumulativeGasUsed": "0xa8550",
      "logs": [],
      "logsBloom": "0x00000000000000000000000000000000000000000000000000000000000000000000000000000000000000000000000000000000000000000000000000000000000000000000000000000000000000000000000000000000000000000000000000000000000000000000000000000000000000000000000000000000000000000000000000000000000000000000000000000000000000000000000000000000000000000000000000000000000000000000000000000000000000000000000000000000000000000000000000000000000000000000000000000000000000000000000000000000000000000000000000000000000000000000000000000000",
      "type": "0x2",
      "transactionHash": "0xd580b520b14e50a25474bf9c63b8487199b20a4e80ca6236fbb54eda4aeb1e5c",
      "transactionIndex": "0xe",
      "blockHash": "0x0461df317f39445b322bdbc323d4ff5c57cfa4caad839392f45275e660f7d842",
      "blockNumber": "0x1ef3363",
      "gasUsed": "0xc9ee",
      "effectiveGasPrice": "0xf4290",
      "from": "0x0b3d62df33521cdce79e87586d7c1534b00ecad7",
      "to": "0xe1b67949998f4a6c96a39633f9a52fb863e24afb",
      "contractAddress": null,
      "l1BaseFeeScalar": "0x44d",
      "l1BlobBaseFee": "0x1",
      "l1BlobBaseFeeScalar": "0xa118b",
      "l1Fee": "0x50",
      "l1GasPrice": "0x8",
      "l1GasUsed": "0x640"
    },
    {
      "status": "0x1",
      "cumulativeGasUsed": "0xb4f32",
      "logs": [],
      "logsBloom": "0x00000000000000000000000000000000000000000000000000000000000000000000000000000000000000000000000000000000000000000000000000000000000000000000000000000000000000000000000000000000000000000000000000000000000000000000000000000000000000000000000000000000000000000000000000000000000000000000000000000000000000000000000000000000000000000000000000000000000000000000000000000000000000000000000000000000000000000000000000000000000000000000000000000000000000000000000000000000000000000000000000000000000000000000000000000000",
      "type": "0x2",
      "transactionHash": "0xbd1685c54aa542327e6280e2910776ae82b55adb7eb5199009ca33bc92590439",
      "transactionIndex": "0xf",
      "blockHash": "0x0461df317f39445b322bdbc323d4ff5c57cfa4caad839392f45275e660f7d842",
      "blockNumber": "0x1ef3363",
      "gasUsed": "0xc9e2",
      "effectiveGasPrice": "0xf4290",
      "from": "0x0b3d62df33521cdce79e87586d7c1534b00ecad7",
      "to": "0xe1b67949998f4a6c96a39633f9a52fb863e24afb",
      "contractAddress": null,
      "l1BaseFeeScalar": "0x44d",
      "l1BlobBaseFee": "0x1",
      "l1BlobBaseFeeScalar": "0xa118b",
      "l1Fee": "0x50",
      "l1GasPrice": "0x8",
      "l1GasUsed": "0x640"
    },
    {
      "status": "0x1",
      "cumulativeGasUsed": "0xcba21",
      "logs": [],
      "logsBloom": "0x00000000000000000000000000000000000000000000000000000000000000000000000000000000000000000000000000000000000000000000000000000000000000000000000000000000000000000000000000000000000000000000000000000000000000000000000000000000000000000000000000000000000000000000000000000000000000000000000000000000000000000000000000000000000000000000000000000000000000000000000000000000000000000000000000000000000000000000000000000000000000000000000000000000000000000000000000000000000000000000000000000000000000000000000000000000",
      "type": "0x2",
      "transactionHash": "0x7fe30fac9587a1912c2440b2855d84adfbfab9f8965feeb3e35ce2c84de49cd8",
      "transactionIndex": "0x11",
      "blockHash": "0x0461df317f39445b322bdbc323d4ff5c57cfa4caad839392f45275e660f7d842",
      "blockNumber": "0x1ef3363",
      "gasUsed": "0xc9ee",
      "effectiveGasPrice": "0xf4290",
      "from": "0x0b3d62df33521cdce79e87586d7c1534b00ecad7",
      "to": "0xe1b67949998f4a6c96a39633f9a52fb863e24afb",
      "contractAddress": null,
      "l1BaseFeeScalar": "0x44d",
      "l1BlobBaseFee": "0x1",
      "l1BlobBaseFeeScalar": "0xa118b",
      "l1Fee": "0x50",
      "l1GasPrice": "0x8",
      "l1GasUsed": "0x640"
    },
    {
      "status": "0x1",
      "cumulativeGasUsed": "0x109dd0",
      "logs": [],
      "logsBloom": "0x00000000000000000000000000000000000000000000000000000000000000000000000000000000000000000000000000000000000000000000000000000000000000000000000000000000000000000000000000000000000000000000000000000000000000000000000000000000000000000000000000000000000000000000000000000000000000000000000000000000000000000000000000000000000000000000000000000000000000000000000000000000000000000000000000000000000000000000000000000000000000000000000000000000000000000000000000000000000000000000000000000000000000000000000000000000",
      "type": "0x2",
      "transactionHash": "0xdd696f29dc04fd52d5245994e8bb263902ed323f02990a3d3882128d95e82807",
      "transactionIndex": "0x17",
      "blockHash": "0x9d599c85cb78a56c22d9095c1c9bd7fe347f2155ea6f486a030e3cf7cd7636f0",
      "blockNumber": "0x1ef3363",
      "gasUsed": "0xc9ee",
      "effectiveGasPrice": "0xf4290",
      "from": "0x0b3d62df33521cdce79e87586d7c1534b00ecad7",
      "to": "0xe1b67949998f4a6c96a39633f9a52fb863e24afb",
      "contractAddress": null,
      "l1BaseFeeScalar": "0x44d",
      "l1BlobBaseFee": "0x1",
      "l1BlobBaseFeeScalar": "0xa118b",
      "l1Fee": "0x6a",
      "l1GasPrice": "0x8",
      "l1GasUsed": "0x640"
    },
    {
      "status": "0x1",
      "cumulativeGasUsed": "0x15eede",
      "logs": [],
      "logsBloom": "0x00000000000000000000000000000000000000000000000000000000000000000000000000000000000000000000000000000000000000000000000000000000000000000000000000000000000000000000000000000000000000000000000000000000000000000000000000000000000000000000000000000000000000000000000000000000000000000000000000000000000000000000000000000000000000000000000000000000000000000000000000000000000000000000000000000000000000000000000000000000000000000000000000000000000000000000000000000000000000000000000000000000000000000000000000000000",
      "type": "0x2",
      "transactionHash": "0x3d801f0bffdc0835c5b02ec924122dcf5e2fd9ec0bd4a95dd169123c0347b709",
      "transactionIndex": "0x19",
      "blockHash": "0x9d599c85cb78a56c22d9095c1c9bd7fe347f2155ea6f486a030e3cf7cd7636f0",
      "blockNumber": "0x1ef3363",
      "gasUsed": "0xc9ee",
      "effectiveGasPrice": "0xf4290",
      "from": "0x0b3d62df33521cdce79e87586d7c1534b00ecad7",
      "to": "0xe1b67949998f4a6c96a39633f9a52fb863e24afb",
      "contractAddress": null,
      "l1BaseFeeScalar": "0x44d",
      "l1BlobBaseFee": "0x1",
      "l1BlobBaseFeeScalar": "0xa118b",
      "l1Fee": "0x6a",
      "l1GasPrice": "0x8",
      "l1GasUsed": "0x640"
    },
    {
      "status": "0x1",
      "cumulativeGasUsed": "0x16b8cc",
      "logs": [],
      "logsBloom": "0x00000000000000000000000000000000000000000000000000000000000000000000000000000000000000000000000000000000000000000000000000000000000000000000000000000000000000000000000000000000000000000000000000000000000000000000000000000000000000000000000000000000000000000000000000000000000000000000000000000000000000000000000000000000000000000000000000000000000000000000000000000000000000000000000000000000000000000000000000000000000000000000000000000000000000000000000000000000000000000000000000000000000000000000000000000000",
      "type": "0x2",
      "transactionHash": "0x2bb12b660851a7be1f27dd88e18b45e1f67ec9dd61e4ca349e413fab9340d5ce",
      "transactionIndex": "0x1a",
      "blockHash": "0x9d599c85cb78a56c22d9095c1c9bd7fe347f2155ea6f486a030e3cf7cd7636f0",
      "blockNumber": "0x1ef3363",
      "gasUsed": "0xc9ee",
      "effectiveGasPrice": "0xf4290",
      "from": "0x0b3d62df33521cdce79e87586d7c1534b00ecad7",
      "to": "0xe1b67949998f4a6c96a39633f9a52fb863e24afb",
      "contractAddress": null,
      "l1BaseFeeScalar": "0x44d",
      "l1BlobBaseFee": "0x1",
      "l1BlobBaseFeeScalar": "0xa118b",
      "l1Fee": "0x6a",
      "l1GasPrice": "0x8",
      "l1GasUsed": "0x640"
    },
    {
      "status": "0x1",
      "cumulativeGasUsed": "0x1782ba",
      "logs": [],
      "logsBloom": "0x00000000000000000000000000000000000000000000000000000000000000000000000000000000000000000000000000000000000000000000000000000000000000000000000000000000000000000000000000000000000000000000000000000000000000000000000000000000000000000000000000000000000000000000000000000000000000000000000000000000000000000000000000000000000000000000000000000000000000000000000000000000000000000000000000000000000000000000000000000000000000000000000000000000000000000000000000000000000000000000000000000000000000000000000000000000",
      "type": "0x2",
      "transactionHash": "0xe982daff8e9c767770bb65d407ecc9cc22f4e15ccc82d1ac4266977dcee7bc1e",
      "transactionIndex": "0x1b",
      "blockHash": "0x9d599c85cb78a56c22d9095c1c9bd7fe347f2155ea6f486a030e3cf7cd7636f0",
      "blockNumber": "0x1ef3363",
      "gasUsed": "0xc9ee",
      "effectiveGasPrice": "0xf4290",
      "from": "0x0b3d62df33521cdce79e87586d7c1534b00ecad7",
      "to": "0xe1b67949998f4a6c96a39633f9a52fb863e24afb",
      "contractAddress": null,
      "l1BaseFeeScalar": "0x44d",
      "l1BlobBaseFee": "0x1",
      "l1BlobBaseFeeScalar": "0xa118b",
      "l1Fee": "0x6a",
      "l1GasPrice": "0x8",
      "l1GasUsed": "0x640"
    },
    {
      "status": "0x1",
      "cumulativeGasUsed": "0x184ca8",
      "logs": [],
      "logsBloom": "0x00000000000000000000000000000000000000000000000000000000000000000000000000000000000000000000000000000000000000000000000000000000000000000000000000000000000000000000000000000000000000000000000000000000000000000000000000000000000000000000000000000000000000000000000000000000000000000000000000000000000000000000000000000000000000000000000000000000000000000000000000000000000000000000000000000000000000000000000000000000000000000000000000000000000000000000000000000000000000000000000000000000000000000000000000000000",
      "type": "0x2",
      "transactionHash": "0xa8c238596530ef937f0cd755b367823ae615b976aac94666eda37862a7e2aa2d",
      "transactionIndex": "0x1c",
      "blockHash": "0x9d599c85cb78a56c22d9095c1c9bd7fe347f2155ea6f486a030e3cf7cd7636f0",
      "blockNumber": "0x1ef3363",
      "gasUsed": "0xc9ee",
      "effectiveGasPrice": "0xf4290",
      "from": "0x0b3d62df33521cdce79e87586d7c1534b00ecad7",
      "to": "0xe1b67949998f4a6c96a39633f9a52fb863e24afb",
      "contractAddress": null,
      "l1BaseFeeScalar": "0x44d",
      "l1BlobBaseFee": "0x1",
      "l1BlobBaseFeeScalar": "0xa118b",
      "l1Fee": "0x6a",
      "l1GasPrice": "0x8",
      "l1GasUsed": "0x640"
    },
    {
      "status": "0x1",
      "cumulativeGasUsed": "0x191696",
      "logs": [],
      "logsBloom": "0x00000000000000000000000000000000000000000000000000000000000000000000000000000000000000000000000000000000000000000000000000000000000000000000000000000000000000000000000000000000000000000000000000000000000000000000000000000000000000000000000000000000000000000000000000000000000000000000000000000000000000000000000000000000000000000000000000000000000000000000000000000000000000000000000000000000000000000000000000000000000000000000000000000000000000000000000000000000000000000000000000000000000000000000000000000000",
      "type": "0x2",
      "transactionHash": "0x7c005904fb857c8bb5226afcf7c3ca2a667dd7c5675516cd853a3d2abca4e7ec",
      "transactionIndex": "0x1d",
      "blockHash": "0x9d599c85cb78a56c22d9095c1c9bd7fe347f2155ea6f486a030e3cf7cd7636f0",
      "blockNumber": "0x1ef3363",
      "gasUsed": "0xc9ee",
      "effectiveGasPrice": "0xf4290",
      "from": "0x0b3d62df33521cdce79e87586d7c1534b00ecad7",
      "to": "0xe1b67949998f4a6c96a39633f9a52fb863e24afb",
      "contractAddress": null,
      "l1BaseFeeScalar": "0x44d",
      "l1BlobBaseFee": "0x1",
      "l1BlobBaseFeeScalar": "0xa118b",
      "l1Fee": "0x6a",
      "l1GasPrice": "0x8",
      "l1GasUsed": "0x640"
    },
    {
      "status": "0x1",
      "cumulativeGasUsed": "0x19e084",
      "logs": [],
      "logsBloom": "0x00000000000000000000000000000000000000000000000000000000000000000000000000000000000000000000000000000000000000000000000000000000000000000000000000000000000000000000000000000000000000000000000000000000000000000000000000000000000000000000000000000000000000000000000000000000000000000000000000000000000000000000000000000000000000000000000000000000000000000000000000000000000000000000000000000000000000000000000000000000000000000000000000000000000000000000000000000000000000000000000000000000000000000000000000000000",
      "type": "0x2",
      "transactionHash": "0xf2678b286f631e0fc03b82d3cd845b5f9465ff00593924dc780bfbc69dc058e0",
      "transactionIndex": "0x1e",
      "blockHash": "0x9d599c85cb78a56c22d9095c1c9bd7fe347f2155ea6f486a030e3cf7cd7636f0",
      "blockNumber": "0x1ef3363",
      "gasUsed": "0xc9ee",
      "effectiveGasPrice": "0xf4290",
      "from": "0x0b3d62df33521cdce79e87586d7c1534b00ecad7",
      "to": "0xe1b67949998f4a6c96a39633f9a52fb863e24afb",
      "contractAddress": null,
      "l1BaseFeeScalar": "0x44d",
      "l1BlobBaseFee": "0x1",
      "l1BlobBaseFeeScalar": "0xa118b",
      "l1Fee": "0x6a",
      "l1GasPrice": "0x8",
      "l1GasUsed": "0x640"
    },
    {
      "status": "0x1",
      "cumulativeGasUsed": "0x1b4b67",
      "logs": [],
      "logsBloom": "0x00000000000000000000000000000000000000000000000000000000000000000000000000000000000000000000000000000000000000000000000000000000000000000000000000000000000000000000000000000000000000000000000000000000000000000000000000000000000000000000000000000000000000000000000000000000000000000000000000000000000000000000000000000000000000000000000000000000000000000000000000000000000000000000000000000000000000000000000000000000000000000000000000000000000000000000000000000000000000000000000000000000000000000000000000000000",
      "type": "0x2",
      "transactionHash": "0x5c8d5fb82c9bfb48ce3dc5ae35c37195e9ed72fc3f93908b4bf3fb6ab73e3c01",
      "transactionIndex": "0x20",
      "blockHash": "0x2d2dab9ee5e29785cdf6c2eba697bde38b000db80f9748bbe07814dafe7901ef",
      "blockNumber": "0x1ef3363",
      "gasUsed": "0xc9ee",
      "effectiveGasPrice": "0xf4290",
      "from": "0x0b3d62df33521cdce79e87586d7c1534b00ecad7",
      "to": "0xe1b67949998f4a6c96a39633f9a52fb863e24afb",
      "contractAddress": null,
      "l1BaseFeeScalar": "0x44d",
      "l1BlobBaseFee": "0x1",
      "l1BlobBaseFeeScalar": "0xa118b",
      "l1Fee": "0x6a",
      "l1GasPrice": "0x8",
      "l1GasUsed": "0x640"
    }
  ],
  "libraries": [],
  "pending": [],
  "returns": {},
  "timestamp": 1760675238,
  "chain": 84532,
  "commit": "326baa9"
}