{
  "transactions": [
    {
      "hash": "0xa700f7a67dc04ed1ba306d1b210ceb467a5a75a644ff4ddbd8070b3f88685609",
      "transactionType": "CALL",
      "contractName": null,
      "contractAddress": "0x4af112f326638ff9f0a5564443b645f08c4ec163",
      "function": "clearKOLs()",
      "arguments": [],
      "transaction": {
        "from": "0x0b3d62df33521cdce79e87586d7c1534b00ecad7",
        "to": "0x4af112f326638ff9f0a5564443b645f08c4ec163",
        "gas": "0x89d9",
        "value": "0x0",
        "input": "0x1540ceeb",
        "nonce": "0x4c",
        "chainId": "0x14a34"
      },
      "additionalContracts": [],
      "isFixedGasLimit": false
    },
    {
      "hash": "0xc6f40139dc5da65dcb224e2807e90ca6cf7d15bf726ad5617542f89fc16b70af",
      "transactionType": "CALL",
      "contractName": null,
      "contractAddress": "0x4af112f326638ff9f0a5564443b645f08c4ec163",
      "function": "addKOL(bytes32)",
      "arguments": [
        "0x54ee7dc2425581581c47469e5eb1f5eed4233fcbddf6c7592f1580aa348c89b4"
      ],
      "transaction": {
        "from": "0x0b3d62df33521cdce79e87586d7c1534b00ecad7",
        "to": "0x4af112f326638ff9f0a5564443b645f08c4ec163",
        "gas": "0x18902",
        "value": "0x0",
        "input": "0xf08fd6d654ee7dc2425581581c47469e5eb1f5eed4233fcbddf6c7592f1580aa348c89b4",
        "nonce": "0x4d",
        "chainId": "0x14a34"
      },
      "additionalContracts": [],
      "isFixedGasLimit": false
    },
    {
      "hash": "0x6851a485310136d7052477a3ad11a2524573f726363a9e01fa7bd8a8becef2c8",
      "transactionType": "CALL",
      "contractName": null,
      "contractAddress": "0x4af112f326638ff9f0a5564443b645f08c4ec163",
      "function": "addKOL(bytes32)",
      "arguments": [
        "0xfa4dffc9e824f830cf7d07fc7765ba1d7b344d923dd9083258189156f4932796"
      ],
      "transaction": {
        "from": "0x0b3d62df33521cdce79e87586d7c1534b00ecad7",
        "to": "0x4af112f326638ff9f0a5564443b645f08c4ec163",
        "gas": "0x116e9",
        "value": "0x0",
        "input": "0xf08fd6d6fa4dffc9e824f830cf7d07fc7765ba1d7b344d923dd9083258189156f4932796",
        "nonce": "0x4e",
        "chainId": "0x14a34"
      },
      "additionalContracts": [],
      "isFixedGasLimit": false
    },
    {
      "hash": "0x908aa6a1f48662d952cf4ad4ad496445d8d07eea3bd520b69e98f621a5edd6d6",
      "transactionType": "CALL",
      "contractName": null,
      "contractAddress": "0x4af112f326638ff9f0a5564443b645f08c4ec163",
      "function": "addKOL(bytes32)",
      "arguments": [
        "0x33fd3a1a2f6025be5b2d3026fea143df162bb647c138b6d16851023d3c6518a7"
      ],
      "transaction": {
        "from": "0x0b3d62df33521cdce79e87586d7c1534b00ecad7",
        "to": "0x4af112f326638ff9f0a5564443b645f08c4ec163",
        "gas": "0x116e9",
        "value": "0x0",
        "input": "0xf08fd6d633fd3a1a2f6025be5b2d3026fea143df162bb647c138b6d16851023d3c6518a7",
        "nonce": "0x4f",
        "chainId": "0x14a34"
      },
      "additionalContracts": [],
      "isFixedGasLimit": false
    },
    {
      "hash": "0x8a974f9262098ccdfe5f96ac909752974ed1cbaa02676b252fd6a0dbacf39c40",
      "transactionType": "CALL",
      "contractName": null,
      "contractAddress": "0x4af112f326638ff9f0a5564443b645f08c4ec163",
      "function": "addKOL(bytes32)",
      "arguments": [
        "0x4577b1186726aefd500341efa18943241fb9994e2e412da5cc558d28c6e52ddf"
      ],
      "transaction": {
        "from": "0x0b3d62df33521cdce79e87586d7c1534b00ecad7",
        "to": "0x4af112f326638ff9f0a5564443b645f08c4ec163",
        "gas": "0x116e9",
        "value": "0x0",
        "input": "0xf08fd6d64577b1186726aefd500341efa18943241fb9994e2e412da5cc558d28c6e52ddf",
        "nonce": "0x50",
        "chainId": "0x14a34"
      },
      "additionalContracts": [],
      "isFixedGasLimit": false
    },
    {
      "hash": "0x85f5ba803e605192a67a5d5c154a53abc5dd70c6af9f3c70a86af8ed2fa85afc",
      "transactionType": "CALL",
      "contractName": null,
      "contractAddress": "0x4af112f326638ff9f0a5564443b645f08c4ec163",
      "function": "addKOL(bytes32)",
      "arguments": [
        "0xcb43db8e11342c57139c6028ef0ca9ff0606bfa1218225ea9a0ccb7e42206362"
      ],
      "transaction": {
        "from": "0x0b3d62df33521cdce79e87586d7c1534b00ecad7",
        "to": "0x4af112f326638ff9f0a5564443b645f08c4ec163",
        "gas": "0x116e9",
        "value": "0x0",
        "input": "0xf08fd6d6cb43db8e11342c57139c6028ef0ca9ff0606bfa1218225ea9a0ccb7e42206362",
        "nonce": "0x51",
        "chainId": "0x14a34"
      },
      "additionalContracts": [],
      "isFixedGasLimit": false
    },
    {
      "hash": "0xeefeaf5b0f2d1646653cf183b3f84c0091d468467773f2c84530aadb0ed7de81",
      "transactionType": "CALL",
      "contractName": null,
      "contractAddress": "0x4af112f326638ff9f0a5564443b645f08c4ec163",
      "function": "addKOL(bytes32)",
      "arguments": [
        "0x673c01c3285d988aa04a27f5a542a4a304005c687956087d40ac2df25856dcdb"
      ],
      "transaction": {
        "from": "0x0b3d62df33521cdce79e87586d7c1534b00ecad7",
        "to": "0x4af112f326638ff9f0a5564443b645f08c4ec163",
        "gas": "0x12740",
        "value": "0x0",
        "input": "0xf08fd6d6673c01c3285d988aa04a27f5a542a4a304005c687956087d40ac2df25856dcdb",
        "nonce": "0x52",
        "chainId": "0x14a34"
      },
      "additionalContracts": [],
      "isFixedGasLimit": false
    },
    {
      "hash": "0x0a0b14e8964c8b7672ca9a475080fcb66ed0ed533e6d563fc0b7e8f6df55b929",
      "transactionType": "CALL",
      "contractName": null,
      "contractAddress": "0x4af112f326638ff9f0a5564443b645f08c4ec163",
      "function": "addKOL(bytes32)",
      "arguments": [
        "0x0524cdf42f7e19c1b50b880d9d343bed05b80f21f29ecec6cff29e9657177853"
      ],
      "transaction": {
        "from": "0x0b3d62df33521cdce79e87586d7c1534b00ecad7",
        "to": "0x4af112f326638ff9f0a5564443b645f08c4ec163",
        "gas": "0x116e9",
        "value": "0x0",
        "input": "0xf08fd6d60524cdf42f7e19c1b50b880d9d343bed05b80f21f29ecec6cff29e9657177853",
        "nonce": "0x53",
        "chainId": "0x14a34"
      },
      "additionalContracts": [],
      "isFixedGasLimit": false
    },
    {
      "hash": "0xa072b54e0949b2d8d9d01be9cd3a4250780063e395fac1e431933cebb10b0602",
      "transactionType": "CALL",
      "contractName": null,
      "contractAddress": "0x4af112f326638ff9f0a5564443b645f08c4ec163",
      "function": "addKOL(bytes32)",
      "arguments": [
        "0x48c5a7987a74c243ccde734e1679bd0ec85b03ad4b0d329815fa18a928bed2ca"
      ],
      "transaction": {
        "from": "0x0b3d62df33521cdce79e87586d7c1534b00ecad7",
        "to": "0x4af112f326638ff9f0a5564443b645f08c4ec163",
        "gas": "0x116e9",
        "value": "0x0",
        "input": "0xf08fd6d648c5a7987a74c243ccde734e1679bd0ec85b03ad4b0d329815fa18a928bed2ca",
        "nonce": "0x54",
        "chainId": "0x14a34"
      },
      "additionalContracts": [],
      "isFixedGasLimit": false
    },
    {
      "hash": "0x081f32eb7ca7d259330e0c1783f90d0a7ea38052a6f35df42ccde7319614f935",
      "transactionType": "CALL",
      "contractName": null,
      "contractAddress": "0x4af112f326638ff9f0a5564443b645f08c4ec163",
      "function": "addKOL(bytes32)",
      "arguments": [
        "0xf62eed8c614d9af05170cfd5366e70ce2b5b581277ed9bda90ee06ec1c0ac70b"
      ],
      "transaction": {
        "from": "0x0b3d62df33521cdce79e87586d7c1534b00ecad7",
        "to": "0x4af112f326638ff9f0a5564443b645f08c4ec163",
        "gas": "0x116e9",
        "value": "0x0",
        "input": "0xf08fd6d6f62eed8c614d9af05170cfd5366e70ce2b5b581277ed9bda90ee06ec1c0ac70b",
        "nonce": "0x55",
        "chainId": "0x14a34"
      },
      "additionalContracts": [],
      "isFixedGasLimit": false
    },
    {
      "hash": "0xb2b40059dd8327eae09c810cf1612a02c3331b12c0ee6f39032b83e8896ce2e4",
      "transactionType": "CALL",
      "contractName": null,
      "contractAddress": "0x4af112f326638ff9f0a5564443b645f08c4ec163",
      "function": "addKOL(bytes32)",
      "arguments": [
        "0x1607be6baa59b952f720dc10f894f0fb97723aa12c72c2f925dfbd8f301ea770"
      ],
      "transaction": {
        "from": "0x0b3d62df33521cdce79e87586d7c1534b00ecad7",
        "to": "0x4af112f326638ff9f0a5564443b645f08c4ec163",
        "gas": "0x116e9",
        "value": "0x0",
        "input": "0xf08fd6d61607be6baa59b952f720dc10f894f0fb97723aa12c72c2f925dfbd8f301ea770",
        "nonce": "0x56",
        "chainId": "0x14a34"
      },
      "additionalContracts": [],
      "isFixedGasLimit": false
    },
    {
      "hash": "0x4ebe87be36af03cc57580283c5adcefb29f65d4b27d4b51fdc21bccaf52d2b78",
      "transactionType": "CALL",
      "contractName": null,
      "contractAddress": "0x4af112f326638ff9f0a5564443b645f08c4ec163",
      "function": "addKOL(bytes32)",
      "arguments": [
        "0xc6efb078ba9e17a714af044d45caa889df54c72db5a8f519a48117964c45e811"
      ],
      "transaction": {
        "from": "0x0b3d62df33521cdce79e87586d7c1534b00ecad7",
        "to": "0x4af112f326638ff9f0a5564443b645f08c4ec163",
        "gas": "0x116e9",
        "value": "0x0",
        "input": "0xf08fd6d6c6efb078ba9e17a714af044d45caa889df54c72db5a8f519a48117964c45e811",
        "nonce": "0x57",
        "chainId": "0x14a34"
      },
      "additionalContracts": [],
      "isFixedGasLimit": false
    },
    {
      "hash": "0xbfb51bdca6b9469a910f8ac658985f7450cdaac8c8ba06d95ac5f4fcbbe48e0a",
      "transactionType": "CALL",
      "contractName": null,
      "contractAddress": "0x4af112f326638ff9f0a5564443b645f08c4ec163",
      "function": "addKOL(bytes32)",
      "arguments": [
        "0xbcf86f88c85a4d7c8956da3d72aa06352a87f16a97cd2c9897a07492f92a6ad2"
      ],
      "transaction": {
        "from": "0x0b3d62df33521cdce79e87586d7c1534b00ecad7",
        "to": "0x4af112f326638ff9f0a5564443b645f08c4ec163",
        "gas": "0x116e9",
        "value": "0x0",
        "input": "0xf08fd6d6bcf86f88c85a4d7c8956da3d72aa06352a87f16a97cd2c9897a07492f92a6ad2",
        "nonce": "0x58",
        "chainId": "0x14a34"
      },
      "additionalContracts": [],
      "isFixedGasLimit": false
    },
    {
      "hash": "0x9d7c20c8294c8c54eccc49eaa53cd1e9f8f7adb6ec9e68dd17c6f5c69c9945a8",
      "transactionType": "CALL",
      "contractName": null,
      "contractAddress": "0x4af112f326638ff9f0a5564443b645f08c4ec163",
      "function": "addKOL(bytes32)",
      "arguments": [
        "0x6dc2f619db0779da93991f96b7d19da693074782b6575cd6617f98bb4ff77bdc"
      ],
      "transaction": {
        "from": "0x0b3d62df33521cdce79e87586d7c1534b00ecad7",
        "to": "0x4af112f326638ff9f0a5564443b645f08c4ec163",
        "gas": "0x116e9",
        "value": "0x0",
        "input": "0xf08fd6d66dc2f619db0779da93991f96b7d19da693074782b6575cd6617f98bb4ff77bdc",
        "nonce": "0x59",
        "chainId": "0x14a34"
      },
      "additionalContracts": [],
      "isFixedGasLimit": false
    },
    {
      "hash": "0x1da9b7df0117da6d1e48d76d505fee47755102434ccb492b417b658f08577cef",
      "transactionType": "CALL",
      "contractName": null,
      "contractAddress": "0x4af112f326638ff9f0a5564443b645f08c4ec163",
      "function": "addKOL(bytes32)",
      "arguments": [
        "0x89a423337cdbf4041d1f104772e9b3b58f5c0141b08227b35aab83cab7e0e1ed"
      ],
      "transaction": {
        "from": "0x0b3d62df33521cdce79e87586d7c1534b00ecad7",
        "to": "0x4af112f326638ff9f0a5564443b645f08c4ec163",
        "gas": "0x116e9",
        "value": "0x0",
        "input": "0xf08fd6d689a423337cdbf4041d1f104772e9b3b58f5c0141b08227b35aab83cab7e0e1ed",
        "nonce": "0x5a",
        "chainId": "0x14a34"
      },
      "additionalContracts": [],
      "isFixedGasLimit": false
    },
    {
      "hash": "0xf5f473fcb951ec9c30a7db7ad3aa20f6a3f3656a33a43873f52b088da36c6d6c",
      "transactionType": "CALL",
      "contractName": null,
      "contractAddress": "0x4af112f326638ff9f0a5564443b645f08c4ec163",
      "function": "addKOL(bytes32)",
      "arguments": [
        "0xdbbb309b2d1e68f542ca8002db4910bef497c5ad9e7e7c1168159960dd05d2e7"
      ],
      "transaction": {
        "from": "0x0b3d62df33521cdce79e87586d7c1534b00ecad7",
        "to": "0x4af112f326638ff9f0a5564443b645f08c4ec163",
        "gas": "0x116e9",
        "value": "0x0",
        "input": "0xf08fd6d6dbbb309b2d1e68f542ca8002db4910bef497c5ad9e7e7c1168159960dd05d2e7",
        "nonce": "0x5b",
        "chainId": "0x14a34"
      },
      "additionalContracts": [],
      "isFixedGasLimit": false
    }
  ],
  "receipts": [
    {
      "status": "0x1",
      "cumulativeGasUsed": "0x264b8",
      "logs": [],
      "logsBloom": "0x00000000000000000000000000000000000000000000000000000000000000000000000000000000000000000000000000000000000000000000000000000000000000000000000000000000000000000000000000000000000000000000000000000000000000000000000000000000000000000000000000000000000000000000000000000000000000000000000000000000000000000000000000000000000000000000000000000000000000000000000000000000000000000000000000000000000000000000000000000000000000000000000000000000000000000000000000000000000000000000000000000000000000000000000000000000",
      "type": "0x2",
      "transactionHash": "0xa700f7a67dc04ed1ba306d1b210ceb467a5a75a644ff4ddbd8070b3f88685609",
      "transactionIndex": "0x3",
      "blockHash": "0x4720b1da125a179c7836764d6de382c1219d9efdcda8aed4617ad5446bbee696",
      "blockNumber": "0x1ef407c",
      "gasUsed": "0x63ce",
      "effectiveGasPrice": "0xf4287",
      "from": "0x0b3d62df33521cdce79e87586d7c1534b00ecad7",
      "to": "0x4af112f326638ff9f0a5564443b645f08c4ec163",
      "contractAddress": null,
      "l1BaseFeeScalar": "0x44d",
      "l1BlobBaseFee": "0x1",
      "l1BlobBaseFeeScalar": "0xa118b",
      "l1Fee": "0x53",
      "l1GasPrice": "0xa",
      "l1GasUsed": "0x640"
    },
    {
      "status": "0x1",
      "cumulativeGasUsed": "0x10e0d0",
      "logs": [],
      "logsBloom": "0x00000000000000000000000000000000000000000000000000000000000000000000000000000000000000000000000000000000000000000000000000000000000000000000000000000000000000000000000000000000000000000000000000000000000000000000000000000000000000000000000000000000000000000000000000000000000000000000000000000000000000000000000000000000000000000000000000000000000000000000000000000000000000000000000000000000000000000000000000000000000000000000000000000000000000000000000000000000000000000000000000000000000000000000000000000000",
      "type": "0x2",
      "transactionHash": "0xc6f40139dc5da65dcb224e2807e90ca6cf7d15bf726ad5617542f89fc16b70af",
      "transactionIndex": "0x10",
      "blockHash": "0x3cdff2a9469d7b034c34dbe3b77261f2759c6ab5e1d3f03a30c5d025f95521fb",
      "blockNumber": "0x1ef407c",
      "gasUsed": "0x10cba",
      "effectiveGasPrice": "0xf4287",
      "from": "0x0b3d62df33521cdce79e87586d7c1534b00ecad7",
      "to": "0x4af112f326638ff9f0a5564443b645f08c4ec163",
      "contractAddress": null,
      "l1BaseFeeScalar": "0x44d",
      "l1BlobBaseFee": "0x1",
      "l1BlobBaseFeeScalar": "0xa118b",
      "l1Fee": "0x56",
      "l1GasPrice": "0xa",
      "l1GasUsed": "0x640"
    },
    {
      "status": "0x1",
      "cumulativeGasUsed": "0x13b908",
      "logs": [],
      "logsBloom": "0x00000000000000000000000000000000000000000000000000000000000000000000000000000000000000000000000000000000000000000000000000000000000000000000000000000000000000000000000000000000000000000000000000000000000000000000000000000000000000000000000000000000000000000000000000000000000000000000000000000000000000000000000000000000000000000000000000000000000000000000000000000000000000000000000000000000000000000000000000000000000000000000000000000000000000000000000000000000000000000000000000000000000000000000000000000000",
      "type": "0x2",
      "transactionHash": "0x6851a485310136d7052477a3ad11a2524573f726363a9e01fa7bd8a8becef2c8",
      "transactionIndex": "0x12",
      "blockHash": "0x3cdff2a9469d7b034c34dbe3b77261f2759c6ab5e1d3f03a30c5d025f95521fb",
      "blockNumber": "0x1ef407c",
      "gasUsed": "0xc9ee",
      "effectiveGasPrice": "0xf4287",
      "from": "0x0b3d62df33521cdce79e87586d7c1534b00ecad7",
      "to": "0x4af112f326638ff9f0a5564443b645f08c4ec163",
      "contractAddress": null,
      "l1BaseFeeScalar": "0x44d",
      "l1BlobBaseFee": "0x1",
      "l1BlobBaseFeeScalar": "0xa118b",
      "l1Fee": "0x56",
      "l1GasPrice": "0xa",
      "l1GasUsed": "0x640"
    },
    {
      "status": "0x1",
      "cumulativeGasUsed": "0x1482f6",
      "logs": [],
      "logsBloom": "0x00000000000000000000000000000000000000000000000000000000000000000000000000000000000000000000000000000000000000000000000000000000000000000000000000000000000000000000000000000000000000000000000000000000000000000000000000000000000000000000000000000000000000000000000000000000000000000000000000000000000000000000000000000000000000000000000000000000000000000000000000000000000000000000000000000000000000000000000000000000000000000000000000000000000000000000000000000000000000000000000000000000000000000000000000000000",
      "type": "0x2",
      "transactionHash": "0x908aa6a1f48662d952cf4ad4ad496445d8d07eea3bd520b69e98f621a5edd6d6",
      "transactionIndex": "0x13",
      "blockHash": "0x3cdff2a9469d7b034c34dbe3b77261f2759c6ab5e1d3f03a30c5d025f95521fb",
      "blockNumber": "0x1ef407c",
      "gasUsed": "0xc9ee",
      "effectiveGasPrice": "0xf4287",
      "from": "0x0b3d62df33521cdce79e87586d7c1534b00ecad7",
      "to": "0x4af112f326638ff9f0a5564443b645f08c4ec163",
      "contractAddress": null,
      "l1BaseFeeScalar": "0x44d",
      "l1BlobBaseFee": "0x1",
      "l1BlobBaseFeeScalar": "0xa118b",
      "l1Fee": "0x56",
      "l1GasPrice": "0xa",
      "l1GasUsed": "0x640"
    },
    {
      "status": "0x1",
      "cumulativeGasUsed": "0x154ce4",
      "logs": [],
      "logsBloom": "0x00000000000000000000000000000000000000000000000000000000000000000000000000000000000000000000000000000000000000000000000000000000000000000000000000000000000000000000000000000000000000000000000000000000000000000000000000000000000000000000000000000000000000000000000000000000000000000000000000000000000000000000000000000000000000000000000000000000000000000000000000000000000000000000000000000000000000000000000000000000000000000000000000000000000000000000000000000000000000000000000000000000000000000000000000000000",
      "type": "0x2",
      "transactionHash": "0x8a974f9262098ccdfe5f96ac909752974ed1cbaa02676b252fd6a0dbacf39c40",
      "transactionIndex": "0x14",
      "blockHash": "0x3cdff2a9469d7b034c34dbe3b77261f2759c6ab5e1d3f03a30c5d025f95521fb",
      "blockNumber": "0x1ef407c",
      "gasUsed": "0xc9ee",
      "effectiveGasPrice": "0xf4287",
      "from": "0x0b3d62df33521cdce79e87586d7c1534b00ecad7",
      "to": "0x4af112f326638ff9f0a5564443b645f08c4ec163",
      "contractAddress": null,
      "l1BaseFeeScalar": "0x44d",
      "l1BlobBaseFee": "0x1",
      "l1BlobBaseFeeScalar": "0xa118b",
      "l1Fee": "0x56",
      "l1GasPrice": "0xa",
      "l1GasUsed": "0x640"
    },
    {
      "status": "0x1",
      "cumulativeGasUsed": "0x1616d2",
      "logs": [],
      "logsBloom": "0x00000000000000000000000000000000000000000000000000000000000000000000000000000000000000000000000000000000000000000000000000000000000000000000000000000000000000000000000000000000000000000000000000000000000000000000000000000000000000000000000000000000000000000000000000000000000000000000000000000000000000000000000000000000000000000000000000000000000000000000000000000000000000000000000000000000000000000000000000000000000000000000000000000000000000000000000000000000000000000000000000000000000000000000000000000000",
      "type": "0x2",
      "transactionHash": "0x85f5ba803e605192a67a5d5c154a53abc5dd70c6af9f3c70a86af8ed2fa85afc",
      "transactionIndex": "0x15",
      "blockHash": "0x3cdff2a9469d7b034c34dbe3b77261f2759c6ab5e1d3f03a30c5d025f95521fb",
      "blockNumber": "0x1ef407c",
      "gasUsed": "0xc9ee",
      "effectiveGasPrice": "0xf4287",
      "from": "0x0b3d62df33521cdce79e87586d7c1534b00ecad7",
      "to": "0x4af112f326638ff9f0a5564443b645f08c4ec163",
      "contractAddress": null,
      "l1BaseFeeScalar": "0x44d",
      "l1BlobBaseFee": "0x1",
      "l1BlobBaseFeeScalar": "0xa118b",
      "l1Fee": "0x56",
      "l1GasPrice": "0xa",
      "l1GasUsed": "0x640"
    },
    {
      "status": "0x1",
      "cumulativeGasUsed": "0x16e0b4",
      "logs": [],
      "logsBloom": "0x00000000000000000000000000000000000000000000000000000000000000000000000000000000000000000000000000000000000000000000000000000000000000000000000000000000000000000000000000000000000000000000000000000000000000000000000000000000000000000000000000000000000000000000000000000000000000000000000000000000000000000000000000000000000000000000000000000000000000000000000000000000000000000000000000000000000000000000000000000000000000000000000000000000000000000000000000000000000000000000000000000000000000000000000000000000",
      "type": "0x2",
      "transactionHash": "0xeefeaf5b0f2d1646653cf183b3f84c0091d468467773f2c84530aadb0ed7de81",
      "transactionIndex": "0x16",
      "blockHash": "0x3cdff2a9469d7b034c34dbe3b77261f2759c6ab5e1d3f03a30c5d025f95521fb",
      "blockNumber": "0x1ef407c",
      "gasUsed": "0xc9e2",
      "effectiveGasPrice": "0xf4287",
      "from": "0x0b3d62df33521cdce79e87586d7c1534b00ecad7",
      "to": "0x4af112f326638ff9f0a5564443b645f08c4ec163",
      "contractAddress": null,
      "l1BaseFeeScalar": "0x44d",
      "l1BlobBaseFee": "0x1",
      "l1BlobBaseFeeScalar": "0xa118b",
      "l1Fee": "0x56",
      "l1GasPrice": "0xa",
      "l1GasUsed": "0x640"
    },
    {
      "status": "0x1",
      "cumulativeGasUsed": "0x17aaa2",
      "logs": [],
      "logsBloom": "0x00000000000000000000000000000000000000000000000000000000000000000000000000000000000000000000000000000000000000000000000000000000000000000000000000000000000000000000000000000000000000000000000000000000000000000000000000000000000000000000000000000000000000000000000000000000000000000000000000000000000000000000000000000000000000000000000000000000000000000000000000000000000000000000000000000000000000000000000000000000000000000000000000000000000000000000000000000000000000000000000000000000000000000000000000000000",
      "type": "0x2",
      "transactionHash": "0x0a0b14e8964c8b7672ca9a475080fcb66ed0ed533e6d563fc0b7e8f6df55b929",
      "transactionIndex": "0x17",
      "blockHash": "0x3cdff2a9469d7b034c34dbe3b77261f2759c6ab5e1d3f03a30c5d025f95521fb",
      "blockNumber": "0x1ef407c",
      "gasUsed": "0xc9ee",
      "effectiveGasPrice": "0xf4287",
      "from": "0x0b3d62df33521cdce79e87586d7c1534b00ecad7",
      "to": "0x4af112f326638ff9f0a5564443b645f08c4ec163",
      "contractAddress": null,
      "l1BaseFeeScalar": "0x44d",
      "l1BlobBaseFee": "0x1",
      "l1BlobBaseFeeScalar": "0xa118b",
      "l1Fee": "0x56",
      "l1GasPrice": "0xa",
      "l1GasUsed": "0x640"
    },
    {
      "status": "0x1",
      "cumulativeGasUsed": "0x244f3b",
      "logs": [],
      "logsBloom": "0x00000000000000000000000000000000000000000000000000000000000000000000000000000000000000000000000000000000000000000000000000000000000000000000000000000000000000000000000000000000000000000000000000000000000000000000000000000000000000000000000000000000000000000000000000000000000000000000000000000000000000000000000000000000000000000000000000000000000000000000000000000000000000000000000000000000000000000000000000000000000000000000000000000000000000000000000000000000000000000000000000000000000000000000000000000000",
      "type": "0x2",
      "transactionHash": "0xa072b54e0949b2d8d9d01be9cd3a4250780063e395fac1e431933cebb10b0602",
      "transactionIndex": "0x1b",
      "blockHash": "0x4720b1da125a179c7836764d6de382c1219d9efdcda8aed4617ad5446bbee696",
      "blockNumber": "0x1ef407c",
      "gasUsed": "0xc9ee",
      "effectiveGasPrice": "0xf4287",
      "from": "0x0b3d62df33521cdce79e87586d7c1534b00ecad7",
      "to": "0x4af112f326638ff9f0a5564443b645f08c4ec163",
      "contractAddress": null,
      "l1BaseFeeScalar": "0x44d",
      "l1BlobBaseFee": "0x1",
      "l1BlobBaseFeeScalar": "0xa118b",
      "l1Fee": "0x53",
      "l1GasPrice": "0xa",
      "l1GasUsed": "0x640"
    },
    {
      "status": "0x1",
      "cumulativeGasUsed": "0x251929",
      "logs": [],
      "logsBloom": "0x00000000000000000000000000000000000000000000000000000000000000000000000000000000000000000000000000000000000000000000000000000000000000000000000000000000000000000000000000000000000000000000000000000000000000000000000000000000000000000000000000000000000000000000000000000000000000000000000000000000000000000000000000000000000000000000000000000000000000000000000000000000000000000000000000000000000000000000000000000000000000000000000000000000000000000000000000000000000000000000000000000000000000000000000000000000",
      "type": "0x2",
      "transactionHash": "0x081f32eb7ca7d259330e0c1783f90d0a7ea38052a6f35df42ccde7319614f935",
      "transactionIndex": "0x1c",
      "blockHash": "0x771c58dd8fec9825beba53f9e0ea9ba06621f837a1ed7c53d336ee71a7672424",
      "blockNumber": "0x1ef407c",
      "gasUsed": "0xc9ee",
      "effectiveGasPrice": "0xf4287",
      "from": "0x0b3d62df33521cdce79e87586d7c1534b00ecad7",
      "to": "0x4af112f326638ff9f0a5564443b645f08c4ec163",
      "contractAddress": null,
      "l1BaseFeeScalar": "0x44d",
      "l1BlobBaseFee": "0x1",
      "l1BlobBaseFeeScalar": "0xa118b",
      "l1Fee": "0x56",
      "l1GasPrice": "0xa",
      "l1GasUsed": "0x640"
    },
    {
      "status": "0x1",
      "cumulativeGasUsed": "0x25e317",
      "logs": [],
      "logsBloom": "0x00000000000000000000000000000000000000000000000000000000000000000000000000000000000000000000000000000000000000000000000000000000000000000000000000000000000000000000000000000000000000000000000000000000000000000000000000000000000000000000000000000000000000000000000000000000000000000000000000000000000000000000000000000000000000000000000000000000000000000000000000000000000000000000000000000000000000000000000000000000000000000000000000000000000000000000000000000000000000000000000000000000000000000000000000000000",
      "type": "0x2",
      "transactionHash": "0xb2b40059dd8327eae09c810cf1612a02c3331b12c0ee6f39032b83e8896ce2e4",
      "transactionIndex": "0x1d",
      "blockHash": "0x771c58dd8fec9825beba53f9e0ea9ba06621f837a1ed7c53d336ee71a7672424",
      "blockNumber": "0x1ef407c",
      "gasUsed": "0xc9ee",
      "effectiveGasPrice": "0xf4287",
      "from": "0x0b3d62df33521cdce79e87586d7c1534b00ecad7",
      "to": "0x4af112f326638ff9f0a5564443b645f08c4ec163",
      "contractAddress": null,
      "l1BaseFeeScalar": "0x44d",
      "l1BlobBaseFee": "0x1",
      "l1BlobBaseFeeScalar": "0xa118b",
      "l1Fee": "0x56",
      "l1GasPrice": "0xa",
      "l1GasUsed": "0x640"
    },
    {
      "status": "0x1",
      "cumulativeGasUsed": "0x26ad05",
      "logs": [],
      "logsBloom": "0x00000000000000000000000000000000000000000000000000000000000000000000000000000000000000000000000000000000000000000000000000000000000000000000000000000000000000000000000000000000000000000000000000000000000000000000000000000000000000000000000000000000000000000000000000000000000000000000000000000000000000000000000000000000000000000000000000000000000000000000000000000000000000000000000000000000000000000000000000000000000000000000000000000000000000000000000000000000000000000000000000000000000000000000000000000000",
      "type": "0x2",
      "transactionHash": "0x4ebe87be36af03cc57580283c5adcefb29f65d4b27d4b51fdc21bccaf52d2b78",
      "transactionIndex": "0x1e",
      "blockHash": "0x4720b1da125a179c7836764d6de382c1219d9efdcda8aed4617ad5446bbee696",
      "blockNumber": "0x1ef407c",
      "gasUsed": "0xc9ee",
      "effectiveGasPrice": "0xf4287",
      "from": "0x0b3d62df33521cdce79e87586d7c1534b00ecad7",
      "to": "0x4af112f326638ff9f0a5564443b645f08c4ec163",
      "contractAddress": null,
      "l1BaseFeeScalar": "0x44d",
      "l1BlobBaseFee": "0x1",
      "l1BlobBaseFeeScalar": "0xa118b",
      "l1Fee": "0x53",
      "l1GasPrice": "0xa",
      "l1GasUsed": "0x640"
    },
    {
      "status": "0x1",
      "cumulativeGasUsed": "0x2776f3",
      "logs": [],
      "logsBloom": "0x00000000000000000000000000000000000000000000000000000000000000000000000000000000000000000000000000000000000000000000000000000000000000000000000000000000000000000000000000000000000000000000000000000000000000000000000000000000000000000000000000000000000000000000000000000000000000000000000000000000000000000000000000000000000000000000000000000000000000000000000000000000000000000000000000000000000000000000000000000000000000000000000000000000000000000000000000000000000000000000000000000000000000000000000000000000",
      "type": "0x2",
      "transactionHash": "0xbfb51bdca6b9469a910f8ac658985f7450cdaac8c8ba06d95ac5f4fcbbe48e0a",
      "transactionIndex": "0x1f",
      "blockHash": "0x771c58dd8fec9825beba53f9e0ea9ba06621f837a1ed7c53d336ee71a7672424",
      "blockNumber": "0x1ef407c",
      "gasUsed": "0xc9ee",
      "effectiveGasPrice": "0xf4287",
      "from": "0x0b3d62df33521cdce79e87586d7c1534b00ecad7",
      "to": "0x4af112f326638ff9f0a5564443b645f08c4ec163",
      "contractAddress": null,
      "l1BaseFeeScalar": "0x44d",
      "l1BlobBaseFee": "0x1",
      "l1BlobBaseFeeScalar": "0xa118b",
      "l1Fee": "0x56",
      "l1GasPrice": "0xa",
      "l1GasUsed": "0x640"
    },
    {
      "status": "0x1",
      "cumulativeGasUsed": "0x2840e1",
      "logs": [],
      "logsBloom": "0x00000000000000000000000000000000000000000000000000000000000000000000000000000000000000000000000000000000000000000000000000000000000000000000000000000000000000000000000000000000000000000000000000000000000000000000000000000000000000000000000000000000000000000000000000000000000000000000000000000000000000000000000000000000000000000000000000000000000000000000000000000000000000000000000000000000000000000000000000000000000000000000000000000000000000000000000000000000000000000000000000000000000000000000000000000000",
      "type": "0x2",
      "transactionHash": "0x9d7c20c8294c8c54eccc49eaa53cd1e9f8f7adb6ec9e68dd17c6f5c69c9945a8",
      "transactionIndex": "0x20",
      "blockHash": "0x771c58dd8fec9825beba53f9e0ea9ba06621f837a1ed7c53d336ee71a7672424",
      "blockNumber": "0x1ef407c",
      "gasUsed": "0xc9ee",
      "effectiveGasPrice": "0xf4287",
      "from": "0x0b3d62df33521cdce79e87586d7c1534b00ecad7",
      "to": "0x4af112f326638ff9f0a5564443b645f08c4ec163",
      "contractAddress": null,
      "l1BaseFeeScalar": "0x44d",
      "l1BlobBaseFee": "0x1",
      "l1BlobBaseFeeScalar": "0xa118b",
      "l1Fee": "0x56",
      "l1GasPrice": "0xa",
      "l1GasUsed": "0x640"
    },
    {
      "status": "0x1",
      "cumulativeGasUsed": "0x290acf",
      "logs": [],
      "logsBloom": "0x00000000000000000000000000000000000000000000000000000000000000000000000000000000000000000000000000000000000000000000000000000000000000000000000000000000000000000000000000000000000000000000000000000000000000000000000000000000000000000000000000000000000000000000000000000000000000000000000000000000000000000000000000000000000000000000000000000000000000000000000000000000000000000000000000000000000000000000000000000000000000000000000000000000000000000000000000000000000000000000000000000000000000000000000000000000",
      "type": "0x2",
      "transactionHash": "0x1da9b7df0117da6d1e48d76d505fee47755102434ccb492b417b658f08577cef",
      "transactionIndex": "0x21",
      "blockHash": "0x4720b1da125a179c7836764d6de382c1219d9efdcda8aed4617ad5446bbee696",
      "blockNumber": "0x1ef407c",
      "gasUsed": "0xc9ee",
      "effectiveGasPrice": "0xf4287",
      "from": "0x0b3d62df33521cdce79e87586d7c1534b00ecad7",
      "to": "0x4af112f326638ff9f0a5564443b645f08c4ec163",
      "contractAddress": null,
      "l1BaseFeeScalar": "0x44d",
      "l1BlobBaseFee": "0x1",
      "l1BlobBaseFeeScalar": "0xa118b",
      "l1Fee": "0x53",
      "l1GasPrice": "0xa",
      "l1GasUsed": "0x640"
    },
    {
      "status": "0x1",
      "cumulativeGasUsed": "0x2f0b99",
      "logs": [],
      "logsBloom": "0x00000000000000000000000000000000000000000000000000000000000000000000000000000000000000000000000000000000000000000000000000000000000000000000000000000000000000000000000000000000000000000000000000000000000000000000000000000000000000000000000000000000000000000000000000000000000000000000000000000000000000000000000000000000000000000000000000000000000000000000000000000000000000000000000000000000000000000000000000000000000000000000000000000000000000000000000000000000000000000000000000000000000000000000000000000000",
      "type": "0x2",
      "transactionHash": "0xf5f473fcb951ec9c30a7db7ad3aa20f6a3f3656a33a43873f52b088da36c6d6c",
      "transactionIndex": "0x28",
      "blockHash": "0x4720b1da125a179c7836764d6de382c1219d9efdcda8aed4617ad5446bbee696",
      "blockNumber": "0x1ef407c",
      "gasUsed": "0xc9ee",
      "effectiveGasPrice": "0xf4287",
      "from": "0x0b3d62df33521cdce79e87586d7c1534b00ecad7",
      "to": "0x4af112f326638ff9f0a5564443b645f08c4ec163",
      "contractAddress": null,
      "l1BaseFeeScalar": "0x44d",
      "l1BlobBaseFee": "0x1",
      "l1BlobBaseFeeScalar": "0xa118b",
      "l1Fee": "0x53",
      "l1GasPrice": "0xa",
      "l1GasUsed": "0x640"
    }
  ],
  "libraries": [],
  "pending": [],
  "returns": {},
  "timestamp": 1760681945,
  "chain": 84532,
  "commit": "326baa9"
}