{
  "transactions": [
    {
      "hash": "0x7233f65c4a1457a506823201737a818ec90c2da5c12db4ecc294619fac0b2064",
      "transactionType": "CALL",
      "contractName": null,
      "contractAddress": "0x0d0877adc36e506a9328c100fdae71d743454242",
      "function": "clearKOLs()",
      "arguments": [],
      "transaction": {
        "from": "0x0b3d62df33521cdce79e87586d7c1534b00ecad7",
        "to": "0x0d0877adc36e506a9328c100fdae71d743454242",
        "gas": "0x1dba5",
        "value": "0x0",
        "input": "0x1540ceeb",
        "nonce": "0x2a",
        "chainId": "0x14a34"
      },
      "additionalContracts": [],
      "isFixedGasLimit": false
    },
    {
      "hash": "0xfd218a03c01a80e9ad4cf7a2b369ff5a350d285ab28b2e1dd57af58f1a345d7d",
      "transactionType": "CALL",
      "contractName": null,
      "contractAddress": "0x0d0877adc36e506a9328c100fdae71d743454242",
      "function": "addKOL(bytes32)",
      "arguments": [
        "0x54ee7dc2425581581c47469e5eb1f5eed4233fcbddf6c7592f1580aa348c89b4"
      ],
      "transaction": {
        "from": "0x0b3d62df33521cdce79e87586d7c1534b00ecad7",
        "to": "0x0d0877adc36e506a9328c100fdae71d743454242",
        "gas": "0x18902",
        "value": "0x0",
        "input": "0xf08fd6d654ee7dc2425581581c47469e5eb1f5eed4233fcbddf6c7592f1580aa348c89b4",
        "nonce": "0x2b",
        "chainId": "0x14a34"
      },
      "additionalContracts": [],
      "isFixedGasLimit": false
    },
    {
      "hash": "0x5871f38f2756cc4cbe34af9ce6bc9e806c184eba0a5b2da8956eb8d0b5875e2d",
      "transactionType": "CALL",
      "contractName": null,
      "contractAddress": "0x0d0877adc36e506a9328c100fdae71d743454242",
      "function": "addKOL(bytes32)",
      "arguments": [
        "0xfa4dffc9e824f830cf7d07fc7765ba1d7b344d923dd9083258189156f4932796"
      ],
      "transaction": {
        "from": "0x0b3d62df33521cdce79e87586d7c1534b00ecad7",
        "to": "0x0d0877adc36e506a9328c100fdae71d743454242",
        "gas": "0x116e9",
        "value": "0x0",
        "input": "0xf08fd6d6fa4dffc9e824f830cf7d07fc7765ba1d7b344d923dd9083258189156f4932796",
        "nonce": "0x2c",
        "chainId": "0x14a34"
      },
      "additionalContracts": [],
      "isFixedGasLimit": false
    },
    {
      "hash": "0xafdb0bf33852ef0e2345a13d215a0786f0e531f2c8fda03fb802c12b58707c5f",
      "transactionType": "CALL",
      "contractName": null,
      "contractAddress": "0x0d0877adc36e506a9328c100fdae71d743454242",
      "function": "addKOL(bytes32)",
      "arguments": [
        "0x33fd3a1a2f6025be5b2d3026fea143df162bb647c138b6d16851023d3c6518a7"
      ],
      "transaction": {
        "from": "0x0b3d62df33521cdce79e87586d7c1534b00ecad7",
        "to": "0x0d0877adc36e506a9328c100fdae71d743454242",
        "gas": "0x116e9",
        "value": "0x0",
        "input": "0xf08fd6d633fd3a1a2f6025be5b2d3026fea143df162bb647c138b6d16851023d3c6518a7",
        "nonce": "0x2d",
        "chainId": "0x14a34"
      },
      "additionalContracts": [],
      "isFixedGasLimit": false
    },
    {
      "hash": "0x69ce3f4d4ea51f3b27b21eaa53bab6d84a213fb53e57f958206d7b63998e2afb",
      "transactionType": "CALL",
      "contractName": null,
      "contractAddress": "0x0d0877adc36e506a9328c100fdae71d743454242",
      "function": "addKOL(bytes32)",
      "arguments": [
        "0x4577b1186726aefd500341efa18943241fb9994e2e412da5cc558d28c6e52ddf"
      ],
      "transaction": {
        "from": "0x0b3d62df33521cdce79e87586d7c1534b00ecad7",
        "to": "0x0d0877adc36e506a9328c100fdae71d743454242",
        "gas": "0x116e9",
        "value": "0x0",
        "input": "0xf08fd6d64577b1186726aefd500341efa18943241fb9994e2e412da5cc558d28c6e52ddf",
        "nonce": "0x2e",
        "chainId": "0x14a34"
      },
      "additionalContracts": [],
      "isFixedGasLimit": false
    },
    {
      "hash": "0x4351a322b4da072ba3cf2c0e571dc6c9c4156e3c15cd3ea5ba09e8181e6f71c2",
      "transactionType": "CALL",
      "contractName": null,
      "contractAddress": "0x0d0877adc36e506a9328c100fdae71d743454242",
      "function": "addKOL(bytes32)",
      "arguments": [
        "0xcb43db8e11342c57139c6028ef0ca9ff0606bfa1218225ea9a0ccb7e42206362"
      ],
      "transaction": {
        "from": "0x0b3d62df33521cdce79e87586d7c1534b00ecad7",
        "to": "0x0d0877adc36e506a9328c100fdae71d743454242",
        "gas": "0x116e9",
        "value": "0x0",
        "input": "0xf08fd6d6cb43db8e11342c57139c6028ef0ca9ff0606bfa1218225ea9a0ccb7e42206362",
        "nonce": "0x2f",
        "chainId": "0x14a34"
      },
      "additionalContracts": [],
      "isFixedGasLimit": false
    },
    {
      "hash": "0xffe2f94afff3ace8d16c58364f84283b4b2012f3261b7429fc4f8478f7e45fed",
      "transactionType": "CALL",
      "contractName": null,
      "contractAddress": "0x0d0877adc36e506a9328c100fdae71d743454242",
      "function": "addKOL(bytes32)",
      "arguments": [
        "0x673c01c3285d988aa04a27f5a542a4a304005c687956087d40ac2df25856dcdb"
      ],
      "transaction": {
        "from": "0x0b3d62df33521cdce79e87586d7c1534b00ecad7",
        "to": "0x0d0877adc36e506a9328c100fdae71d743454242",
        "gas": "0x12740",
        "value": "0x0",
        "input": "0xf08fd6d6673c01c3285d988aa04a27f5a542a4a304005c687956087d40ac2df25856dcdb",
        "nonce": "0x30",
        "chainId": "0x14a34"
      },
      "additionalContracts": [],
      "isFixedGasLimit": false
    },
    {
      "hash": "0x76a4dbb16470d75f3c1c89bb076c54609020eaffba4e7e685b6fed8bc4898194",
      "transactionType": "CALL",
      "contractName": null,
      "contractAddress": "0x0d0877adc36e506a9328c100fdae71d743454242",
      "function": "addKOL(bytes32)",
      "arguments": [
        "0x0524cdf42f7e19c1b50b880d9d343bed05b80f21f29ecec6cff29e9657177853"
      ],
      "transaction": {
        "from": "0x0b3d62df33521cdce79e87586d7c1534b00ecad7",
        "to": "0x0d0877adc36e506a9328c100fdae71d743454242",
        "gas": "0x116e9",
        "value": "0x0",
        "input": "0xf08fd6d60524cdf42f7e19c1b50b880d9d343bed05b80f21f29ecec6cff29e9657177853",
        "nonce": "0x31",
        "chainId": "0x14a34"
      },
      "additionalContracts": [],
      "isFixedGasLimit": false
    },
    {
      "hash": "0x600e240c550fd12ddcf7ad3a35cc0ac47c71a937c19b0a96f9db8f7594fe7590",
      "transactionType": "CALL",
      "contractName": null,
      "contractAddress": "0x0d0877adc36e506a9328c100fdae71d743454242",
      "function": "addKOL(bytes32)",
      "arguments": [
        "0x48c5a7987a74c243ccde734e1679bd0ec85b03ad4b0d329815fa18a928bed2ca"
      ],
      "transaction": {
        "from": "0x0b3d62df33521cdce79e87586d7c1534b00ecad7",
        "to": "0x0d0877adc36e506a9328c100fdae71d743454242",
        "gas": "0x116e9",
        "value": "0x0",
        "input": "0xf08fd6d648c5a7987a74c243ccde734e1679bd0ec85b03ad4b0d329815fa18a928bed2ca",
        "nonce": "0x32",
        "chainId": "0x14a34"
      },
      "additionalContracts": [],
      "isFixedGasLimit": false
    },
    {
      "hash": "0xea3306f6ed8f9466cb8ecb7cebe5855ef3e0abd8baa2dda17e40d41a4cc18488",
      "transactionType": "CALL",
      "contractName": null,
      "contractAddress": "0x0d0877adc36e506a9328c100fdae71d743454242",
      "function": "addKOL(bytes32)",
      "arguments": [
        "0xf62eed8c614d9af05170cfd5366e70ce2b5b581277ed9bda90ee06ec1c0ac70b"
      ],
      "transaction": {
        "from": "0x0b3d62df33521cdce79e87586d7c1534b00ecad7",
        "to": "0x0d0877adc36e506a9328c100fdae71d743454242",
        "gas": "0x116e9",
        "value": "0x0",
        "input": "0xf08fd6d6f62eed8c614d9af05170cfd5366e70ce2b5b581277ed9bda90ee06ec1c0ac70b",
        "nonce": "0x33",
        "chainId": "0x14a34"
      },
      "additionalContracts": [],
      "isFixedGasLimit": false
    },
    {
      "hash": "0xbe91e0ed7467654daef0d5fa32c87d30582a4253d5dccea2bf075a55e406447f",
      "transactionType": "CALL",
      "contractName": null,
      "contractAddress": "0x0d0877adc36e506a9328c100fdae71d743454242",
      "function": "addKOL(bytes32)",
      "arguments": [
        "0x1607be6baa59b952f720dc10f894f0fb97723aa12c72c2f925dfbd8f301ea770"
      ],
      "transaction": {
        "from": "0x0b3d62df33521cdce79e87586d7c1534b00ecad7",
        "to": "0x0d0877adc36e506a9328c100fdae71d743454242",
        "gas": "0x116e9",
        "value": "0x0",
        "input": "0xf08fd6d61607be6baa59b952f720dc10f894f0fb97723aa12c72c2f925dfbd8f301ea770",
        "nonce": "0x34",
        "chainId": "0x14a34"
      },
      "additionalContracts": [],
      "isFixedGasLimit": false
    },
    {
      "hash": "0x990d03f0db53c02af52097ce414fceaf9e24418ea103c40d298c1acc9c8fb6eb",
      "transactionType": "CALL",
      "contractName": null,
      "contractAddress": "0x0d0877adc36e506a9328c100fdae71d743454242",
      "function": "addKOL(bytes32)",
      "arguments": [
        "0xc6efb078ba9e17a714af044d45caa889df54c72db5a8f519a48117964c45e811"
      ],
      "transaction": {
        "from": "0x0b3d62df33521cdce79e87586d7c1534b00ecad7",
        "to": "0x0d0877adc36e506a9328c100fdae71d743454242",
        "gas": "0x116e9",
        "value": "0x0",
        "input": "0xf08fd6d6c6efb078ba9e17a714af044d45caa889df54c72db5a8f519a48117964c45e811",
        "nonce": "0x35",
        "chainId": "0x14a34"
      },
      "additionalContracts": [],
      "isFixedGasLimit": false
    },
    {
      "hash": "0x4563bece5883262ad951157cae56e4214bb98bacf8ab483293b149ac0c3d200d",
      "transactionType": "CALL",
      "contractName": null,
      "contractAddress": "0x0d0877adc36e506a9328c100fdae71d743454242",
      "function": "addKOL(bytes32)",
      "arguments": [
        "0xbcf86f88c85a4d7c8956da3d72aa06352a87f16a97cd2c9897a07492f92a6ad2"
      ],
      "transaction": {
        "from": "0x0b3d62df33521cdce79e87586d7c1534b00ecad7",
        "to": "0x0d0877adc36e506a9328c100fdae71d743454242",
        "gas": "0x116e9",
        "value": "0x0",
        "input": "0xf08fd6d6bcf86f88c85a4d7c8956da3d72aa06352a87f16a97cd2c9897a07492f92a6ad2",
        "nonce": "0x36",
        "chainId": "0x14a34"
      },
      "additionalContracts": [],
      "isFixedGasLimit": false
    },
    {
      "hash": "0x3b655f2bdad58eaa3fee0b8904c58f9877790037101395aa92bce6a18588e217",
      "transactionType": "CALL",
      "contractName": null,
      "contractAddress": "0x0d0877adc36e506a9328c100fdae71d743454242",
      "function": "addKOL(bytes32)",
      "arguments": [
        "0x6dc2f619db0779da93991f96b7d19da693074782b6575cd6617f98bb4ff77bdc"
      ],
      "transaction": {
        "from": "0x0b3d62df33521cdce79e87586d7c1534b00ecad7",
        "to": "0x0d0877adc36e506a9328c100fdae71d743454242",
        "gas": "0x116e9",
        "value": "0x0",
        "input": "0xf08fd6d66dc2f619db0779da93991f96b7d19da693074782b6575cd6617f98bb4ff77bdc",
        "nonce": "0x37",
        "chainId": "0x14a34"
      },
      "additionalContracts": [],
      "isFixedGasLimit": false
    },
    {
      "hash": "0x0f902677e76e04e38c4409fc95186fe6b1e836a104ac1e87a1e272299070051e",
      "transactionType": "CALL",
      "contractName": null,
      "contractAddress": "0x0d0877adc36e506a9328c100fdae71d743454242",
      "function": "addKOL(bytes32)",
      "arguments": [
        "0x89a423337cdbf4041d1f104772e9b3b58f5c0141b08227b35aab83cab7e0e1ed"
      ],
      "transaction": {
        "from": "0x0b3d62df33521cdce79e87586d7c1534b00ecad7",
        "to": "0x0d0877adc36e506a9328c100fdae71d743454242",
        "gas": "0x116e9",
        "value": "0x0",
        "input": "0xf08fd6d689a423337cdbf4041d1f104772e9b3b58f5c0141b08227b35aab83cab7e0e1ed",
        "nonce": "0x38",
        "chainId": "0x14a34"
      },
      "additionalContracts": [],
      "isFixedGasLimit": false
    },
    {
      "hash": "0x551782c77c28626637e445f319180221a271a484b15a576853a9478be4ec0e09",
      "transactionType": "CALL",
      "contractName": null,
      "contractAddress": "0x0d0877adc36e506a9328c100fdae71d743454242",
      "function": "addKOL(bytes32)",
      "arguments": [
        "0xdbbb309b2d1e68f542ca8002db4910bef497c5ad9e7e7c1168159960dd05d2e7"
      ],
      "transaction": {
        "from": "0x0b3d62df33521cdce79e87586d7c1534b00ecad7",
        "to": "0x0d0877adc36e506a9328c100fdae71d743454242",
        "gas": "0x116e9",
        "value": "0x0",
        "input": "0xf08fd6d6dbbb309b2d1e68f542ca8002db4910bef497c5ad9e7e7c1168159960dd05d2e7",
        "nonce": "0x39",
        "chainId": "0x14a34"
      },
      "additionalContracts": [],
      "isFixedGasLimit": false
    }
  ],
  "receipts": [
    {
      "status": "0x1",
      "cumulativeGasUsed": "0xd65bc0",
      "logs": [],
      "logsBloom": "0x00000000000000000000000000000000000000000000000000000000000000000000000000000000000000000000000000000000000000000000000000000000000000000000000000000000000000000000000000000000000000000000000000000000000000000000000000000000000000000000000000000000000000000000000000000000000000000000000000000000000000000000000000000000000000000000000000000000000000000000000000000000000000000000000000000000000000000000000000000000000000000000000000000000000000000000000000000000000000000000000000000000000000000000000000000000",
      "type": "0x2",
      "transactionHash": "0x7233f65c4a1457a506823201737a818ec90c2da5c12db4ecc294619fac0b2064",
      "transactionIndex": "0x30",
      "blockHash": "0x29ef0d4c7369a925c505615c9d186f064a563e2c58d4377bc89b416dfb4cc88b",
      "blockNumber": "0x1ef3338",
      "gasUsed": "0x1453b",
      "effectiveGasPrice": "0xf4291",
      "from": "0x0b3d62df33521cdce79e87586d7c1534b00ecad7",
      "to": "0x0d0877adc36e506a9328c100fdae71d743454242",
      "contractAddress": null,
      "l1BaseFeeScalar": "0x44d",
      "l1BlobBaseFee": "0x1",
      "l1BlobBaseFeeScalar": "0xa118b",
      "l1Fee": "0x51",
      "l1GasPrice": "0x9",
      "l1GasUsed": "0x640"
    },
    {
      "status": "0x1",
      "cumulativeGasUsed": "0xdb233c",
      "logs": [],
      "logsBloom": "0x00000000000000000000000000000000000000000000000000000000000000000000000000000000000000000000000000000000000000000000000000000000000000000000000000000000000000000000000000000000000000000000000000000000000000000000000000000000000000000000000000000000000000000000000000000000000000000000000000000000000000000000000000000000000000000000000000000000000000000000000000000000000000000000000000000000000000000000000000000000000000000000000000000000000000000000000000000000000000000000000000000000000000000000000000000000",
      "type": "0x2",
      "transactionHash": "0xfd218a03c01a80e9ad4cf7a2b369ff5a350d285ab28b2e1dd57af58f1a345d7d",
      "transactionIndex": "0x37",
      "blockHash": "0x29ef0d4c7369a925c505615c9d186f064a563e2c58d4377bc89b416dfb4cc88b",
      "blockNumber": "0x1ef3338",
      "gasUsed": "0x10cba",
      "effectiveGasPrice": "0xf4291",
      "from": "0x0b3d62df33521cdce79e87586d7c1534b00ecad7",
      "to": "0x0d0877adc36e506a9328c100fdae71d743454242",
      "contractAddress": null,
      "l1BaseFeeScalar": "0x44d",
      "l1BlobBaseFee": "0x1",
      "l1BlobBaseFeeScalar": "0xa118b",
      "l1Fee": "0x51",
      "l1GasPrice": "0x9",
      "l1GasUsed": "0x640"
    },
    {
      "status": "0x1",
      "cumulativeGasUsed": "0xe23d1a",
      "logs": [],
      "logsBloom": "0x00000000000000000000000000000000000000000000000000000000000000000000000000000000000000000000000000000000000000000000000000000000000000000000000000000000000000000000000000000000000000000000000000000000000000000000000000000000000000000000000000000000000000000000000000000000000000000000000000000000000000000000000000000000000000000000000000000000000000000000000000000000000000000000000000000000000000000000000000000000000000000000000000000000000000000000000000000000000000000000000000000000000000000000000000000000",
      "type": "0x2",
      "transactionHash": "0x5871f38f2756cc4cbe34af9ce6bc9e806c184eba0a5b2da8956eb8d0b5875e2d",
      "transactionIndex": "0x3d",
      "blockHash": "0x29ef0d4c7369a925c505615c9d186f064a563e2c58d4377bc89b416dfb4cc88b",
      "blockNumber": "0x1ef3338",
      "gasUsed": "0xc9ee",
      "effectiveGasPrice": "0xf4291",
      "from": "0x0b3d62df33521cdce79e87586d7c1534b00ecad7",
      "to": "0x0d0877adc36e506a9328c100fdae71d743454242",
      "contractAddress": null,
      "l1BaseFeeScalar": "0x44d",
      "l1BlobBaseFee": "0x1",
      "l1BlobBaseFeeScalar": "0xa118b",
      "l1Fee": "0x51",
      "l1GasPrice": "0x9",
      "l1GasUsed": "0x640"
    },
    {
      "status": "0x1",
      "cumulativeGasUsed": "0xe30708",
      "logs": [],
      "logsBloom": "0x00000000000000000000000000000000000000000000000000000000000000000000000000000000000000000000000000000000000000000000000000000000000000000000000000000000000000000000000000000000000000000000000000000000000000000000000000000000000000000000000000000000000000000000000000000000000000000000000000000000000000000000000000000000000000000000000000000000000000000000000000000000000000000000000000000000000000000000000000000000000000000000000000000000000000000000000000000000000000000000000000000000000000000000000000000000",
      "type": "0x2",
      "transactionHash": "0xafdb0bf33852ef0e2345a13d215a0786f0e531f2c8fda03fb802c12b58707c5f",
      "transactionIndex": "0x3e",
      "blockHash": "0x29ef0d4c7369a925c505615c9d186f064a563e2c58d4377bc89b416dfb4cc88b",
      "blockNumber": "0x1ef3338",
      "gasUsed": "0xc9ee",
      "effectiveGasPrice": "0xf4291",
      "from": "0x0b3d62df33521cdce79e87586d7c1534b00ecad7",
      "to": "0x0d0877adc36e506a9328c100fdae71d743454242",
      "contractAddress": null,
      "l1BaseFeeScalar": "0x44d",
      "l1BlobBaseFee": "0x1",
      "l1BlobBaseFeeScalar": "0xa118b",
      "l1Fee": "0x51",
      "l1GasPrice": "0x9",
      "l1GasUsed": "0x640"
    },
    {
      "status": "0x1",
      "cumulativeGasUsed": "0xe3d0f6",
      "logs": [],
      "logsBloom": "0x00000000000000000000000000000000000000000000000000000000000000000000000000000000000000000000000000000000000000000000000000000000000000000000000000000000000000000000000000000000000000000000000000000000000000000000000000000000000000000000000000000000000000000000000000000000000000000000000000000000000000000000000000000000000000000000000000000000000000000000000000000000000000000000000000000000000000000000000000000000000000000000000000000000000000000000000000000000000000000000000000000000000000000000000000000000",
      "type": "0x2",
      "transactionHash": "0x69ce3f4d4ea51f3b27b21eaa53bab6d84a213fb53e57f958206d7b63998e2afb",
      "transactionIndex": "0x3f",
      "blockHash": "0x29ef0d4c7369a925c505615c9d186f064a563e2c58d4377bc89b416dfb4cc88b",
      "blockNumber": "0x1ef3338",
      "gasUsed": "0xc9ee",
      "effectiveGasPrice": "0xf4291",
      "from": "0x0b3d62df33521cdce79e87586d7c1534b00ecad7",
      "to": "0x0d0877adc36e506a9328c100fdae71d743454242",
      "contractAddress": null,
      "l1BaseFeeScalar": "0x44d",
      "l1BlobBaseFee": "0x1",
      "l1BlobBaseFeeScalar": "0xa118b",
      "l1Fee": "0x51",
      "l1GasPrice": "0x9",
      "l1GasUsed": "0x640"
    },
    {
      "status": "0x1",
      "cumulativeGasUsed": "0xe49ae4",
      "logs": [],
      "logsBloom": "0x00000000000000000000000000000000000000000000000000000000000000000000000000000000000000000000000000000000000000000000000000000000000000000000000000000000000000000000000000000000000000000000000000000000000000000000000000000000000000000000000000000000000000000000000000000000000000000000000000000000000000000000000000000000000000000000000000000000000000000000000000000000000000000000000000000000000000000000000000000000000000000000000000000000000000000000000000000000000000000000000000000000000000000000000000000000",
      "type": "0x2",
      "transactionHash": "0x4351a322b4da072ba3cf2c0e571dc6c9c4156e3c15cd3ea5ba09e8181e6f71c2",
      "transactionIndex": "0x40",
      "blockHash": "0x29ef0d4c7369a925c505615c9d186f064a563e2c58d4377bc89b416dfb4cc88b",
      "blockNumber": "0x1ef3338",
      "gasUsed": "0xc9ee",
      "effectiveGasPrice": "0xf4291",
      "from": "0x0b3d62df33521cdce79e87586d7c1534b00ecad7",
      "to": "0x0d0877adc36e506a9328c100fdae71d743454242",
      "contractAddress": null,
      "l1BaseFeeScalar": "0x44d",
      "l1BlobBaseFee": "0x1",
      "l1BlobBaseFeeScalar": "0xa118b",
      "l1Fee": "0x51",
      "l1GasPrice": "0x9",
      "l1GasUsed": "0x640"
    },
    {
      "status": "0x1",
      "cumulativeGasUsed": "0xe564c6",
      "logs": [],
      "logsBloom": "0x00000000000000000000000000000000000000000000000000000000000000000000000000000000000000000000000000000000000000000000000000000000000000000000000000000000000000000000000000000000000000000000000000000000000000000000000000000000000000000000000000000000000000000000000000000000000000000000000000000000000000000000000000000000000000000000000000000000000000000000000000000000000000000000000000000000000000000000000000000000000000000000000000000000000000000000000000000000000000000000000000000000000000000000000000000000",
      "type": "0x2",
      "transactionHash": "0xffe2f94afff3ace8d16c58364f84283b4b2012f3261b7429fc4f8478f7e45fed",
      "transactionIndex": "0x41",
      "blockHash": "0x29ef0d4c7369a925c505615c9d186f064a563e2c58d4377bc89b416dfb4cc88b",
      "blockNumber": "0x1ef3338",
      "gasUsed": "0xc9e2",
      "effectiveGasPrice": "0xf4291",
      "from": "0x0b3d62df33521cdce79e87586d7c1534b00ecad7",
      "to": "0x0d0877adc36e506a9328c100fdae71d743454242",
      "contractAddress": null,
      "l1BaseFeeScalar": "0x44d",
      "l1BlobBaseFee": "0x1",
      "l1BlobBaseFeeScalar": "0xa118b",
      "l1Fee": "0x51",
      "l1GasPrice": "0x9",
      "l1GasUsed": "0x640"
    },
    {
      "status": "0x1",
      "cumulativeGasUsed": "0xe62eb4",
      "logs": [],
      "logsBloom": "0x00000000000000000000000000000000000000000000000000000000000000000000000000000000000000000000000000000000000000000000000000000000000000000000000000000000000000000000000000000000000000000000000000000000000000000000000000000000000000000000000000000000000000000000000000000000000000000000000000000000000000000000000000000000000000000000000000000000000000000000000000000000000000000000000000000000000000000000000000000000000000000000000000000000000000000000000000000000000000000000000000000000000000000000000000000000",
      "type": "0x2",
      "transactionHash": "0x76a4dbb16470d75f3c1c89bb076c54609020eaffba4e7e685b6fed8bc4898194",
      "transactionIndex": "0x42",
      "blockHash": "0x29ef0d4c7369a925c505615c9d186f064a563e2c58d4377bc89b416dfb4cc88b",
      "blockNumber": "0x1ef3338",
      "gasUsed": "0xc9ee",
      "effectiveGasPrice": "0xf4291",
      "from": "0x0b3d62df33521cdce79e87586d7c1534b00ecad7",
      "to": "0x0d0877adc36e506a9328c100fdae71d743454242",
      "contractAddress": null,
      "l1BaseFeeScalar": "0x44d",
      "l1BlobBaseFee": "0x1",
      "l1BlobBaseFeeScalar": "0xa118b",
      "l1Fee": "0x51",
      "l1GasPrice": "0x9",
      "l1GasUsed": "0x640"
    },
    {
      "status": "0x1",
      "cumulativeGasUsed": "0xea127b",
      "logs": [],
      "logsBloom": "0x00000000000000000000000000000000000000000000000000000000000000000000000000000000000000000000000000000000000000000000000000000000000000000000000000000000000000000000000000000000000000000000000000000000000000000000000000000000000000000000000000000000000000000000000000000000000000000000000000000000000000000000000000000000000000000000000000000000000000000000000000000000000000000000000000000000000000000000000000000000000000000000000000000000000000000000000000000000000000000000000000000000000000000000000000000000",
      "type": "0x2",
      "transactionHash": "0x600e240c550fd12ddcf7ad3a35cc0ac47c71a937c19b0a96f9db8f7594fe7590",
      "transactionIndex": "0x48",
      "blockHash": "0x29ef0d4c7369a925c505615c9d186f064a563e2c58d4377bc89b416dfb4cc88b",
      "blockNumber": "0x1ef3338",
      "gasUsed": "0xc9ee",
      "effectiveGasPrice": "0xf4291",
      "from": "0x0b3d62df33521cdce79e87586d7c1534b00ecad7",
      "to": "0x0d0877adc36e506a9328c100fdae71d743454242",
      "contractAddress": null,
      "l1BaseFeeScalar": "0x44d",
      "l1BlobBaseFee": "0x1",
      "l1BlobBaseFeeScalar": "0xa118b",
      "l1Fee": "0x51",
      "l1GasPrice": "0x9",
      "l1GasUsed": "0x640"
    },
    {
      "status": "0x1",
      "cumulativeGasUsed": "0xef6f34",
      "logs": [],
      "logsBloom": "0x00000000000000000000000000000000000000000000000000000000000000000000000000000000000000000000000000000000000000000000000000000000000000000000000000000000000000000000000000000000000000000000000000000000000000000000000000000000000000000000000000000000000000000000000000000000000000000000000000000000000000000000000000000000000000000000000000000000000000000000000000000000000000000000000000000000000000000000000000000000000000000000000000000000000000000000000000000000000000000000000000000000000000000000000000000000",
      "type": "0x2",
      "transactionHash": "0xea3306f6ed8f9466cb8ecb7cebe5855ef3e0abd8baa2dda17e40d41a4cc18488",
      "transactionIndex": "0x50",
      "blockHash": "0x29ef0d4c7369a925c505615c9d186f064a563e2c58d4377bc89b416dfb4cc88b",
      "blockNumber": "0x1ef3338",
      "gasUsed": "0xc9ee",
      "effectiveGasPrice": "0xf4291",
      "from": "0x0b3d62df33521cdce79e87586d7c1534b00ecad7",
      "to": "0x0d0877adc36e506a9328c100fdae71d743454242",
      "contractAddress": null,
      "l1BaseFeeScalar": "0x44d",
      "l1BlobBaseFee": "0x1",
      "l1BlobBaseFeeScalar": "0xa118b",
      "l1Fee": "0x51",
      "l1GasPrice": "0x9",
      "l1GasUsed": "0x640"
    },
    {
      "status": "0x1",
      "cumulativeGasUsed": "0x8f8e5",
      "logs": [],
      "logsBloom": "0x00000000000000000000000000000000000000000000000000000000000000000000000000000000000000000000000000000000000000000000000000000000000000000000000000000000000000000000000000000000000000000000000000000000000000000000000000000000000000000000000000000000000000000000000000000000000000000000000000000000000000000000000000000000000000000000000000000000000000000000000000000000000000000000000000000000000000000000000000000000000000000000000000000000000000000000000000000000000000000000000000000000000000000000000000000000",
      "type": "0x2",
      "transactionHash": "0xbe91e0ed7467654daef0d5fa32c87d30582a4253d5dccea2bf075a55e406447f",
      "transactionIndex": "0x8",
      "blockHash": "0x6fec944d804682cf76925fe134385a2451d8dfab813e53d2c65a1b0e32ed61e2",
      "blockNumber": "0x1ef3339",
      "gasUsed": "0xc9ee",
      "effectiveGasPrice": "0xf4292",
      "from": "0x0b3d62df33521cdce79e87586d7c1534b00ecad7",
      "to": "0x0d0877adc36e506a9328c100fdae71d743454242",
      "contractAddress": null,
      "l1BaseFeeScalar": "0x44d",
      "l1BlobBaseFee": "0x1",
      "l1BlobBaseFeeScalar": "0xa118b",
      "l1Fee": "0x51",
      "l1GasPrice": "0x9",
      "l1GasUsed": "0x640"
    },
    {
      "status": "0x1",
      "cumulativeGasUsed": "0x9c2d3",
      "logs": [],
      "logsBloom": "0x00000000000000000000000000000000000000000000000000000000000000000000000000000000000000000000000000000000000000000000000000000000000000000000000000000000000000000000000000000000000000000000000000000000000000000000000000000000000000000000000000000000000000000000000000000000000000000000000000000000000000000000000000000000000000000000000000000000000000000000000000000000000000000000000000000000000000000000000000000000000000000000000000000000000000000000000000000000000000000000000000000000000000000000000000000000",
      "type": "0x2",
      "transactionHash": "0x990d03f0db53c02af52097ce414fceaf9e24418ea103c40d298c1acc9c8fb6eb",
      "transactionIndex": "0x9",
      "blockHash": "0x6fec944d804682cf76925fe134385a2451d8dfab813e53d2c65a1b0e32ed61e2",
      "blockNumber": "0x1ef3339",
      "gasUsed": "0xc9ee",
      "effectiveGasPrice": "0xf4292",
      "from": "0x0b3d62df33521cdce79e87586d7c1534b00ecad7",
      "to": "0x0d0877adc36e506a9328c100fdae71d743454242",
      "contractAddress": null,
      "l1BaseFeeScalar": "0x44d",
      "l1BlobBaseFee": "0x1",
      "l1BlobBaseFeeScalar": "0xa118b",
      "l1Fee": "0x51",
      "l1GasPrice": "0x9",
      "l1GasUsed": "0x640"
    },
    {
      "status": "0x1",
      "cumulativeGasUsed": "0xa8cc1",
      "logs": [],
      "logsBloom": "0x00000000000000000000000000000000000000000000000000000000000000000000000000000000000000000000000000000000000000000000000000000000000000000000000000000000000000000000000000000000000000000000000000000000000000000000000000000000000000000000000000000000000000000000000000000000000000000000000000000000000000000000000000000000000000000000000000000000000000000000000000000000000000000000000000000000000000000000000000000000000000000000000000000000000000000000000000000000000000000000000000000000000000000000000000000000",
      "type": "0x2",
      "transactionHash": "0x4563bece5883262ad951157cae56e4214bb98bacf8ab483293b149ac0c3d200d",
      "transactionIndex": "0xa",
      "blockHash": "0x4794b76ad8aff57bfa5920ac011c5ef36ee847286950ebc984d7755c0cca7e06",
      "blockNumber": "0x1ef3339",
      "gasUsed": "0xc9ee",
      "effectiveGasPrice": "0xf4292",
      "from": "0x0b3d62df33521cdce79e87586d7c1534b00ecad7",
      "to": "0x0d0877adc36e506a9328c100fdae71d743454242",
      "contractAddress": null,
      "l1BaseFeeScalar": "0x44d",
      "l1BlobBaseFee": "0x1",
      "l1BlobBaseFeeScalar": "0xa118b",
      "l1Fee": "0x51",
      "l1GasPrice": "0x9",
      "l1GasUsed": "0x640"
    },
    {
      "status": "0x1",
      "cumulativeGasUsed": "0xb56af",
      "logs": [],
      "logsBloom": "0x00000000000000000000000000000000000000000000000000000000000000000000000000000000000000000000000000000000000000000000000000000000000000000000000000000000000000000000000000000000000000000000000000000000000000000000000000000000000000000000000000000000000000000000000000000000000000000000000000000000000000000000000000000000000000000000000000000000000000000000000000000000000000000000000000000000000000000000000000000000000000000000000000000000000000000000000000000000000000000000000000000000000000000000000000000000",
      "type": "0x2",
      "transactionHash": "0x3b655f2bdad58eaa3fee0b8904c58f9877790037101395aa92bce6a18588e217",
      "transactionIndex": "0xb",
      "blockHash": "0x6fec944d804682cf76925fe134385a2451d8dfab813e53d2c65a1b0e32ed61e2",
      "blockNumber": "0x1ef3339",
      "gasUsed": "0xc9ee",
      "effectiveGasPrice": "0xf4292",
      "from": "0x0b3d62df33521cdce79e87586d7c1534b00ecad7",
      "to": "0x0d0877adc36e506a9328c100fdae71d743454242",
      "contractAddress": null,
      "l1BaseFeeScalar": "0x44d",
      "l1BlobBaseFee": "0x1",
      "l1BlobBaseFeeScalar": "0xa118b",
      "l1Fee": "0x51",
      "l1GasPrice": "0x9",
      "l1GasUsed": "0x640"
    },
    {
      "status": "0x1",
      "cumulativeGasUsed": "0xc209d",
      "logs": [],
      "logsBloom": "0x00000000000000000000000000000000000000000000000000000000000000000000000000000000000000000000000000000000000000000000000000000000000000000000000000000000000000000000000000000000000000000000000000000000000000000000000000000000000000000000000000000000000000000000000000000000000000000000000000000000000000000000000000000000000000000000000000000000000000000000000000000000000000000000000000000000000000000000000000000000000000000000000000000000000000000000000000000000000000000000000000000000000000000000000000000000",
      "type": "0x2",
      "transactionHash": "0x0f902677e76e04e38c4409fc95186fe6b1e836a104ac1e87a1e272299070051e",
      "transactionIndex": "0xc",
      "blockHash": "0x6fec944d804682cf76925fe134385a2451d8dfab813e53d2c65a1b0e32ed61e2",
      "blockNumber": "0x1ef3339",
      "gasUsed": "0xc9ee",
      "effectiveGasPrice": "0xf4292",
      "from": "0x0b3d62df33521cdce79e87586d7c1534b00ecad7",
      "to": "0x0d0877adc36e506a9328c100fdae71d743454242",
      "contractAddress": null,
      "l1BaseFeeScalar": "0x44d",
      "l1BlobBaseFee": "0x1",
      "l1BlobBaseFeeScalar": "0xa118b",
      "l1Fee": "0x51",
      "l1GasPrice": "0x9",
      "l1GasUsed": "0x640"
    },
    {
      "status": "0x1",
      "cumulativeGasUsed": "0xcea8b",
      "logs": [],
      "logsBloom": "0x00000000000000000000000000000000000000000000000000000000000000000000000000000000000000000000000000000000000000000000000000000000000000000000000000000000000000000000000000000000000000000000000000000000000000000000000000000000000000000000000000000000000000000000000000000000000000000000000000000000000000000000000000000000000000000000000000000000000000000000000000000000000000000000000000000000000000000000000000000000000000000000000000000000000000000000000000000000000000000000000000000000000000000000000000000000",
      "type": "0x2",
      "transactionHash": "0x551782c77c28626637e445f319180221a271a484b15a576853a9478be4ec0e09",
      "transactionIndex": "0xd",
      "blockHash": "0x6fec944d804682cf76925fe134385a2451d8dfab813e53d2c65a1b0e32ed61e2",
      "blockNumber": "0x1ef3339",
      "gasUsed": "0xc9ee",
      "effectiveGasPrice": "0xf4292",
      "from": "0x0b3d62df33521cdce79e87586d7c1534b00ecad7",
      "to": "0x0d0877adc36e506a9328c100fdae71d743454242",
      "contractAddress": null,
      "l1BaseFeeScalar": "0x44d",
      "l1BlobBaseFee": "0x1",
      "l1BlobBaseFeeScalar": "0xa118b",
      "l1Fee": "0x51",
      "l1GasPrice": "0x9",
      "l1GasUsed": "0x640"
    }
  ],
  "libraries": [],
  "pending": [],
  "returns": {},
  "timestamp": 1760675155,
  "chain": 84532,
  "commit": "326baa9"
}