{
  "transactions": [
    {
      "hash": "0x666d4e1dd5b714329caeed30c1934c071ef8c0ae652dc0770393bc711ee4d001",
      "transactionType": "CALL",
      "contractName": null,
      "contractAddress": "0x49068e2715667b3b110509513c5556724666a33a",
      "function": "clearKOLs()",
      "arguments": [],
      "transaction": {
        "from": "0x0b3d62df33521cdce79e87586d7c1534b00ecad7",
        "to": "0x49068e2715667b3b110509513c5556724666a33a",
        "gas": "0x89d9",
        "value": "0x0",
        "input": "0x1540ceeb",
        "nonce": "0xc0",
        "chainId": "0x14a34"
      },
      "additionalContracts": [],
      "isFixedGasLimit": false
    },
    {
      "hash": "0x639bee42e9b5e5dcc7541a41ad50776b2ba944edd04f8234d1016bd82cc53e6a",
      "transactionType": "CALL",
      "contractName": null,
      "contractAddress": "0x49068e2715667b3b110509513c5556724666a33a",
      "function": "addKOL(bytes32)",
      "arguments": [
        "0x54ee7dc2425581581c47469e5eb1f5eed4233fcbddf6c7592f1580aa348c89b4"
      ],
      "transaction": {
        "from": "0x0b3d62df33521cdce79e87586d7c1534b00ecad7",
        "to": "0x49068e2715667b3b110509513c5556724666a33a",
        "gas": "0x18902",
        "value": "0x0",
        "input": "0xf08fd6d654ee7dc2425581581c47469e5eb1f5eed4233fcbddf6c7592f1580aa348c89b4",
        "nonce": "0xc1",
        "chainId": "0x14a34"
      },
      "additionalContracts": [],
      "isFixedGasLimit": false
    },
    {
      "hash": "0xc8509a22fb4aae877bcd8e03e4da2ec04ac37a7b9e789728f13636c28749191c",
      "transactionType": "CALL",
      "contractName": null,
      "contractAddress": "0x49068e2715667b3b110509513c5556724666a33a",
      "function": "addKOL(bytes32)",
      "arguments": [
        "0xfa4dffc9e824f830cf7d07fc7765ba1d7b344d923dd9083258189156f4932796"
      ],
      "transaction": {
        "from": "0x0b3d62df33521cdce79e87586d7c1534b00ecad7",
        "to": "0x49068e2715667b3b110509513c5556724666a33a",
        "gas": "0x116e9",
        "value": "0x0",
        "input": "0xf08fd6d6fa4dffc9e824f830cf7d07fc7765ba1d7b344d923dd9083258189156f4932796",
        "nonce": "0xc2",
        "chainId": "0x14a34"
      },
      "additionalContracts": [],
      "isFixedGasLimit": false
    },
    {
      "hash": "0x975090c48cfc6a8dd1e6a3484865075d66d53db5b435dffc5220836ffb817187",
      "transactionType": "CALL",
      "contractName": null,
      "contractAddress": "0x49068e2715667b3b110509513c5556724666a33a",
      "function": "addKOL(bytes32)",
      "arguments": [
        "0x33fd3a1a2f6025be5b2d3026fea143df162bb647c138b6d16851023d3c6518a7"
      ],
      "transaction": {
        "from": "0x0b3d62df33521cdce79e87586d7c1534b00ecad7",
        "to": "0x49068e2715667b3b110509513c5556724666a33a",
        "gas": "0x116e9",
        "value": "0x0",
        "input": "0xf08fd6d633fd3a1a2f6025be5b2d3026fea143df162bb647c138b6d16851023d3c6518a7",
        "nonce": "0xc3",
        "chainId": "0x14a34"
      },
      "additionalContracts": [],
      "isFixedGasLimit": false
    },
    {
      "hash": "0x56f6a46ff7e92fc91250e6731f76eff14ac188f99a0834fe7c69921e9a03e0c6",
      "transactionType": "CALL",
      "contractName": null,
      "contractAddress": "0x49068e2715667b3b110509513c5556724666a33a",
      "function": "addKOL(bytes32)",
      "arguments": [
        "0x4577b1186726aefd500341efa18943241fb9994e2e412da5cc558d28c6e52ddf"
      ],
      "transaction": {
        "from": "0x0b3d62df33521cdce79e87586d7c1534b00ecad7",
        "to": "0x49068e2715667b3b110509513c5556724666a33a",
        "gas": "0x116e9",
        "value": "0x0",
        "input": "0xf08fd6d64577b1186726aefd500341efa18943241fb9994e2e412da5cc558d28c6e52ddf",
        "nonce": "0xc4",
        "chainId": "0x14a34"
      },
      "additionalContracts": [],
      "isFixedGasLimit": false
    },
    {
      "hash": "0x38406743378bb4b7d25159348209796c15678f587a67c26b50dd51e1943ba1f2",
      "transactionType": "CALL",
      "contractName": null,
      "contractAddress": "0x49068e2715667b3b110509513c5556724666a33a",
      "function": "addKOL(bytes32)",
      "arguments": [
        "0xcb43db8e11342c57139c6028ef0ca9ff0606bfa1218225ea9a0ccb7e42206362"
      ],
      "transaction": {
        "from": "0x0b3d62df33521cdce79e87586d7c1534b00ecad7",
        "to": "0x49068e2715667b3b110509513c5556724666a33a",
        "gas": "0x116e9",
        "value": "0x0",
        "input": "0xf08fd6d6cb43db8e11342c57139c6028ef0ca9ff0606bfa1218225ea9a0ccb7e42206362",
        "nonce": "0xc5",
        "chainId": "0x14a34"
      },
      "additionalContracts": [],
      "isFixedGasLimit": false
    },
    {
      "hash": "0x36bb2dd9d3977c3d3e36dfde8459a62761c110826631032705700b79a79d9083",
      "transactionType": "CALL",
      "contractName": null,
      "contractAddress": "0x49068e2715667b3b110509513c5556724666a33a",
      "function": "addKOL(bytes32)",
      "arguments": [
        "0x673c01c3285d988aa04a27f5a542a4a304005c687956087d40ac2df25856dcdb"
      ],
      "transaction": {
        "from": "0x0b3d62df33521cdce79e87586d7c1534b00ecad7",
        "to": "0x49068e2715667b3b110509513c5556724666a33a",
        "gas": "0x12740",
        "value": "0x0",
        "input": "0xf08fd6d6673c01c3285d988aa04a27f5a542a4a304005c687956087d40ac2df25856dcdb",
        "nonce": "0xc6",
        "chainId": "0x14a34"
      },
      "additionalContracts": [],
      "isFixedGasLimit": false
    },
    {
      "hash": "0x11346708432e84883cf36b48ce724df9b199e31a835046c506a759fbb55e5bd3",
      "transactionType": "CALL",
      "contractName": null,
      "contractAddress": "0x49068e2715667b3b110509513c5556724666a33a",
      "function": "addKOL(bytes32)",
      "arguments": [
        "0x0524cdf42f7e19c1b50b880d9d343bed05b80f21f29ecec6cff29e9657177853"
      ],
      "transaction": {
        "from": "0x0b3d62df33521cdce79e87586d7c1534b00ecad7",
        "to": "0x49068e2715667b3b110509513c5556724666a33a",
        "gas": "0x116e9",
        "value": "0x0",
        "input": "0xf08fd6d60524cdf42f7e19c1b50b880d9d343bed05b80f21f29ecec6cff29e9657177853",
        "nonce": "0xc7",
        "chainId": "0x14a34"
      },
      "additionalContracts": [],
      "isFixedGasLimit": false
    },
    {
      "hash": "0x6853b8e65e3984fdd1fb9c43057a4f0801fb92b18287d8f75f45d82d9f8db764",
      "transactionType": "CALL",
      "contractName": null,
      "contractAddress": "0x49068e2715667b3b110509513c5556724666a33a",
      "function": "addKOL(bytes32)",
      "arguments": [
        "0x48c5a7987a74c243ccde734e1679bd0ec85b03ad4b0d329815fa18a928bed2ca"
      ],
      "transaction": {
        "from": "0x0b3d62df33521cdce79e87586d7c1534b00ecad7",
        "to": "0x49068e2715667b3b110509513c5556724666a33a",
        "gas": "0x116e9",
        "value": "0x0",
        "input": "0xf08fd6d648c5a7987a74c243ccde734e1679bd0ec85b03ad4b0d329815fa18a928bed2ca",
        "nonce": "0xc8",
        "chainId": "0x14a34"
      },
      "additionalContracts": [],
      "isFixedGasLimit": false
    },
    {
      "hash": "0xef68a61c1f4e8d7caf2595028ab84e3172275d3c4f11c93b34c78f9516cbe897",
      "transactionType": "CALL",
      "contractName": null,
      "contractAddress": "0x49068e2715667b3b110509513c5556724666a33a",
      "function": "addKOL(bytes32)",
      "arguments": [
        "0xf62eed8c614d9af05170cfd5366e70ce2b5b581277ed9bda90ee06ec1c0ac70b"
      ],
      "transaction": {
        "from": "0x0b3d62df33521cdce79e87586d7c1534b00ecad7",
        "to": "0x49068e2715667b3b110509513c5556724666a33a",
        "gas": "0x116e9",
        "value": "0x0",
        "input": "0xf08fd6d6f62eed8c614d9af05170cfd5366e70ce2b5b581277ed9bda90ee06ec1c0ac70b",
        "nonce": "0xc9",
        "chainId": "0x14a34"
      },
      "additionalContracts": [],
      "isFixedGasLimit": false
    },
    {
      "hash": "0x5237d8ee786b08d876e55de25fe025b190c5a32287668836f9ddea47136ac7e0",
      "transactionType": "CALL",
      "contractName": null,
      "contractAddress": "0x49068e2715667b3b110509513c5556724666a33a",
      "function": "addKOL(bytes32)",
      "arguments": [
        "0x1607be6baa59b952f720dc10f894f0fb97723aa12c72c2f925dfbd8f301ea770"
      ],
      "transaction": {
        "from": "0x0b3d62df33521cdce79e87586d7c1534b00ecad7",
        "to": "0x49068e2715667b3b110509513c5556724666a33a",
        "gas": "0x116e9",
        "value": "0x0",
        "input": "0xf08fd6d61607be6baa59b952f720dc10f894f0fb97723aa12c72c2f925dfbd8f301ea770",
        "nonce": "0xca",
        "chainId": "0x14a34"
      },
      "additionalContracts": [],
      "isFixedGasLimit": false
    },
    {
      "hash": "0x473950594c3a0ab08ad6b66fec7e253e08421ce4d44cdfa8569238f7f7971c99",
      "transactionType": "CALL",
      "contractName": null,
      "contractAddress": "0x49068e2715667b3b110509513c5556724666a33a",
      "function": "addKOL(bytes32)",
      "arguments": [
        "0xc6efb078ba9e17a714af044d45caa889df54c72db5a8f519a48117964c45e811"
      ],
      "transaction": {
        "from": "0x0b3d62df33521cdce79e87586d7c1534b00ecad7",
        "to": "0x49068e2715667b3b110509513c5556724666a33a",
        "gas": "0x116e9",
        "value": "0x0",
        "input": "0xf08fd6d6c6efb078ba9e17a714af044d45caa889df54c72db5a8f519a48117964c45e811",
        "nonce": "0xcb",
        "chainId": "0x14a34"
      },
      "additionalContracts": [],
      "isFixedGasLimit": false
    },
    {
      "hash": "0x3277ba301d72a025c534c6816f3d6bfc2e05e2183d78fe5bb1b666e4c66c3578",
      "transactionType": "CALL",
      "contractName": null,
      "contractAddress": "0x49068e2715667b3b110509513c5556724666a33a",
      "function": "addKOL(bytes32)",
      "arguments": [
        "0xbcf86f88c85a4d7c8956da3d72aa06352a87f16a97cd2c9897a07492f92a6ad2"
      ],
      "transaction": {
        "from": "0x0b3d62df33521cdce79e87586d7c1534b00ecad7",
        "to": "0x49068e2715667b3b110509513c5556724666a33a",
        "gas": "0x116e9",
        "value": "0x0",
        "input": "0xf08fd6d6bcf86f88c85a4d7c8956da3d72aa06352a87f16a97cd2c9897a07492f92a6ad2",
        "nonce": "0xcc",
        "chainId": "0x14a34"
      },
      "additionalContracts": [],
      "isFixedGasLimit": false
    },
    {
      "hash": "0xe26faa78044c81019103df06f7cf08c505ea4de70432985316e7afadc1df4a4c",
      "transactionType": "CALL",
      "contractName": null,
      "contractAddress": "0x49068e2715667b3b110509513c5556724666a33a",
      "function": "addKOL(bytes32)",
      "arguments": [
        "0x6dc2f619db0779da93991f96b7d19da693074782b6575cd6617f98bb4ff77bdc"
      ],
      "transaction": {
        "from": "0x0b3d62df33521cdce79e87586d7c1534b00ecad7",
        "to": "0x49068e2715667b3b110509513c5556724666a33a",
        "gas": "0x116e9",
        "value": "0x0",
        "input": "0xf08fd6d66dc2f619db0779da93991f96b7d19da693074782b6575cd6617f98bb4ff77bdc",
        "nonce": "0xcd",
        "chainId": "0x14a34"
      },
      "additionalContracts": [],
      "isFixedGasLimit": false
    },
    {
      "hash": "0xbdf747da76f4c0147f82fb524a99fc9a98944cf6b3f1415a7b1a5386975aab1e",
      "transactionType": "CALL",
      "contractName": null,
      "contractAddress": "0x49068e2715667b3b110509513c5556724666a33a",
      "function": "addKOL(bytes32)",
      "arguments": [
        "0x89a423337cdbf4041d1f104772e9b3b58f5c0141b08227b35aab83cab7e0e1ed"
      ],
      "transaction": {
        "from": "0x0b3d62df33521cdce79e87586d7c1534b00ecad7",
        "to": "0x49068e2715667b3b110509513c5556724666a33a",
        "gas": "0x116e9",
        "value": "0x0",
        "input": "0xf08fd6d689a423337cdbf4041d1f104772e9b3b58f5c0141b08227b35aab83cab7e0e1ed",
        "nonce": "0xce",
        "chainId": "0x14a34"
      },
      "additionalContracts": [],
      "isFixedGasLimit": false
    },
    {
      "hash": "0x8f79bce1f072958241cbf819748173d0c65884306e46831a539a40afb9275744",
      "transactionType": "CALL",
      "contractName": null,
      "contractAddress": "0x49068e2715667b3b110509513c5556724666a33a",
      "function": "addKOL(bytes32)",
      "arguments": [
        "0xdbbb309b2d1e68f542ca8002db4910bef497c5ad9e7e7c1168159960dd05d2e7"
      ],
      "transaction": {
        "from": "0x0b3d62df33521cdce79e87586d7c1534b00ecad7",
        "to": "0x49068e2715667b3b110509513c5556724666a33a",
        "gas": "0x116e9",
        "value": "0x0",
        "input": "0xf08fd6d6dbbb309b2d1e68f542ca8002db4910bef497c5ad9e7e7c1168159960dd05d2e7",
        "nonce": "0xcf",
        "chainId": "0x14a34"
      },
      "additionalContracts": [],
      "isFixedGasLimit": false
    }
  ],
  "receipts": [
    {
      "status": "0x1",
      "cumulativeGasUsed": "0x416a9f",
      "logs": [],
      "logsBloom": "0x00000000000000000000000000000000000000000000000000000000000000000000000000000000000000000000000000000000000000000000000000000000000000000000000000000000000000000000000000000000000000000000000000000000000000000000000000000000000000000000000000000000000000000000000000000000000000000000000000000000000000000000000000000000000000000000000000000000000000000000000000000000000000000000000000000000000000000000000000000000000000000000000000000000000000000000000000000000000000000000000000000000000000000000000000000000",
      "type": "0x2",
      "transactionHash": "0x666d4e1dd5b714329caeed30c1934c071ef8c0ae652dc0770393bc711ee4d001",
      "transactionIndex": "0x34",
      "blockHash": "0xaa977f315de66719976d8f4ba9cc28a7ba56bdcb5cae2bdab5b6a0c075b1f114",
      "blockNumber": "0x1ef7d18",
      "gasUsed": "0x63ce",
      "effectiveGasPrice": "0xf42b0",
      "from": "0x0b3d62df33521cdce79e87586d7c1534b00ecad7",
      "to": "0x49068e2715667b3b110509513c5556724666a33a",
      "contractAddress": null,
      "l1BaseFeeScalar": "0x44d",
      "l1BlobBaseFee": "0x1",
      "l1BlobBaseFeeScalar": "0xa118b",
      "l1Fee": "0x55",
      "l1GasPrice": "0xb",
      "l1GasUsed": "0x640"
    },
    {
      "status": "0x1",
      "cumulativeGasUsed": "0x47941",
      "logs": [],
      "logsBloom": "0x00000000000000000000000000000000000000000000000000000000000000000000000000000000000000000000000000000000000000000000000000000000000000000000000000000000000000000000000000000000000000000000000000000000000000000000000000000000000000000000000000000000000000000000000000000000000000000000000000000000000000000000000000000000000000000000000000000000000000000000000000000000000000000000000000000000000000000000000000000000000000000000000000000000000000000000000000000000000000000000000000000000000000000000000000000000",
      "type": "0x2",
      "transactionHash": "0x639bee42e9b5e5dcc7541a41ad50776b2ba944edd04f8234d1016bd82cc53e6a",
      "transactionIndex": "0x3",
      "blockHash": "0x36a4d91bfec970aee599cba2dff9f8fe8d1da0d5b5efcf84191e6a4c88adabc3",
      "blockNumber": "0x1ef7d19",
      "gasUsed": "0x10cba",
      "effectiveGasPrice": "0xf42af",
      "from": "0x0b3d62df33521cdce79e87586d7c1534b00ecad7",
      "to": "0x49068e2715667b3b110509513c5556724666a33a",
      "contractAddress": null,
      "l1BaseFeeScalar": "0x44d",
      "l1BlobBaseFee": "0x1",
      "l1BlobBaseFeeScalar": "0xa118b",
      "l1Fee": "0x55",
      "l1GasPrice": "0xb",
      "l1GasUsed": "0x640"
    },
    {
      "status": "0x1",
      "cumulativeGasUsed": "0x5e418",
      "logs": [],
      "logsBloom": "0x00000000000000000000000000000000000000000000000000000000000000000000000000000000000000000000000000000000000000000000000000000000000000000000000000000000000000000000000000000000000000000000000000000000000000000000000000000000000000000000000000000000000000000000000000000000000000000000000000000000000000000000000000000000000000000000000000000000000000000000000000000000000000000000000000000000000000000000000000000000000000000000000000000000000000000000000000000000000000000000000000000000000000000000000000000000",
      "type": "0x2",
      "transactionHash": "0xc8509a22fb4aae877bcd8e03e4da2ec04ac37a7b9e789728f13636c28749191c",
      "transactionIndex": "0x5",
      "blockHash": "0xb96748e4a2960aa030fd3da2338bee60e557425caa003db42360a6c4d4e2ba52",
      "blockNumber": "0x1ef7d19",
      "gasUsed": "0xc9ee",
      "effectiveGasPrice": "0xf42af",
      "from": "0x0b3d62df33521cdce79e87586d7c1534b00ecad7",
      "to": "0x49068e2715667b3b110509513c5556724666a33a",
      "contractAddress": null,
      "l1BaseFeeScalar": "0x44d",
      "l1BlobBaseFee": "0x1",
      "l1BlobBaseFeeScalar": "0xa118b",
      "l1Fee": "0x55",
      "l1GasPrice": "0xb",
      "l1GasUsed": "0x640"
    },
    {
      "status": "0x1",
      "cumulativeGasUsed": "0x6ae06",
      "logs": [],
      "logsBloom": "0x00000000000000000000000000000000000000000000000000000000000000000000000000000000000000000000000000000000000000000000000000000000000000000000000000000000000000000000000000000000000000000000000000000000000000000000000000000000000000000000000000000000000000000000000000000000000000000000000000000000000000000000000000000000000000000000000000000000000000000000000000000000000000000000000000000000000000000000000000000000000000000000000000000000000000000000000000000000000000000000000000000000000000000000000000000000",
      "type": "0x2",
      "transactionHash": "0x975090c48cfc6a8dd1e6a3484865075d66d53db5b435dffc5220836ffb817187",
      "transactionIndex": "0x6",
      "blockHash": "0xb96748e4a2960aa030fd3da2338bee60e557425caa003db42360a6c4d4e2ba52",
      "blockNumber": "0x1ef7d19",
      "gasUsed": "0xc9ee",
      "effectiveGasPrice": "0xf42af",
      "from": "0x0b3d62df33521cdce79e87586d7c1534b00ecad7",
      "to": "0x49068e2715667b3b110509513c5556724666a33a",
      "contractAddress": null,
      "l1BaseFeeScalar": "0x44d",
      "l1BlobBaseFee": "0x1",
      "l1BlobBaseFeeScalar": "0xa118b",
      "l1Fee": "0x55",
      "l1GasPrice": "0xb",
      "l1GasUsed": "0x640"
    },
    {
      "status": "0x1",
      "cumulativeGasUsed": "0x818f5",
      "logs": [],
      "logsBloom": "0x00000000000000000000000000000000000000000000000000000000000000000000000000000000000000000000000000000000000000000000000000000000000000000000000000000000000000000000000000000000000000000000000000000000000000000000000000000000000000000000000000000000000000000000000000000000000000000000000000000000000000000000000000000000000000000000000000000000000000000000000000000000000000000000000000000000000000000000000000000000000000000000000000000000000000000000000000000000000000000000000000000000000000000000000000000000",
      "type": "0x2",
      "transactionHash": "0x56f6a46ff7e92fc91250e6731f76eff14ac188f99a0834fe7c69921e9a03e0c6",
      "transactionIndex": "0x8",
      "blockHash": "0x36a4d91bfec970aee599cba2dff9f8fe8d1da0d5b5efcf84191e6a4c88adabc3",
      "blockNumber": "0x1ef7d19",
      "gasUsed": "0xc9ee",
      "effectiveGasPrice": "0xf42af",
      "from": "0x0b3d62df33521cdce79e87586d7c1534b00ecad7",
      "to": "0x49068e2715667b3b110509513c5556724666a33a",
      "contractAddress": null,
      "l1BaseFeeScalar": "0x44d",
      "l1BlobBaseFee": "0x1",
      "l1BlobBaseFeeScalar": "0xa118b",
      "l1Fee": "0x55",
      "l1GasPrice": "0xb",
      "l1GasUsed": "0x640"
    },
    {
      "status": "0x1",
      "cumulativeGasUsed": "0x8e2e3",
      "logs": [],
      "logsBloom": "0x00000000000000000000000000000000000000000000000000000000000000000000000000000000000000000000000000000000000000000000000000000000000000000000000000000000000000000000000000000000000000000000000000000000000000000000000000000000000000000000000000000000000000000000000000000000000000000000000000000000000000000000000000000000000000000000000000000000000000000000000000000000000000000000000000000000000000000000000000000000000000000000000000000000000000000000000000000000000000000000000000000000000000000000000000000000",
      "type": "0x2",
      "transactionHash": "0x38406743378bb4b7d25159348209796c15678f587a67c26b50dd51e1943ba1f2",
      "transactionIndex": "0x9",
      "blockHash": "0x36a4d91bfec970aee599cba2dff9f8fe8d1da0d5b5efcf84191e6a4c88adabc3",
      "blockNumber": "0x1ef7d19",
      "gasUsed": "0xc9ee",
      "effectiveGasPrice": "0xf42af",
      "from": "0x0b3d62df33521cdce79e87586d7c1534b00ecad7",
      "to": "0x49068e2715667b3b110509513c5556724666a33a",
      "contractAddress": null,
      "l1BaseFeeScalar": "0x44d",
      "l1BlobBaseFee": "0x1",
      "l1BlobBaseFeeScalar": "0xa118b",
      "l1Fee": "0x55",
      "l1GasPrice": "0xb",
      "l1GasUsed": "0x640"
    },
    {
      "status": "0x1",
      "cumulativeGasUsed": "0x9acc5",
      "logs": [],
      "logsBloom": "0x00000000000000000000000000000000000000000000000000000000000000000000000000000000000000000000000000000000000000000000000000000000000000000000000000000000000000000000000000000000000000000000000000000000000000000000000000000000000000000000000000000000000000000000000000000000000000000000000000000000000000000000000000000000000000000000000000000000000000000000000000000000000000000000000000000000000000000000000000000000000000000000000000000000000000000000000000000000000000000000000000000000000000000000000000000000",
      "type": "0x2",
      "transactionHash": "0x36bb2dd9d3977c3d3e36dfde8459a62761c110826631032705700b79a79d9083",
      "transactionIndex": "0xa",
      "blockHash": "0xb96748e4a2960aa030fd3da2338bee60e557425caa003db42360a6c4d4e2ba52",
      "blockNumber": "0x1ef7d19",
      "gasUsed": "0xc9e2",
      "effectiveGasPrice": "0xf42af",
      "from": "0x0b3d62df33521cdce79e87586d7c1534b00ecad7",
      "to": "0x49068e2715667b3b110509513c5556724666a33a",
      "contractAddress": null,
      "l1BaseFeeScalar": "0x44d",
      "l1BlobBaseFee": "0x1",
      "l1BlobBaseFeeScalar": "0xa118b",
      "l1Fee": "0x55",
      "l1GasPrice": "0xb",
      "l1GasUsed": "0x640"
    },
    {
      "status": "0x1",
      "cumulativeGasUsed": "0xa76b3",
      "logs": [],
      "logsBloom": "0x00000000000000000000000000000000000000000000000000000000000000000000000000000000000000000000000000000000000000000000000000000000000000000000000000000000000000000000000000000000000000000000000000000000000000000000000000000000000000000000000000000000000000000000000000000000000000000000000000000000000000000000000000000000000000000000000000000000000000000000000000000000000000000000000000000000000000000000000000000000000000000000000000000000000000000000000000000000000000000000000000000000000000000000000000000000",
      "type": "0x2",
      "transactionHash": "0x11346708432e84883cf36b48ce724df9b199e31a835046c506a759fbb55e5bd3",
      "transactionIndex": "0xb",
      "blockHash": "0x36a4d91bfec970aee599cba2dff9f8fe8d1da0d5b5efcf84191e6a4c88adabc3",
      "blockNumber": "0x1ef7d19",
      "gasUsed": "0xc9ee",
      "effectiveGasPrice": "0xf42af",
      "from": "0x0b3d62df33521cdce79e87586d7c1534b00ecad7",
      "to": "0x49068e2715667b3b110509513c5556724666a33a",
      "contractAddress": null,
      "l1BaseFeeScalar": "0x44d",
      "l1BlobBaseFee": "0x1",
      "l1BlobBaseFeeScalar": "0xa118b",
      "l1Fee": "0x55",
      "l1GasPrice": "0xb",
      "l1GasUsed": "0x640"
    },
    {
      "status": "0x1",
      "cumulativeGasUsed": "0x13828f",
      "logs": [],
      "logsBloom": "0x00000000000000000000000000000000000000000000000000000000000000000000000000000000000000000000000000000000000000000000000000000000000000000000000000000000000000000000000000000000000000000000000000000000000000000000000000000000000000000000000000000000000000000000000000000000000000000000000000000000000000000000000000000000000000000000000000000000000000000000000000000000000000000000000000000000000000000000000000000000000000000000000000000000000000000000000000000000000000000000000000000000000000000000000000000000",
      "type": "0x2",
      "transactionHash": "0x6853b8e65e3984fdd1fb9c43057a4f0801fb92b18287d8f75f45d82d9f8db764",
      "transactionIndex": "0x13",
      "blockHash": "0xb96748e4a2960aa030fd3da2338bee60e557425caa003db42360a6c4d4e2ba52",
      "blockNumber": "0x1ef7d19",
      "gasUsed": "0xc9ee",
      "effectiveGasPrice": "0xf42af",
      "from": "0x0b3d62df33521cdce79e87586d7c1534b00ecad7",
      "to": "0x49068e2715667b3b110509513c5556724666a33a",
      "contractAddress": null,
      "l1BaseFeeScalar": "0x44d",
      "l1BlobBaseFee": "0x1",
      "l1BlobBaseFeeScalar": "0xa118b",
      "l1Fee": "0x55",
      "l1GasPrice": "0xb",
      "l1GasUsed": "0x640"
    },
    {
      "status": "0x1",
      "cumulativeGasUsed": "0x158e5b",
      "logs": [],
      "logsBloom": "0x00000000000000000000000000000000000000000000000000000000000000000000000000000000000000000000000000000000000000000000000000000000000000000000000000000000000000000000000000000000000000000000000000000000000000000000000000000000000000000000000000000000000000000000000000000000000000000000000000000000000000000000000000000000000000000000000000000000000000000000000000000000000000000000000000000000000000000000000000000000000000000000000000000000000000000000000000000000000000000000000000000000000000000000000000000000",
      "type": "0x2",
      "transactionHash": "0xef68a61c1f4e8d7caf2595028ab84e3172275d3c4f11c93b34c78f9516cbe897",
      "transactionIndex": "0x16",
      "blockHash": "0xb2cb06b4db24d394be83169ebffa2b2265a46e9c028489e211ee994b45073c35",
      "blockNumber": "0x1ef7d19",
      "gasUsed": "0xc9ee",
      "effectiveGasPrice": "0xf42af",
      "from": "0x0b3d62df33521cdce79e87586d7c1534b00ecad7",
      "to": "0x49068e2715667b3b110509513c5556724666a33a",
      "contractAddress": null,
      "l1BaseFeeScalar": "0x44d",
      "l1BlobBaseFee": "0x1",
      "l1BlobBaseFeeScalar": "0xa118b",
      "l1Fee": "0x55",
      "l1GasPrice": "0xb",
      "l1GasUsed": "0x640"
    },
    {
      "status": "0x1",
      "cumulativeGasUsed": "0x1789e7",
      "logs": [],
      "logsBloom": "0x00000000000000000000000000000000000000000000000000000000000000000000000000000000000000000000000000000000000000000000000000000000000000000000000000000000000000000000000000000000000000000000000000000000000000000000000000000000000000000000000000000000000000000000000000000000000000000000000000000000000000000000000000000000000000000000000000000000000000000000000000000000000000000000000000000000000000000000000000000000000000000000000000000000000000000000000000000000000000000000000000000000000000000000000000000000",
      "type": "0x2",
      "transactionHash": "0x5237d8ee786b08d876e55de25fe025b190c5a32287668836f9ddea47136ac7e0",
      "transactionIndex": "0x18",
      "blockHash": "0x224d8e5d9c25251ae099c64de93adc6c8d1a04f0c876d78e98992c028eef04b7",
      "blockNumber": "0x1ef7d19",
      "gasUsed": "0xc9ee",
      "effectiveGasPrice": "0xf42af",
      "from": "0x0b3d62df33521cdce79e87586d7c1534b00ecad7",
      "to": "0x49068e2715667b3b110509513c5556724666a33a",
      "contractAddress": null,
      "l1BaseFeeScalar": "0x44d",
      "l1BlobBaseFee": "0x1",
      "l1BlobBaseFeeScalar": "0xa118b",
      "l1Fee": "0x55",
      "l1GasPrice": "0xb",
      "l1GasUsed": "0x640"
    },
    {
      "status": "0x1",
      "cumulativeGasUsed": "0x1853d5",
      "logs": [],
      "logsBloom": "0x00000000000000000000000000000000000000000000000000000000000000000000000000000000000000000000000000000000000000000000000000000000000000000000000000000000000000000000000000000000000000000000000000000000000000000000000000000000000000000000000000000000000000000000000000000000000000000000000000000000000000000000000000000000000000000000000000000000000000000000000000000000000000000000000000000000000000000000000000000000000000000000000000000000000000000000000000000000000000000000000000000000000000000000000000000000",
      "type": "0x2",
      "transactionHash": "0x473950594c3a0ab08ad6b66fec7e253e08421ce4d44cdfa8569238f7f7971c99",
      "transactionIndex": "0x19",
      "blockHash": "0x224d8e5d9c25251ae099c64de93adc6c8d1a04f0c876d78e98992c028eef04b7",
      "blockNumber": "0x1ef7d19",
      "gasUsed": "0xc9ee",
      "effectiveGasPrice": "0xf42af",
      "from": "0x0b3d62df33521cdce79e87586d7c1534b00ecad7",
      "to": "0x49068e2715667b3b110509513c5556724666a33a",
      "contractAddress": null,
      "l1BaseFeeScalar": "0x44d",
      "l1BlobBaseFee": "0x1",
      "l1BlobBaseFeeScalar": "0xa118b",
      "l1Fee": "0x55",
      "l1GasPrice": "0xb",
      "l1GasUsed": "0x640"
    },
    {
      "status": "0x1",
      "cumulativeGasUsed": "0x191dc3",
      "logs": [],
      "logsBloom": "0x00000000000000000000000000000000000000000000000000000000000000000000000000000000000000000000000000000000000000000000000000000000000000000000000000000000000000000000000000000000000000000000000000000000000000000000000000000000000000000000000000000000000000000000000000000000000000000000000000000000000000000000000000000000000000000000000000000000000000000000000000000000000000000000000000000000000000000000000000000000000000000000000000000000000000000000000000000000000000000000000000000000000000000000000000000000",
      "type": "0x2",
      "transactionHash": "0x3277ba301d72a025c534c6816f3d6bfc2e05e2183d78fe5bb1b666e4c66c3578",
      "transactionIndex": "0x1a",
      "blockHash": "0x224d8e5d9c25251ae099c64de93adc6c8d1a04f0c876d78e98992c028eef04b7",
      "blockNumber": "0x1ef7d19",
      "gasUsed": "0xc9ee",
      "effectiveGasPrice": "0xf42af",
      "from": "0x0b3d62df33521cdce79e87586d7c1534b00ecad7",
      "to": "0x49068e2715667b3b110509513c5556724666a33a",
      "contractAddress": null,
      "l1BaseFeeScalar": "0x44d",
      "l1BlobBaseFee": "0x1",
      "l1BlobBaseFeeScalar": "0xa118b",
      "l1Fee": "0x55",
      "l1GasPrice": "0xb",
      "l1GasUsed": "0x640"
    },
    {
      "status": "0x1",
      "cumulativeGasUsed": "0x19e7b1",
      "logs": [],
      "logsBloom": "0x00000000000000000000000000000000000000000000000000000000000000000000000000000000000000000000000000000000000000000000000000000000000000000000000000000000000000000000000000000000000000000000000000000000000000000000000000000000000000000000000000000000000000000000000000000000000000000000000000000000000000000000000000000000000000000000000000000000000000000000000000000000000000000000000000000000000000000000000000000000000000000000000000000000000000000000000000000000000000000000000000000000000000000000000000000000",
      "type": "0x2",
      "transactionHash": "0xe26faa78044c81019103df06f7cf08c505ea4de70432985316e7afadc1df4a4c",
      "transactionIndex": "0x1b",
      "blockHash": "0x224d8e5d9c25251ae099c64de93adc6c8d1a04f0c876d78e98992c028eef04b7",
      "blockNumber": "0x1ef7d19",
      "gasUsed": "0xc9ee",
      "effectiveGasPrice": "0xf42af",
      "from": "0x0b3d62df33521cdce79e87586d7c1534b00ecad7",
      "to": "0x49068e2715667b3b110509513c5556724666a33a",
      "contractAddress": null,
      "l1BaseFeeScalar": "0x44d",
      "l1BlobBaseFee": "0x1",
      "l1BlobBaseFeeScalar": "0xa118b",
      "l1Fee": "0x55",
      "l1GasPrice": "0xb",
      "l1GasUsed": "0x640"
    },
    {
      "status": "0x1",
      "cumulativeGasUsed": "0x1ab19f",
      "logs": [],
      "logsBloom": "0x00000000000000000000000000000000000000000000000000000000000000000000000000000000000000000000000000000000000000000000000000000000000000000000000000000000000000000000000000000000000000000000000000000000000000000000000000000000000000000000000000000000000000000000000000000000000000000000000000000000000000000000000000000000000000000000000000000000000000000000000000000000000000000000000000000000000000000000000000000000000000000000000000000000000000000000000000000000000000000000000000000000000000000000000000000000",
      "type": "0x2",
      "transactionHash": "0xbdf747da76f4c0147f82fb524a99fc9a98944cf6b3f1415a7b1a5386975aab1e",
      "transactionIndex": "0x1c",
      "blockHash": "0x224d8e5d9c25251ae099c64de93adc6c8d1a04f0c876d78e98992c028eef04b7",
      "blockNumber": "0x1ef7d19",
      "gasUsed": "0xc9ee",
      "effectiveGasPrice": "0xf42af",
      "from": "0x0b3d62df33521cdce79e87586d7c1534b00ecad7",
      "to": "0x49068e2715667b3b110509513c5556724666a33a",
      "contractAddress": null,
      "l1BaseFeeScalar": "0x44d",
      "l1BlobBaseFee": "0x1",
      "l1BlobBaseFeeScalar": "0xa118b",
      "l1Fee": "0x55",
      "l1GasPrice": "0xb",
      "l1GasUsed": "0x640"
    },
    {
      "status": "0x1",
      "cumulativeGasUsed": "0x1cbd77",
      "logs": [],
      "logsBloom": "0x00000000000000000000000000000000000000000000000000000000000000000000000000000000000000000000000000000000000000000000000000000000000000000000000000000000000000000000000000000000000000000000000000000000000000000000000000000000000000000000000000000000000000000000000000000000000000000000000000000000000000000000000000000000000000000000000000000000000000000000000000000000000000000000000000000000000000000000000000000000000000000000000000000000000000000000000000000000000000000000000000000000000000000000000000000000",
      "type": "0x2",
      "transactionHash": "0x8f79bce1f072958241cbf819748173d0c65884306e46831a539a40afb9275744",
      "transactionIndex": "0x1f",
      "blockHash": "0x224d8e5d9c25251ae099c64de93adc6c8d1a04f0c876d78e98992c028eef04b7",
      "blockNumber": "0x1ef7d19",
      "gasUsed": "0xc9ee",
      "effectiveGasPrice": "0xf42af",
      "from": "0x0b3d62df33521cdce79e87586d7c1534b00ecad7",
      "to": "0x49068e2715667b3b110509513c5556724666a33a",
      "contractAddress": null,
      "l1BaseFeeScalar": "0x44d",
      "l1BlobBaseFee": "0x1",
      "l1BlobBaseFeeScalar": "0xa118b",
      "l1Fee": "0x55",
      "l1GasPrice": "0xb",
      "l1GasUsed": "0x640"
    }
  ],
  "libraries": [],
  "pending": [],
  "returns": {},
  "timestamp": 1760712979,
  "chain": 84532,
  "commit": "c6387da"
}