{
  "transactions": [
    {
      "hash": "0x9197ad66dd47d678306997f54c356f81a08ed6b979eb0b0103c39fd523878906",
      "transactionType": "CALL",
      "contractName": null,
      "contractAddress": "0xa24a62c8abb916d791a3473675cf37db222689b3",
      "function": "clearKOLs()",
      "arguments": [],
      "transaction": {
        "from": "0x0b3d62df33521cdce79e87586d7c1534b00ecad7",
        "to": "0xa24a62c8abb916d791a3473675cf37db222689b3",
        "gas": "0x89d9",
        "value": "0x0",
        "input": "0x1540ceeb",
        "nonce": "0xaf",
        "chainId": "0x14a34"
      },
      "additionalContracts": [],
      "isFixedGasLimit": false
    },
    {
      "hash": "0x6aa4de3ca5831b4a0d765e82646e63e947fbe256d5d4cab49a38b228237f6066",
      "transactionType": "CALL",
      "contractName": null,
      "contractAddress": "0xa24a62c8abb916d791a3473675cf37db222689b3",
      "function": "addKOL(bytes32)",
      "arguments": [
        "0x54ee7dc2425581581c47469e5eb1f5eed4233fcbddf6c7592f1580aa348c89b4"
      ],
      "transaction": {
        "from": "0x0b3d62df33521cdce79e87586d7c1534b00ecad7",
        "to": "0xa24a62c8abb916d791a3473675cf37db222689b3",
        "gas": "0x18902",
        "value": "0x0",
        "input": "0xf08fd6d654ee7dc2425581581c47469e5eb1f5eed4233fcbddf6c7592f1580aa348c89b4",
        "nonce": "0xb0",
        "chainId": "0x14a34"
      },
      "additionalContracts": [],
      "isFixedGasLimit": false
    },
    {
      "hash": "0x57d3f486ddbf9f44e923aae2ec0a29d9f9fb40bda644e07eb99124753c5f3aea",
      "transactionType": "CALL",
      "contractName": null,
      "contractAddress": "0xa24a62c8abb916d791a3473675cf37db222689b3",
      "function": "addKOL(bytes32)",
      "arguments": [
        "0xfa4dffc9e824f830cf7d07fc7765ba1d7b344d923dd9083258189156f4932796"
      ],
      "transaction": {
        "from": "0x0b3d62df33521cdce79e87586d7c1534b00ecad7",
        "to": "0xa24a62c8abb916d791a3473675cf37db222689b3",
        "gas": "0x116e9",
        "value": "0x0",
        "input": "0xf08fd6d6fa4dffc9e824f830cf7d07fc7765ba1d7b344d923dd9083258189156f4932796",
        "nonce": "0xb1",
        "chainId": "0x14a34"
      },
      "additionalContracts": [],
      "isFixedGasLimit": false
    },
    {
      "hash": "0x94a7f72a92e01d88b842c5e56242840936756aabf89bffcfd45000cd872d74b2",
      "transactionType": "CALL",
      "contractName": null,
      "contractAddress": "0xa24a62c8abb916d791a3473675cf37db222689b3",
      "function": "addKOL(bytes32)",
      "arguments": [
        "0x33fd3a1a2f6025be5b2d3026fea143df162bb647c138b6d16851023d3c6518a7"
      ],
      "transaction": {
        "from": "0x0b3d62df33521cdce79e87586d7c1534b00ecad7",
        "to": "0xa24a62c8abb916d791a3473675cf37db222689b3",
        "gas": "0x116e9",
        "value": "0x0",
        "input": "0xf08fd6d633fd3a1a2f6025be5b2d3026fea143df162bb647c138b6d16851023d3c6518a7",
        "nonce": "0xb2",
        "chainId": "0x14a34"
      },
      "additionalContracts": [],
      "isFixedGasLimit": false
    },
    {
      "hash": "0xa0cf886e46ff0fc2953f31ed54bb841c905be52dfe82d70425b660ae321dc5dc",
      "transactionType": "CALL",
      "contractName": null,
      "contractAddress": "0xa24a62c8abb916d791a3473675cf37db222689b3",
      "function": "addKOL(bytes32)",
      "arguments": [
        "0x4577b1186726aefd500341efa18943241fb9994e2e412da5cc558d28c6e52ddf"
      ],
      "transaction": {
        "from": "0x0b3d62df33521cdce79e87586d7c1534b00ecad7",
        "to": "0xa24a62c8abb916d791a3473675cf37db222689b3",
        "gas": "0x116e9",
        "value": "0x0",
        "input": "0xf08fd6d64577b1186726aefd500341efa18943241fb9994e2e412da5cc558d28c6e52ddf",
        "nonce": "0xb3",
        "chainId": "0x14a34"
      },
      "additionalContracts": [],
      "isFixedGasLimit": false
    },
    {
      "hash": "0xd4fc4a5b76422f6e33b89adf64c4d1dba8c7befe9b82e0d736d8ecc5ad3a86e4",
      "transactionType": "CALL",
      "contractName": null,
      "contractAddress": "0xa24a62c8abb916d791a3473675cf37db222689b3",
      "function": "addKOL(bytes32)",
      "arguments": [
        "0xcb43db8e11342c57139c6028ef0ca9ff0606bfa1218225ea9a0ccb7e42206362"
      ],
      "transaction": {
        "from": "0x0b3d62df33521cdce79e87586d7c1534b00ecad7",
        "to": "0xa24a62c8abb916d791a3473675cf37db222689b3",
        "gas": "0x116e9",
        "value": "0x0",
        "input": "0xf08fd6d6cb43db8e11342c57139c6028ef0ca9ff0606bfa1218225ea9a0ccb7e42206362",
        "nonce": "0xb4",
        "chainId": "0x14a34"
      },
      "additionalContracts": [],
      "isFixedGasLimit": false
    },
    {
      "hash": "0x53f025419062c73cde319b85c0063552f704e4e9db985388b4dcb74ae9f44236",
      "transactionType": "CALL",
      "contractName": null,
      "contractAddress": "0xa24a62c8abb916d791a3473675cf37db222689b3",
      "function": "addKOL(bytes32)",
      "arguments": [
        "0x673c01c3285d988aa04a27f5a542a4a304005c687956087d40ac2df25856dcdb"
      ],
      "transaction": {
        "from": "0x0b3d62df33521cdce79e87586d7c1534b00ecad7",
        "to": "0xa24a62c8abb916d791a3473675cf37db222689b3",
        "gas": "0x12740",
        "value": "0x0",
        "input": "0xf08fd6d6673c01c3285d988aa04a27f5a542a4a304005c687956087d40ac2df25856dcdb",
        "nonce": "0xb5",
        "chainId": "0x14a34"
      },
      "additionalContracts": [],
      "isFixedGasLimit": false
    },
    {
      "hash": "0x2637de4d443cbd5d5fb62e58849deb6d8ebedbdc35b98d57fd9dbf1768b42fb1",
      "transactionType": "CALL",
      "contractName": null,
      "contractAddress": "0xa24a62c8abb916d791a3473675cf37db222689b3",
      "function": "addKOL(bytes32)",
      "arguments": [
        "0x0524cdf42f7e19c1b50b880d9d343bed05b80f21f29ecec6cff29e9657177853"
      ],
      "transaction": {
        "from": "0x0b3d62df33521cdce79e87586d7c1534b00ecad7",
        "to": "0xa24a62c8abb916d791a3473675cf37db222689b3",
        "gas": "0x116e9",
        "value": "0x0",
        "input": "0xf08fd6d60524cdf42f7e19c1b50b880d9d343bed05b80f21f29ecec6cff29e9657177853",
        "nonce": "0xb6",
        "chainId": "0x14a34"
      },
      "additionalContracts": [],
      "isFixedGasLimit": false
    },
    {
      "hash": "0xe7e0f3ce588937f780b3d2202a7a4f3a113578844c325cab29a9d3f7163c3106",
      "transactionType": "CALL",
      "contractName": null,
      "contractAddress": "0xa24a62c8abb916d791a3473675cf37db222689b3",
      "function": "addKOL(bytes32)",
      "arguments": [
        "0x48c5a7987a74c243ccde734e1679bd0ec85b03ad4b0d329815fa18a928bed2ca"
      ],
      "transaction": {
        "from": "0x0b3d62df33521cdce79e87586d7c1534b00ecad7",
        "to": "0xa24a62c8abb916d791a3473675cf37db222689b3",
        "gas": "0x116e9",
        "value": "0x0",
        "input": "0xf08fd6d648c5a7987a74c243ccde734e1679bd0ec85b03ad4b0d329815fa18a928bed2ca",
        "nonce": "0xb7",
        "chainId": "0x14a34"
      },
      "additionalContracts": [],
      "isFixedGasLimit": false
    },
    {
      "hash": "0x23ad09f1cc50c17f7ed332511e0c27cfa68113e425dc3ccaa88200ca02b6e2f9",
      "transactionType": "CALL",
      "contractName": null,
      "contractAddress": "0xa24a62c8abb916d791a3473675cf37db222689b3",
      "function": "addKOL(bytes32)",
      "arguments": [
        "0xf62eed8c614d9af05170cfd5366e70ce2b5b581277ed9bda90ee06ec1c0ac70b"
      ],
      "transaction": {
        "from": "0x0b3d62df33521cdce79e87586d7c1534b00ecad7",
        "to": "0xa24a62c8abb916d791a3473675cf37db222689b3",
        "gas": "0x116e9",
        "value": "0x0",
        "input": "0xf08fd6d6f62eed8c614d9af05170cfd5366e70ce2b5b581277ed9bda90ee06ec1c0ac70b",
        "nonce": "0xb8",
        "chainId": "0x14a34"
      },
      "additionalContracts": [],
      "isFixedGasLimit": false
    },
    {
      "hash": "0x30153a7e314dd2dace2612e0f0925cde11b07c73bbe68a5ccca5ff213448220f",
      "transactionType": "CALL",
      "contractName": null,
      "contractAddress": "0xa24a62c8abb916d791a3473675cf37db222689b3",
      "function": "addKOL(bytes32)",
      "arguments": [
        "0x1607be6baa59b952f720dc10f894f0fb97723aa12c72c2f925dfbd8f301ea770"
      ],
      "transaction": {
        "from": "0x0b3d62df33521cdce79e87586d7c1534b00ecad7",
        "to": "0xa24a62c8abb916d791a3473675cf37db222689b3",
        "gas": "0x116e9",
        "value": "0x0",
        "input": "0xf08fd6d61607be6baa59b952f720dc10f894f0fb97723aa12c72c2f925dfbd8f301ea770",
        "nonce": "0xb9",
        "chainId": "0x14a34"
      },
      "additionalContracts": [],
      "isFixedGasLimit": false
    },
    {
      "hash": "0xe08569b96796f3713c2e079b278ea56833f1179f75f89ad4f56e710ebcb82b58",
      "transactionType": "CALL",
      "contractName": null,
      "contractAddress": "0xa24a62c8abb916d791a3473675cf37db222689b3",
      "function": "addKOL(bytes32)",
      "arguments": [
        "0xc6efb078ba9e17a714af044d45caa889df54c72db5a8f519a48117964c45e811"
      ],
      "transaction": {
        "from": "0x0b3d62df33521cdce79e87586d7c1534b00ecad7",
        "to": "0xa24a62c8abb916d791a3473675cf37db222689b3",
        "gas": "0x116e9",
        "value": "0x0",
        "input": "0xf08fd6d6c6efb078ba9e17a714af044d45caa889df54c72db5a8f519a48117964c45e811",
        "nonce": "0xba",
        "chainId": "0x14a34"
      },
      "additionalContracts": [],
      "isFixedGasLimit": false
    },
    {
      "hash": "0xb2a1fa578b92151a135c69d1ff069e73c23f9c370454d9b5c7593c2e609aebf8",
      "transactionType": "CALL",
      "contractName": null,
      "contractAddress": "0xa24a62c8abb916d791a3473675cf37db222689b3",
      "function": "addKOL(bytes32)",
      "arguments": [
        "0xbcf86f88c85a4d7c8956da3d72aa06352a87f16a97cd2c9897a07492f92a6ad2"
      ],
      "transaction": {
        "from": "0x0b3d62df33521cdce79e87586d7c1534b00ecad7",
        "to": "0xa24a62c8abb916d791a3473675cf37db222689b3",
        "gas": "0x116e9",
        "value": "0x0",
        "input": "0xf08fd6d6bcf86f88c85a4d7c8956da3d72aa06352a87f16a97cd2c9897a07492f92a6ad2",
        "nonce": "0xbb",
        "chainId": "0x14a34"
      },
      "additionalContracts": [],
      "isFixedGasLimit": false
    },
    {
      "hash": "0x60124499037804ab5733cff13eb33fc9c8df9c5114437e0186a11949568668ca",
      "transactionType": "CALL",
      "contractName": null,
      "contractAddress": "0xa24a62c8abb916d791a3473675cf37db222689b3",
      "function": "addKOL(bytes32)",
      "arguments": [
        "0x6dc2f619db0779da93991f96b7d19da693074782b6575cd6617f98bb4ff77bdc"
      ],
      "transaction": {
        "from": "0x0b3d62df33521cdce79e87586d7c1534b00ecad7",
        "to": "0xa24a62c8abb916d791a3473675cf37db222689b3",
        "gas": "0x116e9",
        "value": "0x0",
        "input": "0xf08fd6d66dc2f619db0779da93991f96b7d19da693074782b6575cd6617f98bb4ff77bdc",
        "nonce": "0xbc",
        "chainId": "0x14a34"
      },
      "additionalContracts": [],
      "isFixedGasLimit": false
    },
    {
      "hash": "0x2064304d47a8091b6cb4e08a124bcab8c9bcb6d6e22156f8f4a9ff512ed3963f",
      "transactionType": "CALL",
      "contractName": null,
      "contractAddress": "0xa24a62c8abb916d791a3473675cf37db222689b3",
      "function": "addKOL(bytes32)",
      "arguments": [
        "0x89a423337cdbf4041d1f104772e9b3b58f5c0141b08227b35aab83cab7e0e1ed"
      ],
      "transaction": {
        "from": "0x0b3d62df33521cdce79e87586d7c1534b00ecad7",
        "to": "0xa24a62c8abb916d791a3473675cf37db222689b3",
        "gas": "0x116e9",
        "value": "0x0",
        "input": "0xf08fd6d689a423337cdbf4041d1f104772e9b3b58f5c0141b08227b35aab83cab7e0e1ed",
        "nonce": "0xbd",
        "chainId": "0x14a34"
      },
      "additionalContracts": [],
      "isFixedGasLimit": false
    },
    {
      "hash": "0xbef48824195fee2e86d1822425f21c0e64a8e0cb5020bc851bb6cd90291db837",
      "transactionType": "CALL",
      "contractName": null,
      "contractAddress": "0xa24a62c8abb916d791a3473675cf37db222689b3",
      "function": "addKOL(bytes32)",
      "arguments": [
        "0xdbbb309b2d1e68f542ca8002db4910bef497c5ad9e7e7c1168159960dd05d2e7"
      ],
      "transaction": {
        "from": "0x0b3d62df33521cdce79e87586d7c1534b00ecad7",
        "to": "0xa24a62c8abb916d791a3473675cf37db222689b3",
        "gas": "0x116e9",
        "value": "0x0",
        "input": "0xf08fd6d6dbbb309b2d1e68f542ca8002db4910bef497c5ad9e7e7c1168159960dd05d2e7",
        "nonce": "0xbe",
        "chainId": "0x14a34"
      },
      "additionalContracts": [],
      "isFixedGasLimit": false
    }
  ],
  "receipts": [
    {
      "status": "0x1",
      "cumulativeGasUsed": "0xb98f9c",
      "logs": [],
      "logsBloom": "0x00000000000000000000000000000000000000000000000000000000000000000000000000000000000000000000000000000000000000000000000000000000000000000000000000000000000000000000000000000000000000000000000000000000000000000000000000000000000000000000000000000000000000000000000000000000000000000000000000000000000000000000000000000000000000000000000000000000000000000000000000000000000000000000000000000000000000000000000000000000000000000000000000000000000000000000000000000000000000000000000000000000000000000000000000000000",
      "type": "0x2",
      "transactionHash": "0x9197ad66dd47d678306997f54c356f81a08ed6b979eb0b0103c39fd523878906",
      "transactionIndex": "0x33",
      "blockHash": "0x101542e95fb38f4971b928783f8221681903d22aa01ccfb01d808a582282238d",
      "blockNumber": "0x1ef70d4",
      "gasUsed": "0x63ce",
      "effectiveGasPrice": "0xf42b3",
      "from": "0x0b3d62df33521cdce79e87586d7c1534b00ecad7",
      "to": "0xa24a62c8abb916d791a3473675cf37db222689b3",
      "contractAddress": null,
      "l1BaseFeeScalar": "0x44d",
      "l1BlobBaseFee": "0x1",
      "l1BlobBaseFeeScalar": "0xa118b",
      "l1Fee": "0x55",
      "l1GasPrice": "0xb",
      "l1GasUsed": "0x640"
    },
    {
      "status": "0x1",
      "cumulativeGasUsed": "0xe2c36",
      "logs": [],
      "logsBloom": "0x00000000000000000000000000000000000000000000000000000000000000000000000000000000000000000000000000000000000000000000000000000000000000000000000000000000000000000000000000000000000000000000000000000000000000000000000000000000000000000000000000000000000000000000000000000000000000000000000000000000000000000000000000000000000000000000000000000000000000000000000000000000000000000000000000000000000000000000000000000000000000000000000000000000000000000000000000000000000000000000000000000000000000000000000000000000",
      "type": "0x2",
      "transactionHash": "0x6aa4de3ca5831b4a0d765e82646e63e947fbe256d5d4cab49a38b228237f6066",
      "transactionIndex": "0x4",
      "blockHash": "0x0b28b93a73a5f9901e2cddc1bbc082f2eb23d7a76beaa1583b11aecf305c99e3",
      "blockNumber": "0x1ef70d5",
      "gasUsed": "0x10cba",
      "effectiveGasPrice": "0xf42b3",
      "from": "0x0b3d62df33521cdce79e87586d7c1534b00ecad7",
      "to": "0xa24a62c8abb916d791a3473675cf37db222689b3",
      "contractAddress": null,
      "l1BaseFeeScalar": "0x44d",
      "l1BlobBaseFee": "0x1",
      "l1BlobBaseFeeScalar": "0xa118b",
      "l1Fee": "0x55",
      "l1GasPrice": "0xb",
      "l1GasUsed": "0x640"
    },
    {
      "status": "0x1",
      "cumulativeGasUsed": "0xef624",
      "logs": [],
      "logsBloom": "0x00000000000000000000000000000000000000000000000000000000000000000000000000000000000000000000000000000000000000000000000000000000000000000000000000000000000000000000000000000000000000000000000000000000000000000000000000000000000000000000000000000000000000000000000000000000000000000000000000000000000000000000000000000000000000000000000000000000000000000000000000000000000000000000000000000000000000000000000000000000000000000000000000000000000000000000000000000000000000000000000000000000000000000000000000000000",
      "type": "0x2",
      "transactionHash": "0x57d3f486ddbf9f44e923aae2ec0a29d9f9fb40bda644e07eb99124753c5f3aea",
      "transactionIndex": "0x5",
      "blockHash": "0x0b28b93a73a5f9901e2cddc1bbc082f2eb23d7a76beaa1583b11aecf305c99e3",
      "blockNumber": "0x1ef70d5",
      "gasUsed": "0xc9ee",
      "effectiveGasPrice": "0xf42b3",
      "from": "0x0b3d62df33521cdce79e87586d7c1534b00ecad7",
      "to": "0xa24a62c8abb916d791a3473675cf37db222689b3",
      "contractAddress": null,
      "l1BaseFeeScalar": "0x44d",
      "l1BlobBaseFee": "0x1",
      "l1BlobBaseFeeScalar": "0xa118b",
      "l1Fee": "0x55",
      "l1GasPrice": "0xb",
      "l1GasUsed": "0x640"
    },
    {
      "status": "0x1",
      "cumulativeGasUsed": "0xfc012",
      "logs": [],
      "logsBloom": "0x00000000000000000000000000000000000000000000000000000000000000000000000000000000000000000000000000000000000000000000000000000000000000000000000000000000000000000000000000000000000000000000000000000000000000000000000000000000000000000000000000000000000000000000000000000000000000000000000000000000000000000000000000000000000000000000000000000000000000000000000000000000000000000000000000000000000000000000000000000000000000000000000000000000000000000000000000000000000000000000000000000000000000000000000000000000",
      "type": "0x2",
      "transactionHash": "0x94a7f72a92e01d88b842c5e56242840936756aabf89bffcfd45000cd872d74b2",
      "transactionIndex": "0x6",
      "blockHash": "0x0b28b93a73a5f9901e2cddc1bbc082f2eb23d7a76beaa1583b11aecf305c99e3",
      "blockNumber": "0x1ef70d5",
      "gasUsed": "0xc9ee",
      "effectiveGasPrice": "0xf42b3",
      "from": "0x0b3d62df33521cdce79e87586d7c1534b00ecad7",
      "to": "0xa24a62c8abb916d791a3473675cf37db222689b3",
      "contractAddress": null,
      "l1BaseFeeScalar": "0x44d",
      "l1BlobBaseFee": "0x1",
      "l1BlobBaseFeeScalar": "0xa118b",
      "l1Fee": "0x55",
      "l1GasPrice": "0xb",
      "l1GasUsed": "0x640"
    },
    {
      "status": "0x1",
      "cumulativeGasUsed": "0x108a00",
      "logs": [],
      "logsBloom": "0x00000000000000000000000000000000000000000000000000000000000000000000000000000000000000000000000000000000000000000000000000000000000000000000000000000000000000000000000000000000000000000000000000000000000000000000000000000000000000000000000000000000000000000000000000000000000000000000000000000000000000000000000000000000000000000000000000000000000000000000000000000000000000000000000000000000000000000000000000000000000000000000000000000000000000000000000000000000000000000000000000000000000000000000000000000000",
      "type": "0x2",
      "transactionHash": "0xa0cf886e46ff0fc2953f31ed54bb841c905be52dfe82d70425b660ae321dc5dc",
      "transactionIndex": "0x7",
      "blockHash": "0x0b28b93a73a5f9901e2cddc1bbc082f2eb23d7a76beaa1583b11aecf305c99e3",
      "blockNumber": "0x1ef70d5",
      "gasUsed": "0xc9ee",
      "effectiveGasPrice": "0xf42b3",
      "from": "0x0b3d62df33521cdce79e87586d7c1534b00ecad7",
      "to": "0xa24a62c8abb916d791a3473675cf37db222689b3",
      "contractAddress": null,
      "l1BaseFeeScalar": "0x44d",
      "l1BlobBaseFee": "0x1",
      "l1BlobBaseFeeScalar": "0xa118b",
      "l1Fee": "0x55",
      "l1GasPrice": "0xb",
      "l1GasUsed": "0x640"
    },
    {
      "status": "0x1",
      "cumulativeGasUsed": "0x1153ee",
      "logs": [],
      "logsBloom": "0x00000000000000000000000000000000000000000000000000000000000000000000000000000000000000000000000000000000000000000000000000000000000000000000000000000000000000000000000000000000000000000000000000000000000000000000000000000000000000000000000000000000000000000000000000000000000000000000000000000000000000000000000000000000000000000000000000000000000000000000000000000000000000000000000000000000000000000000000000000000000000000000000000000000000000000000000000000000000000000000000000000000000000000000000000000000",
      "type": "0x2",
      "transactionHash": "0xd4fc4a5b76422f6e33b89adf64c4d1dba8c7befe9b82e0d736d8ecc5ad3a86e4",
      "transactionIndex": "0x8",
      "blockHash": "0x0b28b93a73a5f9901e2cddc1bbc082f2eb23d7a76beaa1583b11aecf305c99e3",
      "blockNumber": "0x1ef70d5",
      "gasUsed": "0xc9ee",
      "effectiveGasPrice": "0xf42b3",
      "from": "0x0b3d62df33521cdce79e87586d7c1534b00ecad7",
      "to": "0xa24a62c8abb916d791a3473675cf37db222689b3",
      "contractAddress": null,
      "l1BaseFeeScalar": "0x44d",
      "l1BlobBaseFee": "0x1",
      "l1BlobBaseFeeScalar": "0xa118b",
      "l1Fee": "0x55",
      "l1GasPrice": "0xb",
      "l1GasUsed": "0x640"
    },
    {
      "status": "0x1",
      "cumulativeGasUsed": "0x121dd0",
      "logs": [],
      "logsBloom": "0x00000000000000000000000000000000000000000000000000000000000000000000000000000000000000000000000000000000000000000000000000000000000000000000000000000000000000000000000000000000000000000000000000000000000000000000000000000000000000000000000000000000000000000000000000000000000000000000000000000000000000000000000000000000000000000000000000000000000000000000000000000000000000000000000000000000000000000000000000000000000000000000000000000000000000000000000000000000000000000000000000000000000000000000000000000000",
      "type": "0x2",
      "transactionHash": "0x53f025419062c73cde319b85c0063552f704e4e9db985388b4dcb74ae9f44236",
      "transactionIndex": "0x9",
      "blockHash": "0x0b28b93a73a5f9901e2cddc1bbc082f2eb23d7a76beaa1583b11aecf305c99e3",
      "blockNumber": "0x1ef70d5",
      "gasUsed": "0xc9e2",
      "effectiveGasPrice": "0xf42b3",
      "from": "0x0b3d62df33521cdce79e87586d7c1534b00ecad7",
      "to": "0xa24a62c8abb916d791a3473675cf37db222689b3",
      "contractAddress": null,
      "l1BaseFeeScalar": "0x44d",
      "l1BlobBaseFee": "0x1",
      "l1BlobBaseFeeScalar": "0xa118b",
      "l1Fee": "0x55",
      "l1GasPrice": "0xb",
      "l1GasUsed": "0x640"
    },
    {
      "status": "0x1",
      "cumulativeGasUsed": "0x12e7be",
      "logs": [],
      "logsBloom": "0x00000000000000000000000000000000000000000000000000000000000000000000000000000000000000000000000000000000000000000000000000000000000000000000000000000000000000000000000000000000000000000000000000000000000000000000000000000000000000000000000000000000000000000000000000000000000000000000000000000000000000000000000000000000000000000000000000000000000000000000000000000000000000000000000000000000000000000000000000000000000000000000000000000000000000000000000000000000000000000000000000000000000000000000000000000000",
      "type": "0x2",
      "transactionHash": "0x2637de4d443cbd5d5fb62e58849deb6d8ebedbdc35b98d57fd9dbf1768b42fb1",
      "transactionIndex": "0xa",
      "blockHash": "0x0b28b93a73a5f9901e2cddc1bbc082f2eb23d7a76beaa1583b11aecf305c99e3",
      "blockNumber": "0x1ef70d5",
      "gasUsed": "0xc9ee",
      "effectiveGasPrice": "0xf42b3",
      "from": "0x0b3d62df33521cdce79e87586d7c1534b00ecad7",
      "to": "0xa24a62c8abb916d791a3473675cf37db222689b3",
      "contractAddress": null,
      "l1BaseFeeScalar": "0x44d",
      "l1BlobBaseFee": "0x1",
      "l1BlobBaseFeeScalar": "0xa118b",
      "l1Fee": "0x55",
      "l1GasPrice": "0xb",
      "l1GasUsed": "0x640"
    },
    {
      "status": "0x1",
      "cumulativeGasUsed": "0x228c8c",
      "logs": [],
      "logsBloom": "0x00000000000000000000000000000000000000000000000000000000000000000000000000000000000000000000000000000000000000000000000000000000000000000000000000000000000000000000000000000000000000000000000000000000000000000000000000000000000000000000000000000000000000000000000000000000000000000000000000000000000000000000000000000000000000000000000000000000000000000000000000000000000000000000000000000000000000000000000000000000000000000000000000000000000000000000000000000000000000000000000000000000000000000000000000000000",
      "type": "0x2",
      "transactionHash": "0xe7e0f3ce588937f780b3d2202a7a4f3a113578844c325cab29a9d3f7163c3106",
      "transactionIndex": "0x12",
      "blockHash": "0x0b28b93a73a5f9901e2cddc1bbc082f2eb23d7a76beaa1583b11aecf305c99e3",
      "blockNumber": "0x1ef70d5",
      "gasUsed": "0xc9ee",
      "effectiveGasPrice": "0xf42b3",
      "from": "0x0b3d62df33521cdce79e87586d7c1534b00ecad7",
      "to": "0xa24a62c8abb916d791a3473675cf37db222689b3",
      "contractAddress": null,
      "l1BaseFeeScalar": "0x44d",
      "l1BlobBaseFee": "0x1",
      "l1BlobBaseFeeScalar": "0xa118b",
      "l1Fee": "0x55",
      "l1GasPrice": "0xb",
      "l1GasUsed": "0x640"
    },
    {
      "status": "0x1",
      "cumulativeGasUsed": "0x2a0300",
      "logs": [],
      "logsBloom": "0x00000000000000000000000000000000000000000000000000000000000000000000000000000000000000000000000000000000000000000000000000000000000000000000000000000000000000000000000000000000000000000000000000000000000000000000000000000000000000000000000000000000000000000000000000000000000000000000000000000000000000000000000000000000000000000000000000000000000000000000000000000000000000000000000000000000000000000000000000000000000000000000000000000000000000000000000000000000000000000000000000000000000000000000000000000000",
      "type": "0x2",
      "transactionHash": "0x23ad09f1cc50c17f7ed332511e0c27cfa68113e425dc3ccaa88200ca02b6e2f9",
      "transactionIndex": "0x18",
      "blockHash": "0x0b28b93a73a5f9901e2cddc1bbc082f2eb23d7a76beaa1583b11aecf305c99e3",
      "blockNumber": "0x1ef70d5",
      "gasUsed": "0xc9ee",
      "effectiveGasPrice": "0xf42b3",
      "from": "0x0b3d62df33521cdce79e87586d7c1534b00ecad7",
      "to": "0xa24a62c8abb916d791a3473675cf37db222689b3",
      "contractAddress": null,
      "l1BaseFeeScalar": "0x44d",
      "l1BlobBaseFee": "0x1",
      "l1BlobBaseFeeScalar": "0xa118b",
      "l1Fee": "0x55",
      "l1GasPrice": "0xb",
      "l1GasUsed": "0x640"
    },
    {
      "status": "0x1",
      "cumulativeGasUsed": "0x2accee",
      "logs": [],
      "logsBloom": "0x00000000000000000000000000000000000000000000000000000000000000000000000000000000000000000000000000000000000000000000000000000000000000000000000000000000000000000000000000000000000000000000000000000000000000000000000000000000000000000000000000000000000000000000000000000000000000000000000000000000000000000000000000000000000000000000000000000000000000000000000000000000000000000000000000000000000000000000000000000000000000000000000000000000000000000000000000000000000000000000000000000000000000000000000000000000",
      "type": "0x2",
      "transactionHash": "0x30153a7e314dd2dace2612e0f0925cde11b07c73bbe68a5ccca5ff213448220f",
      "transactionIndex": "0x19",
      "blockHash": "0x0b28b93a73a5f9901e2cddc1bbc082f2eb23d7a76beaa1583b11aecf305c99e3",
      "blockNumber": "0x1ef70d5",
      "gasUsed": "0xc9ee",
      "effectiveGasPrice": "0xf42b3",
      "from": "0x0b3d62df33521cdce79e87586d7c1534b00ecad7",
      "to": "0xa24a62c8abb916d791a3473675cf37db222689b3",
      "contractAddress": null,
      "l1BaseFeeScalar": "0x44d",
      "l1BlobBaseFee": "0x1",
      "l1BlobBaseFeeScalar": "0xa118b",
      "l1Fee": "0x55",
      "l1GasPrice": "0xb",
      "l1GasUsed": "0x640"
    },
    {
      "status": "0x1",
      "cumulativeGasUsed": "0x2b96dc",
      "logs": [],
      "logsBloom": "0x00000000000000000000000000000000000000000000000000000000000000000000000000000000000000000000000000000000000000000000000000000000000000000000000000000000000000000000000000000000000000000000000000000000000000000000000000000000000000000000000000000000000000000000000000000000000000000000000000000000000000000000000000000000000000000000000000000000000000000000000000000000000000000000000000000000000000000000000000000000000000000000000000000000000000000000000000000000000000000000000000000000000000000000000000000000",
      "type": "0x2",
      "transactionHash": "0xe08569b96796f3713c2e079b278ea56833f1179f75f89ad4f56e710ebcb82b58",
      "transactionIndex": "0x1a",
      "blockHash": "0x0b28b93a73a5f9901e2cddc1bbc082f2eb23d7a76beaa1583b11aecf305c99e3",
      "blockNumber": "0x1ef70d5",
      "gasUsed": "0xc9ee",
      "effectiveGasPrice": "0xf42b3",
      "from": "0x0b3d62df33521cdce79e87586d7c1534b00ecad7",
      "to": "0xa24a62c8abb916d791a3473675cf37db222689b3",
      "contractAddress": null,
      "l1BaseFeeScalar": "0x44d",
      "l1BlobBaseFee": "0x1",
      "l1BlobBaseFeeScalar": "0xa118b",
      "l1Fee": "0x55",
      "l1GasPrice": "0xb",
      "l1GasUsed": "0x640"
    },
    {
      "status": "0x1",
      "cumulativeGasUsed": "0x2c60ca",
      "logs": [],
      "logsBloom": "0x00000000000000000000000000000000000000000000000000000000000000000000000000000000000000000000000000000000000000000000000000000000000000000000000000000000000000000000000000000000000000000000000000000000000000000000000000000000000000000000000000000000000000000000000000000000000000000000000000000000000000000000000000000000000000000000000000000000000000000000000000000000000000000000000000000000000000000000000000000000000000000000000000000000000000000000000000000000000000000000000000000000000000000000000000000000",
      "type": "0x2",
      "transactionHash": "0xb2a1fa578b92151a135c69d1ff069e73c23f9c370454d9b5c7593c2e609aebf8",
      "transactionIndex": "0x1b",
      "blockHash": "0x0b28b93a73a5f9901e2cddc1bbc082f2eb23d7a76beaa1583b11aecf305c99e3",
      "blockNumber": "0x1ef70d5",
      "gasUsed": "0xc9ee",
      "effectiveGasPrice": "0xf42b3",
      "from": "0x0b3d62df33521cdce79e87586d7c1534b00ecad7",
      "to": "0xa24a62c8abb916d791a3473675cf37db222689b3",
      "contractAddress": null,
      "l1BaseFeeScalar": "0x44d",
      "l1BlobBaseFee": "0x1",
      "l1BlobBaseFeeScalar": "0xa118b",
      "l1Fee": "0x55",
      "l1GasPrice": "0xb",
      "l1GasUsed": "0x640"
    },
    {
      "status": "0x1",
      "cumulativeGasUsed": "0x2d2ab8",
      "logs": [],
      "logsBloom": "0x00000000000000000000000000000000000000000000000000000000000000000000000000000000000000000000000000000000000000000000000000000000000000000000000000000000000000000000000000000000000000000000000000000000000000000000000000000000000000000000000000000000000000000000000000000000000000000000000000000000000000000000000000000000000000000000000000000000000000000000000000000000000000000000000000000000000000000000000000000000000000000000000000000000000000000000000000000000000000000000000000000000000000000000000000000000",
      "type": "0x2",
      "transactionHash": "0x60124499037804ab5733cff13eb33fc9c8df9c5114437e0186a11949568668ca",
      "transactionIndex": "0x1c",
      "blockHash": "0x0b28b93a73a5f9901e2cddc1bbc082f2eb23d7a76beaa1583b11aecf305c99e3",
      "blockNumber": "0x1ef70d5",
      "gasUsed": "0xc9ee",
      "effectiveGasPrice": "0xf42b3",
      "from": "0x0b3d62df33521cdce79e87586d7c1534b00ecad7",
      "to": "0xa24a62c8abb916d791a3473675cf37db222689b3",
      "contractAddress": null,
      "l1BaseFeeScalar": "0x44d",
      "l1BlobBaseFee": "0x1",
      "l1BlobBaseFeeScalar": "0xa118b",
      "l1Fee": "0x55",
      "l1GasPrice": "0xb",
      "l1GasUsed": "0x640"
    },
    {
      "status": "0x1",
      "cumulativeGasUsed": "0x2df4a6",
      "logs": [],
      "logsBloom": "0x00000000000000000000000000000000000000000000000000000000000000000000000000000000000000000000000000000000000000000000000000000000000000000000000000000000000000000000000000000000000000000000000000000000000000000000000000000000000000000000000000000000000000000000000000000000000000000000000000000000000000000000000000000000000000000000000000000000000000000000000000000000000000000000000000000000000000000000000000000000000000000000000000000000000000000000000000000000000000000000000000000000000000000000000000000000",
      "type": "0x2",
      "transactionHash": "0x2064304d47a8091b6cb4e08a124bcab8c9bcb6d6e22156f8f4a9ff512ed3963f",
      "transactionIndex": "0x1d",
      "blockHash": "0x0b28b93a73a5f9901e2cddc1bbc082f2eb23d7a76beaa1583b11aecf305c99e3",
      "blockNumber": "0x1ef70d5",
      "gasUsed": "0xc9ee",
      "effectiveGasPrice": "0xf42b3",
      "from": "0x0b3d62df33521cdce79e87586d7c1534b00ecad7",
      "to": "0xa24a62c8abb916d791a3473675cf37db222689b3",
      "contractAddress": null,
      "l1BaseFeeScalar": "0x44d",
      "l1BlobBaseFee": "0x1",
      "l1BlobBaseFeeScalar": "0xa118b",
      "l1Fee": "0x55",
      "l1GasPrice": "0xb",
      "l1GasUsed": "0x640"
    },
    {
      "status": "0x1",
      "cumulativeGasUsed": "0x48ba34",
      "logs": [],
      "logsBloom": "0x00000000000000000000000000000000000000000000000000000000000000000000000000000000000000000000000000000000000000000000000000000000000000000000000000000000000000000000000000000000000000000000000000000000000000000000000000000000000000000000000000000000000000000000000000000000000000000000000000000000000000000000000000000000000000000000000000000000000000000000000000000000000000000000000000000000000000000000000000000000000000000000000000000000000000000000000000000000000000000000000000000000000000000000000000000000",
      "type": "0x2",
      "transactionHash": "0xbef48824195fee2e86d1822425f21c0e64a8e0cb5020bc851bb6cd90291db837",
      "transactionIndex": "0x21",
      "blockHash": "0x0b28b93a73a5f9901e2cddc1bbc082f2eb23d7a76beaa1583b11aecf305c99e3",
      "blockNumber": "0x1ef70d5",
      "gasUsed": "0xc9ee",
      "effectiveGasPrice": "0xf42b3",
      "from": "0x0b3d62df33521cdce79e87586d7c1534b00ecad7",
      "to": "0xa24a62c8abb916d791a3473675cf37db222689b3",
      "contractAddress": null,
      "l1BaseFeeScalar": "0x44d",
      "l1BlobBaseFee": "0x1",
      "l1BlobBaseFeeScalar": "0xa118b",
      "l1Fee": "0x55",
      "l1GasPrice": "0xb",
      "l1GasUsed": "0x640"
    }
  ],
  "libraries": [],
  "pending": [],
  "returns": {},
  "timestamp": 1760706699,
  "chain": 84532,
  "commit": "c6387da"
}