{
  "transactions": [
    {
      "hash": "0x711341a9bf0cf73700fef46820977810c0baa4ffad61ea77b06a68307431701f",
      "transactionType": "CALL",
      "contractName": null,
      "contractAddress": "0xb1969c60bad7ebd8cf0d6466b6953409f0895538",
      "function": "clearKOLs()",
      "arguments": [],
      "transaction": {
        "from": "0x0b3d62df33521cdce79e87586d7c1534b00ecad7",
        "to": "0xb1969c60bad7ebd8cf0d6466b6953409f0895538",
        "gas": "0x89d9",
        "value": "0x0",
        "input": "0x1540ceeb",
        "nonce": "0x6e",
        "chainId": "0x14a34"
      },
      "additionalContracts": [],
      "isFixedGasLimit": false
    },
    {
      "hash": "0x9c28d611c49492e6a67db9980dbc06145a640ec3f07bc7f51fb08612e014304a",
      "transactionType": "CALL",
      "contractName": null,
      "contractAddress": "0xb1969c60bad7ebd8cf0d6466b6953409f0895538",
      "function": "addKOL(bytes32)",
      "arguments": [
        "0x54ee7dc2425581581c47469e5eb1f5eed4233fcbddf6c7592f1580aa348c89b4"
      ],
      "transaction": {
        "from": "0x0b3d62df33521cdce79e87586d7c1534b00ecad7",
        "to": "0xb1969c60bad7ebd8cf0d6466b6953409f0895538",
        "gas": "0x18902",
        "value": "0x0",
        "input": "0xf08fd6d654ee7dc2425581581c47469e5eb1f5eed4233fcbddf6c7592f1580aa348c89b4",
        "nonce": "0x6f",
        "chainId": "0x14a34"
      },
      "additionalContracts": [],
      "isFixedGasLimit": false
    },
    {
      "hash": "0x5a7e4ed398c3afe09a1b159be6fd4c1e80fdc0124c785b81f041b3ad0b3c770f",
      "transactionType": "CALL",
      "contractName": null,
      "contractAddress": "0xb1969c60bad7ebd8cf0d6466b6953409f0895538",
      "function": "addKOL(bytes32)",
      "arguments": [
        "0xfa4dffc9e824f830cf7d07fc7765ba1d7b344d923dd9083258189156f4932796"
      ],
      "transaction": {
        "from": "0x0b3d62df33521cdce79e87586d7c1534b00ecad7",
        "to": "0xb1969c60bad7ebd8cf0d6466b6953409f0895538",
        "gas": "0x116e9",
        "value": "0x0",
        "input": "0xf08fd6d6fa4dffc9e824f830cf7d07fc7765ba1d7b344d923dd9083258189156f4932796",
        "nonce": "0x70",
        "chainId": "0x14a34"
      },
      "additionalContracts": [],
      "isFixedGasLimit": false
    },
    {
      "hash": "0x9e9d8304f5ef2352a1fbb27bec5d465e260d5a5d79a4263c0db5022befd61c70",
      "transactionType": "CALL",
      "contractName": null,
      "contractAddress": "0xb1969c60bad7ebd8cf0d6466b6953409f0895538",
      "function": "addKOL(bytes32)",
      "arguments": [
        "0x33fd3a1a2f6025be5b2d3026fea143df162bb647c138b6d16851023d3c6518a7"
      ],
      "transaction": {
        "from": "0x0b3d62df33521cdce79e87586d7c1534b00ecad7",
        "to": "0xb1969c60bad7ebd8cf0d6466b6953409f0895538",
        "gas": "0x116e9",
        "value": "0x0",
        "input": "0xf08fd6d633fd3a1a2f6025be5b2d3026fea143df162bb647c138b6d16851023d3c6518a7",
        "nonce": "0x71",
        "chainId": "0x14a34"
      },
      "additionalContracts": [],
      "isFixedGasLimit": false
    },
    {
      "hash": "0x92af7efff3f16b44b957ea8ec771e3cefb0485449cddfa1f398508d4d9639b10",
      "transactionType": "CALL",
      "contractName": null,
      "contractAddress": "0xb1969c60bad7ebd8cf0d6466b6953409f0895538",
      "function": "addKOL(bytes32)",
      "arguments": [
        "0x4577b1186726aefd500341efa18943241fb9994e2e412da5cc558d28c6e52ddf"
      ],
      "transaction": {
        "from": "0x0b3d62df33521cdce79e87586d7c1534b00ecad7",
        "to": "0xb1969c60bad7ebd8cf0d6466b6953409f0895538",
        "gas": "0x116e9",
        "value": "0x0",
        "input": "0xf08fd6d64577b1186726aefd500341efa18943241fb9994e2e412da5cc558d28c6e52ddf",
        "nonce": "0x72",
        "chainId": "0x14a34"
      },
      "additionalContracts": [],
      "isFixedGasLimit": false
    },
    {
      "hash": "0xbbe15338c165836753cfa8edf1dabad492f89bfe64f458a35c47221bf4f0e44d",
      "transactionType": "CALL",
      "contractName": null,
      "contractAddress": "0xb1969c60bad7ebd8cf0d6466b6953409f0895538",
      "function": "addKOL(bytes32)",
      "arguments": [
        "0xcb43db8e11342c57139c6028ef0ca9ff0606bfa1218225ea9a0ccb7e42206362"
      ],
      "transaction": {
        "from": "0x0b3d62df33521cdce79e87586d7c1534b00ecad7",
        "to": "0xb1969c60bad7ebd8cf0d6466b6953409f0895538",
        "gas": "0x116e9",
        "value": "0x0",
        "input": "0xf08fd6d6cb43db8e11342c57139c6028ef0ca9ff0606bfa1218225ea9a0ccb7e42206362",
        "nonce": "0x73",
        "chainId": "0x14a34"
      },
      "additionalContracts": [],
      "isFixedGasLimit": false
    },
    {
      "hash": "0x337b7cde121e5e5e9aca8228892471cd0696beabd7794e01293622e42a06146b",
      "transactionType": "CALL",
      "contractName": null,
      "contractAddress": "0xb1969c60bad7ebd8cf0d6466b6953409f0895538",
      "function": "addKOL(bytes32)",
      "arguments": [
        "0x673c01c3285d988aa04a27f5a542a4a304005c687956087d40ac2df25856dcdb"
      ],
      "transaction": {
        "from": "0x0b3d62df33521cdce79e87586d7c1534b00ecad7",
        "to": "0xb1969c60bad7ebd8cf0d6466b6953409f0895538",
        "gas": "0x12740",
        "value": "0x0",
        "input": "0xf08fd6d6673c01c3285d988aa04a27f5a542a4a304005c687956087d40ac2df25856dcdb",
        "nonce": "0x74",
        "chainId": "0x14a34"
      },
      "additionalContracts": [],
      "isFixedGasLimit": false
    },
    {
      "hash": "0xc5a76352d033171930919828d336fef7aa5007583af4b76fe72d2fe55fd31f87",
      "transactionType": "CALL",
      "contractName": null,
      "contractAddress": "0xb1969c60bad7ebd8cf0d6466b6953409f0895538",
      "function": "addKOL(bytes32)",
      "arguments": [
        "0x0524cdf42f7e19c1b50b880d9d343bed05b80f21f29ecec6cff29e9657177853"
      ],
      "transaction": {
        "from": "0x0b3d62df33521cdce79e87586d7c1534b00ecad7",
        "to": "0xb1969c60bad7ebd8cf0d6466b6953409f0895538",
        "gas": "0x116e9",
        "value": "0x0",
        "input": "0xf08fd6d60524cdf42f7e19c1b50b880d9d343bed05b80f21f29ecec6cff29e9657177853",
        "nonce": "0x75",
        "chainId": "0x14a34"
      },
      "additionalContracts": [],
      "isFixedGasLimit": false
    },
    {
      "hash": "0xfa430eeef4bdee775dfd5c7276dcce173aaf0e73742eceaacfe42a3655532cdb",
      "transactionType": "CALL",
      "contractName": null,
      "contractAddress": "0xb1969c60bad7ebd8cf0d6466b6953409f0895538",
      "function": "addKOL(bytes32)",
      "arguments": [
        "0x48c5a7987a74c243ccde734e1679bd0ec85b03ad4b0d329815fa18a928bed2ca"
      ],
      "transaction": {
        "from": "0x0b3d62df33521cdce79e87586d7c1534b00ecad7",
        "to": "0xb1969c60bad7ebd8cf0d6466b6953409f0895538",
        "gas": "0x116e9",
        "value": "0x0",
        "input": "0xf08fd6d648c5a7987a74c243ccde734e1679bd0ec85b03ad4b0d329815fa18a928bed2ca",
        "nonce": "0x76",
        "chainId": "0x14a34"
      },
      "additionalContracts": [],
      "isFixedGasLimit": false
    },
    {
      "hash": "0x9ceab47642ce80b611b2c8ace4b603aade71ccd73d4c7f7dc47f07427f5f7bb7",
      "transactionType": "CALL",
      "contractName": null,
      "contractAddress": "0xb1969c60bad7ebd8cf0d6466b6953409f0895538",
      "function": "addKOL(bytes32)",
      "arguments": [
        "0xf62eed8c614d9af05170cfd5366e70ce2b5b581277ed9bda90ee06ec1c0ac70b"
      ],
      "transaction": {
        "from": "0x0b3d62df33521cdce79e87586d7c1534b00ecad7",
        "to": "0xb1969c60bad7ebd8cf0d6466b6953409f0895538",
        "gas": "0x116e9",
        "value": "0x0",
        "input": "0xf08fd6d6f62eed8c614d9af05170cfd5366e70ce2b5b581277ed9bda90ee06ec1c0ac70b",
        "nonce": "0x77",
        "chainId": "0x14a34"
      },
      "additionalContracts": [],
      "isFixedGasLimit": false
    },
    {
      "hash": "0xe136b8cd8f7f2853b7463c619997260e8986005ee7dbac40ebba666f1a1df459",
      "transactionType": "CALL",
      "contractName": null,
      "contractAddress": "0xb1969c60bad7ebd8cf0d6466b6953409f0895538",
      "function": "addKOL(bytes32)",
      "arguments": [
        "0x1607be6baa59b952f720dc10f894f0fb97723aa12c72c2f925dfbd8f301ea770"
      ],
      "transaction": {
        "from": "0x0b3d62df33521cdce79e87586d7c1534b00ecad7",
        "to": "0xb1969c60bad7ebd8cf0d6466b6953409f0895538",
        "gas": "0x116e9",
        "value": "0x0",
        "input": "0xf08fd6d61607be6baa59b952f720dc10f894f0fb97723aa12c72c2f925dfbd8f301ea770",
        "nonce": "0x78",
        "chainId": "0x14a34"
      },
      "additionalContracts": [],
      "isFixedGasLimit": false
    },
    {
      "hash": "0xcaea64afaeba3b4957e3253bece66bd245a89075b503533fe6a69c0a791692cd",
      "transactionType": "CALL",
      "contractName": null,
      "contractAddress": "0xb1969c60bad7ebd8cf0d6466b6953409f0895538",
      "function": "addKOL(bytes32)",
      "arguments": [
        "0xc6efb078ba9e17a714af044d45caa889df54c72db5a8f519a48117964c45e811"
      ],
      "transaction": {
        "from": "0x0b3d62df33521cdce79e87586d7c1534b00ecad7",
        "to": "0xb1969c60bad7ebd8cf0d6466b6953409f0895538",
        "gas": "0x116e9",
        "value": "0x0",
        "input": "0xf08fd6d6c6efb078ba9e17a714af044d45caa889df54c72db5a8f519a48117964c45e811",
        "nonce": "0x79",
        "chainId": "0x14a34"
      },
      "additionalContracts": [],
      "isFixedGasLimit": false
    },
    {
      "hash": "0x64d1e7159d5a65b26a8beb20d3e065c93a7e4616f14f6c1fcd366ad63ce426e3",
      "transactionType": "CALL",
      "contractName": null,
      "contractAddress": "0xb1969c60bad7ebd8cf0d6466b6953409f0895538",
      "function": "addKOL(bytes32)",
      "arguments": [
        "0xbcf86f88c85a4d7c8956da3d72aa06352a87f16a97cd2c9897a07492f92a6ad2"
      ],
      "transaction": {
        "from": "0x0b3d62df33521cdce79e87586d7c1534b00ecad7",
        "to": "0xb1969c60bad7ebd8cf0d6466b6953409f0895538",
        "gas": "0x116e9",
        "value": "0x0",
        "input": "0xf08fd6d6bcf86f88c85a4d7c8956da3d72aa06352a87f16a97cd2c9897a07492f92a6ad2",
        "nonce": "0x7a",
        "chainId": "0x14a34"
      },
      "additionalContracts": [],
      "isFixedGasLimit": false
    },
    {
      "hash": "0x4a8125eee6cb1508a755c3927b253a539fa6599b988ab61d3004aaceadf1fe48",
      "transactionType": "CALL",
      "contractName": null,
      "contractAddress": "0xb1969c60bad7ebd8cf0d6466b6953409f0895538",
      "function": "addKOL(bytes32)",
      "arguments": [
        "0x6dc2f619db0779da93991f96b7d19da693074782b6575cd6617f98bb4ff77bdc"
      ],
      "transaction": {
        "from": "0x0b3d62df33521cdce79e87586d7c1534b00ecad7",
        "to": "0xb1969c60bad7ebd8cf0d6466b6953409f0895538",
        "gas": "0x116e9",
        "value": "0x0",
        "input": "0xf08fd6d66dc2f619db0779da93991f96b7d19da693074782b6575cd6617f98bb4ff77bdc",
        "nonce": "0x7b",
        "chainId": "0x14a34"
      },
      "additionalContracts": [],
      "isFixedGasLimit": false
    },
    {
      "hash": "0x690750dd5c9c21a67f0cf1548c619d61decff1aed8462d84861c06ea09178a81",
      "transactionType": "CALL",
      "contractName": null,
      "contractAddress": "0xb1969c60bad7ebd8cf0d6466b6953409f0895538",
      "function": "addKOL(bytes32)",
      "arguments": [
        "0x89a423337cdbf4041d1f104772e9b3b58f5c0141b08227b35aab83cab7e0e1ed"
      ],
      "transaction": {
        "from": "0x0b3d62df33521cdce79e87586d7c1534b00ecad7",
        "to": "0xb1969c60bad7ebd8cf0d6466b6953409f0895538",
        "gas": "0x116e9",
        "value": "0x0",
        "input": "0xf08fd6d689a423337cdbf4041d1f104772e9b3b58f5c0141b08227b35aab83cab7e0e1ed",
        "nonce": "0x7c",
        "chainId": "0x14a34"
      },
      "additionalContracts": [],
      "isFixedGasLimit": false
    },
    {
      "hash": "0x6aadd8385eaba77c427a2f46b4383f7d077581f000327a5b99ad0f723b964e24",
      "transactionType": "CALL",
      "contractName": null,
      "contractAddress": "0xb1969c60bad7ebd8cf0d6466b6953409f0895538",
      "function": "addKOL(bytes32)",
      "arguments": [
        "0xdbbb309b2d1e68f542ca8002db4910bef497c5ad9e7e7c1168159960dd05d2e7"
      ],
      "transaction": {
        "from": "0x0b3d62df33521cdce79e87586d7c1534b00ecad7",
        "to": "0xb1969c60bad7ebd8cf0d6466b6953409f0895538",
        "gas": "0x116e9",
        "value": "0x0",
        "input": "0xf08fd6d6dbbb309b2d1e68f542ca8002db4910bef497c5ad9e7e7c1168159960dd05d2e7",
        "nonce": "0x7d",
        "chainId": "0x14a34"
      },
      "additionalContracts": [],
      "isFixedGasLimit": false
    }
  ],
  "receipts": [
    {
      "status": "0x1",
      "cumulativeGasUsed": "0x6e8b54",
      "logs": [],
      "logsBloom": "0x00000000000000000000000000000000000000000000000000000000000000000000000000000000000000000000000000000000000000000000000000000000000000000000000000000000000000000000000000000000000000000000000000000000000000000000000000000000000000000000000000000000000000000000000000000000000000000000000000000000000000000000000000000000000000000000000000000000000000000000000000000000000000000000000000000000000000000000000000000000000000000000000000000000000000000000000000000000000000000000000000000000000000000000000000000000",
      "type": "0x2",
      "transactionHash": "0x711341a9bf0cf73700fef46820977810c0baa4ffad61ea77b06a68307431701f",
      "transactionIndex": "0x3d",
      "blockHash": "0x42b478506833ff9ebcbc1021d473b562244c08ba293b05e328fb7c614bc20ec2",
      "blockNumber": "0x1ef6d7a",
      "gasUsed": "0x63ce",
      "effectiveGasPrice": "0xf42af",
      "from": "0x0b3d62df33521cdce79e87586d7c1534b00ecad7",
      "to": "0xb1969c60bad7ebd8cf0d6466b6953409f0895538",
      "contractAddress": null,
      "l1BaseFeeScalar": "0x44d",
      "l1BlobBaseFee": "0x1",
      "l1BlobBaseFeeScalar": "0xa118b",
      "l1Fee": "0x57",
      "l1GasPrice": "0xc",
      "l1GasUsed": "0x640"
    },
    {
      "status": "0x1",
      "cumulativeGasUsed": "0x174a47",
      "logs": [],
      "logsBloom": "0x00000000000000000000000000000000000000000000000000000000000000000000000000000000000000000000000000000000000000000000000000000000000000000000000000000000000000000000000000000000000000000000000000000000000000000000000000000000000000000000000000000000000000000000000000000000000000000000000000000000000000000000000000000000000000000000000000000000000000000000000000000000000000000000000000000000000000000000000000000000000000000000000000000000000000000000000000000000000000000000000000000000000000000000000000000000",
      "type": "0x2",
      "transactionHash": "0x9c28d611c49492e6a67db9980dbc06145a640ec3f07bc7f51fb08612e014304a",
      "transactionIndex": "0xa",
      "blockHash": "0x791e09edfd8685705bbc7059fa9f3cfeb775ae642ba12106decc68ccabc94b3c",
      "blockNumber": "0x1ef6d7b",
      "gasUsed": "0x10cba",
      "effectiveGasPrice": "0xf42ae",
      "from": "0x0b3d62df33521cdce79e87586d7c1534b00ecad7",
      "to": "0xb1969c60bad7ebd8cf0d6466b6953409f0895538",
      "contractAddress": null,
      "l1BaseFeeScalar": "0x44d",
      "l1BlobBaseFee": "0x1",
      "l1BlobBaseFeeScalar": "0xa118b",
      "l1Fee": "0x57",
      "l1GasPrice": "0xc",
      "l1GasUsed": "0x640"
    },
    {
      "status": "0x1",
      "cumulativeGasUsed": "0x1ac0f6",
      "logs": [],
      "logsBloom": "0x00000000000000000000000000000000000000000000000000000000000000000000000000000000000000000000000000000000000000000000000000000000000000000000000000000000000000000000000000000000000000000000000000000000000000000000000000000000000000000000000000000000000000000000000000000000000000000000000000000000000000000000000000000000000000000000000000000000000000000000000000000000000000000000000000000000000000000000000000000000000000000000000000000000000000000000000000000000000000000000000000000000000000000000000000000000",
      "type": "0x2",
      "transactionHash": "0x9e9d8304f5ef2352a1fbb27bec5d465e260d5a5d79a4263c0db5022befd61c70",
      "transactionIndex": "0xf",
      "blockHash": "0x4c925db2ab8b594672ec179c5ba12e730d3bf8f4714309a5d38c0ecf51122978",
      "blockNumber": "0x1ef6d7b",
      "gasUsed": "0xc9ee",
      "effectiveGasPrice": "0xf42ae",
      "from": "0x0b3d62df33521cdce79e87586d7c1534b00ecad7",
      "to": "0xb1969c60bad7ebd8cf0d6466b6953409f0895538",
      "contractAddress": null,
      "l1BaseFeeScalar": "0x44d",
      "l1BlobBaseFee": "0x1",
      "l1BlobBaseFeeScalar": "0xa118b",
      "l1Fee": "0x57",
      "l1GasPrice": "0xc",
      "l1GasUsed": "0x640"
    },
    {
      "status": "0x1",
      "cumulativeGasUsed": "0x1b8ae4",
      "logs": [],
      "logsBloom": "0x00000000000000000000000000000000000000000000000000000000000000000000000000000000000000000000000000000000000000000000000000000000000000000000000000000000000000000000000000000000000000000000000000000000000000000000000000000000000000000000000000000000000000000000000000000000000000000000000000000000000000000000000000000000000000000000000000000000000000000000000000000000000000000000000000000000000000000000000000000000000000000000000000000000000000000000000000000000000000000000000000000000000000000000000000000000",
      "type": "0x2",
      "transactionHash": "0x92af7efff3f16b44b957ea8ec771e3cefb0485449cddfa1f398508d4d9639b10",
      "transactionIndex": "0x10",
      "blockHash": "0x4c925db2ab8b594672ec179c5ba12e730d3bf8f4714309a5d38c0ecf51122978",
      "blockNumber": "0x1ef6d7b",
      "gasUsed": "0xc9ee",
      "effectiveGasPrice": "0xf42ae",
      "from": "0x0b3d62df33521cdce79e87586d7c1534b00ecad7",
      "to": "0xb1969c60bad7ebd8cf0d6466b6953409f0895538",
      "contractAddress": null,
      "l1BaseFeeScalar": "0x44d",
      "l1BlobBaseFee": "0x1",
      "l1BlobBaseFeeScalar": "0xa118b",
      "l1Fee": "0x57",
      "l1GasPrice": "0xc",
      "l1GasUsed": "0x640"
    },
    {
      "status": "0x1",
      "cumulativeGasUsed": "0x1cf5c7",
      "logs": [],
      "logsBloom": "0x00000000000000000000000000000000000000000000000000000000000000000000000000000000000000000000000000000000000000000000000000000000000000000000000000000000000000000000000000000000000000000000000000000000000000000000000000000000000000000000000000000000000000000000000000000000000000000000000000000000000000000000000000000000000000000000000000000000000000000000000000000000000000000000000000000000000000000000000000000000000000000000000000000000000000000000000000000000000000000000000000000000000000000000000000000000",
      "type": "0x2",
      "transactionHash": "0xbbe15338c165836753cfa8edf1dabad492f89bfe64f458a35c47221bf4f0e44d",
      "transactionIndex": "0x12",
      "blockHash": "0x4c925db2ab8b594672ec179c5ba12e730d3bf8f4714309a5d38c0ecf51122978",
      "blockNumber": "0x1ef6d7b",
      "gasUsed": "0xc9ee",
      "effectiveGasPrice": "0xf42ae",
      "from": "0x0b3d62df33521cdce79e87586d7c1534b00ecad7",
      "to": "0xb1969c60bad7ebd8cf0d6466b6953409f0895538",
      "contractAddress": null,
      "l1BaseFeeScalar": "0x44d",
      "l1BlobBaseFee": "0x1",
      "l1BlobBaseFeeScalar": "0xa118b",
      "l1Fee": "0x57",
      "l1GasPrice": "0xc",
      "l1GasUsed": "0x640"
    },
    {
      "status": "0x1",
      "cumulativeGasUsed": "0x1dbfa9",
      "logs": [],
      "logsBloom": "0x00000000000000000000000000000000000000000000000000000000000000000000000000000000000000000000000000000000000000000000000000000000000000000000000000000000000000000000000000000000000000000000000000000000000000000000000000000000000000000000000000000000000000000000000000000000000000000000000000000000000000000000000000000000000000000000000000000000000000000000000000000000000000000000000000000000000000000000000000000000000000000000000000000000000000000000000000000000000000000000000000000000000000000000000000000000",
      "type": "0x2",
      "transactionHash": "0x337b7cde121e5e5e9aca8228892471cd0696beabd7794e01293622e42a06146b",
      "transactionIndex": "0x13",
      "blockHash": "0x4c925db2ab8b594672ec179c5ba12e730d3bf8f4714309a5d38c0ecf51122978",
      "blockNumber": "0x1ef6d7b",
      "gasUsed": "0xc9e2",
      "effectiveGasPrice": "0xf42ae",
      "from": "0x0b3d62df33521cdce79e87586d7c1534b00ecad7",
      "to": "0xb1969c60bad7ebd8cf0d6466b6953409f0895538",
      "contractAddress": null,
      "l1BaseFeeScalar": "0x44d",
      "l1BlobBaseFee": "0x1",
      "l1BlobBaseFeeScalar": "0xa118b",
      "l1Fee": "0x57",
      "l1GasPrice": "0xc",
      "l1GasUsed": "0x640"
    },
    {
      "status": "0x1",
      "cumulativeGasUsed": "0x1e8997",
      "logs": [],
      "logsBloom": "0x00000000000000000000000000000000000000000000000000000000000000000000000000000000000000000000000000000000000000000000000000000000000000000000000000000000000000000000000000000000000000000000000000000000000000000000000000000000000000000000000000000000000000000000000000000000000000000000000000000000000000000000000000000000000000000000000000000000000000000000000000000000000000000000000000000000000000000000000000000000000000000000000000000000000000000000000000000000000000000000000000000000000000000000000000000000",
      "type": "0x2",
      "transactionHash": "0xc5a76352d033171930919828d336fef7aa5007583af4b76fe72d2fe55fd31f87",
      "transactionIndex": "0x14",
      "blockHash": "0x4c925db2ab8b594672ec179c5ba12e730d3bf8f4714309a5d38c0ecf51122978",
      "blockNumber": "0x1ef6d7b",
      "gasUsed": "0xc9ee",
      "effectiveGasPrice": "0xf42ae",
      "from": "0x0b3d62df33521cdce79e87586d7c1534b00ecad7",
      "to": "0xb1969c60bad7ebd8cf0d6466b6953409f0895538",
      "contractAddress": null,
      "l1BaseFeeScalar": "0x44d",
      "l1BlobBaseFee": "0x1",
      "l1BlobBaseFeeScalar": "0xa118b",
      "l1Fee": "0x57",
      "l1GasPrice": "0xc",
      "l1GasUsed": "0x640"
    },
    {
      "status": "0x1",
      "cumulativeGasUsed": "0x21d765",
      "logs": [],
      "logsBloom": "0x00000000000000000000000000000000000000000000000000000000000000000000000000000000000000000000000000000000000000000000000000000000000000000000000000000000000000000000000000000000000000000000000000000000000000000000000000000000000000000000000000000000000000000000000000000000000000000000000000000000000000000000000000000000000000000000000000000000000000000000000000000000000000000000000000000000000000000000000000000000000000000000000000000000000000000000000000000000000000000000000000000000000000000000000000000000",
      "type": "0x2",
      "transactionHash": "0xfa430eeef4bdee775dfd5c7276dcce173aaf0e73742eceaacfe42a3655532cdb",
      "transactionIndex": "0x19",
      "blockHash": "0x4c925db2ab8b594672ec179c5ba12e730d3bf8f4714309a5d38c0ecf51122978",
      "blockNumber": "0x1ef6d7b",
      "gasUsed": "0xc9ee",
      "effectiveGasPrice": "0xf42ae",
      "from": "0x0b3d62df33521cdce79e87586d7c1534b00ecad7",
      "to": "0xb1969c60bad7ebd8cf0d6466b6953409f0895538",
      "contractAddress": null,
      "l1BaseFeeScalar": "0x44d",
      "l1BlobBaseFee": "0x1",
      "l1BlobBaseFeeScalar": "0xa118b",
      "l1Fee": "0x57",
      "l1GasPrice": "0xc",
      "l1GasUsed": "0x640"
    },
    {
      "status": "0x1",
      "cumulativeGasUsed": "0x22a153",
      "logs": [],
      "logsBloom": "0x00000000000000000000000000000000000000000000000000000000000000000000000000000000000000000000000000000000000000000000000000000000000000000000000000000000000000000000000000000000000000000000000000000000000000000000000000000000000000000000000000000000000000000000000000000000000000000000000000000000000000000000000000000000000000000000000000000000000000000000000000000000000000000000000000000000000000000000000000000000000000000000000000000000000000000000000000000000000000000000000000000000000000000000000000000000",
      "type": "0x2",
      "transactionHash": "0x9ceab47642ce80b611b2c8ace4b603aade71ccd73d4c7f7dc47f07427f5f7bb7",
      "transactionIndex": "0x1a",
      "blockHash": "0x4c925db2ab8b594672ec179c5ba12e730d3bf8f4714309a5d38c0ecf51122978",
      "blockNumber": "0x1ef6d7b",
      "gasUsed": "0xc9ee",
      "effectiveGasPrice": "0xf42ae",
      "from": "0x0b3d62df33521cdce79e87586d7c1534b00ecad7",
      "to": "0xb1969c60bad7ebd8cf0d6466b6953409f0895538",
      "contractAddress": null,
      "l1BaseFeeScalar": "0x44d",
      "l1BlobBaseFee": "0x1",
      "l1BlobBaseFeeScalar": "0xa118b",
      "l1Fee": "0x57",
      "l1GasPrice": "0xc",
      "l1GasUsed": "0x640"
    },
    {
      "status": "0x1",
      "cumulativeGasUsed": "0x236b41",
      "logs": [],
      "logsBloom": "0x00000000000000000000000000000000000000000000000000000000000000000000000000000000000000000000000000000000000000000000000000000000000000000000000000000000000000000000000000000000000000000000000000000000000000000000000000000000000000000000000000000000000000000000000000000000000000000000000000000000000000000000000000000000000000000000000000000000000000000000000000000000000000000000000000000000000000000000000000000000000000000000000000000000000000000000000000000000000000000000000000000000000000000000000000000000",
      "type": "0x2",
      "transactionHash": "0xe136b8cd8f7f2853b7463c619997260e8986005ee7dbac40ebba666f1a1df459",
      "transactionIndex": "0x1b",
      "blockHash": "0x4c925db2ab8b594672ec179c5ba12e730d3bf8f4714309a5d38c0ecf51122978",
      "blockNumber": "0x1ef6d7b",
      "gasUsed": "0xc9ee",
      "effectiveGasPrice": "0xf42ae",
      "from": "0x0b3d62df33521cdce79e87586d7c1534b00ecad7",
      "to": "0xb1969c60bad7ebd8cf0d6466b6953409f0895538",
      "contractAddress": null,
      "l1BaseFeeScalar": "0x44d",
      "l1BlobBaseFee": "0x1",
      "l1BlobBaseFeeScalar": "0xa118b",
      "l1Fee": "0x57",
      "l1GasPrice": "0xc",
      "l1GasUsed": "0x640"
    },
    {
      "status": "0x1",
      "cumulativeGasUsed": "0x256f03",
      "logs": [],
      "logsBloom": "0x00000000000000000000000000000000000000000000000000000000000000000000000000000000000000000000000000000000000000000000000000000000000000000000000000000000000000000000000000000000000000000000000000000000000000000000000000000000000000000000000000000000000000000000000000000000000000000000000000000000000000000000000000000000000000000000000000000000000000000000000000000000000000000000000000000000000000000000000000000000000000000000000000000000000000000000000000000000000000000000000000000000000000000000000000000000",
      "type": "0x2",
      "transactionHash": "0xcaea64afaeba3b4957e3253bece66bd245a89075b503533fe6a69c0a791692cd",
      "transactionIndex": "0x1e",
      "blockHash": "0x4c925db2ab8b594672ec179c5ba12e730d3bf8f4714309a5d38c0ecf51122978",
      "blockNumber": "0x1ef6d7b",
      "gasUsed": "0xc9ee",
      "effectiveGasPrice": "0xf42ae",
      "from": "0x0b3d62df33521cdce79e87586d7c1534b00ecad7",
      "to": "0xb1969c60bad7ebd8cf0d6466b6953409f0895538",
      "contractAddress": null,
      "l1BaseFeeScalar": "0x44d",
      "l1BlobBaseFee": "0x1",
      "l1BlobBaseFeeScalar": "0xa118b",
      "l1Fee": "0x57",
      "l1GasPrice": "0xc",
      "l1GasUsed": "0x640"
    },
    {
      "status": "0x1",
      "cumulativeGasUsed": "0x2638f1",
      "logs": [],
      "logsBloom": "0x00000000000000000000000000000000000000000000000000000000000000000000000000000000000000000000000000000000000000000000000000000000000000000000000000000000000000000000000000000000000000000000000000000000000000000000000000000000000000000000000000000000000000000000000000000000000000000000000000000000000000000000000000000000000000000000000000000000000000000000000000000000000000000000000000000000000000000000000000000000000000000000000000000000000000000000000000000000000000000000000000000000000000000000000000000000",
      "type": "0x2",
      "transactionHash": "0x64d1e7159d5a65b26a8beb20d3e065c93a7e4616f14f6c1fcd366ad63ce426e3",
      "transactionIndex": "0x1f",
      "blockHash": "0xc178cbd3d5fb7024a23aad6fecb90738101ac0037ffe0d1687cf06a9105808ad",
      "blockNumber": "0x1ef6d7b",
      "gasUsed": "0xc9ee",
      "effectiveGasPrice": "0xf42ae",
      "from": "0x0b3d62df33521cdce79e87586d7c1534b00ecad7",
      "to": "0xb1969c60bad7ebd8cf0d6466b6953409f0895538",
      "contractAddress": null,
      "l1BaseFeeScalar": "0x44d",
      "l1BlobBaseFee": "0x1",
      "l1BlobBaseFeeScalar": "0xa118b",
      "l1Fee": "0x57",
      "l1GasPrice": "0xc",
      "l1GasUsed": "0x640"
    },
    {
      "status": "0x1",
      "cumulativeGasUsed": "0x2702df",
      "logs": [],
      "logsBloom": "0x00000000000000000000000000000000000000000000000000000000000000000000000000000000000000000000000000000000000000000000000000000000000000000000000000000000000000000000000000000000000000000000000000000000000000000000000000000000000000000000000000000000000000000000000000000000000000000000000000000000000000000000000000000000000000000000000000000000000000000000000000000000000000000000000000000000000000000000000000000000000000000000000000000000000000000000000000000000000000000000000000000000000000000000000000000000",
      "type": "0x2",
      "transactionHash": "0x4a8125eee6cb1508a755c3927b253a539fa6599b988ab61d3004aaceadf1fe48",
      "transactionIndex": "0x20",
      "blockHash": "0x4c925db2ab8b594672ec179c5ba12e730d3bf8f4714309a5d38c0ecf51122978",
      "blockNumber": "0x1ef6d7b",
      "gasUsed": "0xc9ee",
      "effectiveGasPrice": "0xf42ae",
      "from": "0x0b3d62df33521cdce79e87586d7c1534b00ecad7",
      "to": "0xb1969c60bad7ebd8cf0d6466b6953409f0895538",
      "contractAddress": null,
      "l1BaseFeeScalar": "0x44d",
      "l1BlobBaseFee": "0x1",
      "l1BlobBaseFeeScalar": "0xa118b",
      "l1Fee": "0x57",
      "l1GasPrice": "0xc",
      "l1GasUsed": "0x640"
    },
    {
      "status": "0x1",
      "cumulativeGasUsed": "0x27cccd",
      "logs": [],
      "logsBloom": "0x00000000000000000000000000000000000000000000000000000000000000000000000000000000000000000000000000000000000000000000000000000000000000000000000000000000000000000000000000000000000000000000000000000000000000000000000000000000000000000000000000000000000000000000000000000000000000000000000000000000000000000000000000000000000000000000000000000000000000000000000000000000000000000000000000000000000000000000000000000000000000000000000000000000000000000000000000000000000000000000000000000000000000000000000000000000",
      "type": "0x2",
      "transactionHash": "0x690750dd5c9c21a67f0cf1548c619d61decff1aed8462d84861c06ea09178a81",
      "transactionIndex": "0x21",
      "blockHash": "0x4c925db2ab8b594672ec179c5ba12e730d3bf8f4714309a5d38c0ecf51122978",
      "blockNumber": "0x1ef6d7b",
      "gasUsed": "0xc9ee",
      "effectiveGasPrice": "0xf42ae",
      "from": "0x0b3d62df33521cdce79e87586d7c1534b00ecad7",
      "to": "0xb1969c60bad7ebd8cf0d6466b6953409f0895538",
      "contractAddress": null,
      "l1BaseFeeScalar": "0x44d",
      "l1BlobBaseFee": "0x1",
      "l1BlobBaseFeeScalar": "0xa118b",
      "l1Fee": "0x57",
      "l1GasPrice": "0xc",
      "l1GasUsed": "0x640"
    },
    {
      "status": "0x1",
      "cumulativeGasUsed": "0x2896bb",
      "logs": [],
      "logsBloom": "0x00000000000000000000000000000000000000000000000000000000000000000000000000000000000000000000000000000000000000000000000000000000000000000000000000000000000000000000000000000000000000000000000000000000000000000000000000000000000000000000000000000000000000000000000000000000000000000000000000000000000000000000000000000000000000000000000000000000000000000000000000000000000000000000000000000000000000000000000000000000000000000000000000000000000000000000000000000000000000000000000000000000000000000000000000000000",
      "type": "0x2",
      "transactionHash": "0x6aadd8385eaba77c427a2f46b4383f7d077581f000327a5b99ad0f723b964e24",
      "transactionIndex": "0x22",
      "blockHash": "0x4c925db2ab8b594672ec179c5ba12e730d3bf8f4714309a5d38c0ecf51122978",
      "blockNumber": "0x1ef6d7b",
      "gasUsed": "0xc9ee",
      "effectiveGasPrice": "0xf42ae",
      "from": "0x0b3d62df33521cdce79e87586d7c1534b00ecad7",
      "to": "0xb1969c60bad7ebd8cf0d6466b6953409f0895538",
      "contractAddress": null,
      "l1BaseFeeScalar": "0x44d",
      "l1BlobBaseFee": "0x1",
      "l1BlobBaseFeeScalar": "0xa118b",
      "l1Fee": "0x57",
      "l1GasPrice": "0xc",
      "l1GasUsed": "0x640"
    }
  ],
  "libraries": [],
  "pending": [
    "0x5a7e4ed398c3afe09a1b159be6fd4c1e80fdc0124c785b81f041b3ad0b3c770f"
  ],
  "returns": {},
  "timestamp": 1760704983,
  "chain": 84532,
  "commit": "2325f85"
}