{
  "transactions": [
    {
      "hash": "0x376c2f5c9106b77224fb21d49cb9598926678a82b0952e16b35d51b138160016",
      "transactionType": "CALL",
      "contractName": null,
      "contractAddress": "0xb1969c60bad7ebd8cf0d6466b6953409f0895538",
      "function": "clearKOLs()",
      "arguments": [],
      "transaction": {
        "from": "0x0b3d62df33521cdce79e87586d7c1534b00ecad7",
        "to": "0xb1969c60bad7ebd8cf0d6466b6953409f0895538",
        "gas": "0x1dba5",
        "value": "0x0",
        "input": "0x1540ceeb",
        "nonce": "0x9f",
        "chainId": "0x14a34"
      },
      "additionalContracts": [],
      "isFixedGasLimit": false
    },
    {
      "hash": "0xcacd9879f28d86bbdfd93cc77b7463a6916bfa76f87edac63d240d00b106c258",
      "transactionType": "CALL",
      "contractName": null,
      "contractAddress": "0xb1969c60bad7ebd8cf0d6466b6953409f0895538",
      "function": "addKOL(bytes32)",
      "arguments": [
        "0x54ee7dc2425581581c47469e5eb1f5eed4233fcbddf6c7592f1580aa348c89b4"
      ],
      "transaction": {
        "from": "0x0b3d62df33521cdce79e87586d7c1534b00ecad7",
        "to": "0xb1969c60bad7ebd8cf0d6466b6953409f0895538",
        "gas": "0x18902",
        "value": "0x0",
        "input": "0xf08fd6d654ee7dc2425581581c47469e5eb1f5eed4233fcbddf6c7592f1580aa348c89b4",
        "nonce": "0xa0",
        "chainId": "0x14a34"
      },
      "additionalContracts": [],
      "isFixedGasLimit": false
    },
    {
      "hash": "0xf8a031993994a459dff9578f5e321269c24660fd1c09fff77fbe2dfe816fff53",
      "transactionType": "CALL",
      "contractName": null,
      "contractAddress": "0xb1969c60bad7ebd8cf0d6466b6953409f0895538",
      "function": "addKOL(bytes32)",
      "arguments": [
        "0xfa4dffc9e824f830cf7d07fc7765ba1d7b344d923dd9083258189156f4932796"
      ],
      "transaction": {
        "from": "0x0b3d62df33521cdce79e87586d7c1534b00ecad7",
        "to": "0xb1969c60bad7ebd8cf0d6466b6953409f0895538",
        "gas": "0x116e9",
        "value": "0x0",
        "input": "0xf08fd6d6fa4dffc9e824f830cf7d07fc7765ba1d7b344d923dd9083258189156f4932796",
        "nonce": "0xa1",
        "chainId": "0x14a34"
      },
      "additionalContracts": [],
      "isFixedGasLimit": false
    },
    {
      "hash": "0x5c9c5a0afdfea4621bff22de8530325abea46ee73a1f76c9bf065da7f1715134",
      "transactionType": "CALL",
      "contractName": null,
      "contractAddress": "0xb1969c60bad7ebd8cf0d6466b6953409f0895538",
      "function": "addKOL(bytes32)",
      "arguments": [
        "0x33fd3a1a2f6025be5b2d3026fea143df162bb647c138b6d16851023d3c6518a7"
      ],
      "transaction": {
        "from": "0x0b3d62df33521cdce79e87586d7c1534b00ecad7",
        "to": "0xb1969c60bad7ebd8cf0d6466b6953409f0895538",
        "gas": "0x116e9",
        "value": "0x0",
        "input": "0xf08fd6d633fd3a1a2f6025be5b2d3026fea143df162bb647c138b6d16851023d3c6518a7",
        "nonce": "0xa2",
        "chainId": "0x14a34"
      },
      "additionalContracts": [],
      "isFixedGasLimit": false
    },
    {
      "hash": "0xf7c4d05bc56ee2bbc6480534b6344a6fddd4494fcd9fb64f9ae83549656f5938",
      "transactionType": "CALL",
      "contractName": null,
      "contractAddress": "0xb1969c60bad7ebd8cf0d6466b6953409f0895538",
      "function": "addKOL(bytes32)",
      "arguments": [
        "0x4577b1186726aefd500341efa18943241fb9994e2e412da5cc558d28c6e52ddf"
      ],
      "transaction": {
        "from": "0x0b3d62df33521cdce79e87586d7c1534b00ecad7",
        "to": "0xb1969c60bad7ebd8cf0d6466b6953409f0895538",
        "gas": "0x116e9",
        "value": "0x0",
        "input": "0xf08fd6d64577b1186726aefd500341efa18943241fb9994e2e412da5cc558d28c6e52ddf",
        "nonce": "0xa3",
        "chainId": "0x14a34"
      },
      "additionalContracts": [],
      "isFixedGasLimit": false
    },
    {
      "hash": "0x1470e5f4521911754fb6a4f6de2f136ef8880a466c0252a455a38bc203f31521",
      "transactionType": "CALL",
      "contractName": null,
      "contractAddress": "0xb1969c60bad7ebd8cf0d6466b6953409f0895538",
      "function": "addKOL(bytes32)",
      "arguments": [
        "0xcb43db8e11342c57139c6028ef0ca9ff0606bfa1218225ea9a0ccb7e42206362"
      ],
      "transaction": {
        "from": "0x0b3d62df33521cdce79e87586d7c1534b00ecad7",
        "to": "0xb1969c60bad7ebd8cf0d6466b6953409f0895538",
        "gas": "0x116e9",
        "value": "0x0",
        "input": "0xf08fd6d6cb43db8e11342c57139c6028ef0ca9ff0606bfa1218225ea9a0ccb7e42206362",
        "nonce": "0xa4",
        "chainId": "0x14a34"
      },
      "additionalContracts": [],
      "isFixedGasLimit": false
    },
    {
      "hash": "0xf2e862dc17fd5594a35282d1b109d1cdc3fbd8e63918e310c36fa30cc5af19cb",
      "transactionType": "CALL",
      "contractName": null,
      "contractAddress": "0xb1969c60bad7ebd8cf0d6466b6953409f0895538",
      "function": "addKOL(bytes32)",
      "arguments": [
        "0x673c01c3285d988aa04a27f5a542a4a304005c687956087d40ac2df25856dcdb"
      ],
      "transaction": {
        "from": "0x0b3d62df33521cdce79e87586d7c1534b00ecad7",
        "to": "0xb1969c60bad7ebd8cf0d6466b6953409f0895538",
        "gas": "0x12740",
        "value": "0x0",
        "input": "0xf08fd6d6673c01c3285d988aa04a27f5a542a4a304005c687956087d40ac2df25856dcdb",
        "nonce": "0xa5",
        "chainId": "0x14a34"
      },
      "additionalContracts": [],
      "isFixedGasLimit": false
    },
    {
      "hash": "0xfa290f3cb69f8b706ba2c2732fa49264d0576a04281d6d36a31c446c2e54be9c",
      "transactionType": "CALL",
      "contractName": null,
      "contractAddress": "0xb1969c60bad7ebd8cf0d6466b6953409f0895538",
      "function": "addKOL(bytes32)",
      "arguments": [
        "0x0524cdf42f7e19c1b50b880d9d343bed05b80f21f29ecec6cff29e9657177853"
      ],
      "transaction": {
        "from": "0x0b3d62df33521cdce79e87586d7c1534b00ecad7",
        "to": "0xb1969c60bad7ebd8cf0d6466b6953409f0895538",
        "gas": "0x116e9",
        "value": "0x0",
        "input": "0xf08fd6d60524cdf42f7e19c1b50b880d9d343bed05b80f21f29ecec6cff29e9657177853",
        "nonce": "0xa6",
        "chainId": "0x14a34"
      },
      "additionalContracts": [],
      "isFixedGasLimit": false
    },
    {
      "hash": "0x5e065104be4cf6ececbc483329abe0b2930ea07cceac178aab8d3ffac429183b",
      "transactionType": "CALL",
      "contractName": null,
      "contractAddress": "0xb1969c60bad7ebd8cf0d6466b6953409f0895538",
      "function": "addKOL(bytes32)",
      "arguments": [
        "0x48c5a7987a74c243ccde734e1679bd0ec85b03ad4b0d329815fa18a928bed2ca"
      ],
      "transaction": {
        "from": "0x0b3d62df33521cdce79e87586d7c1534b00ecad7",
        "to": "0xb1969c60bad7ebd8cf0d6466b6953409f0895538",
        "gas": "0x116e9",
        "value": "0x0",
        "input": "0xf08fd6d648c5a7987a74c243ccde734e1679bd0ec85b03ad4b0d329815fa18a928bed2ca",
        "nonce": "0xa7",
        "chainId": "0x14a34"
      },
      "additionalContracts": [],
      "isFixedGasLimit": false
    },
    {
      "hash": "0x7a0bb0b576c0ca7eddf57013ab3c29ce34a721c96158ecc0230403f97da48fe6",
      "transactionType": "CALL",
      "contractName": null,
      "contractAddress": "0xb1969c60bad7ebd8cf0d6466b6953409f0895538",
      "function": "addKOL(bytes32)",
      "arguments": [
        "0xf62eed8c614d9af05170cfd5366e70ce2b5b581277ed9bda90ee06ec1c0ac70b"
      ],
      "transaction": {
        "from": "0x0b3d62df33521cdce79e87586d7c1534b00ecad7",
        "to": "0xb1969c60bad7ebd8cf0d6466b6953409f0895538",
        "gas": "0x116e9",
        "value": "0x0",
        "input": "0xf08fd6d6f62eed8c614d9af05170cfd5366e70ce2b5b581277ed9bda90ee06ec1c0ac70b",
        "nonce": "0xa8",
        "chainId": "0x14a34"
      },
      "additionalContracts": [],
      "isFixedGasLimit": false
    },
    {
      "hash": "0x4c5a8c0489f25a9d0d50c590247a655059abc766a537c18282c4ea4e4983d098",
      "transactionType": "CALL",
      "contractName": null,
      "contractAddress": "0xb1969c60bad7ebd8cf0d6466b6953409f0895538",
      "function": "addKOL(bytes32)",
      "arguments": [
        "0x1607be6baa59b952f720dc10f894f0fb97723aa12c72c2f925dfbd8f301ea770"
      ],
      "transaction": {
        "from": "0x0b3d62df33521cdce79e87586d7c1534b00ecad7",
        "to": "0xb1969c60bad7ebd8cf0d6466b6953409f0895538",
        "gas": "0x116e9",
        "value": "0x0",
        "input": "0xf08fd6d61607be6baa59b952f720dc10f894f0fb97723aa12c72c2f925dfbd8f301ea770",
        "nonce": "0xa9",
        "chainId": "0x14a34"
      },
      "additionalContracts": [],
      "isFixedGasLimit": false
    },
    {
      "hash": "0x18e6034c0033242258005d878853c066cca1f04c7f3f4679dcb7ab660ce62fb0",
      "transactionType": "CALL",
      "contractName": null,
      "contractAddress": "0xb1969c60bad7ebd8cf0d6466b6953409f0895538",
      "function": "addKOL(bytes32)",
      "arguments": [
        "0xc6efb078ba9e17a714af044d45caa889df54c72db5a8f519a48117964c45e811"
      ],
      "transaction": {
        "from": "0x0b3d62df33521cdce79e87586d7c1534b00ecad7",
        "to": "0xb1969c60bad7ebd8cf0d6466b6953409f0895538",
        "gas": "0x116e9",
        "value": "0x0",
        "input": "0xf08fd6d6c6efb078ba9e17a714af044d45caa889df54c72db5a8f519a48117964c45e811",
        "nonce": "0xaa",
        "chainId": "0x14a34"
      },
      "additionalContracts": [],
      "isFixedGasLimit": false
    },
    {
      "hash": "0xeb914feadc64ee68455173774855a71d5cf60ab203fca1c904d37577dead7e28",
      "transactionType": "CALL",
      "contractName": null,
      "contractAddress": "0xb1969c60bad7ebd8cf0d6466b6953409f0895538",
      "function": "addKOL(bytes32)",
      "arguments": [
        "0xbcf86f88c85a4d7c8956da3d72aa06352a87f16a97cd2c9897a07492f92a6ad2"
      ],
      "transaction": {
        "from": "0x0b3d62df33521cdce79e87586d7c1534b00ecad7",
        "to": "0xb1969c60bad7ebd8cf0d6466b6953409f0895538",
        "gas": "0x116e9",
        "value": "0x0",
        "input": "0xf08fd6d6bcf86f88c85a4d7c8956da3d72aa06352a87f16a97cd2c9897a07492f92a6ad2",
        "nonce": "0xab",
        "chainId": "0x14a34"
      },
      "additionalContracts": [],
      "isFixedGasLimit": false
    },
    {
      "hash": "0x49f94c44ac30e6f84d94f9a17851e30e0b6e304f89b6401e4bdd46c9c3260cff",
      "transactionType": "CALL",
      "contractName": null,
      "contractAddress": "0xb1969c60bad7ebd8cf0d6466b6953409f0895538",
      "function": "addKOL(bytes32)",
      "arguments": [
        "0x6dc2f619db0779da93991f96b7d19da693074782b6575cd6617f98bb4ff77bdc"
      ],
      "transaction": {
        "from": "0x0b3d62df33521cdce79e87586d7c1534b00ecad7",
        "to": "0xb1969c60bad7ebd8cf0d6466b6953409f0895538",
        "gas": "0x116e9",
        "value": "0x0",
        "input": "0xf08fd6d66dc2f619db0779da93991f96b7d19da693074782b6575cd6617f98bb4ff77bdc",
        "nonce": "0xac",
        "chainId": "0x14a34"
      },
      "additionalContracts": [],
      "isFixedGasLimit": false
    },
    {
      "hash": "0xc40ab038de91afa4dff49f2cc94ba26c9e991733cf807bf61861084260053cb7",
      "transactionType": "CALL",
      "contractName": null,
      "contractAddress": "0xb1969c60bad7ebd8cf0d6466b6953409f0895538",
      "function": "addKOL(bytes32)",
      "arguments": [
        "0x89a423337cdbf4041d1f104772e9b3b58f5c0141b08227b35aab83cab7e0e1ed"
      ],
      "transaction": {
        "from": "0x0b3d62df33521cdce79e87586d7c1534b00ecad7",
        "to": "0xb1969c60bad7ebd8cf0d6466b6953409f0895538",
        "gas": "0x116e9",
        "value": "0x0",
        "input": "0xf08fd6d689a423337cdbf4041d1f104772e9b3b58f5c0141b08227b35aab83cab7e0e1ed",
        "nonce": "0xad",
        "chainId": "0x14a34"
      },
      "additionalContracts": [],
      "isFixedGasLimit": false
    },
    {
      "hash": "0xa0b1b7a4f229b48bcad855ad0b94b846bda30ac60163e8bb6463e9dbbec732c2",
      "transactionType": "CALL",
      "contractName": null,
      "contractAddress": "0xb1969c60bad7ebd8cf0d6466b6953409f0895538",
      "function": "addKOL(bytes32)",
      "arguments": [
        "0xdbbb309b2d1e68f542ca8002db4910bef497c5ad9e7e7c1168159960dd05d2e7"
      ],
      "transaction": {
        "from": "0x0b3d62df33521cdce79e87586d7c1534b00ecad7",
        "to": "0xb1969c60bad7ebd8cf0d6466b6953409f0895538",
        "gas": "0x116e9",
        "value": "0x0",
        "input": "0xf08fd6d6dbbb309b2d1e68f542ca8002db4910bef497c5ad9e7e7c1168159960dd05d2e7",
        "nonce": "0xae",
        "chainId": "0x14a34"
      },
      "additionalContracts": [],
      "isFixedGasLimit": false
    }
  ],
  "receipts": [
    {
      "status": "0x1",
      "cumulativeGasUsed": "0xce599b",
      "logs": [],
      "logsBloom": "0x00000000000000000000000000000000000000000000000000000000000000000000000000000000000000000000000000000000000000000000000000000000000000000000000000000000000000000000000000000000000000000000000000000000000000000000000000000000000000000000000000000000000000000000000000000000000000000000000000000000000000000000000000000000000000000000000000000000000000000000000000000000000000000000000000000000000000000000000000000000000000000000000000000000000000000000000000000000000000000000000000000000000000000000000000000000",
      "type": "0x2",
      "transactionHash": "0x376c2f5c9106b77224fb21d49cb9598926678a82b0952e16b35d51b138160016",
      "transactionIndex": "0x20",
      "blockHash": "0x63691fe69be18306f017995c8086ad2f6c689d2673c87a6341545c4095aeed93",
      "blockNumber": "0x1ef6fc3",
      "gasUsed": "0x1453b",
      "effectiveGasPrice": "0xf42b3",
      "from": "0x0b3d62df33521cdce79e87586d7c1534b00ecad7",
      "to": "0xb1969c60bad7ebd8cf0d6466b6953409f0895538",
      "contractAddress": null,
      "l1BaseFeeScalar": "0x44d",
      "l1BlobBaseFee": "0x1",
      "l1BlobBaseFeeScalar": "0xa118b",
      "l1Fee": "0x58",
      "l1GasPrice": "0xd",
      "l1GasUsed": "0x640"
    },
    {
      "status": "0x1",
      "cumulativeGasUsed": "0xd3cd08",
      "logs": [],
      "logsBloom": "0x00000000000000000000000000000000000000000000000000000000000000000000000000000000000000000000000000000000000000000000000000000000000000000000000000000000000000000000000000000000000000000000000000000000000000000000000000000000000000000000000000000000000000000000000000000000000000000000000000000000000000000000000000000000000000000000000000000000000000000000000000000000000000000000000000000000000000000000000000000000000000000000000000000000000000000000000000000000000000000000000000000000000000000000000000000000",
      "type": "0x2",
      "transactionHash": "0xcacd9879f28d86bbdfd93cc77b7463a6916bfa76f87edac63d240d00b106c258",
      "transactionIndex": "0x28",
      "blockHash": "0x63691fe69be18306f017995c8086ad2f6c689d2673c87a6341545c4095aeed93",
      "blockNumber": "0x1ef6fc3",
      "gasUsed": "0x10cba",
      "effectiveGasPrice": "0xf42b3",
      "from": "0x0b3d62df33521cdce79e87586d7c1534b00ecad7",
      "to": "0xb1969c60bad7ebd8cf0d6466b6953409f0895538",
      "contractAddress": null,
      "l1BaseFeeScalar": "0x44d",
      "l1BlobBaseFee": "0x1",
      "l1BlobBaseFeeScalar": "0xa118b",
      "l1Fee": "0x58",
      "l1GasPrice": "0xd",
      "l1GasUsed": "0x640"
    },
    {
      "status": "0x1",
      "cumulativeGasUsed": "0xe6b2bb",
      "logs": [],
      "logsBloom": "0x00000000000000000000000000000000000000000000000000000000000000000000000000000000000000000000000000000000000000000000000000000000000000000000000000000000000000000000000000000000000000000000000000000000000000000000000000000000000000000000000000000000000000000000000000000000000000000000000000000000000000000000000000000000000000000000000000000000000000000000000000000000000000000000000000000000000000000000000000000000000000000000000000000000000000000000000000000000000000000000000000000000000000000000000000000000",
      "type": "0x2",
      "transactionHash": "0xf8a031993994a459dff9578f5e321269c24660fd1c09fff77fbe2dfe816fff53",
      "transactionIndex": "0x2f",
      "blockHash": "0x24e1b7728135459261dd2a791e46cb70225f4d9f404195d48144d5cef52ef517",
      "blockNumber": "0x1ef6fc3",
      "gasUsed": "0xc9ee",
      "effectiveGasPrice": "0xf42b3",
      "from": "0x0b3d62df33521cdce79e87586d7c1534b00ecad7",
      "to": "0xb1969c60bad7ebd8cf0d6466b6953409f0895538",
      "contractAddress": null,
      "l1BaseFeeScalar": "0x44d",
      "l1BlobBaseFee": "0x1",
      "l1BlobBaseFeeScalar": "0xa118b",
      "l1Fee": "0x58",
      "l1GasPrice": "0xd",
      "l1GasUsed": "0x640"
    },
    {
      "status": "0x1",
      "cumulativeGasUsed": "0xe77ca9",
      "logs": [],
      "logsBloom": "0x00000000000000000000000000000000000000000000000000000000000000000000000000000000000000000000000000000000000000000000000000000000000000000000000000000000000000000000000000000000000000000000000000000000000000000000000000000000000000000000000000000000000000000000000000000000000000000000000000000000000000000000000000000000000000000000000000000000000000000000000000000000000000000000000000000000000000000000000000000000000000000000000000000000000000000000000000000000000000000000000000000000000000000000000000000000",
      "type": "0x2",
      "transactionHash": "0x5c9c5a0afdfea4621bff22de8530325abea46ee73a1f76c9bf065da7f1715134",
      "transactionIndex": "0x30",
      "blockHash": "0x24e1b7728135459261dd2a791e46cb70225f4d9f404195d48144d5cef52ef517",
      "blockNumber": "0x1ef6fc3",
      "gasUsed": "0xc9ee",
      "effectiveGasPrice": "0xf42b3",
      "from": "0x0b3d62df33521cdce79e87586d7c1534b00ecad7",
      "to": "0xb1969c60bad7ebd8cf0d6466b6953409f0895538",
      "contractAddress": null,
      "l1BaseFeeScalar": "0x44d",
      "l1BlobBaseFee": "0x1",
      "l1BlobBaseFeeScalar": "0xa118b",
      "l1Fee": "0x58",
      "l1GasPrice": "0xd",
      "l1GasUsed": "0x640"
    },
    {
      "status": "0x1",
      "cumulativeGasUsed": "0xe84697",
      "logs": [],
      "logsBloom": "0x00000000000000000000000000000000000000000000000000000000000000000000000000000000000000000000000000000000000000000000000000000000000000000000000000000000000000000000000000000000000000000000000000000000000000000000000000000000000000000000000000000000000000000000000000000000000000000000000000000000000000000000000000000000000000000000000000000000000000000000000000000000000000000000000000000000000000000000000000000000000000000000000000000000000000000000000000000000000000000000000000000000000000000000000000000000",
      "type": "0x2",
      "transactionHash": "0xf7c4d05bc56ee2bbc6480534b6344a6fddd4494fcd9fb64f9ae83549656f5938",
      "transactionIndex": "0x31",
      "blockHash": "0x24e1b7728135459261dd2a791e46cb70225f4d9f404195d48144d5cef52ef517",
      "blockNumber": "0x1ef6fc3",
      "gasUsed": "0xc9ee",
      "effectiveGasPrice": "0xf42b3",
      "from": "0x0b3d62df33521cdce79e87586d7c1534b00ecad7",
      "to": "0xb1969c60bad7ebd8cf0d6466b6953409f0895538",
      "contractAddress": null,
      "l1BaseFeeScalar": "0x44d",
      "l1BlobBaseFee": "0x1",
      "l1BlobBaseFeeScalar": "0xa118b",
      "l1Fee": "0x58",
      "l1GasPrice": "0xd",
      "l1GasUsed": "0x640"
    },
    {
      "status": "0x1",
      "cumulativeGasUsed": "0xe9a696",
      "logs": [],
      "logsBloom": "0x00000000000000000000000000000000000000000000000000000000000000000000000000000000000000000000000000000000000000000000000000000000000000000000000000000000000000000000000000000000000000000000000000000000000000000000000000000000000000000000000000000000000000000000000000000000000000000000000000000000000000000000000000000000000000000000000000000000000000000000000000000000000000000000000000000000000000000000000000000000000000000000000000000000000000000000000000000000000000000000000000000000000000000000000000000000",
      "type": "0x2",
      "transactionHash": "0x1470e5f4521911754fb6a4f6de2f136ef8880a466c0252a455a38bc203f31521",
      "transactionIndex": "0x33",
      "blockHash": "0x24e1b7728135459261dd2a791e46cb70225f4d9f404195d48144d5cef52ef517",
      "blockNumber": "0x1ef6fc3",
      "gasUsed": "0xc9ee",
      "effectiveGasPrice": "0xf42b3",
      "from": "0x0b3d62df33521cdce79e87586d7c1534b00ecad7",
      "to": "0xb1969c60bad7ebd8cf0d6466b6953409f0895538",
      "contractAddress": null,
      "l1BaseFeeScalar": "0x44d",
      "l1BlobBaseFee": "0x1",
      "l1BlobBaseFeeScalar": "0xa118b",
      "l1Fee": "0x58",
      "l1GasPrice": "0xd",
      "l1GasUsed": "0x640"
    },
    {
      "status": "0x1",
      "cumulativeGasUsed": "0xea7078",
      "logs": [],
      "logsBloom": "0x00000000000000000000000000000000000000000000000000000000000000000000000000000000000000000000000000000000000000000000000000000000000000000000000000000000000000000000000000000000000000000000000000000000000000000000000000000000000000000000000000000000000000000000000000000000000000000000000000000000000000000000000000000000000000000000000000000000000000000000000000000000000000000000000000000000000000000000000000000000000000000000000000000000000000000000000000000000000000000000000000000000000000000000000000000000",
      "type": "0x2",
      "transactionHash": "0xf2e862dc17fd5594a35282d1b109d1cdc3fbd8e63918e310c36fa30cc5af19cb",
      "transactionIndex": "0x34",
      "blockHash": "0x24e1b7728135459261dd2a791e46cb70225f4d9f404195d48144d5cef52ef517",
      "blockNumber": "0x1ef6fc3",
      "gasUsed": "0xc9e2",
      "effectiveGasPrice": "0xf42b3",
      "from": "0x0b3d62df33521cdce79e87586d7c1534b00ecad7",
      "to": "0xb1969c60bad7ebd8cf0d6466b6953409f0895538",
      "contractAddress": null,
      "l1BaseFeeScalar": "0x44d",
      "l1BlobBaseFee": "0x1",
      "l1BlobBaseFeeScalar": "0xa118b",
      "l1Fee": "0x58",
      "l1GasPrice": "0xd",
      "l1GasUsed": "0x640"
    },
    {
      "status": "0x1",
      "cumulativeGasUsed": "0xeb3a66",
      "logs": [],
      "logsBloom": "0x00000000000000000000000000000000000000000000000000000000000000000000000000000000000000000000000000000000000000000000000000000000000000000000000000000000000000000000000000000000000000000000000000000000000000000000000000000000000000000000000000000000000000000000000000000000000000000000000000000000000000000000000000000000000000000000000000000000000000000000000000000000000000000000000000000000000000000000000000000000000000000000000000000000000000000000000000000000000000000000000000000000000000000000000000000000",
      "type": "0x2",
      "transactionHash": "0xfa290f3cb69f8b706ba2c2732fa49264d0576a04281d6d36a31c446c2e54be9c",
      "transactionIndex": "0x35",
      "blockHash": "0x24e1b7728135459261dd2a791e46cb70225f4d9f404195d48144d5cef52ef517",
      "blockNumber": "0x1ef6fc3",
      "gasUsed": "0xc9ee",
      "effectiveGasPrice": "0xf42b3",
      "from": "0x0b3d62df33521cdce79e87586d7c1534b00ecad7",
      "to": "0xb1969c60bad7ebd8cf0d6466b6953409f0895538",
      "contractAddress": null,
      "l1BaseFeeScalar": "0x44d",
      "l1BlobBaseFee": "0x1",
      "l1BlobBaseFeeScalar": "0xa118b",
      "l1Fee": "0x58",
      "l1GasPrice": "0xd",
      "l1GasUsed": "0x640"
    },
    {
      "status": "0x1",
      "cumulativeGasUsed": "0x102a61b",
      "logs": [],
      "logsBloom": "0x00000000000000000000000000000000000000000000000000000000000000000000000000000000000000000000000000000000000000000000000000000000000000000000000000000000000000000000000000000000000000000000000000000000000000000000000000000000000000000000000000000000000000000000000000000000000000000000000000000000000000000000000000000000000000000000000000000000000000000000000000000000000000000000000000000000000000000000000000000000000000000000000000000000000000000000000000000000000000000000000000000000000000000000000000000000",
      "type": "0x2",
      "transactionHash": "0x5e065104be4cf6ececbc483329abe0b2930ea07cceac178aab8d3ffac429183b",
      "transactionIndex": "0x3c",
      "blockHash": "0x63691fe69be18306f017995c8086ad2f6c689d2673c87a6341545c4095aeed93",
      "blockNumber": "0x1ef6fc3",
      "gasUsed": "0xc9ee",
      "effectiveGasPrice": "0xf42b3",
      "from": "0x0b3d62df33521cdce79e87586d7c1534b00ecad7",
      "to": "0xb1969c60bad7ebd8cf0d6466b6953409f0895538",
      "contractAddress": null,
      "l1BaseFeeScalar": "0x44d",
      "l1BlobBaseFee": "0x1",
      "l1BlobBaseFeeScalar": "0xa118b",
      "l1Fee": "0x58",
      "l1GasPrice": "0xd",
      "l1GasUsed": "0x640"
    },
    {
      "status": "0x1",
      "cumulativeGasUsed": "0x106cfa1",
      "logs": [],
      "logsBloom": "0x00000000000000000000000000000000000000000000000000000000000000000000000000000000000000000000000000000000000000000000000000000000000000000000000000000000000000000000000000000000000000000000000000000000000000000000000000000000000000000000000000000000000000000000000000000000000000000000000000000000000000000000000000000000000000000000000000000000000000000000000000000000000000000000000000000000000000000000000000000000000000000000000000000000000000000000000000000000000000000000000000000000000000000000000000000000",
      "type": "0x2",
      "transactionHash": "0x7a0bb0b576c0ca7eddf57013ab3c29ce34a721c96158ecc0230403f97da48fe6",
      "transactionIndex": "0x3f",
      "blockHash": "0x63691fe69be18306f017995c8086ad2f6c689d2673c87a6341545c4095aeed93",
      "blockNumber": "0x1ef6fc3",
      "gasUsed": "0xc9ee",
      "effectiveGasPrice": "0xf42b3",
      "from": "0x0b3d62df33521cdce79e87586d7c1534b00ecad7",
      "to": "0xb1969c60bad7ebd8cf0d6466b6953409f0895538",
      "contractAddress": null,
      "l1BaseFeeScalar": "0x44d",
      "l1BlobBaseFee": "0x1",
      "l1BlobBaseFeeScalar": "0xa118b",
      "l1Fee": "0x58",
      "l1GasPrice": "0xd",
      "l1GasUsed": "0x640"
    },
    {
      "status": "0x1",
      "cumulativeGasUsed": "0x107998f",
      "logs": [],
      "logsBloom": "0x00000000000000000000000000000000000000000000000000000000000000000000000000000000000000000000000000000000000000000000000000000000000000000000000000000000000000000000000000000000000000000000000000000000000000000000000000000000000000000000000000000000000000000000000000000000000000000000000000000000000000000000000000000000000000000000000000000000000000000000000000000000000000000000000000000000000000000000000000000000000000000000000000000000000000000000000000000000000000000000000000000000000000000000000000000000",
      "type": "0x2",
      "transactionHash": "0x4c5a8c0489f25a9d0d50c590247a655059abc766a537c18282c4ea4e4983d098",
      "transactionIndex": "0x40",
      "blockHash": "0x63691fe69be18306f017995c8086ad2f6c689d2673c87a6341545c4095aeed93",
      "blockNumber": "0x1ef6fc3",
      "gasUsed": "0xc9ee",
      "effectiveGasPrice": "0xf42b3",
      "from": "0x0b3d62df33521cdce79e87586d7c1534b00ecad7",
      "to": "0xb1969c60bad7ebd8cf0d6466b6953409f0895538",
      "contractAddress": null,
      "l1BaseFeeScalar": "0x44d",
      "l1BlobBaseFee": "0x1",
      "l1BlobBaseFeeScalar": "0xa118b",
      "l1Fee": "0x58",
      "l1GasPrice": "0xd",
      "l1GasUsed": "0x640"
    },
    {
      "status": "0x1",
      "cumulativeGasUsed": "0x108637d",
      "logs": [],
      "logsBloom": "0x00000000000000000000000000000000000000000000000000000000000000000000000000000000000000000000000000000000000000000000000000000000000000000000000000000000000000000000000000000000000000000000000000000000000000000000000000000000000000000000000000000000000000000000000000000000000000000000000000000000000000000000000000000000000000000000000000000000000000000000000000000000000000000000000000000000000000000000000000000000000000000000000000000000000000000000000000000000000000000000000000000000000000000000000000000000",
      "type": "0x2",
      "transactionHash": "0x18e6034c0033242258005d878853c066cca1f04c7f3f4679dcb7ab660ce62fb0",
      "transactionIndex": "0x41",
      "blockHash": "0x63691fe69be18306f017995c8086ad2f6c689d2673c87a6341545c4095aeed93",
      "blockNumber": "0x1ef6fc3",
      "gasUsed": "0xc9ee",
      "effectiveGasPrice": "0xf42b3",
      "from": "0x0b3d62df33521cdce79e87586d7c1534b00ecad7",
      "to": "0xb1969c60bad7ebd8cf0d6466b6953409f0895538",
      "contractAddress": null,
      "l1BaseFeeScalar": "0x44d",
      "l1BlobBaseFee": "0x1",
      "l1BlobBaseFeeScalar": "0xa118b",
      "l1Fee": "0x58",
      "l1GasPrice": "0xd",
      "l1GasUsed": "0x640"
    },
    {
      "status": "0x1",
      "cumulativeGasUsed": "0x1092d6b",
      "logs": [],
      "logsBloom": "0x00000000000000000000000000000000000000000000000000000000000000000000000000000000000000000000000000000000000000000000000000000000000000000000000000000000000000000000000000000000000000000000000000000000000000000000000000000000000000000000000000000000000000000000000000000000000000000000000000000000000000000000000000000000000000000000000000000000000000000000000000000000000000000000000000000000000000000000000000000000000000000000000000000000000000000000000000000000000000000000000000000000000000000000000000000000",
      "type": "0x2",
      "transactionHash": "0xeb914feadc64ee68455173774855a71d5cf60ab203fca1c904d37577dead7e28",
      "transactionIndex": "0x42",
      "blockHash": "0x63691fe69be18306f017995c8086ad2f6c689d2673c87a6341545c4095aeed93",
      "blockNumber": "0x1ef6fc3",
      "gasUsed": "0xc9ee",
      "effectiveGasPrice": "0xf42b3",
      "from": "0x0b3d62df33521cdce79e87586d7c1534b00ecad7",
      "to": "0xb1969c60bad7ebd8cf0d6466b6953409f0895538",
      "contractAddress": null,
      "l1BaseFeeScalar": "0x44d",
      "l1BlobBaseFee": "0x1",
      "l1BlobBaseFeeScalar": "0xa118b",
      "l1Fee": "0x58",
      "l1GasPrice": "0xd",
      "l1GasUsed": "0x640"
    },
    {
      "status": "0x1",
      "cumulativeGasUsed": "0x109f759",
      "logs": [],
      "logsBloom": "0x00000000000000000000000000000000000000000000000000000000000000000000000000000000000000000000000000000000000000000000000000000000000000000000000000000000000000000000000000000000000000000000000000000000000000000000000000000000000000000000000000000000000000000000000000000000000000000000000000000000000000000000000000000000000000000000000000000000000000000000000000000000000000000000000000000000000000000000000000000000000000000000000000000000000000000000000000000000000000000000000000000000000000000000000000000000",
      "type": "0x2",
      "transactionHash": "0x49f94c44ac30e6f84d94f9a17851e30e0b6e304f89b6401e4bdd46c9c3260cff",
      "transactionIndex": "0x43",
      "blockHash": "0x63691fe69be18306f017995c8086ad2f6c689d2673c87a6341545c4095aeed93",
      "blockNumber": "0x1ef6fc3",
      "gasUsed": "0xc9ee",
      "effectiveGasPrice": "0xf42b3",
      "from": "0x0b3d62df33521cdce79e87586d7c1534b00ecad7",
      "to": "0xb1969c60bad7ebd8cf0d6466b6953409f0895538",
      "contractAddress": null,
      "l1BaseFeeScalar": "0x44d",
      "l1BlobBaseFee": "0x1",
      "l1BlobBaseFeeScalar": "0xa118b",
      "l1Fee": "0x58",
      "l1GasPrice": "0xd",
      "l1GasUsed": "0x640"
    },
    {
      "status": "0x1",
      "cumulativeGasUsed": "0x10ac147",
      "logs": [],
      "logsBloom": "0x00000000000000000000000000000000000000000000000000000000000000000000000000000000000000000000000000000000000000000000000000000000000000000000000000000000000000000000000000000000000000000000000000000000000000000000000000000000000000000000000000000000000000000000000000000000000000000000000000000000000000000000000000000000000000000000000000000000000000000000000000000000000000000000000000000000000000000000000000000000000000000000000000000000000000000000000000000000000000000000000000000000000000000000000000000000",
      "type": "0x2",
      "transactionHash": "0xc40ab038de91afa4dff49f2cc94ba26c9e991733cf807bf61861084260053cb7",
      "transactionIndex": "0x44",
      "blockHash": "0x63691fe69be18306f017995c8086ad2f6c689d2673c87a6341545c4095aeed93",
      "blockNumber": "0x1ef6fc3",
      "gasUsed": "0xc9ee",
      "effectiveGasPrice": "0xf42b3",
      "from": "0x0b3d62df33521cdce79e87586d7c1534b00ecad7",
      "to": "0xb1969c60bad7ebd8cf0d6466b6953409f0895538",
      "contractAddress": null,
      "l1BaseFeeScalar": "0x44d",
      "l1BlobBaseFee": "0x1",
      "l1BlobBaseFeeScalar": "0xa118b",
      "l1Fee": "0x58",
      "l1GasPrice": "0xd",
      "l1GasUsed": "0x640"
    },
    {
      "status": "0x1",
      "cumulativeGasUsed": "0x10ea502",
      "logs": [],
      "logsBloom": "0x00000000000000000000000000000000000000000000000000000000000000000000000000000000000000000000000000000000000000000000000000000000000000000000000000000000000000000000000000000000000000000000000000000000000000000000000000000000000000000000000000000000000000000000000000000000000000000000000000000000000000000000000000000000000000000000000000000000000000000000000000000000000000000000000000000000000000000000000000000000000000000000000000000000000000000000000000000000000000000000000000000000000000000000000000000000",
      "type": "0x2",
      "transactionHash": "0xa0b1b7a4f229b48bcad855ad0b94b846bda30ac60163e8bb6463e9dbbec732c2",
      "transactionIndex": "0x4a",
      "blockHash": "0x63691fe69be18306f017995c8086ad2f6c689d2673c87a6341545c4095aeed93",
      "blockNumber": "0x1ef6fc3",
      "gasUsed": "0xc9ee",
      "effectiveGasPrice": "0xf42b3",
      "from": "0x0b3d62df33521cdce79e87586d7c1534b00ecad7",
      "to": "0xb1969c60bad7ebd8cf0d6466b6953409f0895538",
      "contractAddress": null,
      "l1BaseFeeScalar": "0x44d",
      "l1BlobBaseFee": "0x1",
      "l1BlobBaseFeeScalar": "0xa118b",
      "l1Fee": "0x58",
      "l1GasPrice": "0xd",
      "l1GasUsed": "0x640"
    }
  ],
  "libraries": [],
  "pending": [],
  "returns": {},
  "timestamp": 1760706150,
  "chain": 84532,
  "commit": "c6387da"
}