{
  "transactions": [
    {
      "hash": "0x678f1d252cfcacf774a65c2b9f6bf12de631746b1436fc3d272ad8de1fc3c290",
      "transactionType": "CALL",
      "contractName": null,
      "contractAddress": "0xb1969c60bad7ebd8cf0d6466b6953409f0895538",
      "function": "clearKOLs()",
      "arguments": [],
      "transaction": {
        "from": "0x0b3d62df33521cdce79e87586d7c1534b00ecad7",
        "to": "0xb1969c60bad7ebd8cf0d6466b6953409f0895538",
        "gas": "0x1dba5",
        "value": "0x0",
        "input": "0x1540ceeb",
        "nonce": "0x8f",
        "chainId": "0x14a34"
      },
      "additionalContracts": [],
      "isFixedGasLimit": false
    },
    {
      "hash": "0xc32b3ecd983f2368af66119e76778015a02450dbf226ba960796a3ed6d32130a",
      "transactionType": "CALL",
      "contractName": null,
      "contractAddress": "0xb1969c60bad7ebd8cf0d6466b6953409f0895538",
      "function": "addKOL(bytes32)",
      "arguments": [
        "0x54ee7dc2425581581c47469e5eb1f5eed4233fcbddf6c7592f1580aa348c89b4"
      ],
      "transaction": {
        "from": "0x0b3d62df33521cdce79e87586d7c1534b00ecad7",
        "to": "0xb1969c60bad7ebd8cf0d6466b6953409f0895538",
        "gas": "0x18902",
        "value": "0x0",
        "input": "0xf08fd6d654ee7dc2425581581c47469e5eb1f5eed4233fcbddf6c7592f1580aa348c89b4",
        "nonce": "0x90",
        "chainId": "0x14a34"
      },
      "additionalContracts": [],
      "isFixedGasLimit": false
    },
    {
      "hash": "0x3d630542bf526f705eeeae6fdd3a17a024f87911a9d9e56ddb4f00333b61bea6",
      "transactionType": "CALL",
      "contractName": null,
      "contractAddress": "0xb1969c60bad7ebd8cf0d6466b6953409f0895538",
      "function": "addKOL(bytes32)",
      "arguments": [
        "0xfa4dffc9e824f830cf7d07fc7765ba1d7b344d923dd9083258189156f4932796"
      ],
      "transaction": {
        "from": "0x0b3d62df33521cdce79e87586d7c1534b00ecad7",
        "to": "0xb1969c60bad7ebd8cf0d6466b6953409f0895538",
        "gas": "0x116e9",
        "value": "0x0",
        "input": "0xf08fd6d6fa4dffc9e824f830cf7d07fc7765ba1d7b344d923dd9083258189156f4932796",
        "nonce": "0x91",
        "chainId": "0x14a34"
      },
      "additionalContracts": [],
      "isFixedGasLimit": false
    },
    {
      "hash": "0x598d423916959ac47e2869583b7138d66a0fe948a756064db387912b60f39f1f",
      "transactionType": "CALL",
      "contractName": null,
      "contractAddress": "0xb1969c60bad7ebd8cf0d6466b6953409f0895538",
      "function": "addKOL(bytes32)",
      "arguments": [
        "0x33fd3a1a2f6025be5b2d3026fea143df162bb647c138b6d16851023d3c6518a7"
      ],
      "transaction": {
        "from": "0x0b3d62df33521cdce79e87586d7c1534b00ecad7",
        "to": "0xb1969c60bad7ebd8cf0d6466b6953409f0895538",
        "gas": "0x116e9",
        "value": "0x0",
        "input": "0xf08fd6d633fd3a1a2f6025be5b2d3026fea143df162bb647c138b6d16851023d3c6518a7",
        "nonce": "0x92",
        "chainId": "0x14a34"
      },
      "additionalContracts": [],
      "isFixedGasLimit": false
    },
    {
      "hash": "0xe00bd46c4fe7333d516dd8eae95f4fbb9b707d68a80ff538d863ab9090ac176d",
      "transactionType": "CALL",
      "contractName": null,
      "contractAddress": "0xb1969c60bad7ebd8cf0d6466b6953409f0895538",
      "function": "addKOL(bytes32)",
      "arguments": [
        "0x4577b1186726aefd500341efa18943241fb9994e2e412da5cc558d28c6e52ddf"
      ],
      "transaction": {
        "from": "0x0b3d62df33521cdce79e87586d7c1534b00ecad7",
        "to": "0xb1969c60bad7ebd8cf0d6466b6953409f0895538",
        "gas": "0x116e9",
        "value": "0x0",
        "input": "0xf08fd6d64577b1186726aefd500341efa18943241fb9994e2e412da5cc558d28c6e52ddf",
        "nonce": "0x93",
        "chainId": "0x14a34"
      },
      "additionalContracts": [],
      "isFixedGasLimit": false
    },
    {
      "hash": "0x1f9b64f319d3f6bb0fa37d60506169a60bb68bdc3ff3d5ae41cd70d694a7a938",
      "transactionType": "CALL",
      "contractName": null,
      "contractAddress": "0xb1969c60bad7ebd8cf0d6466b6953409f0895538",
      "function": "addKOL(bytes32)",
      "arguments": [
        "0xcb43db8e11342c57139c6028ef0ca9ff0606bfa1218225ea9a0ccb7e42206362"
      ],
      "transaction": {
        "from": "0x0b3d62df33521cdce79e87586d7c1534b00ecad7",
        "to": "0xb1969c60bad7ebd8cf0d6466b6953409f0895538",
        "gas": "0x116e9",
        "value": "0x0",
        "input": "0xf08fd6d6cb43db8e11342c57139c6028ef0ca9ff0606bfa1218225ea9a0ccb7e42206362",
        "nonce": "0x94",
        "chainId": "0x14a34"
      },
      "additionalContracts": [],
      "isFixedGasLimit": false
    },
    {
      "hash": "0x7ac080f70b6903db1bf75eaf17305eca4b36ef267f7fb0a57c3c07de1a30d18c",
      "transactionType": "CALL",
      "contractName": null,
      "contractAddress": "0xb1969c60bad7ebd8cf0d6466b6953409f0895538",
      "function": "addKOL(bytes32)",
      "arguments": [
        "0x673c01c3285d988aa04a27f5a542a4a304005c687956087d40ac2df25856dcdb"
      ],
      "transaction": {
        "from": "0x0b3d62df33521cdce79e87586d7c1534b00ecad7",
        "to": "0xb1969c60bad7ebd8cf0d6466b6953409f0895538",
        "gas": "0x12740",
        "value": "0x0",
        "input": "0xf08fd6d6673c01c3285d988aa04a27f5a542a4a304005c687956087d40ac2df25856dcdb",
        "nonce": "0x95",
        "chainId": "0x14a34"
      },
      "additionalContracts": [],
      "isFixedGasLimit": false
    },
    {
      "hash": "0x1ef39df028880f7e6f1e13a82495897c71d6b25d219fc8556276817539991c13",
      "transactionType": "CALL",
      "contractName": null,
      "contractAddress": "0xb1969c60bad7ebd8cf0d6466b6953409f0895538",
      "function": "addKOL(bytes32)",
      "arguments": [
        "0x0524cdf42f7e19c1b50b880d9d343bed05b80f21f29ecec6cff29e9657177853"
      ],
      "transaction": {
        "from": "0x0b3d62df33521cdce79e87586d7c1534b00ecad7",
        "to": "0xb1969c60bad7ebd8cf0d6466b6953409f0895538",
        "gas": "0x116e9",
        "value": "0x0",
        "input": "0xf08fd6d60524cdf42f7e19c1b50b880d9d343bed05b80f21f29ecec6cff29e9657177853",
        "nonce": "0x96",
        "chainId": "0x14a34"
      },
      "additionalContracts": [],
      "isFixedGasLimit": false
    },
    {
      "hash": "0x1d658ddee5d98fbbb0d9a0dbf7cb55dc29ca761c9e7ef5e38bf627a5e743e389",
      "transactionType": "CALL",
      "contractName": null,
      "contractAddress": "0xb1969c60bad7ebd8cf0d6466b6953409f0895538",
      "function": "addKOL(bytes32)",
      "arguments": [
        "0x48c5a7987a74c243ccde734e1679bd0ec85b03ad4b0d329815fa18a928bed2ca"
      ],
      "transaction": {
        "from": "0x0b3d62df33521cdce79e87586d7c1534b00ecad7",
        "to": "0xb1969c60bad7ebd8cf0d6466b6953409f0895538",
        "gas": "0x116e9",
        "value": "0x0",
        "input": "0xf08fd6d648c5a7987a74c243ccde734e1679bd0ec85b03ad4b0d329815fa18a928bed2ca",
        "nonce": "0x97",
        "chainId": "0x14a34"
      },
      "additionalContracts": [],
      "isFixedGasLimit": false
    },
    {
      "hash": "0xeb8012249b1cdcdf2e5eaffe203eed97d79f224930e2c29047248cbddc735285",
      "transactionType": "CALL",
      "contractName": null,
      "contractAddress": "0xb1969c60bad7ebd8cf0d6466b6953409f0895538",
      "function": "addKOL(bytes32)",
      "arguments": [
        "0xf62eed8c614d9af05170cfd5366e70ce2b5b581277ed9bda90ee06ec1c0ac70b"
      ],
      "transaction": {
        "from": "0x0b3d62df33521cdce79e87586d7c1534b00ecad7",
        "to": "0xb1969c60bad7ebd8cf0d6466b6953409f0895538",
        "gas": "0x116e9",
        "value": "0x0",
        "input": "0xf08fd6d6f62eed8c614d9af05170cfd5366e70ce2b5b581277ed9bda90ee06ec1c0ac70b",
        "nonce": "0x98",
        "chainId": "0x14a34"
      },
      "additionalContracts": [],
      "isFixedGasLimit": false
    },
    {
      "hash": "0xe1eb0d51a6c6489bc878b5dce32107b8bafc4c8be8d984edff3f3b35ea71e74f",
      "transactionType": "CALL",
      "contractName": null,
      "contractAddress": "0xb1969c60bad7ebd8cf0d6466b6953409f0895538",
      "function": "addKOL(bytes32)",
      "arguments": [
        "0x1607be6baa59b952f720dc10f894f0fb97723aa12c72c2f925dfbd8f301ea770"
      ],
      "transaction": {
        "from": "0x0b3d62df33521cdce79e87586d7c1534b00ecad7",
        "to": "0xb1969c60bad7ebd8cf0d6466b6953409f0895538",
        "gas": "0x116e9",
        "value": "0x0",
        "input": "0xf08fd6d61607be6baa59b952f720dc10f894f0fb97723aa12c72c2f925dfbd8f301ea770",
        "nonce": "0x99",
        "chainId": "0x14a34"
      },
      "additionalContracts": [],
      "isFixedGasLimit": false
    },
    {
      "hash": "0x5a48800c59dfdb7ec95f84d02e41fa9d972cd594748980834006c3ec3b5384ef",
      "transactionType": "CALL",
      "contractName": null,
      "contractAddress": "0xb1969c60bad7ebd8cf0d6466b6953409f0895538",
      "function": "addKOL(bytes32)",
      "arguments": [
        "0xc6efb078ba9e17a714af044d45caa889df54c72db5a8f519a48117964c45e811"
      ],
      "transaction": {
        "from": "0x0b3d62df33521cdce79e87586d7c1534b00ecad7",
        "to": "0xb1969c60bad7ebd8cf0d6466b6953409f0895538",
        "gas": "0x116e9",
        "value": "0x0",
        "input": "0xf08fd6d6c6efb078ba9e17a714af044d45caa889df54c72db5a8f519a48117964c45e811",
        "nonce": "0x9a",
        "chainId": "0x14a34"
      },
      "additionalContracts": [],
      "isFixedGasLimit": false
    },
    {
      "hash": "0x6f3520433754cd4ee82e6d67f09416002a78e6a43cd0f26745d6f67bfdfa1136",
      "transactionType": "CALL",
      "contractName": null,
      "contractAddress": "0xb1969c60bad7ebd8cf0d6466b6953409f0895538",
      "function": "addKOL(bytes32)",
      "arguments": [
        "0xbcf86f88c85a4d7c8956da3d72aa06352a87f16a97cd2c9897a07492f92a6ad2"
      ],
      "transaction": {
        "from": "0x0b3d62df33521cdce79e87586d7c1534b00ecad7",
        "to": "0xb1969c60bad7ebd8cf0d6466b6953409f0895538",
        "gas": "0x116e9",
        "value": "0x0",
        "input": "0xf08fd6d6bcf86f88c85a4d7c8956da3d72aa06352a87f16a97cd2c9897a07492f92a6ad2",
        "nonce": "0x9b",
        "chainId": "0x14a34"
      },
      "additionalContracts": [],
      "isFixedGasLimit": false
    },
    {
      "hash": "0x4678d47cb772630ddd9e30c3a379c1424fc100456fffeb17d9a4b77f6d3a8303",
      "transactionType": "CALL",
      "contractName": null,
      "contractAddress": "0xb1969c60bad7ebd8cf0d6466b6953409f0895538",
      "function": "addKOL(bytes32)",
      "arguments": [
        "0x6dc2f619db0779da93991f96b7d19da693074782b6575cd6617f98bb4ff77bdc"
      ],
      "transaction": {
        "from": "0x0b3d62df33521cdce79e87586d7c1534b00ecad7",
        "to": "0xb1969c60bad7ebd8cf0d6466b6953409f0895538",
        "gas": "0x116e9",
        "value": "0x0",
        "input": "0xf08fd6d66dc2f619db0779da93991f96b7d19da693074782b6575cd6617f98bb4ff77bdc",
        "nonce": "0x9c",
        "chainId": "0x14a34"
      },
      "additionalContracts": [],
      "isFixedGasLimit": false
    },
    {
      "hash": "0x9bed00cebc5ef6a46456f5e207e38f58e7546685da9cbda6ade297590ba5a138",
      "transactionType": "CALL",
      "contractName": null,
      "contractAddress": "0xb1969c60bad7ebd8cf0d6466b6953409f0895538",
      "function": "addKOL(bytes32)",
      "arguments": [
        "0x89a423337cdbf4041d1f104772e9b3b58f5c0141b08227b35aab83cab7e0e1ed"
      ],
      "transaction": {
        "from": "0x0b3d62df33521cdce79e87586d7c1534b00ecad7",
        "to": "0xb1969c60bad7ebd8cf0d6466b6953409f0895538",
        "gas": "0x116e9",
        "value": "0x0",
        "input": "0xf08fd6d689a423337cdbf4041d1f104772e9b3b58f5c0141b08227b35aab83cab7e0e1ed",
        "nonce": "0x9d",
        "chainId": "0x14a34"
      },
      "additionalContracts": [],
      "isFixedGasLimit": false
    },
    {
      "hash": "0xde855547225cde2df9b76d5684f3feadecc73fcd4575de0e7bf1fc99da91cfde",
      "transactionType": "CALL",
      "contractName": null,
      "contractAddress": "0xb1969c60bad7ebd8cf0d6466b6953409f0895538",
      "function": "addKOL(bytes32)",
      "arguments": [
        "0xdbbb309b2d1e68f542ca8002db4910bef497c5ad9e7e7c1168159960dd05d2e7"
      ],
      "transaction": {
        "from": "0x0b3d62df33521cdce79e87586d7c1534b00ecad7",
        "to": "0xb1969c60bad7ebd8cf0d6466b6953409f0895538",
        "gas": "0x116e9",
        "value": "0x0",
        "input": "0xf08fd6d6dbbb309b2d1e68f542ca8002db4910bef497c5ad9e7e7c1168159960dd05d2e7",
        "nonce": "0x9e",
        "chainId": "0x14a34"
      },
      "additionalContracts": [],
      "isFixedGasLimit": false
    }
  ],
  "receipts": [
    {
      "status": "0x1",
      "cumulativeGasUsed": "0x114b4d9",
      "logs": [],
      "logsBloom": "0x00000000000000000000000000000000000000000000000000000000000000000000000000000000000000000000000000000000000000000000000000000000000000000000000000000000000000000000000000000000000000000000000000000000000000000000000000000000000000000000000000000000000000000000000000000000000000000000000000000000000000000000000000000000000000000000000000000000000000000000000000000000000000000000000000000000000000000000000000000000000000000000000000000000000000000000000000000000000000000000000000000000000000000000000000000000",
      "type": "0x2",
      "transactionHash": "0x678f1d252cfcacf774a65c2b9f6bf12de631746b1436fc3d272ad8de1fc3c290",
      "transactionIndex": "0x49",
      "blockHash": "0x8ff0ce78dda1f8e0465161cd6794b372a68bd86e9f54ba56cf32e469c9e9552e",
      "blockNumber": "0x1ef6fb5",
      "gasUsed": "0x1453b",
      "effectiveGasPrice": "0xf42b5",
      "from": "0x0b3d62df33521cdce79e87586d7c1534b00ecad7",
      "to": "0xb1969c60bad7ebd8cf0d6466b6953409f0895538",
      "contractAddress": null,
      "l1BaseFeeScalar": "0x44d",
      "l1BlobBaseFee": "0x1",
      "l1BlobBaseFeeScalar": "0xa118b",
      "l1Fee": "0x55",
      "l1GasPrice": "0xb",
      "l1GasUsed": "0x640"
    },
    {
      "status": "0x1",
      "cumulativeGasUsed": "0x1635ce",
      "logs": [],
      "logsBloom": "0x00000000000000000000000000000000000000000000000000000000000000000000000000000000000000000000000000000000000000000000000000000000000000000000000000000000000000000000000000000000000000000000000000000000000000000000000000000000000000000000000000000000000000000000000000000000000000000000000000000000000000000000000000000000000000000000000000000000000000000000000000000000000000000000000000000000000000000000000000000000000000000000000000000000000000000000000000000000000000000000000000000000000000000000000000000000",
      "type": "0x2",
      "transactionHash": "0xc32b3ecd983f2368af66119e76778015a02450dbf226ba960796a3ed6d32130a",
      "transactionIndex": "0xc",
      "blockHash": "0x592647e4c66296b45658337f55a0bb51fc73d58078c8b82ef872390813c31b25",
      "blockNumber": "0x1ef6fb6",
      "gasUsed": "0x10cba",
      "effectiveGasPrice": "0xf42b6",
      "from": "0x0b3d62df33521cdce79e87586d7c1534b00ecad7",
      "to": "0xb1969c60bad7ebd8cf0d6466b6953409f0895538",
      "contractAddress": null,
      "l1BaseFeeScalar": "0x44d",
      "l1BlobBaseFee": "0x1",
      "l1BlobBaseFeeScalar": "0xa118b",
      "l1Fee": "0x55",
      "l1GasPrice": "0xb",
      "l1GasUsed": "0x640"
    },
    {
      "status": "0x1",
      "cumulativeGasUsed": "0x16ffbc",
      "logs": [],
      "logsBloom": "0x00000000000000000000000000000000000000000000000000000000000000000000000000000000000000000000000000000000000000000000000000000000000000000000000000000000000000000000000000000000000000000000000000000000000000000000000000000000000000000000000000000000000000000000000000000000000000000000000000000000000000000000000000000000000000000000000000000000000000000000000000000000000000000000000000000000000000000000000000000000000000000000000000000000000000000000000000000000000000000000000000000000000000000000000000000000",
      "type": "0x2",
      "transactionHash": "0x3d630542bf526f705eeeae6fdd3a17a024f87911a9d9e56ddb4f00333b61bea6",
      "transactionIndex": "0xd",
      "blockHash": "0x592647e4c66296b45658337f55a0bb51fc73d58078c8b82ef872390813c31b25",
      "blockNumber": "0x1ef6fb6",
      "gasUsed": "0xc9ee",
      "effectiveGasPrice": "0xf42b6",
      "from": "0x0b3d62df33521cdce79e87586d7c1534b00ecad7",
      "to": "0xb1969c60bad7ebd8cf0d6466b6953409f0895538",
      "contractAddress": null,
      "l1BaseFeeScalar": "0x44d",
      "l1BlobBaseFee": "0x1",
      "l1BlobBaseFeeScalar": "0xa118b",
      "l1Fee": "0x55",
      "l1GasPrice": "0xb",
      "l1GasUsed": "0x640"
    },
    {
      "status": "0x1",
      "cumulativeGasUsed": "0x17c9aa",
      "logs": [],
      "logsBloom": "0x00000000000000000000000000000000000000000000000000000000000000000000000000000000000000000000000000000000000000000000000000000000000000000000000000000000000000000000000000000000000000000000000000000000000000000000000000000000000000000000000000000000000000000000000000000000000000000000000000000000000000000000000000000000000000000000000000000000000000000000000000000000000000000000000000000000000000000000000000000000000000000000000000000000000000000000000000000000000000000000000000000000000000000000000000000000",
      "type": "0x2",
      "transactionHash": "0x598d423916959ac47e2869583b7138d66a0fe948a756064db387912b60f39f1f",
      "transactionIndex": "0xe",
      "blockHash": "0x592647e4c66296b45658337f55a0bb51fc73d58078c8b82ef872390813c31b25",
      "blockNumber": "0x1ef6fb6",
      "gasUsed": "0xc9ee",
      "effectiveGasPrice": "0xf42b6",
      "from": "0x0b3d62df33521cdce79e87586d7c1534b00ecad7",
      "to": "0xb1969c60bad7ebd8cf0d6466b6953409f0895538",
      "contractAddress": null,
      "l1BaseFeeScalar": "0x44d",
      "l1BlobBaseFee": "0x1",
      "l1BlobBaseFeeScalar": "0xa118b",
      "l1Fee": "0x55",
      "l1GasPrice": "0xb",
      "l1GasUsed": "0x640"
    },
    {
      "status": "0x1",
      "cumulativeGasUsed": "0x189398",
      "logs": [],
      "logsBloom": "0x00000000000000000000000000000000000000000000000000000000000000000000000000000000000000000000000000000000000000000000000000000000000000000000000000000000000000000000000000000000000000000000000000000000000000000000000000000000000000000000000000000000000000000000000000000000000000000000000000000000000000000000000000000000000000000000000000000000000000000000000000000000000000000000000000000000000000000000000000000000000000000000000000000000000000000000000000000000000000000000000000000000000000000000000000000000",
      "type": "0x2",
      "transactionHash": "0xe00bd46c4fe7333d516dd8eae95f4fbb9b707d68a80ff538d863ab9090ac176d",
      "transactionIndex": "0xf",
      "blockHash": "0x592647e4c66296b45658337f55a0bb51fc73d58078c8b82ef872390813c31b25",
      "blockNumber": "0x1ef6fb6",
      "gasUsed": "0xc9ee",
      "effectiveGasPrice": "0xf42b6",
      "from": "0x0b3d62df33521cdce79e87586d7c1534b00ecad7",
      "to": "0xb1969c60bad7ebd8cf0d6466b6953409f0895538",
      "contractAddress": null,
      "l1BaseFeeScalar": "0x44d",
      "l1BlobBaseFee": "0x1",
      "l1BlobBaseFeeScalar": "0xa118b",
      "l1Fee": "0x55",
      "l1GasPrice": "0xb",
      "l1GasUsed": "0x640"
    },
    {
      "status": "0x1",
      "cumulativeGasUsed": "0x195d86",
      "logs": [],
      "logsBloom": "0x00000000000000000000000000000000000000000000000000000000000000000000000000000000000000000000000000000000000000000000000000000000000000000000000000000000000000000000000000000000000000000000000000000000000000000000000000000000000000000000000000000000000000000000000000000000000000000000000000000000000000000000000000000000000000000000000000000000000000000000000000000000000000000000000000000000000000000000000000000000000000000000000000000000000000000000000000000000000000000000000000000000000000000000000000000000",
      "type": "0x2",
      "transactionHash": "0x1f9b64f319d3f6bb0fa37d60506169a60bb68bdc3ff3d5ae41cd70d694a7a938",
      "transactionIndex": "0x10",
      "blockHash": "0x592647e4c66296b45658337f55a0bb51fc73d58078c8b82ef872390813c31b25",
      "blockNumber": "0x1ef6fb6",
      "gasUsed": "0xc9ee",
      "effectiveGasPrice": "0xf42b6",
      "from": "0x0b3d62df33521cdce79e87586d7c1534b00ecad7",
      "to": "0xb1969c60bad7ebd8cf0d6466b6953409f0895538",
      "contractAddress": null,
      "l1BaseFeeScalar": "0x44d",
      "l1BlobBaseFee": "0x1",
      "l1BlobBaseFeeScalar": "0xa118b",
      "l1Fee": "0x55",
      "l1GasPrice": "0xb",
      "l1GasUsed": "0x640"
    },
    {
      "status": "0x1",
      "cumulativeGasUsed": "0x1a2768",
      "logs": [],
      "logsBloom": "0x00000000000000000000000000000000000000000000000000000000000000000000000000000000000000000000000000000000000000000000000000000000000000000000000000000000000000000000000000000000000000000000000000000000000000000000000000000000000000000000000000000000000000000000000000000000000000000000000000000000000000000000000000000000000000000000000000000000000000000000000000000000000000000000000000000000000000000000000000000000000000000000000000000000000000000000000000000000000000000000000000000000000000000000000000000000",
      "type": "0x2",
      "transactionHash": "0x7ac080f70b6903db1bf75eaf17305eca4b36ef267f7fb0a57c3c07de1a30d18c",
      "transactionIndex": "0x11",
      "blockHash": "0x592647e4c66296b45658337f55a0bb51fc73d58078c8b82ef872390813c31b25",
      "blockNumber": "0x1ef6fb6",
      "gasUsed": "0xc9e2",
      "effectiveGasPrice": "0xf42b6",
      "from": "0x0b3d62df33521cdce79e87586d7c1534b00ecad7",
      "to": "0xb1969c60bad7ebd8cf0d6466b6953409f0895538",
      "contractAddress": null,
      "l1BaseFeeScalar": "0x44d",
      "l1BlobBaseFee": "0x1",
      "l1BlobBaseFeeScalar": "0xa118b",
      "l1Fee": "0x55",
      "l1GasPrice": "0xb",
      "l1GasUsed": "0x640"
    },
    {
      "status": "0x1",
      "cumulativeGasUsed": "0x1af156",
      "logs": [],
      "logsBloom": "0x00000000000000000000000000000000000000000000000000000000000000000000000000000000000000000000000000000000000000000000000000000000000000000000000000000000000000000000000000000000000000000000000000000000000000000000000000000000000000000000000000000000000000000000000000000000000000000000000000000000000000000000000000000000000000000000000000000000000000000000000000000000000000000000000000000000000000000000000000000000000000000000000000000000000000000000000000000000000000000000000000000000000000000000000000000000",
      "type": "0x2",
      "transactionHash": "0x1ef39df028880f7e6f1e13a82495897c71d6b25d219fc8556276817539991c13",
      "transactionIndex": "0x12",
      "blockHash": "0x592647e4c66296b45658337f55a0bb51fc73d58078c8b82ef872390813c31b25",
      "blockNumber": "0x1ef6fb6",
      "gasUsed": "0xc9ee",
      "effectiveGasPrice": "0xf42b6",
      "from": "0x0b3d62df33521cdce79e87586d7c1534b00ecad7",
      "to": "0xb1969c60bad7ebd8cf0d6466b6953409f0895538",
      "contractAddress": null,
      "l1BaseFeeScalar": "0x44d",
      "l1BlobBaseFee": "0x1",
      "l1BlobBaseFeeScalar": "0xa118b",
      "l1Fee": "0x55",
      "l1GasPrice": "0xb",
      "l1GasUsed": "0x640"
    },
    {
      "status": "0x1",
      "cumulativeGasUsed": "0x25d588",
      "logs": [],
      "logsBloom": "0x00000000000000000000000000000000000000000000000000000000000000000000000000000000000000000000000000000000000000000000000000000000000000000000000000000000000000000000000000000000000000000000000000000000000000000000000000000000000000000000000000000000000000000000000000000000000000000000000000000000000000000000000000000000000000000000000000000000000000000000000000000000000000000000000000000000000000000000000000000000000000000000000000000000000000000000000000000000000000000000000000000000000000000000000000000000",
      "type": "0x2",
      "transactionHash": "0x1d658ddee5d98fbbb0d9a0dbf7cb55dc29ca761c9e7ef5e38bf627a5e743e389",
      "transactionIndex": "0x18",
      "blockHash": "0x4dcd1e3744c0d9b62f3bd1e15ee0b7d475b112413eb98ba9e48273f69b25a70d",
      "blockNumber": "0x1ef6fb6",
      "gasUsed": "0xc9ee",
      "effectiveGasPrice": "0xf42b6",
      "from": "0x0b3d62df33521cdce79e87586d7c1534b00ecad7",
      "to": "0xb1969c60bad7ebd8cf0d6466b6953409f0895538",
      "contractAddress": null,
      "l1BaseFeeScalar": "0x44d",
      "l1BlobBaseFee": "0x1",
      "l1BlobBaseFeeScalar": "0xa118b",
      "l1Fee": "0xae",
      "l1GasPrice": "0xb",
      "l1GasUsed": "0x640"
    },
    {
      "status": "0x1",
      "cumulativeGasUsed": "0x273587",
      "logs": [],
      "logsBloom": "0x00000000000000000000000000000000000000000000000000000000000000000000000000000000000000000000000000000000000000000000000000000000000000000000000000000000000000000000000000000000000000000000000000000000000000000000000000000000000000000000000000000000000000000000000000000000000000000000000000000000000000000000000000000000000000000000000000000000000000000000000000000000000000000000000000000000000000000000000000000000000000000000000000000000000000000000000000000000000000000000000000000000000000000000000000000000",
      "type": "0x2",
      "transactionHash": "0xeb8012249b1cdcdf2e5eaffe203eed97d79f224930e2c29047248cbddc735285",
      "transactionIndex": "0x1a",
      "blockHash": "0x592647e4c66296b45658337f55a0bb51fc73d58078c8b82ef872390813c31b25",
      "blockNumber": "0x1ef6fb6",
      "gasUsed": "0xc9ee",
      "effectiveGasPrice": "0xf42b6",
      "from": "0x0b3d62df33521cdce79e87586d7c1534b00ecad7",
      "to": "0xb1969c60bad7ebd8cf0d6466b6953409f0895538",
      "contractAddress": null,
      "l1BaseFeeScalar": "0x44d",
      "l1BlobBaseFee": "0x1",
      "l1BlobBaseFeeScalar": "0xa118b",
      "l1Fee": "0x55",
      "l1GasPrice": "0xb",
      "l1GasUsed": "0x640"
    },
    {
      "status": "0x1",
      "cumulativeGasUsed": "0x28c963",
      "logs": [],
      "logsBloom": "0x00000000000000000000000000000000000000000000000000000000000000000000000000000000000000000000000000000000000000000000000000000000000000000000000000000000000000000000000000000000000000000000000000000000000000000000000000000000000000000000000000000000000000000000000000000000000000000000000000000000000000000000000000000000000000000000000000000000000000000000000000000000000000000000000000000000000000000000000000000000000000000000000000000000000000000000000000000000000000000000000000000000000000000000000000000000",
      "type": "0x2",
      "transactionHash": "0x5a48800c59dfdb7ec95f84d02e41fa9d972cd594748980834006c3ec3b5384ef",
      "transactionIndex": "0x1c",
      "blockHash": "0x592647e4c66296b45658337f55a0bb51fc73d58078c8b82ef872390813c31b25",
      "blockNumber": "0x1ef6fb6",
      "gasUsed": "0xc9ee",
      "effectiveGasPrice": "0xf42b6",
      "from": "0x0b3d62df33521cdce79e87586d7c1534b00ecad7",
      "to": "0xb1969c60bad7ebd8cf0d6466b6953409f0895538",
      "contractAddress": null,
      "l1BaseFeeScalar": "0x44d",
      "l1BlobBaseFee": "0x1",
      "l1BlobBaseFeeScalar": "0xa118b",
      "l1Fee": "0x55",
      "l1GasPrice": "0xb",
      "l1GasUsed": "0x640"
    },
    {
      "status": "0x1",
      "cumulativeGasUsed": "0x299351",
      "logs": [],
      "logsBloom": "0x00000000000000000000000000000000000000000000000000000000000000000000000000000000000000000000000000000000000000000000000000000000000000000000000000000000000000000000000000000000000000000000000000000000000000000000000000000000000000000000000000000000000000000000000000000000000000000000000000000000000000000000000000000000000000000000000000000000000000000000000000000000000000000000000000000000000000000000000000000000000000000000000000000000000000000000000000000000000000000000000000000000000000000000000000000000",
      "type": "0x2",
      "transactionHash": "0x6f3520433754cd4ee82e6d67f09416002a78e6a43cd0f26745d6f67bfdfa1136",
      "transactionIndex": "0x1d",
      "blockHash": "0x4dcd1e3744c0d9b62f3bd1e15ee0b7d475b112413eb98ba9e48273f69b25a70d",
      "blockNumber": "0x1ef6fb6",
      "gasUsed": "0xc9ee",
      "effectiveGasPrice": "0xf42b6",
      "from": "0x0b3d62df33521cdce79e87586d7c1534b00ecad7",
      "to": "0xb1969c60bad7ebd8cf0d6466b6953409f0895538",
      "contractAddress": null,
      "l1BaseFeeScalar": "0x44d",
      "l1BlobBaseFee": "0x1",
      "l1BlobBaseFeeScalar": "0xa118b",
      "l1Fee": "0xae",
      "l1GasPrice": "0xb",
      "l1GasUsed": "0x640"
    },
    {
      "status": "0x1",
      "cumulativeGasUsed": "0x2efb0a",
      "logs": [],
      "logsBloom": "0x00000000000000000000000000000000000000000000000000000000000000000000000000000000000000000000000000000000000000000000000000000000000000000000000000000000000000000000000000000000000000000000000000000000000000000000000000000000000000000000000000000000000000000000000000000000000000000000000000000000000000000000000000000000000000000000000000000000000000000000000000000000000000000000000000000000000000000000000000000000000000000000000000000000000000000000000000000000000000000000000000000000000000000000000000000000",
      "type": "0x2",
      "transactionHash": "0x4678d47cb772630ddd9e30c3a379c1424fc100456fffeb17d9a4b77f6d3a8303",
      "transactionIndex": "0x20",
      "blockHash": "0x6fa59b50163e681d31a4157761e70afb580087303c3979a0eccee21f11154902",
      "blockNumber": "0x1ef6fb6",
      "gasUsed": "0xc9ee",
      "effectiveGasPrice": "0xf42b6",
      "from": "0x0b3d62df33521cdce79e87586d7c1534b00ecad7",
      "to": "0xb1969c60bad7ebd8cf0d6466b6953409f0895538",
      "contractAddress": null,
      "l1BaseFeeScalar": "0x44d",
      "l1BlobBaseFee": "0x1",
      "l1BlobBaseFeeScalar": "0xa118b",
      "l1Fee": "0xae",
      "l1GasPrice": "0xb",
      "l1GasUsed": "0x640"
    },
    {
      "status": "0x1",
      "cumulativeGasUsed": "0x2fc4f8",
      "logs": [],
      "logsBloom": "0x00000000000000000000000000000000000000000000000000000000000000000000000000000000000000000000000000000000000000000000000000000000000000000000000000000000000000000000000000000000000000000000000000000000000000000000000000000000000000000000000000000000000000000000000000000000000000000000000000000000000000000000000000000000000000000000000000000000000000000000000000000000000000000000000000000000000000000000000000000000000000000000000000000000000000000000000000000000000000000000000000000000000000000000000000000000",
      "type": "0x2",
      "transactionHash": "0x9bed00cebc5ef6a46456f5e207e38f58e7546685da9cbda6ade297590ba5a138",
      "transactionIndex": "0x21",
      "blockHash": "0x592647e4c66296b45658337f55a0bb51fc73d58078c8b82ef872390813c31b25",
      "blockNumber": "0x1ef6fb6",
      "gasUsed": "0xc9ee",
      "effectiveGasPrice": "0xf42b6",
      "from": "0x0b3d62df33521cdce79e87586d7c1534b00ecad7",
      "to": "0xb1969c60bad7ebd8cf0d6466b6953409f0895538",
      "contractAddress": null,
      "l1BaseFeeScalar": "0x44d",
      "l1BlobBaseFee": "0x1",
      "l1BlobBaseFeeScalar": "0xa118b",
      "l1Fee": "0x55",
      "l1GasPrice": "0xb",
      "l1GasUsed": "0x640"
    },
    {
      "status": "0x1",
      "cumulativeGasUsed": "0x34d78f",
      "logs": [],
      "logsBloom": "0x00000000000000000000000000000000000000000000000000000000000000000000000000000000000000000000000000000000000000000000000000000000000000000000000000000000000000000000000000000000000000000000000000000000000000000000000000000000000000000000000000000000000000000000000000000000000000000000000000000000000000000000000000000000000000000000000000000000000000000000000000000000000000000000000000000000000000000000000000000000000000000000000000000000000000000000000000000000000000000000000000000000000000000000000000000000",
      "type": "0x2",
      "transactionHash": "0xde855547225cde2df9b76d5684f3feadecc73fcd4575de0e7bf1fc99da91cfde",
      "transactionIndex": "0x27",
      "blockHash": "0x592647e4c66296b45658337f55a0bb51fc73d58078c8b82ef872390813c31b25",
      "blockNumber": "0x1ef6fb6",
      "gasUsed": "0xc9ee",
      "effectiveGasPrice": "0xf42b6",
      "from": "0x0b3d62df33521cdce79e87586d7c1534b00ecad7",
      "to": "0xb1969c60bad7ebd8cf0d6466b6953409f0895538",
      "contractAddress": null,
      "l1BaseFeeScalar": "0x44d",
      "l1BlobBaseFee": "0x1",
      "l1BlobBaseFeeScalar": "0xa118b",
      "l1Fee": "0x55",
      "l1GasPrice": "0xb",
      "l1GasUsed": "0x640"
    }
  ],
  "libraries": [],
  "pending": [
    "0xe1eb0d51a6c6489bc878b5dce32107b8bafc4c8be8d984edff3f3b35ea71e74f"
  ],
  "returns": {},
  "timestamp": 1760706125,
  "chain": 84532,
  "commit": "c6387da"
}