{
  "transactions": [
    {
      "hash": "0x10af28b2c0ae89a86ba0b7d9663a6492cd071a2f09431c41003d36b7481cbfd3",
      "transactionType": "CALL",
      "contractName": null,
      "contractAddress": "0x0d0877adc36e506a9328c100fdae71d743454242",
      "function": "clearKOLs()",
      "arguments": [],
      "transaction": {
        "from": "0x0b3d62df33521cdce79e87586d7c1534b00ecad7",
        "to": "0x0d0877adc36e506a9328c100fdae71d743454242",
        "gas": "0x89d9",
        "value": "0x0",
        "input": "0x1540ceeb",
        "nonce": "0x1a",
        "chainId": "0x14a34"
      },
      "additionalContracts": [],
      "isFixedGasLimit": false
    },
    {
      "hash": "0x569307263913ee0d843fba02e66e1a198fb3915744974ddbd73a12a34d9042ea",
      "transactionType": "CALL",
      "contractName": null,
      "contractAddress": "0x0d0877adc36e506a9328c100fdae71d743454242",
      "function": "addKOL(bytes32)",
      "arguments": [
        "0x54ee7dc2425581581c47469e5eb1f5eed4233fcbddf6c7592f1580aa348c89b4"
      ],
      "transaction": {
        "from": "0x0b3d62df33521cdce79e87586d7c1534b00ecad7",
        "to": "0x0d0877adc36e506a9328c100fdae71d743454242",
        "gas": "0x18902",
        "value": "0x0",
        "input": "0xf08fd6d654ee7dc2425581581c47469e5eb1f5eed4233fcbddf6c7592f1580aa348c89b4",
        "nonce": "0x1b",
        "chainId": "0x14a34"
      },
      "additionalContracts": [],
      "isFixedGasLimit": false
    },
    {
      "hash": "0xcbd5bab54e7f64307340699783ea2f7a2d1113a61c879781a104583c76160f53",
      "transactionType": "CALL",
      "contractName": null,
      "contractAddress": "0x0d0877adc36e506a9328c100fdae71d743454242",
      "function": "addKOL(bytes32)",
      "arguments": [
        "0xfa4dffc9e824f830cf7d07fc7765ba1d7b344d923dd9083258189156f4932796"
      ],
      "transaction": {
        "from": "0x0b3d62df33521cdce79e87586d7c1534b00ecad7",
        "to": "0x0d0877adc36e506a9328c100fdae71d743454242",
        "gas": "0x116e9",
        "value": "0x0",
        "input": "0xf08fd6d6fa4dffc9e824f830cf7d07fc7765ba1d7b344d923dd9083258189156f4932796",
        "nonce": "0x1c",
        "chainId": "0x14a34"
      },
      "additionalContracts": [],
      "isFixedGasLimit": false
    },
    {
      "hash": "0x12b6ef249a5ffc41021c2239f7817b952a43136b90e1339c3d590e66bf83dbb6",
      "transactionType": "CALL",
      "contractName": null,
      "contractAddress": "0x0d0877adc36e506a9328c100fdae71d743454242",
      "function": "addKOL(bytes32)",
      "arguments": [
        "0x33fd3a1a2f6025be5b2d3026fea143df162bb647c138b6d16851023d3c6518a7"
      ],
      "transaction": {
        "from": "0x0b3d62df33521cdce79e87586d7c1534b00ecad7",
        "to": "0x0d0877adc36e506a9328c100fdae71d743454242",
        "gas": "0x116e9",
        "value": "0x0",
        "input": "0xf08fd6d633fd3a1a2f6025be5b2d3026fea143df162bb647c138b6d16851023d3c6518a7",
        "nonce": "0x1d",
        "chainId": "0x14a34"
      },
      "additionalContracts": [],
      "isFixedGasLimit": false
    },
    {
      "hash": "0xa5933242ccacfe477a384fcf505599e27ed0ad447039f38dd9e0bcd59ea6f26a",
      "transactionType": "CALL",
      "contractName": null,
      "contractAddress": "0x0d0877adc36e506a9328c100fdae71d743454242",
      "function": "addKOL(bytes32)",
      "arguments": [
        "0x4577b1186726aefd500341efa18943241fb9994e2e412da5cc558d28c6e52ddf"
      ],
      "transaction": {
        "from": "0x0b3d62df33521cdce79e87586d7c1534b00ecad7",
        "to": "0x0d0877adc36e506a9328c100fdae71d743454242",
        "gas": "0x116e9",
        "value": "0x0",
        "input": "0xf08fd6d64577b1186726aefd500341efa18943241fb9994e2e412da5cc558d28c6e52ddf",
        "nonce": "0x1e",
        "chainId": "0x14a34"
      },
      "additionalContracts": [],
      "isFixedGasLimit": false
    },
    {
      "hash": "0xecdf628e38480a2a2b27760ca926410fd1c89bca4acec010bef4fabcef384d03",
      "transactionType": "CALL",
      "contractName": null,
      "contractAddress": "0x0d0877adc36e506a9328c100fdae71d743454242",
      "function": "addKOL(bytes32)",
      "arguments": [
        "0xcb43db8e11342c57139c6028ef0ca9ff0606bfa1218225ea9a0ccb7e42206362"
      ],
      "transaction": {
        "from": "0x0b3d62df33521cdce79e87586d7c1534b00ecad7",
        "to": "0x0d0877adc36e506a9328c100fdae71d743454242",
        "gas": "0x116e9",
        "value": "0x0",
        "input": "0xf08fd6d6cb43db8e11342c57139c6028ef0ca9ff0606bfa1218225ea9a0ccb7e42206362",
        "nonce": "0x1f",
        "chainId": "0x14a34"
      },
      "additionalContracts": [],
      "isFixedGasLimit": false
    },
    {
      "hash": "0x42a4707c170f1b26e558ba970e35a80d6a610ac8a6e250691d677c9c69bd563c",
      "transactionType": "CALL",
      "contractName": null,
      "contractAddress": "0x0d0877adc36e506a9328c100fdae71d743454242",
      "function": "addKOL(bytes32)",
      "arguments": [
        "0x673c01c3285d988aa04a27f5a542a4a304005c687956087d40ac2df25856dcdb"
      ],
      "transaction": {
        "from": "0x0b3d62df33521cdce79e87586d7c1534b00ecad7",
        "to": "0x0d0877adc36e506a9328c100fdae71d743454242",
        "gas": "0x12740",
        "value": "0x0",
        "input": "0xf08fd6d6673c01c3285d988aa04a27f5a542a4a304005c687956087d40ac2df25856dcdb",
        "nonce": "0x20",
        "chainId": "0x14a34"
      },
      "additionalContracts": [],
      "isFixedGasLimit": false
    },
    {
      "hash": "0x8a4bf41ff1717d69f6b0ae76aea7db04afe8d7e6daf3f304306472be32279c90",
      "transactionType": "CALL",
      "contractName": null,
      "contractAddress": "0x0d0877adc36e506a9328c100fdae71d743454242",
      "function": "addKOL(bytes32)",
      "arguments": [
        "0x0524cdf42f7e19c1b50b880d9d343bed05b80f21f29ecec6cff29e9657177853"
      ],
      "transaction": {
        "from": "0x0b3d62df33521cdce79e87586d7c1534b00ecad7",
        "to": "0x0d0877adc36e506a9328c100fdae71d743454242",
        "gas": "0x116e9",
        "value": "0x0",
        "input": "0xf08fd6d60524cdf42f7e19c1b50b880d9d343bed05b80f21f29ecec6cff29e9657177853",
        "nonce": "0x21",
        "chainId": "0x14a34"
      },
      "additionalContracts": [],
      "isFixedGasLimit": false
    },
    {
      "hash": "0x0e63900c0db682296e37b5ea3f4ba8f3d00a3795d712a20bb020bb76ccfecab9",
      "transactionType": "CALL",
      "contractName": null,
      "contractAddress": "0x0d0877adc36e506a9328c100fdae71d743454242",
      "function": "addKOL(bytes32)",
      "arguments": [
        "0x48c5a7987a74c243ccde734e1679bd0ec85b03ad4b0d329815fa18a928bed2ca"
      ],
      "transaction": {
        "from": "0x0b3d62df33521cdce79e87586d7c1534b00ecad7",
        "to": "0x0d0877adc36e506a9328c100fdae71d743454242",
        "gas": "0x116e9",
        "value": "0x0",
        "input": "0xf08fd6d648c5a7987a74c243ccde734e1679bd0ec85b03ad4b0d329815fa18a928bed2ca",
        "nonce": "0x22",
        "chainId": "0x14a34"
      },
      "additionalContracts": [],
      "isFixedGasLimit": false
    },
    {
      "hash": "0xd6de79285f1926f18c51fadc7ead90a9090d57c3a3579e1dff056e6a1fd8be03",
      "transactionType": "CALL",
      "contractName": null,
      "contractAddress": "0x0d0877adc36e506a9328c100fdae71d743454242",
      "function": "addKOL(bytes32)",
      "arguments": [
        "0xf62eed8c614d9af05170cfd5366e70ce2b5b581277ed9bda90ee06ec1c0ac70b"
      ],
      "transaction": {
        "from": "0x0b3d62df33521cdce79e87586d7c1534b00ecad7",
        "to": "0x0d0877adc36e506a9328c100fdae71d743454242",
        "gas": "0x116e9",
        "value": "0x0",
        "input": "0xf08fd6d6f62eed8c614d9af05170cfd5366e70ce2b5b581277ed9bda90ee06ec1c0ac70b",
        "nonce": "0x23",
        "chainId": "0x14a34"
      },
      "additionalContracts": [],
      "isFixedGasLimit": false
    },
    {
      "hash": "0xae8b274de365560aecb442d64ca39206aefb3987a6e73d6928983053f6107fff",
      "transactionType": "CALL",
      "contractName": null,
      "contractAddress": "0x0d0877adc36e506a9328c100fdae71d743454242",
      "function": "addKOL(bytes32)",
      "arguments": [
        "0x1607be6baa59b952f720dc10f894f0fb97723aa12c72c2f925dfbd8f301ea770"
      ],
      "transaction": {
        "from": "0x0b3d62df33521cdce79e87586d7c1534b00ecad7",
        "to": "0x0d0877adc36e506a9328c100fdae71d743454242",
        "gas": "0x116e9",
        "value": "0x0",
        "input": "0xf08fd6d61607be6baa59b952f720dc10f894f0fb97723aa12c72c2f925dfbd8f301ea770",
        "nonce": "0x24",
        "chainId": "0x14a34"
      },
      "additionalContracts": [],
      "isFixedGasLimit": false
    },
    {
      "hash": "0x90f6a6dd8cf89abbb0f50712b8db6c8fbd85e018b8047a1dff894e2d12b7a928",
      "transactionType": "CALL",
      "contractName": null,
      "contractAddress": "0x0d0877adc36e506a9328c100fdae71d743454242",
      "function": "addKOL(bytes32)",
      "arguments": [
        "0xc6efb078ba9e17a714af044d45caa889df54c72db5a8f519a48117964c45e811"
      ],
      "transaction": {
        "from": "0x0b3d62df33521cdce79e87586d7c1534b00ecad7",
        "to": "0x0d0877adc36e506a9328c100fdae71d743454242",
        "gas": "0x116e9",
        "value": "0x0",
        "input": "0xf08fd6d6c6efb078ba9e17a714af044d45caa889df54c72db5a8f519a48117964c45e811",
        "nonce": "0x25",
        "chainId": "0x14a34"
      },
      "additionalContracts": [],
      "isFixedGasLimit": false
    },
    {
      "hash": "0x513a9c522508d54ec1035c1ad19e6a6808b417767eb4b7af32a77e148b75c12a",
      "transactionType": "CALL",
      "contractName": null,
      "contractAddress": "0x0d0877adc36e506a9328c100fdae71d743454242",
      "function": "addKOL(bytes32)",
      "arguments": [
        "0xbcf86f88c85a4d7c8956da3d72aa06352a87f16a97cd2c9897a07492f92a6ad2"
      ],
      "transaction": {
        "from": "0x0b3d62df33521cdce79e87586d7c1534b00ecad7",
        "to": "0x0d0877adc36e506a9328c100fdae71d743454242",
        "gas": "0x116e9",
        "value": "0x0",
        "input": "0xf08fd6d6bcf86f88c85a4d7c8956da3d72aa06352a87f16a97cd2c9897a07492f92a6ad2",
        "nonce": "0x26",
        "chainId": "0x14a34"
      },
      "additionalContracts": [],
      "isFixedGasLimit": false
    },
    {
      "hash": "0xc1423bff11bcd56a5d847d7c5898160e9abea2d3e2cf3e07ef9cd6f48aeccdcb",
      "transactionType": "CALL",
      "contractName": null,
      "contractAddress": "0x0d0877adc36e506a9328c100fdae71d743454242",
      "function": "addKOL(bytes32)",
      "arguments": [
        "0x6dc2f619db0779da93991f96b7d19da693074782b6575cd6617f98bb4ff77bdc"
      ],
      "transaction": {
        "from": "0x0b3d62df33521cdce79e87586d7c1534b00ecad7",
        "to": "0x0d0877adc36e506a9328c100fdae71d743454242",
        "gas": "0x116e9",
        "value": "0x0",
        "input": "0xf08fd6d66dc2f619db0779da93991f96b7d19da693074782b6575cd6617f98bb4ff77bdc",
        "nonce": "0x27",
        "chainId": "0x14a34"
      },
      "additionalContracts": [],
      "isFixedGasLimit": false
    },
    {
      "hash": "0xfbb16798cb07f072f3a0ac26e45ad620349e548511e1509c7e8cba4bac85e4e0",
      "transactionType": "CALL",
      "contractName": null,
      "contractAddress": "0x0d0877adc36e506a9328c100fdae71d743454242",
      "function": "addKOL(bytes32)",
      "arguments": [
        "0x89a423337cdbf4041d1f104772e9b3b58f5c0141b08227b35aab83cab7e0e1ed"
      ],
      "transaction": {
        "from": "0x0b3d62df33521cdce79e87586d7c1534b00ecad7",
        "to": "0x0d0877adc36e506a9328c100fdae71d743454242",
        "gas": "0x116e9",
        "value": "0x0",
        "input": "0xf08fd6d689a423337cdbf4041d1f104772e9b3b58f5c0141b08227b35aab83cab7e0e1ed",
        "nonce": "0x28",
        "chainId": "0x14a34"
      },
      "additionalContracts": [],
      "isFixedGasLimit": false
    },
    {
      "hash": "0x0e8d7ace126e479b4f5a71ff80b97bc62e8380ce197bddcb0a85b5f7d4b272dd",
      "transactionType": "CALL",
      "contractName": null,
      "contractAddress": "0x0d0877adc36e506a9328c100fdae71d743454242",
      "function": "addKOL(bytes32)",
      "arguments": [
        "0xdbbb309b2d1e68f542ca8002db4910bef497c5ad9e7e7c1168159960dd05d2e7"
      ],
      "transaction": {
        "from": "0x0b3d62df33521cdce79e87586d7c1534b00ecad7",
        "to": "0x0d0877adc36e506a9328c100fdae71d743454242",
        "gas": "0x116e9",
        "value": "0x0",
        "input": "0xf08fd6d6dbbb309b2d1e68f542ca8002db4910bef497c5ad9e7e7c1168159960dd05d2e7",
        "nonce": "0x29",
        "chainId": "0x14a34"
      },
      "additionalContracts": [],
      "isFixedGasLimit": false
    }
  ],
  "receipts": [
    {
      "status": "0x1",
      "cumulativeGasUsed": "0x204cc3",
      "logs": [],
      "logsBloom": "0x00000000000000000000000000000000000000000000000000000000000000000000000000000000000000000000000000000000000000000000000000000000000000000000000000000000000000000000000000000000000000000000000000000000000000000000000000000000000000000000000000000000000000000000000000000000000000000000000000000000000000000000000000000000000000000000000000000000000000000000000000000000000000000000000000000000000000000000000000000000000000000000000000000000000000000000000000000000000000000000000000000000000000000000000000000000",
      "type": "0x2",
      "transactionHash": "0x10af28b2c0ae89a86ba0b7d9663a6492cd071a2f09431c41003d36b7481cbfd3",
      "transactionIndex": "0x1b",
      "blockHash": "0xf14279aed1d88747d8c5270ed96faafd42c2ad686fd4b0319cb3606fe6569485",
      "blockNumber": "0x1ef2264",
      "gasUsed": "0x63ce",
      "effectiveGasPrice": "0xf42a1",
      "from": "0x0b3d62df33521cdce79e87586d7c1534b00ecad7",
      "to": "0x0d0877adc36e506a9328c100fdae71d743454242",
      "contractAddress": null,
      "l1BaseFeeScalar": "0x44d",
      "l1BlobBaseFee": "0x1",
      "l1BlobBaseFeeScalar": "0xa118b",
      "l1Fee": "0x51",
      "l1GasPrice": "0x9",
      "l1GasUsed": "0x640"
    },
    {
      "status": "0x1",
      "cumulativeGasUsed": "0x5ad32f",
      "logs": [],
      "logsBloom": "0x00000000000000000000000000000000000000000000000000000000000000000000000000000000000000000000000000000000000000000000000000000000000000000000000000000000000000000000000000000000000000000000000000000000000000000000000000000000000000000000000000000000000000000000000000000000000000000000000000000000000000000000000000000000000000000000000000000000000000000000000000000000000000000000000000000000000000000000000000000000000000000000000000000000000000000000000000000000000000000000000000000000000000000000000000000000",
      "type": "0x2",
      "transactionHash": "0x569307263913ee0d843fba02e66e1a198fb3915744974ddbd73a12a34d9042ea",
      "transactionIndex": "0x2d",
      "blockHash": "0xf14279aed1d88747d8c5270ed96faafd42c2ad686fd4b0319cb3606fe6569485",
      "blockNumber": "0x1ef2264",
      "gasUsed": "0x10cba",
      "effectiveGasPrice": "0xf42a1",
      "from": "0x0b3d62df33521cdce79e87586d7c1534b00ecad7",
      "to": "0x0d0877adc36e506a9328c100fdae71d743454242",
      "contractAddress": null,
      "l1BaseFeeScalar": "0x44d",
      "l1BlobBaseFee": "0x1",
      "l1BlobBaseFeeScalar": "0xa118b",
      "l1Fee": "0x51",
      "l1GasPrice": "0x9",
      "l1GasUsed": "0x640"
    },
    {
      "status": "0x1",
      "cumulativeGasUsed": "0x5c3e12",
      "logs": [],
      "logsBloom": "0x00000000000000000000000000000000000000000000000000000000000000000000000000000000000000000000000000000000000000000000000000000000000000000000000000000000000000000000000000000000000000000000000000000000000000000000000000000000000000000000000000000000000000000000000000000000000000000000000000000000000000000000000000000000000000000000000000000000000000000000000000000000000000000000000000000000000000000000000000000000000000000000000000000000000000000000000000000000000000000000000000000000000000000000000000000000",
      "type": "0x2",
      "transactionHash": "0xcbd5bab54e7f64307340699783ea2f7a2d1113a61c879781a104583c76160f53",
      "transactionIndex": "0x2f",
      "blockHash": "0xf14279aed1d88747d8c5270ed96faafd42c2ad686fd4b0319cb3606fe6569485",
      "blockNumber": "0x1ef2264",
      "gasUsed": "0xc9ee",
      "effectiveGasPrice": "0xf42a1",
      "from": "0x0b3d62df33521cdce79e87586d7c1534b00ecad7",
      "to": "0x0d0877adc36e506a9328c100fdae71d743454242",
      "contractAddress": null,
      "l1BaseFeeScalar": "0x44d",
      "l1BlobBaseFee": "0x1",
      "l1BlobBaseFeeScalar": "0xa118b",
      "l1Fee": "0x51",
      "l1GasPrice": "0x9",
      "l1GasUsed": "0x640"
    },
    {
      "status": "0x1",
      "cumulativeGasUsed": "0x5d0800",
      "logs": [],
      "logsBloom": "0x00000000000000000000000000000000000000000000000000000000000000000000000000000000000000000000000000000000000000000000000000000000000000000000000000000000000000000000000000000000000000000000000000000000000000000000000000000000000000000000000000000000000000000000000000000000000000000000000000000000000000000000000000000000000000000000000000000000000000000000000000000000000000000000000000000000000000000000000000000000000000000000000000000000000000000000000000000000000000000000000000000000000000000000000000000000",
      "type": "0x2",
      "transactionHash": "0x12b6ef249a5ffc41021c2239f7817b952a43136b90e1339c3d590e66bf83dbb6",
      "transactionIndex": "0x30",
      "blockHash": "0xf14279aed1d88747d8c5270ed96faafd42c2ad686fd4b0319cb3606fe6569485",
      "blockNumber": "0x1ef2264",
      "gasUsed": "0xc9ee",
      "effectiveGasPrice": "0xf42a1",
      "from": "0x0b3d62df33521cdce79e87586d7c1534b00ecad7",
      "to": "0x0d0877adc36e506a9328c100fdae71d743454242",
      "contractAddress": null,
      "l1BaseFeeScalar": "0x44d",
      "l1BlobBaseFee": "0x1",
      "l1BlobBaseFeeScalar": "0xa118b",
      "l1Fee": "0x51",
      "l1GasPrice": "0x9",
      "l1GasUsed": "0x640"
    },
    {
      "status": "0x1",
      "cumulativeGasUsed": "0x5dd1ee",
      "logs": [],
      "logsBloom": "0x00000000000000000000000000000000000000000000000000000000000000000000000000000000000000000000000000000000000000000000000000000000000000000000000000000000000000000000000000000000000000000000000000000000000000000000000000000000000000000000000000000000000000000000000000000000000000000000000000000000000000000000000000000000000000000000000000000000000000000000000000000000000000000000000000000000000000000000000000000000000000000000000000000000000000000000000000000000000000000000000000000000000000000000000000000000",
      "type": "0x2",
      "transactionHash": "0xa5933242ccacfe477a384fcf505599e27ed0ad447039f38dd9e0bcd59ea6f26a",
      "transactionIndex": "0x31",
      "blockHash": "0xf14279aed1d88747d8c5270ed96faafd42c2ad686fd4b0319cb3606fe6569485",
      "blockNumber": "0x1ef2264",
      "gasUsed": "0xc9ee",
      "effectiveGasPrice": "0xf42a1",
      "from": "0x0b3d62df33521cdce79e87586d7c1534b00ecad7",
      "to": "0x0d0877adc36e506a9328c100fdae71d743454242",
      "contractAddress": null,
      "l1BaseFeeScalar": "0x44d",
      "l1BlobBaseFee": "0x1",
      "l1BlobBaseFeeScalar": "0xa118b",
      "l1Fee": "0x51",
      "l1GasPrice": "0x9",
      "l1GasUsed": "0x640"
    },
    {
      "status": "0x1",
      "cumulativeGasUsed": "0x5e9bdc",
      "logs": [],
      "logsBloom": "0x00000000000000000000000000000000000000000000000000000000000000000000000000000000000000000000000000000000000000000000000000000000000000000000000000000000000000000000000000000000000000000000000000000000000000000000000000000000000000000000000000000000000000000000000000000000000000000000000000000000000000000000000000000000000000000000000000000000000000000000000000000000000000000000000000000000000000000000000000000000000000000000000000000000000000000000000000000000000000000000000000000000000000000000000000000000",
      "type": "0x2",
      "transactionHash": "0xecdf628e38480a2a2b27760ca926410fd1c89bca4acec010bef4fabcef384d03",
      "transactionIndex": "0x32",
      "blockHash": "0xf14279aed1d88747d8c5270ed96faafd42c2ad686fd4b0319cb3606fe6569485",
      "blockNumber": "0x1ef2264",
      "gasUsed": "0xc9ee",
      "effectiveGasPrice": "0xf42a1",
      "from": "0x0b3d62df33521cdce79e87586d7c1534b00ecad7",
      "to": "0x0d0877adc36e506a9328c100fdae71d743454242",
      "contractAddress": null,
      "l1BaseFeeScalar": "0x44d",
      "l1BlobBaseFee": "0x1",
      "l1BlobBaseFeeScalar": "0xa118b",
      "l1Fee": "0x51",
      "l1GasPrice": "0x9",
      "l1GasUsed": "0x640"
    },
    {
      "status": "0x1",
      "cumulativeGasUsed": "0x5f65be",
      "logs": [],
      "logsBloom": "0x00000000000000000000000000000000000000000000000000000000000000000000000000000000000000000000000000000000000000000000000000000000000000000000000000000000000000000000000000000000000000000000000000000000000000000000000000000000000000000000000000000000000000000000000000000000000000000000000000000000000000000000000000000000000000000000000000000000000000000000000000000000000000000000000000000000000000000000000000000000000000000000000000000000000000000000000000000000000000000000000000000000000000000000000000000000",
      "type": "0x2",
      "transactionHash": "0x42a4707c170f1b26e558ba970e35a80d6a610ac8a6e250691d677c9c69bd563c",
      "transactionIndex": "0x33",
      "blockHash": "0xf14279aed1d88747d8c5270ed96faafd42c2ad686fd4b0319cb3606fe6569485",
      "blockNumber": "0x1ef2264",
      "gasUsed": "0xc9e2",
      "effectiveGasPrice": "0xf42a1",
      "from": "0x0b3d62df33521cdce79e87586d7c1534b00ecad7",
      "to": "0x0d0877adc36e506a9328c100fdae71d743454242",
      "contractAddress": null,
      "l1BaseFeeScalar": "0x44d",
      "l1BlobBaseFee": "0x1",
      "l1BlobBaseFeeScalar": "0xa118b",
      "l1Fee": "0x51",
      "l1GasPrice": "0x9",
      "l1GasUsed": "0x640"
    },
    {
      "status": "0x1",
      "cumulativeGasUsed": "0x602fac",
      "logs": [],
      "logsBloom": "0x00000000000000000000000000000000000000000000000000000000000000000000000000000000000000000000000000000000000000000000000000000000000000000000000000000000000000000000000000000000000000000000000000000000000000000000000000000000000000000000000000000000000000000000000000000000000000000000000000000000000000000000000000000000000000000000000000000000000000000000000000000000000000000000000000000000000000000000000000000000000000000000000000000000000000000000000000000000000000000000000000000000000000000000000000000000",
      "type": "0x2",
      "transactionHash": "0x8a4bf41ff1717d69f6b0ae76aea7db04afe8d7e6daf3f304306472be32279c90",
      "transactionIndex": "0x34",
      "blockHash": "0xdc3e6092c8ac195dec9e9e71113f58e2154f10c4377f9e182c68cd63f7688ba7",
      "blockNumber": "0x1ef2264",
      "gasUsed": "0xc9ee",
      "effectiveGasPrice": "0xf42a1",
      "from": "0x0b3d62df33521cdce79e87586d7c1534b00ecad7",
      "to": "0x0d0877adc36e506a9328c100fdae71d743454242",
      "contractAddress": null,
      "l1BaseFeeScalar": "0x44d",
      "l1BlobBaseFee": "0x1",
      "l1BlobBaseFeeScalar": "0xa118b",
      "l1Fee": "0x51",
      "l1GasPrice": "0x9",
      "l1GasUsed": "0x640"
    },
    {
      "status": "0x1",
      "cumulativeGasUsed": "0x94c16c",
      "logs": [],
      "logsBloom": "0x00000000000000000000000000000000000000000000000000000000000000000000000000000000000000000000000000000000000000000000000000000000000000000000000000000000000000000000000000000000000000000000000000000000000000000000000000000000000000000000000000000000000000000000000000000000000000000000000000000000000000000000000000000000000000000000000000000000000000000000000000000000000000000000000000000000000000000000000000000000000000000000000000000000000000000000000000000000000000000000000000000000000000000000000000000000",
      "type": "0x2",
      "transactionHash": "0x0e63900c0db682296e37b5ea3f4ba8f3d00a3795d712a20bb020bb76ccfecab9",
      "transactionIndex": "0x46",
      "blockHash": "0xf14279aed1d88747d8c5270ed96faafd42c2ad686fd4b0319cb3606fe6569485",
      "blockNumber": "0x1ef2264",
      "gasUsed": "0xc9ee",
      "effectiveGasPrice": "0xf42a1",
      "from": "0x0b3d62df33521cdce79e87586d7c1534b00ecad7",
      "to": "0x0d0877adc36e506a9328c100fdae71d743454242",
      "contractAddress": null,
      "l1BaseFeeScalar": "0x44d",
      "l1BlobBaseFee": "0x1",
      "l1BlobBaseFeeScalar": "0xa118b",
      "l1Fee": "0x51",
      "l1GasPrice": "0x9",
      "l1GasUsed": "0x640"
    },
    {
      "status": "0x1",
      "cumulativeGasUsed": "0x958b5a",
      "logs": [],
      "logsBloom": "0x00000000000000000000000000000000000000000000000000000000000000000000000000000000000000000000000000000000000000000000000000000000000000000000000000000000000000000000000000000000000000000000000000000000000000000000000000000000000000000000000000000000000000000000000000000000000000000000000000000000000000000000000000000000000000000000000000000000000000000000000000000000000000000000000000000000000000000000000000000000000000000000000000000000000000000000000000000000000000000000000000000000000000000000000000000000",
      "type": "0x2",
      "transactionHash": "0xd6de79285f1926f18c51fadc7ead90a9090d57c3a3579e1dff056e6a1fd8be03",
      "transactionIndex": "0x47",
      "blockHash": "0xf14279aed1d88747d8c5270ed96faafd42c2ad686fd4b0319cb3606fe6569485",
      "blockNumber": "0x1ef2264",
      "gasUsed": "0xc9ee",
      "effectiveGasPrice": "0xf42a1",
      "from": "0x0b3d62df33521cdce79e87586d7c1534b00ecad7",
      "to": "0x0d0877adc36e506a9328c100fdae71d743454242",
      "contractAddress": null,
      "l1BaseFeeScalar": "0x44d",
      "l1BlobBaseFee": "0x1",
      "l1BlobBaseFeeScalar": "0xa118b",
      "l1Fee": "0x51",
      "l1GasPrice": "0x9",
      "l1GasUsed": "0x640"
    },
    {
      "status": "0x1",
      "cumulativeGasUsed": "0x965548",
      "logs": [],
      "logsBloom": "0x00000000000000000000000000000000000000000000000000000000000000000000000000000000000000000000000000000000000000000000000000000000000000000000000000000000000000000000000000000000000000000000000000000000000000000000000000000000000000000000000000000000000000000000000000000000000000000000000000000000000000000000000000000000000000000000000000000000000000000000000000000000000000000000000000000000000000000000000000000000000000000000000000000000000000000000000000000000000000000000000000000000000000000000000000000000",
      "type": "0x2",
      "transactionHash": "0xae8b274de365560aecb442d64ca39206aefb3987a6e73d6928983053f6107fff",
      "transactionIndex": "0x48",
      "blockHash": "0xf14279aed1d88747d8c5270ed96faafd42c2ad686fd4b0319cb3606fe6569485",
      "blockNumber": "0x1ef2264",
      "gasUsed": "0xc9ee",
      "effectiveGasPrice": "0xf42a1",
      "from": "0x0b3d62df33521cdce79e87586d7c1534b00ecad7",
      "to": "0x0d0877adc36e506a9328c100fdae71d743454242",
      "contractAddress": null,
      "l1BaseFeeScalar": "0x44d",
      "l1BlobBaseFee": "0x1",
      "l1BlobBaseFeeScalar": "0xa118b",
      "l1Fee": "0x51",
      "l1GasPrice": "0x9",
      "l1GasUsed": "0x640"
    },
    {
      "status": "0x1",
      "cumulativeGasUsed": "0x971f36",
      "logs": [],
      "logsBloom": "0x00000000000000000000000000000000000000000000000000000000000000000000000000000000000000000000000000000000000000000000000000000000000000000000000000000000000000000000000000000000000000000000000000000000000000000000000000000000000000000000000000000000000000000000000000000000000000000000000000000000000000000000000000000000000000000000000000000000000000000000000000000000000000000000000000000000000000000000000000000000000000000000000000000000000000000000000000000000000000000000000000000000000000000000000000000000",
      "type": "0x2",
      "transactionHash": "0x90f6a6dd8cf89abbb0f50712b8db6c8fbd85e018b8047a1dff894e2d12b7a928",
      "transactionIndex": "0x49",
      "blockHash": "0xf14279aed1d88747d8c5270ed96faafd42c2ad686fd4b0319cb3606fe6569485",
      "blockNumber": "0x1ef2264",
      "gasUsed": "0xc9ee",
      "effectiveGasPrice": "0xf42a1",
      "from": "0x0b3d62df33521cdce79e87586d7c1534b00ecad7",
      "to": "0x0d0877adc36e506a9328c100fdae71d743454242",
      "contractAddress": null,
      "l1BaseFeeScalar": "0x44d",
      "l1BlobBaseFee": "0x1",
      "l1BlobBaseFeeScalar": "0xa118b",
      "l1Fee": "0x51",
      "l1GasPrice": "0x9",
      "l1GasUsed": "0x640"
    },
    {
      "status": "0x1",
      "cumulativeGasUsed": "0x97e924",
      "logs": [],
      "logsBloom": "0x00000000000000000000000000000000000000000000000000000000000000000000000000000000000000000000000000000000000000000000000000000000000000000000000000000000000000000000000000000000000000000000000000000000000000000000000000000000000000000000000000000000000000000000000000000000000000000000000000000000000000000000000000000000000000000000000000000000000000000000000000000000000000000000000000000000000000000000000000000000000000000000000000000000000000000000000000000000000000000000000000000000000000000000000000000000",
      "type": "0x2",
      "transactionHash": "0x513a9c522508d54ec1035c1ad19e6a6808b417767eb4b7af32a77e148b75c12a",
      "transactionIndex": "0x4a",
      "blockHash": "0xf14279aed1d88747d8c5270ed96faafd42c2ad686fd4b0319cb3606fe6569485",
      "blockNumber": "0x1ef2264",
      "gasUsed": "0xc9ee",
      "effectiveGasPrice": "0xf42a1",
      "from": "0x0b3d62df33521cdce79e87586d7c1534b00ecad7",
      "to": "0x0d0877adc36e506a9328c100fdae71d743454242",
      "contractAddress": null,
      "l1BaseFeeScalar": "0x44d",
      "l1BlobBaseFee": "0x1",
      "l1BlobBaseFeeScalar": "0xa118b",
      "l1Fee": "0x51",
      "l1GasPrice": "0x9",
      "l1GasUsed": "0x640"
    },
    {
      "status": "0x1",
      "cumulativeGasUsed": "0x98b312",
      "logs": [],
      "logsBloom": "0x00000000000000000000000000000000000000000000000000000000000000000000000000000000000000000000000000000000000000000000000000000000000000000000000000000000000000000000000000000000000000000000000000000000000000000000000000000000000000000000000000000000000000000000000000000000000000000000000000000000000000000000000000000000000000000000000000000000000000000000000000000000000000000000000000000000000000000000000000000000000000000000000000000000000000000000000000000000000000000000000000000000000000000000000000000000",
      "type": "0x2",
      "transactionHash": "0xc1423bff11bcd56a5d847d7c5898160e9abea2d3e2cf3e07ef9cd6f48aeccdcb",
      "transactionIndex": "0x4b",
      "blockHash": "0xf14279aed1d88747d8c5270ed96faafd42c2ad686fd4b0319cb3606fe6569485",
      "blockNumber": "0x1ef2264",
      "gasUsed": "0xc9ee",
      "effectiveGasPrice": "0xf42a1",
      "from": "0x0b3d62df33521cdce79e87586d7c1534b00ecad7",
      "to": "0x0d0877adc36e506a9328c100fdae71d743454242",
      "contractAddress": null,
      "l1BaseFeeScalar": "0x44d",
      "l1BlobBaseFee": "0x1",
      "l1BlobBaseFeeScalar": "0xa118b",
      "l1Fee": "0x51",
      "l1GasPrice": "0x9",
      "l1GasUsed": "0x640"
    },
    {
      "status": "0x1",
      "cumulativeGasUsed": "0x997d00",
      "logs": [],
      "logsBloom": "0x00000000000000000000000000000000000000000000000000000000000000000000000000000000000000000000000000000000000000000000000000000000000000000000000000000000000000000000000000000000000000000000000000000000000000000000000000000000000000000000000000000000000000000000000000000000000000000000000000000000000000000000000000000000000000000000000000000000000000000000000000000000000000000000000000000000000000000000000000000000000000000000000000000000000000000000000000000000000000000000000000000000000000000000000000000000",
      "type": "0x2",
      "transactionHash": "0xfbb16798cb07f072f3a0ac26e45ad620349e548511e1509c7e8cba4bac85e4e0",
      "transactionIndex": "0x4c",
      "blockHash": "0xf14279aed1d88747d8c5270ed96faafd42c2ad686fd4b0319cb3606fe6569485",
      "blockNumber": "0x1ef2264",
      "gasUsed": "0xc9ee",
      "effectiveGasPrice": "0xf42a1",
      "from": "0x0b3d62df33521cdce79e87586d7c1534b00ecad7",
      "to": "0x0d0877adc36e506a9328c100fdae71d743454242",
      "contractAddress": null,
      "l1BaseFeeScalar": "0x44d",
      "l1BlobBaseFee": "0x1",
      "l1BlobBaseFeeScalar": "0xa118b",
      "l1Fee": "0x51",
      "l1GasPrice": "0x9",
      "l1GasUsed": "0x640"
    },
    {
      "status": "0x1",
      "cumulativeGasUsed": "0x153ee05",
      "logs": [],
      "logsBloom": "0x00000000000000000000000000000000000000000000000000000000000000000000000000000000000000000000000000000000000000000000000000000000000000000000000000000000000000000000000000000000000000000000000000000000000000000000000000000000000000000000000000000000000000000000000000000000000000000000000000000000000000000000000000000000000000000000000000000000000000000000000000000000000000000000000000000000000000000000000000000000000000000000000000000000000000000000000000000000000000000000000000000000000000000000000000000000",
      "type": "0x2",
      "transactionHash": "0x0e8d7ace126e479b4f5a71ff80b97bc62e8380ce197bddcb0a85b5f7d4b272dd",
      "transactionIndex": "0x5e",
      "blockHash": "0xf14279aed1d88747d8c5270ed96faafd42c2ad686fd4b0319cb3606fe6569485",
      "blockNumber": "0x1ef2264",
      "gasUsed": "0xc9ee",
      "effectiveGasPrice": "0xf42a1",
      "from": "0x0b3d62df33521cdce79e87586d7c1534b00ecad7",
      "to": "0x0d0877adc36e506a9328c100fdae71d743454242",
      "contractAddress": null,
      "l1BaseFeeScalar": "0x44d",
      "l1BlobBaseFee": "0x1",
      "l1BlobBaseFeeScalar": "0xa118b",
      "l1Fee": "0x51",
      "l1GasPrice": "0x9",
      "l1GasUsed": "0x640"
    }
  ],
  "libraries": [],
  "pending": [],
  "returns": {},
  "timestamp": 1760666537,
  "chain": 84532,
  "commit": "326baa9"
}