{
  "transactions": [
    {
      "hash": "0xf4be47440eefb667978c57a99b2ef98a6c7a1549a72996e1b8b346b1ed61fe92",
      "transactionType": "CALL",
      "contractName": null,
      "contractAddress": "0xb1969c60bad7ebd8cf0d6466b6953409f0895538",
      "function": "clearKOLs()",
      "arguments": [],
      "transaction": {
        "from": "0x0b3d62df33521cdce79e87586d7c1534b00ecad7",
        "to": "0xb1969c60bad7ebd8cf0d6466b6953409f0895538",
        "gas": "0x1dba5",
        "value": "0x0",
        "input": "0x1540ceeb",
        "nonce": "0x7e",
        "chainId": "0x14a34"
      },
      "additionalContracts": [],
      "isFixedGasLimit": false
    },
    {
      "hash": "0x335542dfc6e850de15051fb5496e4d686ac6b068fe8bb5632e6008fedf13acc4",
      "transactionType": "CALL",
      "contractName": null,
      "contractAddress": "0xb1969c60bad7ebd8cf0d6466b6953409f0895538",
      "function": "addKOL(bytes32)",
      "arguments": [
        "0x54ee7dc2425581581c47469e5eb1f5eed4233fcbddf6c7592f1580aa348c89b4"
      ],
      "transaction": {
        "from": "0x0b3d62df33521cdce79e87586d7c1534b00ecad7",
        "to": "0xb1969c60bad7ebd8cf0d6466b6953409f0895538",
        "gas": "0x18902",
        "value": "0x0",
        "input": "0xf08fd6d654ee7dc2425581581c47469e5eb1f5eed4233fcbddf6c7592f1580aa348c89b4",
        "nonce": "0x7f",
        "chainId": "0x14a34"
      },
      "additionalContracts": [],
      "isFixedGasLimit": false
    },
    {
      "hash": "0x1c4600bd21e40b80e333e8269358b7a8adef65a5227893c4359ac10b7e41d6cf",
      "transactionType": "CALL",
      "contractName": null,
      "contractAddress": "0xb1969c60bad7ebd8cf0d6466b6953409f0895538",
      "function": "addKOL(bytes32)",
      "arguments": [
        "0xfa4dffc9e824f830cf7d07fc7765ba1d7b344d923dd9083258189156f4932796"
      ],
      "transaction": {
        "from": "0x0b3d62df33521cdce79e87586d7c1534b00ecad7",
        "to": "0xb1969c60bad7ebd8cf0d6466b6953409f0895538",
        "gas": "0x116e9",
        "value": "0x0",
        "input": "0xf08fd6d6fa4dffc9e824f830cf7d07fc7765ba1d7b344d923dd9083258189156f4932796",
        "nonce": "0x80",
        "chainId": "0x14a34"
      },
      "additionalContracts": [],
      "isFixedGasLimit": false
    },
    {
      "hash": "0x4903daa4b4e75d4fd3c4ad5929d343426b59b44f1540d98234f85c1f8055bee1",
      "transactionType": "CALL",
      "contractName": null,
      "contractAddress": "0xb1969c60bad7ebd8cf0d6466b6953409f0895538",
      "function": "addKOL(bytes32)",
      "arguments": [
        "0x33fd3a1a2f6025be5b2d3026fea143df162bb647c138b6d16851023d3c6518a7"
      ],
      "transaction": {
        "from": "0x0b3d62df33521cdce79e87586d7c1534b00ecad7",
        "to": "0xb1969c60bad7ebd8cf0d6466b6953409f0895538",
        "gas": "0x116e9",
        "value": "0x0",
        "input": "0xf08fd6d633fd3a1a2f6025be5b2d3026fea143df162bb647c138b6d16851023d3c6518a7",
        "nonce": "0x81",
        "chainId": "0x14a34"
      },
      "additionalContracts": [],
      "isFixedGasLimit": false
    },
    {
      "hash": "0x3c0061dbf92121f10646ec3d43fc9414f45f40c7cc762e6a402efd5107dd485b",
      "transactionType": "CALL",
      "contractName": null,
      "contractAddress": "0xb1969c60bad7ebd8cf0d6466b6953409f0895538",
      "function": "addKOL(bytes32)",
      "arguments": [
        "0x4577b1186726aefd500341efa18943241fb9994e2e412da5cc558d28c6e52ddf"
      ],
      "transaction": {
        "from": "0x0b3d62df33521cdce79e87586d7c1534b00ecad7",
        "to": "0xb1969c60bad7ebd8cf0d6466b6953409f0895538",
        "gas": "0x116e9",
        "value": "0x0",
        "input": "0xf08fd6d64577b1186726aefd500341efa18943241fb9994e2e412da5cc558d28c6e52ddf",
        "nonce": "0x82",
        "chainId": "0x14a34"
      },
      "additionalContracts": [],
      "isFixedGasLimit": false
    },
    {
      "hash": "0x0eeb2f0e1fc91597b6534857548bca7f55693391f6156de0089c17f5d2f5f34e",
      "transactionType": "CALL",
      "contractName": null,
      "contractAddress": "0xb1969c60bad7ebd8cf0d6466b6953409f0895538",
      "function": "addKOL(bytes32)",
      "arguments": [
        "0xcb43db8e11342c57139c6028ef0ca9ff0606bfa1218225ea9a0ccb7e42206362"
      ],
      "transaction": {
        "from": "0x0b3d62df33521cdce79e87586d7c1534b00ecad7",
        "to": "0xb1969c60bad7ebd8cf0d6466b6953409f0895538",
        "gas": "0x116e9",
        "value": "0x0",
        "input": "0xf08fd6d6cb43db8e11342c57139c6028ef0ca9ff0606bfa1218225ea9a0ccb7e42206362",
        "nonce": "0x83",
        "chainId": "0x14a34"
      },
      "additionalContracts": [],
      "isFixedGasLimit": false
    },
    {
      "hash": "0xc507f1b22b80c1db8d79f0a24f76eb939486e3e2e1c4e41fdac9072dd60ee3ca",
      "transactionType": "CALL",
      "contractName": null,
      "contractAddress": "0xb1969c60bad7ebd8cf0d6466b6953409f0895538",
      "function": "addKOL(bytes32)",
      "arguments": [
        "0x673c01c3285d988aa04a27f5a542a4a304005c687956087d40ac2df25856dcdb"
      ],
      "transaction": {
        "from": "0x0b3d62df33521cdce79e87586d7c1534b00ecad7",
        "to": "0xb1969c60bad7ebd8cf0d6466b6953409f0895538",
        "gas": "0x12740",
        "value": "0x0",
        "input": "0xf08fd6d6673c01c3285d988aa04a27f5a542a4a304005c687956087d40ac2df25856dcdb",
        "nonce": "0x84",
        "chainId": "0x14a34"
      },
      "additionalContracts": [],
      "isFixedGasLimit": false
    },
    {
      "hash": "0xb7cc8db9ea9fee894dcd709b947b4c57f8be6d817325ec1e6198c0dda2609d25",
      "transactionType": "CALL",
      "contractName": null,
      "contractAddress": "0xb1969c60bad7ebd8cf0d6466b6953409f0895538",
      "function": "addKOL(bytes32)",
      "arguments": [
        "0x0524cdf42f7e19c1b50b880d9d343bed05b80f21f29ecec6cff29e9657177853"
      ],
      "transaction": {
        "from": "0x0b3d62df33521cdce79e87586d7c1534b00ecad7",
        "to": "0xb1969c60bad7ebd8cf0d6466b6953409f0895538",
        "gas": "0x116e9",
        "value": "0x0",
        "input": "0xf08fd6d60524cdf42f7e19c1b50b880d9d343bed05b80f21f29ecec6cff29e9657177853",
        "nonce": "0x85",
        "chainId": "0x14a34"
      },
      "additionalContracts": [],
      "isFixedGasLimit": false
    },
    {
      "hash": "0xbd762ca0f498c2aa8534396425c265e5b355c6ac0aeb26cc38ea1821e98b41d8",
      "transactionType": "CALL",
      "contractName": null,
      "contractAddress": "0xb1969c60bad7ebd8cf0d6466b6953409f0895538",
      "function": "addKOL(bytes32)",
      "arguments": [
        "0x48c5a7987a74c243ccde734e1679bd0ec85b03ad4b0d329815fa18a928bed2ca"
      ],
      "transaction": {
        "from": "0x0b3d62df33521cdce79e87586d7c1534b00ecad7",
        "to": "0xb1969c60bad7ebd8cf0d6466b6953409f0895538",
        "gas": "0x116e9",
        "value": "0x0",
        "input": "0xf08fd6d648c5a7987a74c243ccde734e1679bd0ec85b03ad4b0d329815fa18a928bed2ca",
        "nonce": "0x86",
        "chainId": "0x14a34"
      },
      "additionalContracts": [],
      "isFixedGasLimit": false
    },
    {
      "hash": "0xb124d3376b58d36bddc5fa53e2b982523371bb836f300da769f8276a8121580a",
      "transactionType": "CALL",
      "contractName": null,
      "contractAddress": "0xb1969c60bad7ebd8cf0d6466b6953409f0895538",
      "function": "addKOL(bytes32)",
      "arguments": [
        "0xf62eed8c614d9af05170cfd5366e70ce2b5b581277ed9bda90ee06ec1c0ac70b"
      ],
      "transaction": {
        "from": "0x0b3d62df33521cdce79e87586d7c1534b00ecad7",
        "to": "0xb1969c60bad7ebd8cf0d6466b6953409f0895538",
        "gas": "0x116e9",
        "value": "0x0",
        "input": "0xf08fd6d6f62eed8c614d9af05170cfd5366e70ce2b5b581277ed9bda90ee06ec1c0ac70b",
        "nonce": "0x87",
        "chainId": "0x14a34"
      },
      "additionalContracts": [],
      "isFixedGasLimit": false
    },
    {
      "hash": "0x9f83f4d90f8240ac7838daa3a0d429af9fd1568e15bd8361f4fe512be9c2f425",
      "transactionType": "CALL",
      "contractName": null,
      "contractAddress": "0xb1969c60bad7ebd8cf0d6466b6953409f0895538",
      "function": "addKOL(bytes32)",
      "arguments": [
        "0x1607be6baa59b952f720dc10f894f0fb97723aa12c72c2f925dfbd8f301ea770"
      ],
      "transaction": {
        "from": "0x0b3d62df33521cdce79e87586d7c1534b00ecad7",
        "to": "0xb1969c60bad7ebd8cf0d6466b6953409f0895538",
        "gas": "0x116e9",
        "value": "0x0",
        "input": "0xf08fd6d61607be6baa59b952f720dc10f894f0fb97723aa12c72c2f925dfbd8f301ea770",
        "nonce": "0x88",
        "chainId": "0x14a34"
      },
      "additionalContracts": [],
      "isFixedGasLimit": false
    },
    {
      "hash": "0x0d138e0dcbef9b73a1891b52cc46d378faa97b1cef8182fcd1d083c9d8810aae",
      "transactionType": "CALL",
      "contractName": null,
      "contractAddress": "0xb1969c60bad7ebd8cf0d6466b6953409f0895538",
      "function": "addKOL(bytes32)",
      "arguments": [
        "0xc6efb078ba9e17a714af044d45caa889df54c72db5a8f519a48117964c45e811"
      ],
      "transaction": {
        "from": "0x0b3d62df33521cdce79e87586d7c1534b00ecad7",
        "to": "0xb1969c60bad7ebd8cf0d6466b6953409f0895538",
        "gas": "0x116e9",
        "value": "0x0",
        "input": "0xf08fd6d6c6efb078ba9e17a714af044d45caa889df54c72db5a8f519a48117964c45e811",
        "nonce": "0x89",
        "chainId": "0x14a34"
      },
      "additionalContracts": [],
      "isFixedGasLimit": false
    },
    {
      "hash": "0x046536e8112a28a0fdebcf721d108495f8e4082281c2016fc3f79e39a3272ce5",
      "transactionType": "CALL",
      "contractName": null,
      "contractAddress": "0xb1969c60bad7ebd8cf0d6466b6953409f0895538",
      "function": "addKOL(bytes32)",
      "arguments": [
        "0xbcf86f88c85a4d7c8956da3d72aa06352a87f16a97cd2c9897a07492f92a6ad2"
      ],
      "transaction": {
        "from": "0x0b3d62df33521cdce79e87586d7c1534b00ecad7",
        "to": "0xb1969c60bad7ebd8cf0d6466b6953409f0895538",
        "gas": "0x116e9",
        "value": "0x0",
        "input": "0xf08fd6d6bcf86f88c85a4d7c8956da3d72aa06352a87f16a97cd2c9897a07492f92a6ad2",
        "nonce": "0x8a",
        "chainId": "0x14a34"
      },
      "additionalContracts": [],
      "isFixedGasLimit": false
    },
    {
      "hash": "0x2b390729353c782260a8b67134d40f72c2e261de03302da4c659d104ebbb50d1",
      "transactionType": "CALL",
      "contractName": null,
      "contractAddress": "0xb1969c60bad7ebd8cf0d6466b6953409f0895538",
      "function": "addKOL(bytes32)",
      "arguments": [
        "0x6dc2f619db0779da93991f96b7d19da693074782b6575cd6617f98bb4ff77bdc"
      ],
      "transaction": {
        "from": "0x0b3d62df33521cdce79e87586d7c1534b00ecad7",
        "to": "0xb1969c60bad7ebd8cf0d6466b6953409f0895538",
        "gas": "0x116e9",
        "value": "0x0",
        "input": "0xf08fd6d66dc2f619db0779da93991f96b7d19da693074782b6575cd6617f98bb4ff77bdc",
        "nonce": "0x8b",
        "chainId": "0x14a34"
      },
      "additionalContracts": [],
      "isFixedGasLimit": false
    },
    {
      "hash": "0x2e4fde2088652557f5910d5289a9acfb33c91ec9497b4f89fe2db222bd9f25f7",
      "transactionType": "CALL",
      "contractName": null,
      "contractAddress": "0xb1969c60bad7ebd8cf0d6466b6953409f0895538",
      "function": "addKOL(bytes32)",
      "arguments": [
        "0x89a423337cdbf4041d1f104772e9b3b58f5c0141b08227b35aab83cab7e0e1ed"
      ],
      "transaction": {
        "from": "0x0b3d62df33521cdce79e87586d7c1534b00ecad7",
        "to": "0xb1969c60bad7ebd8cf0d6466b6953409f0895538",
        "gas": "0x116e9",
        "value": "0x0",
        "input": "0xf08fd6d689a423337cdbf4041d1f104772e9b3b58f5c0141b08227b35aab83cab7e0e1ed",
        "nonce": "0x8c",
        "chainId": "0x14a34"
      },
      "additionalContracts": [],
      "isFixedGasLimit": false
    },
    {
      "hash": "0x4911e6da857c6e3ea1073e574de57be9fa20030901766604e09e30e8aa0e314c",
      "transactionType": "CALL",
      "contractName": null,
      "contractAddress": "0xb1969c60bad7ebd8cf0d6466b6953409f0895538",
      "function": "addKOL(bytes32)",
      "arguments": [
        "0xdbbb309b2d1e68f542ca8002db4910bef497c5ad9e7e7c1168159960dd05d2e7"
      ],
      "transaction": {
        "from": "0x0b3d62df33521cdce79e87586d7c1534b00ecad7",
        "to": "0xb1969c60bad7ebd8cf0d6466b6953409f0895538",
        "gas": "0x116e9",
        "value": "0x0",
        "input": "0xf08fd6d6dbbb309b2d1e68f542ca8002db4910bef497c5ad9e7e7c1168159960dd05d2e7",
        "nonce": "0x8d",
        "chainId": "0x14a34"
      },
      "additionalContracts": [],
      "isFixedGasLimit": false
    }
  ],
  "receipts": [
    {
      "status": "0x1",
      "cumulativeGasUsed": "0x3d0e43",
      "logs": [],
      "logsBloom": "0x00000000000000000000000000000000000000000000000000000000000000000000000000000000000000000000000000000000000000000000000000000000000000000000000000000000000000000000000000000000000000000000000000000000000000000000000000000000000000000000000000000000000000000000000000000000000000000000000000000000000000000000000000000000000000000000000000000000000000000000000000000000000000000000000000000000000000000000000000000000000000000000000000000000000000000000000000000000000000000000000000000000000000000000000000000000",
      "type": "0x2",
      "transactionHash": "0xf4be47440eefb667978c57a99b2ef98a6c7a1549a72996e1b8b346b1ed61fe92",
      "transactionIndex": "0x1e",
      "blockHash": "0xfa309631be07574fb672d4cf1d2977df940753aa92b42e999427cc9f0abdac9a",
      "blockNumber": "0x1ef6d8a",
      "gasUsed": "0x1453b",
      "effectiveGasPrice": "0xf42ad",
      "from": "0x0b3d62df33521cdce79e87586d7c1534b00ecad7",
      "to": "0xb1969c60bad7ebd8cf0d6466b6953409f0895538",
      "contractAddress": null,
      "l1BaseFeeScalar": "0x44d",
      "l1BlobBaseFee": "0x1",
      "l1BlobBaseFeeScalar": "0xa118b",
      "l1Fee": "0x58",
      "l1GasPrice": "0xd",
      "l1GasUsed": "0x640"
    },
    {
      "status": "0x1",
      "cumulativeGasUsed": "0x40c12d",
      "logs": [],
      "logsBloom": "0x00000000000000000000000000000000000000000000000000000000000000000000000000000000000000000000000000000000000000000000000000000000000000000000000000000000000000000000000000000000000000000000000000000000000000000000000000000000000000000000000000000000000000000000000000000000000000000000000000000000000000000000000000000000000000000000000000000000000000000000000000000000000000000000000000000000000000000000000000000000000000000000000000000000000000000000000000000000000000000000000000000000000000000000000000000000",
      "type": "0x2",
      "transactionHash": "0x335542dfc6e850de15051fb5496e4d686ac6b068fe8bb5632e6008fedf13acc4",
      "transactionIndex": "0x23",
      "blockHash": "0xc217cf6502fa8c54ce974581f125e1273dafaf968c0394946f82248d6ccc375f",
      "blockNumber": "0x1ef6d8a",
      "gasUsed": "0x10cba",
      "effectiveGasPrice": "0xf42ad",
      "from": "0x0b3d62df33521cdce79e87586d7c1534b00ecad7",
      "to": "0xb1969c60bad7ebd8cf0d6466b6953409f0895538",
      "contractAddress": null,
      "l1BaseFeeScalar": "0x44d",
      "l1BlobBaseFee": "0x1",
      "l1BlobBaseFeeScalar": "0xa118b",
      "l1Fee": "0x58",
      "l1GasPrice": "0xd",
      "l1GasUsed": "0x640"
    },
    {
      "status": "0x1",
      "cumulativeGasUsed": "0x440efb",
      "logs": [],
      "logsBloom": "0x00000000000000000000000000000000000000000000000000000000000000000000000000000000000000000000000000000000000000000000000000000000000000000000000000000000000000000000000000000000000000000000000000000000000000000000000000000000000000000000000000000000000000000000000000000000000000000000000000000000000000000000000000000000000000000000000000000000000000000000000000000000000000000000000000000000000000000000000000000000000000000000000000000000000000000000000000000000000000000000000000000000000000000000000000000000",
      "type": "0x2",
      "transactionHash": "0x1c4600bd21e40b80e333e8269358b7a8adef65a5227893c4359ac10b7e41d6cf",
      "transactionIndex": "0x28",
      "blockHash": "0xc217cf6502fa8c54ce974581f125e1273dafaf968c0394946f82248d6ccc375f",
      "blockNumber": "0x1ef6d8a",
      "gasUsed": "0xc9ee",
      "effectiveGasPrice": "0xf42ad",
      "from": "0x0b3d62df33521cdce79e87586d7c1534b00ecad7",
      "to": "0xb1969c60bad7ebd8cf0d6466b6953409f0895538",
      "contractAddress": null,
      "l1BaseFeeScalar": "0x44d",
      "l1BlobBaseFee": "0x1",
      "l1BlobBaseFeeScalar": "0xa118b",
      "l1Fee": "0x58",
      "l1GasPrice": "0xd",
      "l1GasUsed": "0x640"
    },
    {
      "status": "0x1",
      "cumulativeGasUsed": "0x44d8e9",
      "logs": [],
      "logsBloom": "0x00000000000000000000000000000000000000000000000000000000000000000000000000000000000000000000000000000000000000000000000000000000000000000000000000000000000000000000000000000000000000000000000000000000000000000000000000000000000000000000000000000000000000000000000000000000000000000000000000000000000000000000000000000000000000000000000000000000000000000000000000000000000000000000000000000000000000000000000000000000000000000000000000000000000000000000000000000000000000000000000000000000000000000000000000000000",
      "type": "0x2",
      "transactionHash": "0x4903daa4b4e75d4fd3c4ad5929d343426b59b44f1540d98234f85c1f8055bee1",
      "transactionIndex": "0x29",
      "blockHash": "0xfa309631be07574fb672d4cf1d2977df940753aa92b42e999427cc9f0abdac9a",
      "blockNumber": "0x1ef6d8a",
      "gasUsed": "0xc9ee",
      "effectiveGasPrice": "0xf42ad",
      "from": "0x0b3d62df33521cdce79e87586d7c1534b00ecad7",
      "to": "0xb1969c60bad7ebd8cf0d6466b6953409f0895538",
      "contractAddress": null,
      "l1BaseFeeScalar": "0x44d",
      "l1BlobBaseFee": "0x1",
      "l1BlobBaseFeeScalar": "0xa118b",
      "l1Fee": "0x58",
      "l1GasPrice": "0xd",
      "l1GasUsed": "0x640"
    },
    {
      "status": "0x1",
      "cumulativeGasUsed": "0x45a2d7",
      "logs": [],
      "logsBloom": "0x00000000000000000000000000000000000000000000000000000000000000000000000000000000000000000000000000000000000000000000000000000000000000000000000000000000000000000000000000000000000000000000000000000000000000000000000000000000000000000000000000000000000000000000000000000000000000000000000000000000000000000000000000000000000000000000000000000000000000000000000000000000000000000000000000000000000000000000000000000000000000000000000000000000000000000000000000000000000000000000000000000000000000000000000000000000",
      "type": "0x2",
      "transactionHash": "0x3c0061dbf92121f10646ec3d43fc9414f45f40c7cc762e6a402efd5107dd485b",
      "transactionIndex": "0x2a",
      "blockHash": "0xfa309631be07574fb672d4cf1d2977df940753aa92b42e999427cc9f0abdac9a",
      "blockNumber": "0x1ef6d8a",
      "gasUsed": "0xc9ee",
      "effectiveGasPrice": "0xf42ad",
      "from": "0x0b3d62df33521cdce79e87586d7c1534b00ecad7",
      "to": "0xb1969c60bad7ebd8cf0d6466b6953409f0895538",
      "contractAddress": null,
      "l1BaseFeeScalar": "0x44d",
      "l1BlobBaseFee": "0x1",
      "l1BlobBaseFeeScalar": "0xa118b",
      "l1Fee": "0x58",
      "l1GasPrice": "0xd",
      "l1GasUsed": "0x640"
    },
    {
      "status": "0x1",
      "cumulativeGasUsed": "0x466cc5",
      "logs": [],
      "logsBloom": "0x00000000000000000000000000000000000000000000000000000000000000000000000000000000000000000000000000000000000000000000000000000000000000000000000000000000000000000000000000000000000000000000000000000000000000000000000000000000000000000000000000000000000000000000000000000000000000000000000000000000000000000000000000000000000000000000000000000000000000000000000000000000000000000000000000000000000000000000000000000000000000000000000000000000000000000000000000000000000000000000000000000000000000000000000000000000",
      "type": "0x2",
      "transactionHash": "0x0eeb2f0e1fc91597b6534857548bca7f55693391f6156de0089c17f5d2f5f34e",
      "transactionIndex": "0x2b",
      "blockHash": "0xc217cf6502fa8c54ce974581f125e1273dafaf968c0394946f82248d6ccc375f",
      "blockNumber": "0x1ef6d8a",
      "gasUsed": "0xc9ee",
      "effectiveGasPrice": "0xf42ad",
      "from": "0x0b3d62df33521cdce79e87586d7c1534b00ecad7",
      "to": "0xb1969c60bad7ebd8cf0d6466b6953409f0895538",
      "contractAddress": null,
      "l1BaseFeeScalar": "0x44d",
      "l1BlobBaseFee": "0x1",
      "l1BlobBaseFeeScalar": "0xa118b",
      "l1Fee": "0x58",
      "l1GasPrice": "0xd",
      "l1GasUsed": "0x640"
    },
    {
      "status": "0x1",
      "cumulativeGasUsed": "0x4736a7",
      "logs": [],
      "logsBloom": "0x00000000000000000000000000000000000000000000000000000000000000000000000000000000000000000000000000000000000000000000000000000000000000000000000000000000000000000000000000000000000000000000000000000000000000000000000000000000000000000000000000000000000000000000000000000000000000000000000000000000000000000000000000000000000000000000000000000000000000000000000000000000000000000000000000000000000000000000000000000000000000000000000000000000000000000000000000000000000000000000000000000000000000000000000000000000",
      "type": "0x2",
      "transactionHash": "0xc507f1b22b80c1db8d79f0a24f76eb939486e3e2e1c4e41fdac9072dd60ee3ca",
      "transactionIndex": "0x2c",
      "blockHash": "0xc217cf6502fa8c54ce974581f125e1273dafaf968c0394946f82248d6ccc375f",
      "blockNumber": "0x1ef6d8a",
      "gasUsed": "0xc9e2",
      "effectiveGasPrice": "0xf42ad",
      "from": "0x0b3d62df33521cdce79e87586d7c1534b00ecad7",
      "to": "0xb1969c60bad7ebd8cf0d6466b6953409f0895538",
      "contractAddress": null,
      "l1BaseFeeScalar": "0x44d",
      "l1BlobBaseFee": "0x1",
      "l1BlobBaseFeeScalar": "0xa118b",
      "l1Fee": "0x58",
      "l1GasPrice": "0xd",
      "l1GasUsed": "0x640"
    },
    {
      "status": "0x1",
      "cumulativeGasUsed": "0x480095",
      "logs": [],
      "logsBloom": "0x00000000000000000000000000000000000000000000000000000000000000000000000000000000000000000000000000000000000000000000000000000000000000000000000000000000000000000000000000000000000000000000000000000000000000000000000000000000000000000000000000000000000000000000000000000000000000000000000000000000000000000000000000000000000000000000000000000000000000000000000000000000000000000000000000000000000000000000000000000000000000000000000000000000000000000000000000000000000000000000000000000000000000000000000000000000",
      "type": "0x2",
      "transactionHash": "0xb7cc8db9ea9fee894dcd709b947b4c57f8be6d817325ec1e6198c0dda2609d25",
      "transactionIndex": "0x2d",
      "blockHash": "0xfa309631be07574fb672d4cf1d2977df940753aa92b42e999427cc9f0abdac9a",
      "blockNumber": "0x1ef6d8a",
      "gasUsed": "0xc9ee",
      "effectiveGasPrice": "0xf42ad",
      "from": "0x0b3d62df33521cdce79e87586d7c1534b00ecad7",
      "to": "0xb1969c60bad7ebd8cf0d6466b6953409f0895538",
      "contractAddress": null,
      "l1BaseFeeScalar": "0x44d",
      "l1BlobBaseFee": "0x1",
      "l1BlobBaseFeeScalar": "0xa118b",
      "l1Fee": "0x58",
      "l1GasPrice": "0xd",
      "l1GasUsed": "0x640"
    },
    {
      "status": "0x1",
      "cumulativeGasUsed": "0x4d97d8",
      "logs": [],
      "logsBloom": "0x00000000000000000000000000000000000000000000000000000000000000000000000000000000000000000000000000000000000000000000000000000000000000000000000000000000000000000000000000000000000000000000000000000000000000000000000000000000000000000000000000000000000000000000000000000000000000000000000000000000000000000000000000000000000000000000000000000000000000000000000000000000000000000000000000000000000000000000000000000000000000000000000000000000000000000000000000000000000000000000000000000000000000000000000000000000",
      "type": "0x2",
      "transactionHash": "0xbd762ca0f498c2aa8534396425c265e5b355c6ac0aeb26cc38ea1821e98b41d8",
      "transactionIndex": "0x33",
      "blockHash": "0xfa309631be07574fb672d4cf1d2977df940753aa92b42e999427cc9f0abdac9a",
      "blockNumber": "0x1ef6d8a",
      "gasUsed": "0xc9ee",
      "effectiveGasPrice": "0xf42ad",
      "from": "0x0b3d62df33521cdce79e87586d7c1534b00ecad7",
      "to": "0xb1969c60bad7ebd8cf0d6466b6953409f0895538",
      "contractAddress": null,
      "l1BaseFeeScalar": "0x44d",
      "l1BlobBaseFee": "0x1",
      "l1BlobBaseFeeScalar": "0xa118b",
      "l1Fee": "0x58",
      "l1GasPrice": "0xd",
      "l1GasUsed": "0x640"
    },
    {
      "status": "0x1",
      "cumulativeGasUsed": "0x52f414",
      "logs": [],
      "logsBloom": "0x00000000000000000000000000000000000000000000000000000000000000000000000000000000000000000000000000000000000000000000000000000000000000000000000000000000000000000000000000000000000000000000000000000000000000000000000000000000000000000000000000000000000000000000000000000000000000000000000000000000000000000000000000000000000000000000000000000000000000000000000000000000000000000000000000000000000000000000000000000000000000000000000000000000000000000000000000000000000000000000000000000000000000000000000000000000",
      "type": "0x2",
      "transactionHash": "0xb124d3376b58d36bddc5fa53e2b982523371bb836f300da769f8276a8121580a",
      "transactionIndex": "0x39",
      "blockHash": "0x1fec7140a2e9fe1bd9c7c74cdf8ac9132a117d6305c1d144e08b2ffe76e09708",
      "blockNumber": "0x1ef6d8a",
      "gasUsed": "0xc9ee",
      "effectiveGasPrice": "0xf42ad",
      "from": "0x0b3d62df33521cdce79e87586d7c1534b00ecad7",
      "to": "0xb1969c60bad7ebd8cf0d6466b6953409f0895538",
      "contractAddress": null,
      "l1BaseFeeScalar": "0x44d",
      "l1BlobBaseFee": "0x1",
      "l1BlobBaseFeeScalar": "0xa118b",
      "l1Fee": "0x58",
      "l1GasPrice": "0xd",
      "l1GasUsed": "0x640"
    },
    {
      "status": "0x1",
      "cumulativeGasUsed": "0x53be02",
      "logs": [],
      "logsBloom": "0x00000000000000000000000000000000000000000000000000000000000000000000000000000000000000000000000000000000000000000000000000000000000000000000000000000000000000000000000000000000000000000000000000000000000000000000000000000000000000000000000000000000000000000000000000000000000000000000000000000000000000000000000000000000000000000000000000000000000000000000000000000000000000000000000000000000000000000000000000000000000000000000000000000000000000000000000000000000000000000000000000000000000000000000000000000000",
      "type": "0x2",
      "transactionHash": "0x9f83f4d90f8240ac7838daa3a0d429af9fd1568e15bd8361f4fe512be9c2f425",
      "transactionIndex": "0x3a",
      "blockHash": "0x1fec7140a2e9fe1bd9c7c74cdf8ac9132a117d6305c1d144e08b2ffe76e09708",
      "blockNumber": "0x1ef6d8a",
      "gasUsed": "0xc9ee",
      "effectiveGasPrice": "0xf42ad",
      "from": "0x0b3d62df33521cdce79e87586d7c1534b00ecad7",
      "to": "0xb1969c60bad7ebd8cf0d6466b6953409f0895538",
      "contractAddress": null,
      "l1BaseFeeScalar": "0x44d",
      "l1BlobBaseFee": "0x1",
      "l1BlobBaseFeeScalar": "0xa118b",
      "l1Fee": "0x58",
      "l1GasPrice": "0xd",
      "l1GasUsed": "0x640"
    },
    {
      "status": "0x1",
      "cumulativeGasUsed": "0x5487f0",
      "logs": [],
      "logsBloom": "0x00000000000000000000000000000000000000000000000000000000000000000000000000000000000000000000000000000000000000000000000000000000000000000000000000000000000000000000000000000000000000000000000000000000000000000000000000000000000000000000000000000000000000000000000000000000000000000000000000000000000000000000000000000000000000000000000000000000000000000000000000000000000000000000000000000000000000000000000000000000000000000000000000000000000000000000000000000000000000000000000000000000000000000000000000000000",
      "type": "0x2",
      "transactionHash": "0x0d138e0dcbef9b73a1891b52cc46d378faa97b1cef8182fcd1d083c9d8810aae",
      "transactionIndex": "0x3b",
      "blockHash": "0xfa309631be07574fb672d4cf1d2977df940753aa92b42e999427cc9f0abdac9a",
      "blockNumber": "0x1ef6d8a",
      "gasUsed": "0xc9ee",
      "effectiveGasPrice": "0xf42ad",
      "from": "0x0b3d62df33521cdce79e87586d7c1534b00ecad7",
      "to": "0xb1969c60bad7ebd8cf0d6466b6953409f0895538",
      "contractAddress": null,
      "l1BaseFeeScalar": "0x44d",
      "l1BlobBaseFee": "0x1",
      "l1BlobBaseFeeScalar": "0xa118b",
      "l1Fee": "0x58",
      "l1GasPrice": "0xd",
      "l1GasUsed": "0x640"
    },
    {
      "status": "0x1",
      "cumulativeGasUsed": "0x5551de",
      "logs": [],
      "logsBloom": "0x00000000000000000000000000000000000000000000000000000000000000000000000000000000000000000000000000000000000000000000000000000000000000000000000000000000000000000000000000000000000000000000000000000000000000000000000000000000000000000000000000000000000000000000000000000000000000000000000000000000000000000000000000000000000000000000000000000000000000000000000000000000000000000000000000000000000000000000000000000000000000000000000000000000000000000000000000000000000000000000000000000000000000000000000000000000",
      "type": "0x2",
      "transactionHash": "0x046536e8112a28a0fdebcf721d108495f8e4082281c2016fc3f79e39a3272ce5",
      "transactionIndex": "0x3c",
      "blockHash": "0xfa309631be07574fb672d4cf1d2977df940753aa92b42e999427cc9f0abdac9a",
      "blockNumber": "0x1ef6d8a",
      "gasUsed": "0xc9ee",
      "effectiveGasPrice": "0xf42ad",
      "from": "0x0b3d62df33521cdce79e87586d7c1534b00ecad7",
      "to": "0xb1969c60bad7ebd8cf0d6466b6953409f0895538",
      "contractAddress": null,
      "l1BaseFeeScalar": "0x44d",
      "l1BlobBaseFee": "0x1",
      "l1BlobBaseFeeScalar": "0xa118b",
      "l1Fee": "0x58",
      "l1GasPrice": "0xd",
      "l1GasUsed": "0x640"
    },
    {
      "status": "0x1",
      "cumulativeGasUsed": "0x561bcc",
      "logs": [],
      "logsBloom": "0x00000000000000000000000000000000000000000000000000000000000000000000000000000000000000000000000000000000000000000000000000000000000000000000000000000000000000000000000000000000000000000000000000000000000000000000000000000000000000000000000000000000000000000000000000000000000000000000000000000000000000000000000000000000000000000000000000000000000000000000000000000000000000000000000000000000000000000000000000000000000000000000000000000000000000000000000000000000000000000000000000000000000000000000000000000000",
      "type": "0x2",
      "transactionHash": "0x2b390729353c782260a8b67134d40f72c2e261de03302da4c659d104ebbb50d1",
      "transactionIndex": "0x3d",
      "blockHash": "0xfa309631be07574fb672d4cf1d2977df940753aa92b42e999427cc9f0abdac9a",
      "blockNumber": "0x1ef6d8a",
      "gasUsed": "0xc9ee",
      "effectiveGasPrice": "0xf42ad",
      "from": "0x0b3d62df33521cdce79e87586d7c1534b00ecad7",
      "to": "0xb1969c60bad7ebd8cf0d6466b6953409f0895538",
      "contractAddress": null,
      "l1BaseFeeScalar": "0x44d",
      "l1BlobBaseFee": "0x1",
      "l1BlobBaseFeeScalar": "0xa118b",
      "l1Fee": "0x58",
      "l1GasPrice": "0xd",
      "l1GasUsed": "0x640"
    },
    {
      "status": "0x1",
      "cumulativeGasUsed": "0x56e5ba",
      "logs": [],
      "logsBloom": "0x00000000000000000000000000000000000000000000000000000000000000000000000000000000000000000000000000000000000000000000000000000000000000000000000000000000000000000000000000000000000000000000000000000000000000000000000000000000000000000000000000000000000000000000000000000000000000000000000000000000000000000000000000000000000000000000000000000000000000000000000000000000000000000000000000000000000000000000000000000000000000000000000000000000000000000000000000000000000000000000000000000000000000000000000000000000",
      "type": "0x2",
      "transactionHash": "0x2e4fde2088652557f5910d5289a9acfb33c91ec9497b4f89fe2db222bd9f25f7",
      "transactionIndex": "0x3e",
      "blockHash": "0xfa309631be07574fb672d4cf1d2977df940753aa92b42e999427cc9f0abdac9a",
      "blockNumber": "0x1ef6d8a",
      "gasUsed": "0xc9ee",
      "effectiveGasPrice": "0xf42ad",
      "from": "0x0b3d62df33521cdce79e87586d7c1534b00ecad7",
      "to": "0xb1969c60bad7ebd8cf0d6466b6953409f0895538",
      "contractAddress": null,
      "l1BaseFeeScalar": "0x44d",
      "l1BlobBaseFee": "0x1",
      "l1BlobBaseFeeScalar": "0xa118b",
      "l1Fee": "0x58",
      "l1GasPrice": "0xd",
      "l1GasUsed": "0x640"
    },
    {
      "status": "0x1",
      "cumulativeGasUsed": "0x5987a3",
      "logs": [],
      "logsBloom": "0x00000000000000000000000000000000000000000000000000000000000000000000000000000000000000000000000000000000000000000000000000000000000000000000000000000000000000000000000000000000000000000000000000000000000000000000000000000000000000000000000000000000000000000000000000000000000000000000000000000000000000000000000000000000000000000000000000000000000000000000000000000000000000000000000000000000000000000000000000000000000000000000000000000000000000000000000000000000000000000000000000000000000000000000000000000000",
      "type": "0x2",
      "transactionHash": "0x4911e6da857c6e3ea1073e574de57be9fa20030901766604e09e30e8aa0e314c",
      "transactionIndex": "0x42",
      "blockHash": "0xfa309631be07574fb672d4cf1d2977df940753aa92b42e999427cc9f0abdac9a",
      "blockNumber": "0x1ef6d8a",
      "gasUsed": "0xc9ee",
      "effectiveGasPrice": "0xf42ad",
      "from": "0x0b3d62df33521cdce79e87586d7c1534b00ecad7",
      "to": "0xb1969c60bad7ebd8cf0d6466b6953409f0895538",
      "contractAddress": null,
      "l1BaseFeeScalar": "0x44d",
      "l1BlobBaseFee": "0x1",
      "l1BlobBaseFeeScalar": "0xa118b",
      "l1Fee": "0x58",
      "l1GasPrice": "0xd",
      "l1GasUsed": "0x640"
    }
  ],
  "libraries": [],
  "pending": [],
  "returns": {},
  "timestamp": 1760705013,
  "chain": 84532,
  "commit": "2325f85"
}