{
  "transactions": [
    {
      "hash": "0x5137c491cec619f01bfc2555ad455cc56fea384da959b434d8e527b488be8510",
      "transactionType": "CALL",
      "contractName": null,
      "contractAddress": "0x4af112f326638ff9f0a5564443b645f08c4ec163",
      "function": "clearKOLs()",
      "arguments": [],
      "transaction": {
        "from": "0x0b3d62df33521cdce79e87586d7c1534b00ecad7",
        "to": "0x4af112f326638ff9f0a5564443b645f08c4ec163",
        "gas": "0x1dba5",
        "value": "0x0",
        "input": "0x1540ceeb",
        "nonce": "0x5e",
        "chainId": "0x14a34"
      },
      "additionalContracts": [],
      "isFixedGasLimit": false
    },
    {
      "hash": "0x5a09a51a7e7b74a8f2bc15c54d8eff21be482c8430ea7bac796a08a88a2ba8e4",
      "transactionType": "CALL",
      "contractName": null,
      "contractAddress": "0x4af112f326638ff9f0a5564443b645f08c4ec163",
      "function": "addKOL(bytes32)",
      "arguments": [
        "0x54ee7dc2425581581c47469e5eb1f5eed4233fcbddf6c7592f1580aa348c89b4"
      ],
      "transaction": {
        "from": "0x0b3d62df33521cdce79e87586d7c1534b00ecad7",
        "to": "0x4af112f326638ff9f0a5564443b645f08c4ec163",
        "gas": "0x18902",
        "value": "0x0",
        "input": "0xf08fd6d654ee7dc2425581581c47469e5eb1f5eed4233fcbddf6c7592f1580aa348c89b4",
        "nonce": "0x5f",
        "chainId": "0x14a34"
      },
      "additionalContracts": [],
      "isFixedGasLimit": false
    },
    {
      "hash": "0x88914a23a378c2564ca77e26c79efccd3c5fa978a15744d23c32d774aad9a18f",
      "transactionType": "CALL",
      "contractName": null,
      "contractAddress": "0x4af112f326638ff9f0a5564443b645f08c4ec163",
      "function": "addKOL(bytes32)",
      "arguments": [
        "0xfa4dffc9e824f830cf7d07fc7765ba1d7b344d923dd9083258189156f4932796"
      ],
      "transaction": {
        "from": "0x0b3d62df33521cdce79e87586d7c1534b00ecad7",
        "to": "0x4af112f326638ff9f0a5564443b645f08c4ec163",
        "gas": "0x116e9",
        "value": "0x0",
        "input": "0xf08fd6d6fa4dffc9e824f830cf7d07fc7765ba1d7b344d923dd9083258189156f4932796",
        "nonce": "0x60",
        "chainId": "0x14a34"
      },
      "additionalContracts": [],
      "isFixedGasLimit": false
    },
    {
      "hash": "0x4fc66536e3e372f4fe7d1ae2a44d48571652573b88e79a5fd14dbacd158967b7",
      "transactionType": "CALL",
      "contractName": null,
      "contractAddress": "0x4af112f326638ff9f0a5564443b645f08c4ec163",
      "function": "addKOL(bytes32)",
      "arguments": [
        "0x33fd3a1a2f6025be5b2d3026fea143df162bb647c138b6d16851023d3c6518a7"
      ],
      "transaction": {
        "from": "0x0b3d62df33521cdce79e87586d7c1534b00ecad7",
        "to": "0x4af112f326638ff9f0a5564443b645f08c4ec163",
        "gas": "0x116e9",
        "value": "0x0",
        "input": "0xf08fd6d633fd3a1a2f6025be5b2d3026fea143df162bb647c138b6d16851023d3c6518a7",
        "nonce": "0x61",
        "chainId": "0x14a34"
      },
      "additionalContracts": [],
      "isFixedGasLimit": false
    },
    {
      "hash": "0x7a3e3ae0060636da5a8a528bc90bc29bcfebf58695a660914c5428bda9ac26b0",
      "transactionType": "CALL",
      "contractName": null,
      "contractAddress": "0x4af112f326638ff9f0a5564443b645f08c4ec163",
      "function": "addKOL(bytes32)",
      "arguments": [
        "0x4577b1186726aefd500341efa18943241fb9994e2e412da5cc558d28c6e52ddf"
      ],
      "transaction": {
        "from": "0x0b3d62df33521cdce79e87586d7c1534b00ecad7",
        "to": "0x4af112f326638ff9f0a5564443b645f08c4ec163",
        "gas": "0x116e9",
        "value": "0x0",
        "input": "0xf08fd6d64577b1186726aefd500341efa18943241fb9994e2e412da5cc558d28c6e52ddf",
        "nonce": "0x62",
        "chainId": "0x14a34"
      },
      "additionalContracts": [],
      "isFixedGasLimit": false
    },
    {
      "hash": "0x88509cec5a9f80149af25e281d72aedfcaf46303aa6a84890571d04812be0ef2",
      "transactionType": "CALL",
      "contractName": null,
      "contractAddress": "0x4af112f326638ff9f0a5564443b645f08c4ec163",
      "function": "addKOL(bytes32)",
      "arguments": [
        "0xcb43db8e11342c57139c6028ef0ca9ff0606bfa1218225ea9a0ccb7e42206362"
      ],
      "transaction": {
        "from": "0x0b3d62df33521cdce79e87586d7c1534b00ecad7",
        "to": "0x4af112f326638ff9f0a5564443b645f08c4ec163",
        "gas": "0x116e9",
        "value": "0x0",
        "input": "0xf08fd6d6cb43db8e11342c57139c6028ef0ca9ff0606bfa1218225ea9a0ccb7e42206362",
        "nonce": "0x63",
        "chainId": "0x14a34"
      },
      "additionalContracts": [],
      "isFixedGasLimit": false
    },
    {
      "hash": "0x9a984a0175796b05d050c1f79e1d444d5370fd410fc86064a33b5c961a7dca16",
      "transactionType": "CALL",
      "contractName": null,
      "contractAddress": "0x4af112f326638ff9f0a5564443b645f08c4ec163",
      "function": "addKOL(bytes32)",
      "arguments": [
        "0x673c01c3285d988aa04a27f5a542a4a304005c687956087d40ac2df25856dcdb"
      ],
      "transaction": {
        "from": "0x0b3d62df33521cdce79e87586d7c1534b00ecad7",
        "to": "0x4af112f326638ff9f0a5564443b645f08c4ec163",
        "gas": "0x12740",
        "value": "0x0",
        "input": "0xf08fd6d6673c01c3285d988aa04a27f5a542a4a304005c687956087d40ac2df25856dcdb",
        "nonce": "0x64",
        "chainId": "0x14a34"
      },
      "additionalContracts": [],
      "isFixedGasLimit": false
    },
    {
      "hash": "0x1110b36cca252c80d0ccd258d688b5c53d0d6589c4cd662cbe65a56b83d93683",
      "transactionType": "CALL",
      "contractName": null,
      "contractAddress": "0x4af112f326638ff9f0a5564443b645f08c4ec163",
      "function": "addKOL(bytes32)",
      "arguments": [
        "0x0524cdf42f7e19c1b50b880d9d343bed05b80f21f29ecec6cff29e9657177853"
      ],
      "transaction": {
        "from": "0x0b3d62df33521cdce79e87586d7c1534b00ecad7",
        "to": "0x4af112f326638ff9f0a5564443b645f08c4ec163",
        "gas": "0x116e9",
        "value": "0x0",
        "input": "0xf08fd6d60524cdf42f7e19c1b50b880d9d343bed05b80f21f29ecec6cff29e9657177853",
        "nonce": "0x65",
        "chainId": "0x14a34"
      },
      "additionalContracts": [],
      "isFixedGasLimit": false
    },
    {
      "hash": "0xda63cabcb91d180e1ce11c4d401ccda0b0ae9fc3836b6937610aba93a088ff68",
      "transactionType": "CALL",
      "contractName": null,
      "contractAddress": "0x4af112f326638ff9f0a5564443b645f08c4ec163",
      "function": "addKOL(bytes32)",
      "arguments": [
        "0x48c5a7987a74c243ccde734e1679bd0ec85b03ad4b0d329815fa18a928bed2ca"
      ],
      "transaction": {
        "from": "0x0b3d62df33521cdce79e87586d7c1534b00ecad7",
        "to": "0x4af112f326638ff9f0a5564443b645f08c4ec163",
        "gas": "0x116e9",
        "value": "0x0",
        "input": "0xf08fd6d648c5a7987a74c243ccde734e1679bd0ec85b03ad4b0d329815fa18a928bed2ca",
        "nonce": "0x66",
        "chainId": "0x14a34"
      },
      "additionalContracts": [],
      "isFixedGasLimit": false
    },
    {
      "hash": "0x61d9a15015a04d3af016e7cee446d7fc058ad5024a5587689684df082f316e5c",
      "transactionType": "CALL",
      "contractName": null,
      "contractAddress": "0x4af112f326638ff9f0a5564443b645f08c4ec163",
      "function": "addKOL(bytes32)",
      "arguments": [
        "0xf62eed8c614d9af05170cfd5366e70ce2b5b581277ed9bda90ee06ec1c0ac70b"
      ],
      "transaction": {
        "from": "0x0b3d62df33521cdce79e87586d7c1534b00ecad7",
        "to": "0x4af112f326638ff9f0a5564443b645f08c4ec163",
        "gas": "0x116e9",
        "value": "0x0",
        "input": "0xf08fd6d6f62eed8c614d9af05170cfd5366e70ce2b5b581277ed9bda90ee06ec1c0ac70b",
        "nonce": "0x67",
        "chainId": "0x14a34"
      },
      "additionalContracts": [],
      "isFixedGasLimit": false
    },
    {
      "hash": "0xb41fda25f82d2c016c9ea902b1eef1d754307b4cbe31b55a3d0adcccfb7b0a6c",
      "transactionType": "CALL",
      "contractName": null,
      "contractAddress": "0x4af112f326638ff9f0a5564443b645f08c4ec163",
      "function": "addKOL(bytes32)",
      "arguments": [
        "0x1607be6baa59b952f720dc10f894f0fb97723aa12c72c2f925dfbd8f301ea770"
      ],
      "transaction": {
        "from": "0x0b3d62df33521cdce79e87586d7c1534b00ecad7",
        "to": "0x4af112f326638ff9f0a5564443b645f08c4ec163",
        "gas": "0x116e9",
        "value": "0x0",
        "input": "0xf08fd6d61607be6baa59b952f720dc10f894f0fb97723aa12c72c2f925dfbd8f301ea770",
        "nonce": "0x68",
        "chainId": "0x14a34"
      },
      "additionalContracts": [],
      "isFixedGasLimit": false
    },
    {
      "hash": "0x6a3b691b2752d3069306aadd27136eda92faac9f3a21c7332076ab6cc4384d23",
      "transactionType": "CALL",
      "contractName": null,
      "contractAddress": "0x4af112f326638ff9f0a5564443b645f08c4ec163",
      "function": "addKOL(bytes32)",
      "arguments": [
        "0xc6efb078ba9e17a714af044d45caa889df54c72db5a8f519a48117964c45e811"
      ],
      "transaction": {
        "from": "0x0b3d62df33521cdce79e87586d7c1534b00ecad7",
        "to": "0x4af112f326638ff9f0a5564443b645f08c4ec163",
        "gas": "0x116e9",
        "value": "0x0",
        "input": "0xf08fd6d6c6efb078ba9e17a714af044d45caa889df54c72db5a8f519a48117964c45e811",
        "nonce": "0x69",
        "chainId": "0x14a34"
      },
      "additionalContracts": [],
      "isFixedGasLimit": false
    },
    {
      "hash": "0xbfbe879da13546a257ad21b8e827647b6b27f1a64df0cad3171de770f498f431",
      "transactionType": "CALL",
      "contractName": null,
      "contractAddress": "0x4af112f326638ff9f0a5564443b645f08c4ec163",
      "function": "addKOL(bytes32)",
      "arguments": [
        "0xbcf86f88c85a4d7c8956da3d72aa06352a87f16a97cd2c9897a07492f92a6ad2"
      ],
      "transaction": {
        "from": "0x0b3d62df33521cdce79e87586d7c1534b00ecad7",
        "to": "0x4af112f326638ff9f0a5564443b645f08c4ec163",
        "gas": "0x116e9",
        "value": "0x0",
        "input": "0xf08fd6d6bcf86f88c85a4d7c8956da3d72aa06352a87f16a97cd2c9897a07492f92a6ad2",
        "nonce": "0x6a",
        "chainId": "0x14a34"
      },
      "additionalContracts": [],
      "isFixedGasLimit": false
    },
    {
      "hash": "0x947de7012b34bf5090736036204ef5ee0e5779dd9fd9381dbdd590218c9ba022",
      "transactionType": "CALL",
      "contractName": null,
      "contractAddress": "0x4af112f326638ff9f0a5564443b645f08c4ec163",
      "function": "addKOL(bytes32)",
      "arguments": [
        "0x6dc2f619db0779da93991f96b7d19da693074782b6575cd6617f98bb4ff77bdc"
      ],
      "transaction": {
        "from": "0x0b3d62df33521cdce79e87586d7c1534b00ecad7",
        "to": "0x4af112f326638ff9f0a5564443b645f08c4ec163",
        "gas": "0x116e9",
        "value": "0x0",
        "input": "0xf08fd6d66dc2f619db0779da93991f96b7d19da693074782b6575cd6617f98bb4ff77bdc",
        "nonce": "0x6b",
        "chainId": "0x14a34"
      },
      "additionalContracts": [],
      "isFixedGasLimit": false
    },
    {
      "hash": "0xe6e93100229200c664212fa8485629ca99f4be253b9781c61bdd4bbc3d4078b4",
      "transactionType": "CALL",
      "contractName": null,
      "contractAddress": "0x4af112f326638ff9f0a5564443b645f08c4ec163",
      "function": "addKOL(bytes32)",
      "arguments": [
        "0x89a423337cdbf4041d1f104772e9b3b58f5c0141b08227b35aab83cab7e0e1ed"
      ],
      "transaction": {
        "from": "0x0b3d62df33521cdce79e87586d7c1534b00ecad7",
        "to": "0x4af112f326638ff9f0a5564443b645f08c4ec163",
        "gas": "0x116e9",
        "value": "0x0",
        "input": "0xf08fd6d689a423337cdbf4041d1f104772e9b3b58f5c0141b08227b35aab83cab7e0e1ed",
        "nonce": "0x6c",
        "chainId": "0x14a34"
      },
      "additionalContracts": [],
      "isFixedGasLimit": false
    },
    {
      "hash": "0xad042fba2ca9ac73512c5076ee70c67b3d7afce0aed1245a45cf9427f411684b",
      "transactionType": "CALL",
      "contractName": null,
      "contractAddress": "0x4af112f326638ff9f0a5564443b645f08c4ec163",
      "function": "addKOL(bytes32)",
      "arguments": [
        "0xdbbb309b2d1e68f542ca8002db4910bef497c5ad9e7e7c1168159960dd05d2e7"
      ],
      "transaction": {
        "from": "0x0b3d62df33521cdce79e87586d7c1534b00ecad7",
        "to": "0x4af112f326638ff9f0a5564443b645f08c4ec163",
        "gas": "0x116e9",
        "value": "0x0",
        "input": "0xf08fd6d6dbbb309b2d1e68f542ca8002db4910bef497c5ad9e7e7c1168159960dd05d2e7",
        "nonce": "0x6d",
        "chainId": "0x14a34"
      },
      "additionalContracts": [],
      "isFixedGasLimit": false
    }
  ],
  "receipts": [
    {
      "status": "0x1",
      "cumulativeGasUsed": "0x326cfa",
      "logs": [],
      "logsBloom": "0x00000000000000000000000000000000000000000000000000000000000000000000000000000000000000000000000000000000000000000000000000000000000000000000000000000000000000000000000000000000000000000000000000000000000000000000000000000000000000000000000000000000000000000000000000000000000000000000000000000000000000000000000000000000000000000000000000000000000000000000000000000000000000000000000000000000000000000000000000000000000000000000000000000000000000000000000000000000000000000000000000000000000000000000000000000000",
      "type": "0x2",
      "transactionHash": "0x5137c491cec619f01bfc2555ad455cc56fea384da959b434d8e527b488be8510",
      "transactionIndex": "0x1b",
      "blockHash": "0x7f5e2ba2f2f758b7cb1abd4947875df9011b997f90ddf2260436975ee72d146a",
      "blockNumber": "0x1ef6d3c",
      "gasUsed": "0x1453b",
      "effectiveGasPrice": "0xf42af",
      "from": "0x0b3d62df33521cdce79e87586d7c1534b00ecad7",
      "to": "0x4af112f326638ff9f0a5564443b645f08c4ec163",
      "contractAddress": null,
      "l1BaseFeeScalar": "0x44d",
      "l1BlobBaseFee": "0x1",
      "l1BlobBaseFeeScalar": "0xa118b",
      "l1Fee": "0x5a",
      "l1GasPrice": "0xe",
      "l1GasUsed": "0x640"
    },
    {
      "status": "0x1",
      "cumulativeGasUsed": "0x39ec88",
      "logs": [],
      "logsBloom": "0x00000000000000000000000000000000000000000000000000000000000000000000000000000000000000000000000000000000000000000000000000000000000000000000000000000000000000000000000000000000000000000000000000000000000000000000000000000000000000000000000000000000000000000000000000000000000000000000000000000000000000000000000000000000000000000000000000000000000000000000000000000000000000000000000000000000000000000000000000000000000000000000000000000000000000000000000000000000000000000000000000000000000000000000000000000000",
      "type": "0x2",
      "transactionHash": "0x5a09a51a7e7b74a8f2bc15c54d8eff21be482c8430ea7bac796a08a88a2ba8e4",
      "transactionIndex": "0x22",
      "blockHash": "0x772f5d56298de0f52cc6c1c40df2b56d0986d6099ec7b6f36e664ca8730dff0e",
      "blockNumber": "0x1ef6d3c",
      "gasUsed": "0x10cba",
      "effectiveGasPrice": "0xf42af",
      "from": "0x0b3d62df33521cdce79e87586d7c1534b00ecad7",
      "to": "0x4af112f326638ff9f0a5564443b645f08c4ec163",
      "contractAddress": null,
      "l1BaseFeeScalar": "0x44d",
      "l1BlobBaseFee": "0x1",
      "l1BlobBaseFeeScalar": "0xa118b",
      "l1Fee": "0x5a",
      "l1GasPrice": "0xe",
      "l1GasUsed": "0x640"
    },
    {
      "status": "0x1",
      "cumulativeGasUsed": "0x3ab676",
      "logs": [],
      "logsBloom": "0x00000000000000000000000000000000000000000000000000000000000000000000000000000000000000000000000000000000000000000000000000000000000000000000000000000000000000000000000000000000000000000000000000000000000000000000000000000000000000000000000000000000000000000000000000000000000000000000000000000000000000000000000000000000000000000000000000000000000000000000000000000000000000000000000000000000000000000000000000000000000000000000000000000000000000000000000000000000000000000000000000000000000000000000000000000000",
      "type": "0x2",
      "transactionHash": "0x88914a23a378c2564ca77e26c79efccd3c5fa978a15744d23c32d774aad9a18f",
      "transactionIndex": "0x23",
      "blockHash": "0x772f5d56298de0f52cc6c1c40df2b56d0986d6099ec7b6f36e664ca8730dff0e",
      "blockNumber": "0x1ef6d3c",
      "gasUsed": "0xc9ee",
      "effectiveGasPrice": "0xf42af",
      "from": "0x0b3d62df33521cdce79e87586d7c1534b00ecad7",
      "to": "0x4af112f326638ff9f0a5564443b645f08c4ec163",
      "contractAddress": null,
      "l1BaseFeeScalar": "0x44d",
      "l1BlobBaseFee": "0x1",
      "l1BlobBaseFeeScalar": "0xa118b",
      "l1Fee": "0x5a",
      "l1GasPrice": "0xe",
      "l1GasUsed": "0x640"
    },
    {
      "status": "0x1",
      "cumulativeGasUsed": "0x3b8064",
      "logs": [],
      "logsBloom": "0x00000000000000000000000000000000000000000000000000000000000000000000000000000000000000000000000000000000000000000000000000000000000000000000000000000000000000000000000000000000000000000000000000000000000000000000000000000000000000000000000000000000000000000000000000000000000000000000000000000000000000000000000000000000000000000000000000000000000000000000000000000000000000000000000000000000000000000000000000000000000000000000000000000000000000000000000000000000000000000000000000000000000000000000000000000000",
      "type": "0x2",
      "transactionHash": "0x4fc66536e3e372f4fe7d1ae2a44d48571652573b88e79a5fd14dbacd158967b7",
      "transactionIndex": "0x24",
      "blockHash": "0x772f5d56298de0f52cc6c1c40df2b56d0986d6099ec7b6f36e664ca8730dff0e",
      "blockNumber": "0x1ef6d3c",
      "gasUsed": "0xc9ee",
      "effectiveGasPrice": "0xf42af",
      "from": "0x0b3d62df33521cdce79e87586d7c1534b00ecad7",
      "to": "0x4af112f326638ff9f0a5564443b645f08c4ec163",
      "contractAddress": null,
      "l1BaseFeeScalar": "0x44d",
      "l1BlobBaseFee": "0x1",
      "l1BlobBaseFeeScalar": "0xa118b",
      "l1Fee": "0x5a",
      "l1GasPrice": "0xe",
      "l1GasUsed": "0x640"
    },
    {
      "status": "0x1",
      "cumulativeGasUsed": "0x3c4a52",
      "logs": [],
      "logsBloom": "0x00000000000000000000000000000000000000000000000000000000000000000000000000000000000000000000000000000000000000000000000000000000000000000000000000000000000000000000000000000000000000000000000000000000000000000000000000000000000000000000000000000000000000000000000000000000000000000000000000000000000000000000000000000000000000000000000000000000000000000000000000000000000000000000000000000000000000000000000000000000000000000000000000000000000000000000000000000000000000000000000000000000000000000000000000000000",
      "type": "0x2",
      "transactionHash": "0x7a3e3ae0060636da5a8a528bc90bc29bcfebf58695a660914c5428bda9ac26b0",
      "transactionIndex": "0x25",
      "blockHash": "0x772f5d56298de0f52cc6c1c40df2b56d0986d6099ec7b6f36e664ca8730dff0e",
      "blockNumber": "0x1ef6d3c",
      "gasUsed": "0xc9ee",
      "effectiveGasPrice": "0xf42af",
      "from": "0x0b3d62df33521cdce79e87586d7c1534b00ecad7",
      "to": "0x4af112f326638ff9f0a5564443b645f08c4ec163",
      "contractAddress": null,
      "l1BaseFeeScalar": "0x44d",
      "l1BlobBaseFee": "0x1",
      "l1BlobBaseFeeScalar": "0xa118b",
      "l1Fee": "0x5a",
      "l1GasPrice": "0xe",
      "l1GasUsed": "0x640"
    },
    {
      "status": "0x1",
      "cumulativeGasUsed": "0x3d1440",
      "logs": [],
      "logsBloom": "0x00000000000000000000000000000000000000000000000000000000000000000000000000000000000000000000000000000000000000000000000000000000000000000000000000000000000000000000000000000000000000000000000000000000000000000000000000000000000000000000000000000000000000000000000000000000000000000000000000000000000000000000000000000000000000000000000000000000000000000000000000000000000000000000000000000000000000000000000000000000000000000000000000000000000000000000000000000000000000000000000000000000000000000000000000000000",
      "type": "0x2",
      "transactionHash": "0x88509cec5a9f80149af25e281d72aedfcaf46303aa6a84890571d04812be0ef2",
      "transactionIndex": "0x26",
      "blockHash": "0x772f5d56298de0f52cc6c1c40df2b56d0986d6099ec7b6f36e664ca8730dff0e",
      "blockNumber": "0x1ef6d3c",
      "gasUsed": "0xc9ee",
      "effectiveGasPrice": "0xf42af",
      "from": "0x0b3d62df33521cdce79e87586d7c1534b00ecad7",
      "to": "0x4af112f326638ff9f0a5564443b645f08c4ec163",
      "contractAddress": null,
      "l1BaseFeeScalar": "0x44d",
      "l1BlobBaseFee": "0x1",
      "l1BlobBaseFeeScalar": "0xa118b",
      "l1Fee": "0x5a",
      "l1GasPrice": "0xe",
      "l1GasUsed": "0x640"
    },
    {
      "status": "0x1",
      "cumulativeGasUsed": "0x3dde22",
      "logs": [],
      "logsBloom": "0x00000000000000000000000000000000000000000000000000000000000000000000000000000000000000000000000000000000000000000000000000000000000000000000000000000000000000000000000000000000000000000000000000000000000000000000000000000000000000000000000000000000000000000000000000000000000000000000000000000000000000000000000000000000000000000000000000000000000000000000000000000000000000000000000000000000000000000000000000000000000000000000000000000000000000000000000000000000000000000000000000000000000000000000000000000000",
      "type": "0x2",
      "transactionHash": "0x9a984a0175796b05d050c1f79e1d444d5370fd410fc86064a33b5c961a7dca16",
      "transactionIndex": "0x27",
      "blockHash": "0x772f5d56298de0f52cc6c1c40df2b56d0986d6099ec7b6f36e664ca8730dff0e",
      "blockNumber": "0x1ef6d3c",
      "gasUsed": "0xc9e2",
      "effectiveGasPrice": "0xf42af",
      "from": "0x0b3d62df33521cdce79e87586d7c1534b00ecad7",
      "to": "0x4af112f326638ff9f0a5564443b645f08c4ec163",
      "contractAddress": null,
      "l1BaseFeeScalar": "0x44d",
      "l1BlobBaseFee": "0x1",
      "l1BlobBaseFeeScalar": "0xa118b",
      "l1Fee": "0x5a",
      "l1GasPrice": "0xe",
      "l1GasUsed": "0x640"
    },
    {
      "status": "0x1",
      "cumulativeGasUsed": "0x3ea810",
      "logs": [],
      "logsBloom": "0x00000000000000000000000000000000000000000000000000000000000000000000000000000000000000000000000000000000000000000000000000000000000000000000000000000000000000000000000000000000000000000000000000000000000000000000000000000000000000000000000000000000000000000000000000000000000000000000000000000000000000000000000000000000000000000000000000000000000000000000000000000000000000000000000000000000000000000000000000000000000000000000000000000000000000000000000000000000000000000000000000000000000000000000000000000000",
      "type": "0x2",
      "transactionHash": "0x1110b36cca252c80d0ccd258d688b5c53d0d6589c4cd662cbe65a56b83d93683",
      "transactionIndex": "0x28",
      "blockHash": "0x772f5d56298de0f52cc6c1c40df2b56d0986d6099ec7b6f36e664ca8730dff0e",
      "blockNumber": "0x1ef6d3c",
      "gasUsed": "0xc9ee",
      "effectiveGasPrice": "0xf42af",
      "from": "0x0b3d62df33521cdce79e87586d7c1534b00ecad7",
      "to": "0x4af112f326638ff9f0a5564443b645f08c4ec163",
      "contractAddress": null,
      "l1BaseFeeScalar": "0x44d",
      "l1BlobBaseFee": "0x1",
      "l1BlobBaseFeeScalar": "0xa118b",
      "l1Fee": "0x5a",
      "l1GasPrice": "0xe",
      "l1GasUsed": "0x640"
    },
    {
      "status": "0x1",
      "cumulativeGasUsed": "0x443478",
      "logs": [],
      "logsBloom": "0x00000000000000000000000000000000000000000000000000000000000000000000000000000000000000000000000000000000000000000000000000000000000000000000000000000000000000000000000000000000000000000000000000000000000000000000000000000000000000000000000000000000000000000000000000000000000000000000000000000000000000000000000000000000000000000000000000000000000000000000000000000000000000000000000000000000000000000000000000000000000000000000000000000000000000000000000000000000000000000000000000000000000000000000000000000000",
      "type": "0x2",
      "transactionHash": "0xda63cabcb91d180e1ce11c4d401ccda0b0ae9fc3836b6937610aba93a088ff68",
      "transactionIndex": "0x2d",
      "blockHash": "0x5712e65af4928894202da32e7ec2254c8cd4b527cc46bb77f674fd0f975b8e78",
      "blockNumber": "0x1ef6d3c",
      "gasUsed": "0xc9ee",
      "effectiveGasPrice": "0xf42af",
      "from": "0x0b3d62df33521cdce79e87586d7c1534b00ecad7",
      "to": "0x4af112f326638ff9f0a5564443b645f08c4ec163",
      "contractAddress": null,
      "l1BaseFeeScalar": "0x44d",
      "l1BlobBaseFee": "0x1",
      "l1BlobBaseFeeScalar": "0xa118b",
      "l1Fee": "0x5a",
      "l1GasPrice": "0xe",
      "l1GasUsed": "0x640"
    },
    {
      "status": "0x1",
      "cumulativeGasUsed": "0x48c448",
      "logs": [],
      "logsBloom": "0x00000000000000000000000000000000000000000000000000000000000000000000000000000000000000000000000000000000000000000000000000000000000000000000000000000000000000000000000000000000000000000000000000000000000000000000000000000000000000000000000000000000000000000000000000000000000000000000000000000000000000000000000000000000000000000000000000000000000000000000000000000000000000000000000000000000000000000000000000000000000000000000000000000000000000000000000000000000000000000000000000000000000000000000000000000000",
      "type": "0x2",
      "transactionHash": "0x61d9a15015a04d3af016e7cee446d7fc058ad5024a5587689684df082f316e5c",
      "transactionIndex": "0x34",
      "blockHash": "0x5712e65af4928894202da32e7ec2254c8cd4b527cc46bb77f674fd0f975b8e78",
      "blockNumber": "0x1ef6d3c",
      "gasUsed": "0xc9ee",
      "effectiveGasPrice": "0xf42af",
      "from": "0x0b3d62df33521cdce79e87586d7c1534b00ecad7",
      "to": "0x4af112f326638ff9f0a5564443b645f08c4ec163",
      "contractAddress": null,
      "l1BaseFeeScalar": "0x44d",
      "l1BlobBaseFee": "0x1",
      "l1BlobBaseFeeScalar": "0xa118b",
      "l1Fee": "0x5a",
      "l1GasPrice": "0xe",
      "l1GasUsed": "0x640"
    },
    {
      "status": "0x1",
      "cumulativeGasUsed": "0x4ddb23",
      "logs": [],
      "logsBloom": "0x00000000000000000000000000000000000000000000000000000000000000000000000000000000000000000000000000000000000000000000000000000000000000000000000000000000000000000000000000000000000000000000000000000000000000000000000000000000000000000000000000000000000000000000000000000000000000000000000000000000000000000000000000000000000000000000000000000000000000000000000000000000000000000000000000000000000000000000000000000000000000000000000000000000000000000000000000000000000000000000000000000000000000000000000000000000",
      "type": "0x2",
      "transactionHash": "0xb41fda25f82d2c016c9ea902b1eef1d754307b4cbe31b55a3d0adcccfb7b0a6c",
      "transactionIndex": "0x37",
      "blockHash": "0x5712e65af4928894202da32e7ec2254c8cd4b527cc46bb77f674fd0f975b8e78",
      "blockNumber": "0x1ef6d3c",
      "gasUsed": "0xc9ee",
      "effectiveGasPrice": "0xf42af",
      "from": "0x0b3d62df33521cdce79e87586d7c1534b00ecad7",
      "to": "0x4af112f326638ff9f0a5564443b645f08c4ec163",
      "contractAddress": null,
      "l1BaseFeeScalar": "0x44d",
      "l1BlobBaseFee": "0x1",
      "l1BlobBaseFeeScalar": "0xa118b",
      "l1Fee": "0x5a",
      "l1GasPrice": "0xe",
      "l1GasUsed": "0x640"
    },
    {
      "status": "0x1",
      "cumulativeGasUsed": "0x4ea511",
      "logs": [],
      "logsBloom": "0x00000000000000000000000000000000000000000000000000000000000000000000000000000000000000000000000000000000000000000000000000000000000000000000000000000000000000000000000000000000000000000000000000000000000000000000000000000000000000000000000000000000000000000000000000000000000000000000000000000000000000000000000000000000000000000000000000000000000000000000000000000000000000000000000000000000000000000000000000000000000000000000000000000000000000000000000000000000000000000000000000000000000000000000000000000000",
      "type": "0x2",
      "transactionHash": "0x6a3b691b2752d3069306aadd27136eda92faac9f3a21c7332076ab6cc4384d23",
      "transactionIndex": "0x38",
      "blockHash": "0x5712e65af4928894202da32e7ec2254c8cd4b527cc46bb77f674fd0f975b8e78",
      "blockNumber": "0x1ef6d3c",
      "gasUsed": "0xc9ee",
      "effectiveGasPrice": "0xf42af",
      "from": "0x0b3d62df33521cdce79e87586d7c1534b00ecad7",
      "to": "0x4af112f326638ff9f0a5564443b645f08c4ec163",
      "contractAddress": null,
      "l1BaseFeeScalar": "0x44d",
      "l1BlobBaseFee": "0x1",
      "l1BlobBaseFeeScalar": "0xa118b",
      "l1Fee": "0x5a",
      "l1GasPrice": "0xe",
      "l1GasUsed": "0x640"
    },
    {
      "status": "0x1",
      "cumulativeGasUsed": "0x500fe8",
      "logs": [],
      "logsBloom": "0x00000000000000000000000000000000000000000000000000000000000000000000000000000000000000000000000000000000000000000000000000000000000000000000000000000000000000000000000000000000000000000000000000000000000000000000000000000000000000000000000000000000000000000000000000000000000000000000000000000000000000000000000000000000000000000000000000000000000000000000000000000000000000000000000000000000000000000000000000000000000000000000000000000000000000000000000000000000000000000000000000000000000000000000000000000000",
      "type": "0x2",
      "transactionHash": "0xbfbe879da13546a257ad21b8e827647b6b27f1a64df0cad3171de770f498f431",
      "transactionIndex": "0x3a",
      "blockHash": "0x5712e65af4928894202da32e7ec2254c8cd4b527cc46bb77f674fd0f975b8e78",
      "blockNumber": "0x1ef6d3c",
      "gasUsed": "0xc9ee",
      "effectiveGasPrice": "0xf42af",
      "from": "0x0b3d62df33521cdce79e87586d7c1534b00ecad7",
      "to": "0x4af112f326638ff9f0a5564443b645f08c4ec163",
      "contractAddress": null,
      "l1BaseFeeScalar": "0x44d",
      "l1BlobBaseFee": "0x1",
      "l1BlobBaseFeeScalar": "0xa118b",
      "l1Fee": "0x5a",
      "l1GasPrice": "0xe",
      "l1GasUsed": "0x640"
    },
    {
      "status": "0x1",
      "cumulativeGasUsed": "0x50d9d6",
      "logs": [],
      "logsBloom": "0x00000000000000000000000000000000000000000000000000000000000000000000000000000000000000000000000000000000000000000000000000000000000000000000000000000000000000000000000000000000000000000000000000000000000000000000000000000000000000000000000000000000000000000000000000000000000000000000000000000000000000000000000000000000000000000000000000000000000000000000000000000000000000000000000000000000000000000000000000000000000000000000000000000000000000000000000000000000000000000000000000000000000000000000000000000000",
      "type": "0x2",
      "transactionHash": "0x947de7012b34bf5090736036204ef5ee0e5779dd9fd9381dbdd590218c9ba022",
      "transactionIndex": "0x3b",
      "blockHash": "0x5712e65af4928894202da32e7ec2254c8cd4b527cc46bb77f674fd0f975b8e78",
      "blockNumber": "0x1ef6d3c",
      "gasUsed": "0xc9ee",
      "effectiveGasPrice": "0xf42af",
      "from": "0x0b3d62df33521cdce79e87586d7c1534b00ecad7",
      "to": "0x4af112f326638ff9f0a5564443b645f08c4ec163",
      "contractAddress": null,
      "l1BaseFeeScalar": "0x44d",
      "l1BlobBaseFee": "0x1",
      "l1BlobBaseFeeScalar": "0xa118b",
      "l1Fee": "0x5a",
      "l1GasPrice": "0xe",
      "l1GasUsed": "0x640"
    },
    {
      "status": "0x1",
      "cumulativeGasUsed": "0x51a3c4",
      "logs": [],
      "logsBloom": "0x00000000000000000000000000000000000000000000000000000000000000000000000000000000000000000000000000000000000000000000000000000000000000000000000000000000000000000000000000000000000000000000000000000000000000000000000000000000000000000000000000000000000000000000000000000000000000000000000000000000000000000000000000000000000000000000000000000000000000000000000000000000000000000000000000000000000000000000000000000000000000000000000000000000000000000000000000000000000000000000000000000000000000000000000000000000",
      "type": "0x2",
      "transactionHash": "0xe6e93100229200c664212fa8485629ca99f4be253b9781c61bdd4bbc3d4078b4",
      "transactionIndex": "0x3c",
      "blockHash": "0x5712e65af4928894202da32e7ec2254c8cd4b527cc46bb77f674fd0f975b8e78",
      "blockNumber": "0x1ef6d3c",
      "gasUsed": "0xc9ee",
      "effectiveGasPrice": "0xf42af",
      "from": "0x0b3d62df33521cdce79e87586d7c1534b00ecad7",
      "to": "0x4af112f326638ff9f0a5564443b645f08c4ec163",
      "contractAddress": null,
      "l1BaseFeeScalar": "0x44d",
      "l1BlobBaseFee": "0x1",
      "l1BlobBaseFeeScalar": "0xa118b",
      "l1Fee": "0x5a",
      "l1GasPrice": "0xe",
      "l1GasUsed": "0x640"
    },
    {
      "status": "0x1",
      "cumulativeGasUsed": "0x54a28d",
      "logs": [],
      "logsBloom": "0x00000000000000000000000000000000000000000000000000000000000000000000000000000000000000000000000000000000000000000000000000000000000000000000000000000000000000000000000000000000000000000000000000000000000000000000000000000000000000000000000000000000000000000000000000000000000000000000000000000000000000000000000000000000000000000000000000000000000000000000000000000000000000000000000000000000000000000000000000000000000000000000000000000000000000000000000000000000000000000000000000000000000000000000000000000000",
      "type": "0x2",
      "transactionHash": "0xad042fba2ca9ac73512c5076ee70c67b3d7afce0aed1245a45cf9427f411684b",
      "transactionIndex": "0x41",
      "blockHash": "0x5712e65af4928894202da32e7ec2254c8cd4b527cc46bb77f674fd0f975b8e78",
      "blockNumber": "0x1ef6d3c",
      "gasUsed": "0xc9ee",
      "effectiveGasPrice": "0xf42af",
      "from": "0x0b3d62df33521cdce79e87586d7c1534b00ecad7",
      "to": "0x4af112f326638ff9f0a5564443b645f08c4ec163",
      "contractAddress": null,
      "l1BaseFeeScalar": "0x44d",
      "l1BlobBaseFee": "0x1",
      "l1BlobBaseFeeScalar": "0xa118b",
      "l1Fee": "0x5a",
      "l1GasPrice": "0xe",
      "l1GasUsed": "0x640"
    }
  ],
  "libraries": [],
  "pending": [],
  "returns": {},
  "timestamp": 1760704856,
  "chain": 84532,
  "commit": "2325f85"
}